{
	"Cook_Web3/Beginner_Chef/constructors/enums/enumpractise.sol": {
		"enumTest": {
			"abi": [
				{
					"inputs": [],
					"name": "defaultGob3",
					"outputs": [
						{
							"internalType": "uint256",
							"name": "",
							"type": "uint256"
						}
					],
					"stateMutability": "pure",
					"type": "function"
				},
				{
					"inputs": [],
					"name": "getClass",
					"outputs": [
						{
							"internalType": "enum enumTest.gob3Class",
							"name": "",
							"type": "uint8"
						}
					],
					"stateMutability": "view",
					"type": "function"
				},
				{
					"inputs": [],
					"name": "promaxClass",
					"outputs": [],
					"stateMutability": "nonpayable",
					"type": "function"
				}
			],
			"devdoc": {
				"kind": "dev",
				"methods": {},
				"version": 1
			},
			"evm": {
				"assembly": "    /* \"Cook_Web3/Beginner_Chef/constructors/enums/enumpractise.sol\":253:828  contract enumTest{... */\n  mstore(0x40, 0x80)\n  callvalue\n  dup1\n  iszero\n  tag_1\n  jumpi\n  0x00\n  dup1\n  revert\ntag_1:\n  pop\n  dataSize(sub_0)\n  dup1\n  dataOffset(sub_0)\n  0x00\n  codecopy\n  0x00\n  return\nstop\n\nsub_0: assembly {\n        /* \"Cook_Web3/Beginner_Chef/constructors/enums/enumpractise.sol\":253:828  contract enumTest{... */\n      mstore(0x40, 0x80)\n      callvalue\n      dup1\n      iszero\n      tag_1\n      jumpi\n      0x00\n      dup1\n      revert\n    tag_1:\n      pop\n      jumpi(tag_2, lt(calldatasize, 0x04))\n      shr(0xe0, calldataload(0x00))\n      dup1\n      0x028ab070\n      eq\n      tag_3\n      jumpi\n      dup1\n      0x57e61ea4\n      eq\n      tag_4\n      jumpi\n      dup1\n      0x9f2bb836\n      eq\n      tag_5\n      jumpi\n    tag_2:\n      0x00\n      dup1\n      revert\n        /* \"Cook_Web3/Beginner_Chef/constructors/enums/enumpractise.sol\":732:825  function defaultGob3() public pure returns(uint){... */\n    tag_3:\n      tag_6\n      tag_7\n      jump\t// in\n    tag_6:\n      mload(0x40)\n      tag_8\n      swap2\n      swap1\n      tag_9\n      jump\t// in\n    tag_8:\n      mload(0x40)\n      dup1\n      swap2\n      sub\n      swap1\n      return\n        /* \"Cook_Web3/Beginner_Chef/constructors/enums/enumpractise.sol\":594:676  function getClass() public view returns(gob3Class){... */\n    tag_4:\n      tag_10\n      tag_11\n      jump\t// in\n    tag_10:\n      mload(0x40)\n      tag_12\n      swap2\n      swap1\n      tag_13\n      jump\t// in\n    tag_12:\n      mload(0x40)\n      dup1\n      swap2\n      sub\n      swap1\n      return\n        /* \"Cook_Web3/Beginner_Chef/constructors/enums/enumpractise.sol\":448:522  function promaxClass() public {... */\n    tag_5:\n      tag_14\n      tag_15\n      jump\t// in\n    tag_14:\n      stop\n        /* \"Cook_Web3/Beginner_Chef/constructors/enums/enumpractise.sol\":732:825  function defaultGob3() public pure returns(uint){... */\n    tag_7:\n        /* \"Cook_Web3/Beginner_Chef/constructors/enums/enumpractise.sol\":775:779  uint */\n      0x00\n        /* \"Cook_Web3/Beginner_Chef/constructors/enums/enumpractise.sol\":376:392  gob3Class.NORMAL */\n      dup1\n        /* \"Cook_Web3/Beginner_Chef/constructors/enums/enumpractise.sol\":798:817  uint (defaultClass) */\n      0x02\n      dup2\n      gt\n      iszero\n      tag_17\n      jumpi\n      tag_18\n      tag_19\n      jump\t// in\n    tag_18:\n    tag_17:\n        /* \"Cook_Web3/Beginner_Chef/constructors/enums/enumpractise.sol\":791:817  return uint (defaultClass) */\n      swap1\n      pop\n        /* \"Cook_Web3/Beginner_Chef/constructors/enums/enumpractise.sol\":732:825  function defaultGob3() public pure returns(uint){... */\n      swap1\n      jump\t// out\n        /* \"Cook_Web3/Beginner_Chef/constructors/enums/enumpractise.sol\":594:676  function getClass() public view returns(gob3Class){... */\n    tag_11:\n        /* \"Cook_Web3/Beginner_Chef/constructors/enums/enumpractise.sol\":634:643  gob3Class */\n      0x00\n        /* \"Cook_Web3/Beginner_Chef/constructors/enums/enumpractise.sol\":662:668  choice */\n      dup1\n      0x00\n      swap1\n      sload\n      swap1\n      0x0100\n      exp\n      swap1\n      div\n      0xff\n      and\n        /* \"Cook_Web3/Beginner_Chef/constructors/enums/enumpractise.sol\":655:668  return choice */\n      swap1\n      pop\n        /* \"Cook_Web3/Beginner_Chef/constructors/enums/enumpractise.sol\":594:676  function getClass() public view returns(gob3Class){... */\n      swap1\n      jump\t// out\n        /* \"Cook_Web3/Beginner_Chef/constructors/enums/enumpractise.sol\":448:522  function promaxClass() public {... */\n    tag_15:\n        /* \"Cook_Web3/Beginner_Chef/constructors/enums/enumpractise.sol\":498:514  gob3Class.PROMAX */\n      0x02\n        /* \"Cook_Web3/Beginner_Chef/constructors/enums/enumpractise.sol\":489:495  choice */\n      0x00\n      dup1\n        /* \"Cook_Web3/Beginner_Chef/constructors/enums/enumpractise.sol\":489:514  choice = gob3Class.PROMAX */\n      0x0100\n      exp\n      dup2\n      sload\n      dup2\n      0xff\n      mul\n      not\n      and\n      swap1\n      dup4\n      0x02\n      dup2\n      gt\n      iszero\n      tag_22\n      jumpi\n      tag_23\n      tag_19\n      jump\t// in\n    tag_23:\n    tag_22:\n      mul\n      or\n      swap1\n      sstore\n      pop\n        /* \"Cook_Web3/Beginner_Chef/constructors/enums/enumpractise.sol\":448:522  function promaxClass() public {... */\n      jump\t// out\n        /* \"#utility.yul\":7:84   */\n    tag_24:\n        /* \"#utility.yul\":44:51   */\n      0x00\n        /* \"#utility.yul\":73:78   */\n      dup2\n        /* \"#utility.yul\":62:78   */\n      swap1\n      pop\n        /* \"#utility.yul\":7:84   */\n      swap2\n      swap1\n      pop\n      jump\t// out\n        /* \"#utility.yul\":90:208   */\n    tag_25:\n        /* \"#utility.yul\":177:201   */\n      tag_33\n        /* \"#utility.yul\":195:200   */\n      dup2\n        /* \"#utility.yul\":177:201   */\n      tag_24\n      jump\t// in\n    tag_33:\n        /* \"#utility.yul\":172:175   */\n      dup3\n        /* \"#utility.yul\":165:202   */\n      mstore\n        /* \"#utility.yul\":90:208   */\n      pop\n      pop\n      jump\t// out\n        /* \"#utility.yul\":214:436   */\n    tag_9:\n        /* \"#utility.yul\":307:311   */\n      0x00\n        /* \"#utility.yul\":345:347   */\n      0x20\n        /* \"#utility.yul\":334:343   */\n      dup3\n        /* \"#utility.yul\":330:348   */\n      add\n        /* \"#utility.yul\":322:348   */\n      swap1\n      pop\n        /* \"#utility.yul\":358:429   */\n      tag_35\n        /* \"#utility.yul\":426:427   */\n      0x00\n        /* \"#utility.yul\":415:424   */\n      dup4\n        /* \"#utility.yul\":411:428   */\n      add\n        /* \"#utility.yul\":402:408   */\n      dup5\n        /* \"#utility.yul\":358:429   */\n      tag_25\n      jump\t// in\n    tag_35:\n        /* \"#utility.yul\":214:436   */\n      swap3\n      swap2\n      pop\n      pop\n      jump\t// out\n        /* \"#utility.yul\":442:622   */\n    tag_19:\n        /* \"#utility.yul\":490:567   */\n      0x4e487b7100000000000000000000000000000000000000000000000000000000\n        /* \"#utility.yul\":487:488   */\n      0x00\n        /* \"#utility.yul\":480:568   */\n      mstore\n        /* \"#utility.yul\":587:591   */\n      0x21\n        /* \"#utility.yul\":584:585   */\n      0x04\n        /* \"#utility.yul\":577:592   */\n      mstore\n        /* \"#utility.yul\":611:615   */\n      0x24\n        /* \"#utility.yul\":608:609   */\n      0x00\n        /* \"#utility.yul\":601:616   */\n      revert\n        /* \"#utility.yul\":628:744   */\n    tag_26:\n        /* \"#utility.yul\":712:713   */\n      0x03\n        /* \"#utility.yul\":705:710   */\n      dup2\n        /* \"#utility.yul\":702:714   */\n      lt\n        /* \"#utility.yul\":692:738   */\n      tag_38\n      jumpi\n        /* \"#utility.yul\":718:736   */\n      tag_39\n      tag_19\n      jump\t// in\n    tag_39:\n        /* \"#utility.yul\":692:738   */\n    tag_38:\n        /* \"#utility.yul\":628:744   */\n      pop\n      jump\t// out\n        /* \"#utility.yul\":750:883   */\n    tag_27:\n        /* \"#utility.yul\":798:805   */\n      0x00\n        /* \"#utility.yul\":827:832   */\n      dup2\n        /* \"#utility.yul\":816:832   */\n      swap1\n      pop\n        /* \"#utility.yul\":833:877   */\n      tag_41\n        /* \"#utility.yul\":871:876   */\n      dup3\n        /* \"#utility.yul\":833:877   */\n      tag_26\n      jump\t// in\n    tag_41:\n        /* \"#utility.yul\":750:883   */\n      swap2\n      swap1\n      pop\n      jump\t// out\n        /* \"#utility.yul\":889:1022   */\n    tag_28:\n        /* \"#utility.yul\":948:957   */\n      0x00\n        /* \"#utility.yul\":981:1016   */\n      tag_43\n        /* \"#utility.yul\":1010:1015   */\n      dup3\n        /* \"#utility.yul\":981:1016   */\n      tag_27\n      jump\t// in\n    tag_43:\n        /* \"#utility.yul\":968:1016   */\n      swap1\n      pop\n        /* \"#utility.yul\":889:1022   */\n      swap2\n      swap1\n      pop\n      jump\t// out\n        /* \"#utility.yul\":1028:1177   */\n    tag_29:\n        /* \"#utility.yul\":1124:1170   */\n      tag_45\n        /* \"#utility.yul\":1164:1169   */\n      dup2\n        /* \"#utility.yul\":1124:1170   */\n      tag_28\n      jump\t// in\n    tag_45:\n        /* \"#utility.yul\":1119:1122   */\n      dup3\n        /* \"#utility.yul\":1112:1171   */\n      mstore\n        /* \"#utility.yul\":1028:1177   */\n      pop\n      pop\n      jump\t// out\n        /* \"#utility.yul\":1183:1423   */\n    tag_13:\n        /* \"#utility.yul\":1285:1289   */\n      0x00\n        /* \"#utility.yul\":1323:1325   */\n      0x20\n        /* \"#utility.yul\":1312:1321   */\n      dup3\n        /* \"#utility.yul\":1308:1326   */\n      add\n        /* \"#utility.yul\":1300:1326   */\n      swap1\n      pop\n        /* \"#utility.yul\":1336:1416   */\n      tag_47\n        /* \"#utility.yul\":1413:1414   */\n      0x00\n        /* \"#utility.yul\":1402:1411   */\n      dup4\n        /* \"#utility.yul\":1398:1415   */\n      add\n        /* \"#utility.yul\":1389:1395   */\n      dup5\n        /* \"#utility.yul\":1336:1416   */\n      tag_29\n      jump\t// in\n    tag_47:\n        /* \"#utility.yul\":1183:1423   */\n      swap3\n      swap2\n      pop\n      pop\n      jump\t// out\n\n    auxdata: 0xa26469706673582212203c7168085a65feaab47da8e77fa4bb396959537aa60cac0c55b116c388c0ce1564736f6c634300081a0033\n}\n",
				"bytecode": {
					"linkReferences": {},
					"object": "6080604052348015600e575f80fd5b506101d48061001c5f395ff3fe608060405234801561000f575f80fd5b506004361061003f575f3560e01c8063028ab0701461004357806357e61ea4146100615780639f2bb8361461007f575b5f80fd5b61004b610089565b60405161005891906100f9565b60405180910390f35b6100696100a2565b6040516100769190610185565b60405180910390f35b6100876100b6565b005b5f80600281111561009d5761009c610112565b5b905090565b5f805f9054906101000a900460ff16905090565b60025f806101000a81548160ff021916908360028111156100da576100d9610112565b5b0217905550565b5f819050919050565b6100f3816100e1565b82525050565b5f60208201905061010c5f8301846100ea565b92915050565b7f4e487b71000000000000000000000000000000000000000000000000000000005f52602160045260245ffd5b600381106101505761014f610112565b5b50565b5f8190506101608261013f565b919050565b5f61016f82610153565b9050919050565b61017f81610165565b82525050565b5f6020820190506101985f830184610176565b9291505056fea26469706673582212203c7168085a65feaab47da8e77fa4bb396959537aa60cac0c55b116c388c0ce1564736f6c634300081a0033",
					"opcodes": "PUSH1 0x80 PUSH1 0x40 MSTORE CALLVALUE DUP1 ISZERO PUSH1 0xE JUMPI PUSH0 DUP1 REVERT JUMPDEST POP PUSH2 0x1D4 DUP1 PUSH2 0x1C PUSH0 CODECOPY PUSH0 RETURN INVALID PUSH1 0x80 PUSH1 0x40 MSTORE CALLVALUE DUP1 ISZERO PUSH2 0xF JUMPI PUSH0 DUP1 REVERT JUMPDEST POP PUSH1 0x4 CALLDATASIZE LT PUSH2 0x3F JUMPI PUSH0 CALLDATALOAD PUSH1 0xE0 SHR DUP1 PUSH4 0x28AB070 EQ PUSH2 0x43 JUMPI DUP1 PUSH4 0x57E61EA4 EQ PUSH2 0x61 JUMPI DUP1 PUSH4 0x9F2BB836 EQ PUSH2 0x7F JUMPI JUMPDEST PUSH0 DUP1 REVERT JUMPDEST PUSH2 0x4B PUSH2 0x89 JUMP JUMPDEST PUSH1 0x40 MLOAD PUSH2 0x58 SWAP2 SWAP1 PUSH2 0xF9 JUMP JUMPDEST PUSH1 0x40 MLOAD DUP1 SWAP2 SUB SWAP1 RETURN JUMPDEST PUSH2 0x69 PUSH2 0xA2 JUMP JUMPDEST PUSH1 0x40 MLOAD PUSH2 0x76 SWAP2 SWAP1 PUSH2 0x185 JUMP JUMPDEST PUSH1 0x40 MLOAD DUP1 SWAP2 SUB SWAP1 RETURN JUMPDEST PUSH2 0x87 PUSH2 0xB6 JUMP JUMPDEST STOP JUMPDEST PUSH0 DUP1 PUSH1 0x2 DUP2 GT ISZERO PUSH2 0x9D JUMPI PUSH2 0x9C PUSH2 0x112 JUMP JUMPDEST JUMPDEST SWAP1 POP SWAP1 JUMP JUMPDEST PUSH0 DUP1 PUSH0 SWAP1 SLOAD SWAP1 PUSH2 0x100 EXP SWAP1 DIV PUSH1 0xFF AND SWAP1 POP SWAP1 JUMP JUMPDEST PUSH1 0x2 PUSH0 DUP1 PUSH2 0x100 EXP DUP2 SLOAD DUP2 PUSH1 0xFF MUL NOT AND SWAP1 DUP4 PUSH1 0x2 DUP2 GT ISZERO PUSH2 0xDA JUMPI PUSH2 0xD9 PUSH2 0x112 JUMP JUMPDEST JUMPDEST MUL OR SWAP1 SSTORE POP JUMP JUMPDEST PUSH0 DUP2 SWAP1 POP SWAP2 SWAP1 POP JUMP JUMPDEST PUSH2 0xF3 DUP2 PUSH2 0xE1 JUMP JUMPDEST DUP3 MSTORE POP POP JUMP JUMPDEST PUSH0 PUSH1 0x20 DUP3 ADD SWAP1 POP PUSH2 0x10C PUSH0 DUP4 ADD DUP5 PUSH2 0xEA JUMP JUMPDEST SWAP3 SWAP2 POP POP JUMP JUMPDEST PUSH32 0x4E487B7100000000000000000000000000000000000000000000000000000000 PUSH0 MSTORE PUSH1 0x21 PUSH1 0x4 MSTORE PUSH1 0x24 PUSH0 REVERT JUMPDEST PUSH1 0x3 DUP2 LT PUSH2 0x150 JUMPI PUSH2 0x14F PUSH2 0x112 JUMP JUMPDEST JUMPDEST POP JUMP JUMPDEST PUSH0 DUP2 SWAP1 POP PUSH2 0x160 DUP3 PUSH2 0x13F JUMP JUMPDEST SWAP2 SWAP1 POP JUMP JUMPDEST PUSH0 PUSH2 0x16F DUP3 PUSH2 0x153 JUMP JUMPDEST SWAP1 POP SWAP2 SWAP1 POP JUMP JUMPDEST PUSH2 0x17F DUP2 PUSH2 0x165 JUMP JUMPDEST DUP3 MSTORE POP POP JUMP JUMPDEST PUSH0 PUSH1 0x20 DUP3 ADD SWAP1 POP PUSH2 0x198 PUSH0 DUP4 ADD DUP5 PUSH2 0x176 JUMP JUMPDEST SWAP3 SWAP2 POP POP JUMP INVALID LOG2 PUSH5 0x6970667358 0x22 SLT KECCAK256 EXTCODECOPY PUSH18 0x68085A65FEAAB47DA8E77FA4BB396959537A 0xA6 0xC 0xAC 0xC SSTORE 0xB1 AND 0xC3 DUP9 0xC0 0xCE ISZERO PUSH5 0x736F6C6343 STOP ADDMOD BYTE STOP CALLER "
				},
				"gasEstimates": {
					"creation": {
						"codeDepositCost": "93600",
						"executionCost": "139",
						"totalCost": "93739"
					},
					"external": {
						"defaultGob3()": "336",
						"getClass()": "2561",
						"promaxClass()": "24451"
					}
				},
				"methodIdentifiers": {
					"defaultGob3()": "028ab070",
					"getClass()": "57e61ea4",
					"promaxClass()": "9f2bb836"
				}
			},
			"storageLayout": {
				"storage": [
					{
						"astId": 8,
						"contract": "Cook_Web3/Beginner_Chef/constructors/enums/enumpractise.sol:enumTest",
						"label": "choice",
						"offset": 0,
						"slot": "0",
						"type": "t_enum(gob3Class)5"
					}
				],
				"types": {
					"t_enum(gob3Class)5": {
						"encoding": "inplace",
						"label": "enum enumTest.gob3Class",
						"numberOfBytes": "1"
					}
				}
			},
			"userdoc": {
				"kind": "user",
				"methods": {},
				"version": 1
			}
		}
	}
}