{
	"Cook_Web3/Beginner_Chef/constructors/enums/enumpractise.sol": {
		"ShirtColor": {
			"abi": [
				{
					"inputs": [],
					"name": "colorWhite",
					"outputs": [],
					"stateMutability": "nonpayable",
					"type": "function"
				},
				{
					"inputs": [],
					"name": "getDefault",
					"outputs": [
						{
							"internalType": "enum ShirtColor.colorOfShirt",
							"name": "",
							"type": "uint8"
						}
					],
					"stateMutability": "pure",
					"type": "function"
				},
				{
					"inputs": [],
					"name": "getWhite",
					"outputs": [
						{
							"internalType": "enum ShirtColor.colorOfShirt",
							"name": "",
							"type": "uint8"
						}
					],
					"stateMutability": "view",
					"type": "function"
				}
			],
			"devdoc": {
				"kind": "dev",
				"methods": {},
				"version": 1
			},
			"evm": {
				"assembly": "    /* \"Cook_Web3/Beginner_Chef/constructors/enums/enumpractise.sol\":1150:1582  contract ShirtColor{... */\n  mstore(0x40, 0x80)\n  callvalue\n  dup1\n  iszero\n  tag_1\n  jumpi\n  0x00\n  dup1\n  revert\ntag_1:\n  pop\n  dataSize(sub_0)\n  dup1\n  dataOffset(sub_0)\n  0x00\n  codecopy\n  0x00\n  return\nstop\n\nsub_0: assembly {\n        /* \"Cook_Web3/Beginner_Chef/constructors/enums/enumpractise.sol\":1150:1582  contract ShirtColor{... */\n      mstore(0x40, 0x80)\n      callvalue\n      dup1\n      iszero\n      tag_1\n      jumpi\n      0x00\n      dup1\n      revert\n    tag_1:\n      pop\n      jumpi(tag_2, lt(calldatasize, 0x04))\n      shr(0xe0, calldataload(0x00))\n      dup1\n      0x2820e494\n      eq\n      tag_3\n      jumpi\n      dup1\n      0x3f666d09\n      eq\n      tag_4\n      jumpi\n      dup1\n      0x466858b2\n      eq\n      tag_5\n      jumpi\n    tag_2:\n      0x00\n      dup1\n      revert\n        /* \"Cook_Web3/Beginner_Chef/constructors/enums/enumpractise.sol\":1394:1479  function getWhite() public view returns(colorOfShirt){... */\n    tag_3:\n      tag_6\n      tag_7\n      jump\t// in\n    tag_6:\n      mload(0x40)\n      tag_8\n      swap2\n      swap1\n      tag_9\n      jump\t// in\n    tag_8:\n      mload(0x40)\n      dup1\n      swap2\n      sub\n      swap1\n      return\n        /* \"Cook_Web3/Beginner_Chef/constructors/enums/enumpractise.sol\":1314:1388  function colorWhite() public{... */\n    tag_4:\n      tag_10\n      tag_11\n      jump\t// in\n    tag_10:\n      stop\n        /* \"Cook_Web3/Beginner_Chef/constructors/enums/enumpractise.sol\":1485:1579  function getDefault() public pure  returns(colorOfShirt){... */\n    tag_5:\n      tag_12\n      tag_13\n      jump\t// in\n    tag_12:\n      mload(0x40)\n      tag_14\n      swap2\n      swap1\n      tag_9\n      jump\t// in\n    tag_14:\n      mload(0x40)\n      dup1\n      swap2\n      sub\n      swap1\n      return\n        /* \"Cook_Web3/Beginner_Chef/constructors/enums/enumpractise.sol\":1394:1479  function getWhite() public view returns(colorOfShirt){... */\n    tag_7:\n        /* \"Cook_Web3/Beginner_Chef/constructors/enums/enumpractise.sol\":1434:1446  colorOfShirt */\n      0x00\n        /* \"Cook_Web3/Beginner_Chef/constructors/enums/enumpractise.sol\":1465:1471  choice */\n      dup1\n      0x00\n      swap1\n      sload\n      swap1\n      0x0100\n      exp\n      swap1\n      div\n      0xff\n      and\n        /* \"Cook_Web3/Beginner_Chef/constructors/enums/enumpractise.sol\":1458:1471  return choice */\n      swap1\n      pop\n        /* \"Cook_Web3/Beginner_Chef/constructors/enums/enumpractise.sol\":1394:1479  function getWhite() public view returns(colorOfShirt){... */\n      swap1\n      jump\t// out\n        /* \"Cook_Web3/Beginner_Chef/constructors/enums/enumpractise.sol\":1314:1388  function colorWhite() public{... */\n    tag_11:\n        /* \"Cook_Web3/Beginner_Chef/constructors/enums/enumpractise.sol\":1362:1380  colorOfShirt.white */\n      0x01\n        /* \"Cook_Web3/Beginner_Chef/constructors/enums/enumpractise.sol\":1353:1359  choice */\n      0x00\n      dup1\n        /* \"Cook_Web3/Beginner_Chef/constructors/enums/enumpractise.sol\":1353:1380  choice = colorOfShirt.white */\n      0x0100\n      exp\n      dup2\n      sload\n      dup2\n      0xff\n      mul\n      not\n      and\n      swap1\n      dup4\n      0x03\n      dup2\n      gt\n      iszero\n      tag_17\n      jumpi\n      tag_18\n      tag_19\n      jump\t// in\n    tag_18:\n    tag_17:\n      mul\n      or\n      swap1\n      sstore\n      pop\n        /* \"Cook_Web3/Beginner_Chef/constructors/enums/enumpractise.sol\":1314:1388  function colorWhite() public{... */\n      jump\t// out\n        /* \"Cook_Web3/Beginner_Chef/constructors/enums/enumpractise.sol\":1485:1579  function getDefault() public pure  returns(colorOfShirt){... */\n    tag_13:\n        /* \"Cook_Web3/Beginner_Chef/constructors/enums/enumpractise.sol\":1528:1540  colorOfShirt */\n      0x00\n        /* \"Cook_Web3/Beginner_Chef/constructors/enums/enumpractise.sol\":1288:1305  colorOfShirt.blue */\n      0x03\n        /* \"Cook_Web3/Beginner_Chef/constructors/enums/enumpractise.sol\":1552:1571  return defaultColor */\n      swap1\n      pop\n        /* \"Cook_Web3/Beginner_Chef/constructors/enums/enumpractise.sol\":1485:1579  function getDefault() public pure  returns(colorOfShirt){... */\n      swap1\n      jump\t// out\n        /* \"#utility.yul\":7:187   */\n    tag_19:\n        /* \"#utility.yul\":55:132   */\n      0x4e487b7100000000000000000000000000000000000000000000000000000000\n        /* \"#utility.yul\":52:53   */\n      0x00\n        /* \"#utility.yul\":45:133   */\n      mstore\n        /* \"#utility.yul\":152:156   */\n      0x21\n        /* \"#utility.yul\":149:150   */\n      0x04\n        /* \"#utility.yul\":142:157   */\n      mstore\n        /* \"#utility.yul\":176:180   */\n      0x24\n        /* \"#utility.yul\":173:174   */\n      0x00\n        /* \"#utility.yul\":166:181   */\n      revert\n        /* \"#utility.yul\":193:313   */\n    tag_21:\n        /* \"#utility.yul\":281:282   */\n      0x04\n        /* \"#utility.yul\":274:279   */\n      dup2\n        /* \"#utility.yul\":271:283   */\n      lt\n        /* \"#utility.yul\":261:307   */\n      tag_28\n      jumpi\n        /* \"#utility.yul\":287:305   */\n      tag_29\n      tag_19\n      jump\t// in\n    tag_29:\n        /* \"#utility.yul\":261:307   */\n    tag_28:\n        /* \"#utility.yul\":193:313   */\n      pop\n      jump\t// out\n        /* \"#utility.yul\":319:460   */\n    tag_22:\n        /* \"#utility.yul\":371:378   */\n      0x00\n        /* \"#utility.yul\":400:405   */\n      dup2\n        /* \"#utility.yul\":389:405   */\n      swap1\n      pop\n        /* \"#utility.yul\":406:454   */\n      tag_31\n        /* \"#utility.yul\":448:453   */\n      dup3\n        /* \"#utility.yul\":406:454   */\n      tag_21\n      jump\t// in\n    tag_31:\n        /* \"#utility.yul\":319:460   */\n      swap2\n      swap1\n      pop\n      jump\t// out\n        /* \"#utility.yul\":466:607   */\n    tag_23:\n        /* \"#utility.yul\":529:538   */\n      0x00\n        /* \"#utility.yul\":562:601   */\n      tag_33\n        /* \"#utility.yul\":595:600   */\n      dup3\n        /* \"#utility.yul\":562:601   */\n      tag_22\n      jump\t// in\n    tag_33:\n        /* \"#utility.yul\":549:601   */\n      swap1\n      pop\n        /* \"#utility.yul\":466:607   */\n      swap2\n      swap1\n      pop\n      jump\t// out\n        /* \"#utility.yul\":613:770   */\n    tag_24:\n        /* \"#utility.yul\":713:763   */\n      tag_35\n        /* \"#utility.yul\":757:762   */\n      dup2\n        /* \"#utility.yul\":713:763   */\n      tag_23\n      jump\t// in\n    tag_35:\n        /* \"#utility.yul\":708:711   */\n      dup3\n        /* \"#utility.yul\":701:764   */\n      mstore\n        /* \"#utility.yul\":613:770   */\n      pop\n      pop\n      jump\t// out\n        /* \"#utility.yul\":776:1024   */\n    tag_9:\n        /* \"#utility.yul\":882:886   */\n      0x00\n        /* \"#utility.yul\":920:922   */\n      0x20\n        /* \"#utility.yul\":909:918   */\n      dup3\n        /* \"#utility.yul\":905:923   */\n      add\n        /* \"#utility.yul\":897:923   */\n      swap1\n      pop\n        /* \"#utility.yul\":933:1017   */\n      tag_37\n        /* \"#utility.yul\":1014:1015   */\n      0x00\n        /* \"#utility.yul\":1003:1012   */\n      dup4\n        /* \"#utility.yul\":999:1016   */\n      add\n        /* \"#utility.yul\":990:996   */\n      dup5\n        /* \"#utility.yul\":933:1017   */\n      tag_24\n      jump\t// in\n    tag_37:\n        /* \"#utility.yul\":776:1024   */\n      swap3\n      swap2\n      pop\n      pop\n      jump\t// out\n\n    auxdata: 0xa264697066735822122056a109f87728739724895dc9d136151581343107742e87556cafef844da6499b64736f6c634300081a0033\n}\n",
				"bytecode": {
					"linkReferences": {},
					"object": "6080604052348015600e575f80fd5b506101928061001c5f395ff3fe608060405234801561000f575f80fd5b506004361061003f575f3560e01c80632820e494146100435780633f666d0914610061578063466858b21461006b575b5f80fd5b61004b610089565b6040516100589190610143565b60405180910390f35b61006961009d565b005b6100736100c8565b6040516100809190610143565b60405180910390f35b5f805f9054906101000a900460ff16905090565b60015f806101000a81548160ff021916908360038111156100c1576100c06100d0565b5b0217905550565b5f6003905090565b7f4e487b71000000000000000000000000000000000000000000000000000000005f52602160045260245ffd5b6004811061010e5761010d6100d0565b5b50565b5f81905061011e826100fd565b919050565b5f61012d82610111565b9050919050565b61013d81610123565b82525050565b5f6020820190506101565f830184610134565b9291505056fea264697066735822122056a109f87728739724895dc9d136151581343107742e87556cafef844da6499b64736f6c634300081a0033",
					"opcodes": "PUSH1 0x80 PUSH1 0x40 MSTORE CALLVALUE DUP1 ISZERO PUSH1 0xE JUMPI PUSH0 DUP1 REVERT JUMPDEST POP PUSH2 0x192 DUP1 PUSH2 0x1C PUSH0 CODECOPY PUSH0 RETURN INVALID PUSH1 0x80 PUSH1 0x40 MSTORE CALLVALUE DUP1 ISZERO PUSH2 0xF JUMPI PUSH0 DUP1 REVERT JUMPDEST POP PUSH1 0x4 CALLDATASIZE LT PUSH2 0x3F JUMPI PUSH0 CALLDATALOAD PUSH1 0xE0 SHR DUP1 PUSH4 0x2820E494 EQ PUSH2 0x43 JUMPI DUP1 PUSH4 0x3F666D09 EQ PUSH2 0x61 JUMPI DUP1 PUSH4 0x466858B2 EQ PUSH2 0x6B JUMPI JUMPDEST PUSH0 DUP1 REVERT JUMPDEST PUSH2 0x4B PUSH2 0x89 JUMP JUMPDEST PUSH1 0x40 MLOAD PUSH2 0x58 SWAP2 SWAP1 PUSH2 0x143 JUMP JUMPDEST PUSH1 0x40 MLOAD DUP1 SWAP2 SUB SWAP1 RETURN JUMPDEST PUSH2 0x69 PUSH2 0x9D JUMP JUMPDEST STOP JUMPDEST PUSH2 0x73 PUSH2 0xC8 JUMP JUMPDEST PUSH1 0x40 MLOAD PUSH2 0x80 SWAP2 SWAP1 PUSH2 0x143 JUMP JUMPDEST PUSH1 0x40 MLOAD DUP1 SWAP2 SUB SWAP1 RETURN JUMPDEST PUSH0 DUP1 PUSH0 SWAP1 SLOAD SWAP1 PUSH2 0x100 EXP SWAP1 DIV PUSH1 0xFF AND SWAP1 POP SWAP1 JUMP JUMPDEST PUSH1 0x1 PUSH0 DUP1 PUSH2 0x100 EXP DUP2 SLOAD DUP2 PUSH1 0xFF MUL NOT AND SWAP1 DUP4 PUSH1 0x3 DUP2 GT ISZERO PUSH2 0xC1 JUMPI PUSH2 0xC0 PUSH2 0xD0 JUMP JUMPDEST JUMPDEST MUL OR SWAP1 SSTORE POP JUMP JUMPDEST PUSH0 PUSH1 0x3 SWAP1 POP SWAP1 JUMP JUMPDEST PUSH32 0x4E487B7100000000000000000000000000000000000000000000000000000000 PUSH0 MSTORE PUSH1 0x21 PUSH1 0x4 MSTORE PUSH1 0x24 PUSH0 REVERT JUMPDEST PUSH1 0x4 DUP2 LT PUSH2 0x10E JUMPI PUSH2 0x10D PUSH2 0xD0 JUMP JUMPDEST JUMPDEST POP JUMP JUMPDEST PUSH0 DUP2 SWAP1 POP PUSH2 0x11E DUP3 PUSH2 0xFD JUMP JUMPDEST SWAP2 SWAP1 POP JUMP JUMPDEST PUSH0 PUSH2 0x12D DUP3 PUSH2 0x111 JUMP JUMPDEST SWAP1 POP SWAP2 SWAP1 POP JUMP JUMPDEST PUSH2 0x13D DUP2 PUSH2 0x123 JUMP JUMPDEST DUP3 MSTORE POP POP JUMP JUMPDEST PUSH0 PUSH1 0x20 DUP3 ADD SWAP1 POP PUSH2 0x156 PUSH0 DUP4 ADD DUP5 PUSH2 0x134 JUMP JUMPDEST SWAP3 SWAP2 POP POP JUMP INVALID LOG2 PUSH5 0x6970667358 0x22 SLT KECCAK256 JUMP LOG1 MULMOD 0xF8 PUSH24 0x28739724895DC9D136151581343107742E87556CAFEF844D 0xA6 BLOBHASH SWAP12 PUSH5 0x736F6C6343 STOP ADDMOD BYTE STOP CALLER "
				},
				"gasEstimates": {
					"creation": {
						"codeDepositCost": "80400",
						"executionCost": "127",
						"totalCost": "80527"
					},
					"external": {
						"colorWhite()": "24429",
						"getDefault()": "448",
						"getWhite()": "2539"
					}
				},
				"methodIdentifiers": {
					"colorWhite()": "3f666d09",
					"getDefault()": "466858b2",
					"getWhite()": "2820e494"
				}
			},
			"storageLayout": {
				"storage": [
					{
						"astId": 51,
						"contract": "Cook_Web3/Beginner_Chef/constructors/enums/enumpractise.sol:ShirtColor",
						"label": "choice",
						"offset": 0,
						"slot": "0",
						"type": "t_enum(colorOfShirt)48"
					}
				],
				"types": {
					"t_enum(colorOfShirt)48": {
						"encoding": "inplace",
						"label": "enum ShirtColor.colorOfShirt",
						"numberOfBytes": "1"
					}
				}
			},
			"userdoc": {
				"kind": "user",
				"methods": {},
				"version": 1
			}
		}
	}
}