{
	"data": {
		"bytecode": {
			"linkReferences": {},
			"object": "6080604052348015600e575f80fd5b5060dd80601a5f395ff3fe6080604052348015600e575f80fd5b50600436106030575f3560e01c80630a41e8c5146034578063db0ffcd614603c575b5f80fd5b603a6044565b005b60426063565b005b603c80146052576051607a565b5b610e1080146061576060607a565b5b565b670de0b6b3a764000080146078576077607a565b5b565b7f4e487b71000000000000000000000000000000000000000000000000000000005f52600160045260245ffdfea264697066735822122035d623779a26f4382c2226053a99a7196df9523ac146dd297114cf7541864ae264736f6c634300081a0033",
			"opcodes": "PUSH1 0x80 PUSH1 0x40 MSTORE CALLVALUE DUP1 ISZERO PUSH1 0xE JUMPI PUSH0 DUP1 REVERT JUMPDEST POP PUSH1 0xDD DUP1 PUSH1 0x1A PUSH0 CODECOPY PUSH0 RETURN INVALID PUSH1 0x80 PUSH1 0x40 MSTORE CALLVALUE DUP1 ISZERO PUSH1 0xE JUMPI PUSH0 DUP1 REVERT JUMPDEST POP PUSH1 0x4 CALLDATASIZE LT PUSH1 0x30 JUMPI PUSH0 CALLDATALOAD PUSH1 0xE0 SHR DUP1 PUSH4 0xA41E8C5 EQ PUSH1 0x34 JUMPI DUP1 PUSH4 0xDB0FFCD6 EQ PUSH1 0x3C JUMPI JUMPDEST PUSH0 DUP1 REVERT JUMPDEST PUSH1 0x3A PUSH1 0x44 JUMP JUMPDEST STOP JUMPDEST PUSH1 0x42 PUSH1 0x63 JUMP JUMPDEST STOP JUMPDEST PUSH1 0x3C DUP1 EQ PUSH1 0x52 JUMPI PUSH1 0x51 PUSH1 0x7A JUMP JUMPDEST JUMPDEST PUSH2 0xE10 DUP1 EQ PUSH1 0x61 JUMPI PUSH1 0x60 PUSH1 0x7A JUMP JUMPDEST JUMPDEST JUMP JUMPDEST PUSH8 0xDE0B6B3A7640000 DUP1 EQ PUSH1 0x78 JUMPI PUSH1 0x77 PUSH1 0x7A JUMP JUMPDEST JUMPDEST JUMP JUMPDEST PUSH32 0x4E487B7100000000000000000000000000000000000000000000000000000000 PUSH0 MSTORE PUSH1 0x1 PUSH1 0x4 MSTORE PUSH1 0x24 PUSH0 REVERT INVALID LOG2 PUSH5 0x6970667358 0x22 SLT KECCAK256 CALLDATALOAD 0xD6 0x23 PUSH24 0x9A26F4382C2226053A99A7196DF9523AC146DD297114CF75 COINBASE DUP7 BLOBBASEFEE 0xE2 PUSH5 0x736F6C6343 STOP ADDMOD BYTE STOP CALLER "
		},
		"gasEstimates": {
			"creation": {
				"codeDepositCost": "44200",
				"executionCost": "91",
				"totalCost": "44291"
			},
			"external": {
				"assertTime()": "167",
				"learnUnits()": "166"
			}
		},
		"methodIdentifiers": {
			"assertTime()": "0a41e8c5",
			"learnUnits()": "db0ffcd6"
		}
	},
	"abi": [
		{
			"inputs": [],
			"name": "assertTime",
			"outputs": [],
			"stateMutability": "pure",
			"type": "function"
		},
		{
			"inputs": [],
			"name": "learnUnits",
			"outputs": [],
			"stateMutability": "pure",
			"type": "function"
		}
	]
}