{
	"Cook_Web3/Beginner_Chef/global variables/global-variables.sol": {
		"Updated": {
			"abi": [
				{
					"inputs": [],
					"name": "updateBalance",
					"outputs": [],
					"stateMutability": "nonpayable",
					"type": "function"
				}
			],
			"devdoc": {
				"kind": "dev",
				"methods": {},
				"version": 1
			},
			"evm": {
				"assembly": "    /* \"Cook_Web3/Beginner_Chef/global variables/global-variables.sol\":561:725  contract Updated{... */\n  mstore(0x40, 0x80)\n  callvalue\n  dup1\n  iszero\n  tag_1\n  jumpi\n  0x00\n  dup1\n  revert\ntag_1:\n  pop\n  dataSize(sub_0)\n  dup1\n  dataOffset(sub_0)\n  0x00\n  codecopy\n  0x00\n  return\nstop\n\nsub_0: assembly {\n        /* \"Cook_Web3/Beginner_Chef/global variables/global-variables.sol\":561:725  contract Updated{... */\n      mstore(0x40, 0x80)\n      callvalue\n      dup1\n      iszero\n      tag_1\n      jumpi\n      0x00\n      dup1\n      revert\n    tag_1:\n      pop\n      jumpi(tag_2, lt(calldatasize, 0x04))\n      shr(0xe0, calldataload(0x00))\n      dup1\n      0xa9559dd7\n      eq\n      tag_3\n      jumpi\n    tag_2:\n      0x00\n      dup1\n      revert\n        /* \"Cook_Web3/Beginner_Chef/global variables/global-variables.sol\":584:722  function updateBalance () public {... */\n    tag_3:\n      tag_4\n      tag_5\n      jump\t// in\n    tag_4:\n      stop\n    tag_5:\n        /* \"Cook_Web3/Beginner_Chef/global variables/global-variables.sol\":627:654  LedgerBalance ledgerbalance */\n      0x00\n        /* \"Cook_Web3/Beginner_Chef/global variables/global-variables.sol\":657:676  new LedgerBalance() */\n      mload(0x40)\n      tag_7\n      swap1\n      tag_8\n      jump\t// in\n    tag_7:\n      mload(0x40)\n      dup1\n      swap2\n      sub\n      swap1\n      0x00\n      create\n      dup1\n      iszero\n      dup1\n      iszero\n      tag_9\n      jumpi\n      returndatasize\n      0x00\n      dup1\n      returndatacopy\n      revert(0x00, returndatasize)\n    tag_9:\n      pop\n        /* \"Cook_Web3/Beginner_Chef/global variables/global-variables.sol\":627:676  LedgerBalance ledgerbalance = new LedgerBalance() */\n      swap1\n      pop\n        /* \"Cook_Web3/Beginner_Chef/global variables/global-variables.sol\":686:699  ledgerbalance */\n      dup1\n        /* \"Cook_Web3/Beginner_Chef/global variables/global-variables.sol\":686:709  ledgerbalance.changeBal */\n      0xffffffffffffffffffffffffffffffffffffffff\n      and\n      0x50543b17\n        /* \"Cook_Web3/Beginner_Chef/global variables/global-variables.sol\":710:712  30 */\n      0x1e\n        /* \"Cook_Web3/Beginner_Chef/global variables/global-variables.sol\":686:713  ledgerbalance.changeBal(30) */\n      mload(0x40)\n      dup3\n      0xffffffff\n      and\n      0xe0\n      shl\n      dup2\n      mstore\n      0x04\n      add\n      tag_10\n      swap2\n      swap1\n      tag_11\n      jump\t// in\n    tag_10:\n      0x00\n      mload(0x40)\n      dup1\n      dup4\n      sub\n      dup2\n      0x00\n      dup8\n      dup1\n      extcodesize\n      iszero\n      dup1\n      iszero\n      tag_12\n      jumpi\n      0x00\n      dup1\n      revert\n    tag_12:\n      pop\n      gas\n      call\n      iszero\n      dup1\n      iszero\n      tag_14\n      jumpi\n      returndatasize\n      0x00\n      dup1\n      returndatacopy\n      revert(0x00, returndatasize)\n    tag_14:\n      pop\n      pop\n      pop\n      pop\n        /* \"Cook_Web3/Beginner_Chef/global variables/global-variables.sol\":617:722  {... */\n      pop\n        /* \"Cook_Web3/Beginner_Chef/global variables/global-variables.sol\":584:722  function updateBalance () public {... */\n      jump\t// out\n    tag_8:\n      dataSize(sub_0)\n      dup1\n      dataOffset(sub_0)\n      dup4\n      codecopy\n      add\n      swap1\n      jump\t// out\n        /* \"#utility.yul\":7:93   */\n    tag_15:\n        /* \"#utility.yul\":53:60   */\n      0x00\n        /* \"#utility.yul\":82:87   */\n      dup2\n        /* \"#utility.yul\":71:87   */\n      swap1\n      pop\n        /* \"#utility.yul\":7:93   */\n      swap2\n      swap1\n      pop\n      jump\t// out\n        /* \"#utility.yul\":99:176   */\n    tag_16:\n        /* \"#utility.yul\":136:143   */\n      0x00\n        /* \"#utility.yul\":165:170   */\n      dup2\n        /* \"#utility.yul\":154:170   */\n      swap1\n      pop\n        /* \"#utility.yul\":99:176   */\n      swap2\n      swap1\n      pop\n      jump\t// out\n        /* \"#utility.yul\":182:242   */\n    tag_17:\n        /* \"#utility.yul\":210:213   */\n      0x00\n        /* \"#utility.yul\":231:236   */\n      dup2\n        /* \"#utility.yul\":224:236   */\n      swap1\n      pop\n        /* \"#utility.yul\":182:242   */\n      swap2\n      swap1\n      pop\n      jump\t// out\n        /* \"#utility.yul\":248:408   */\n    tag_18:\n        /* \"#utility.yul\":307:316   */\n      0x00\n        /* \"#utility.yul\":340:402   */\n      tag_25\n        /* \"#utility.yul\":358:401   */\n      tag_26\n        /* \"#utility.yul\":367:400   */\n      tag_27\n        /* \"#utility.yul\":394:399   */\n      dup5\n        /* \"#utility.yul\":367:400   */\n      tag_15\n      jump\t// in\n    tag_27:\n        /* \"#utility.yul\":358:401   */\n      tag_17\n      jump\t// in\n    tag_26:\n        /* \"#utility.yul\":340:402   */\n      tag_16\n      jump\t// in\n    tag_25:\n        /* \"#utility.yul\":327:402   */\n      swap1\n      pop\n        /* \"#utility.yul\":248:408   */\n      swap2\n      swap1\n      pop\n      jump\t// out\n        /* \"#utility.yul\":414:563   */\n    tag_19:\n        /* \"#utility.yul\":510:556   */\n      tag_29\n        /* \"#utility.yul\":550:555   */\n      dup2\n        /* \"#utility.yul\":510:556   */\n      tag_18\n      jump\t// in\n    tag_29:\n        /* \"#utility.yul\":505:508   */\n      dup3\n        /* \"#utility.yul\":498:557   */\n      mstore\n        /* \"#utility.yul\":414:563   */\n      pop\n      pop\n      jump\t// out\n        /* \"#utility.yul\":569:809   */\n    tag_11:\n        /* \"#utility.yul\":671:675   */\n      0x00\n        /* \"#utility.yul\":709:711   */\n      0x20\n        /* \"#utility.yul\":698:707   */\n      dup3\n        /* \"#utility.yul\":694:712   */\n      add\n        /* \"#utility.yul\":686:712   */\n      swap1\n      pop\n        /* \"#utility.yul\":722:802   */\n      tag_31\n        /* \"#utility.yul\":799:800   */\n      0x00\n        /* \"#utility.yul\":788:797   */\n      dup4\n        /* \"#utility.yul\":784:801   */\n      add\n        /* \"#utility.yul\":775:781   */\n      dup5\n        /* \"#utility.yul\":722:802   */\n      tag_19\n      jump\t// in\n    tag_31:\n        /* \"#utility.yul\":569:809   */\n      swap3\n      swap2\n      pop\n      pop\n      jump\t// out\n    stop\n\n    sub_0: assembly {\n            /* \"Cook_Web3/Beginner_Chef/global variables/global-variables.sol\":201:376  contract LedgerBalance{... */\n          mstore(0x40, 0x80)\n          callvalue\n          dup1\n          iszero\n          tag_1\n          jumpi\n          0x00\n          dup1\n          revert\n        tag_1:\n          pop\n          dataSize(sub_0)\n          dup1\n          dataOffset(sub_0)\n          0x00\n          codecopy\n          0x00\n          return\n        stop\n\n        sub_0: assembly {\n                /* \"Cook_Web3/Beginner_Chef/global variables/global-variables.sol\":201:376  contract LedgerBalance{... */\n              mstore(0x40, 0x80)\n              callvalue\n              dup1\n              iszero\n              tag_1\n              jumpi\n              0x00\n              dup1\n              revert\n            tag_1:\n              pop\n              jumpi(tag_2, lt(calldatasize, 0x04))\n              shr(0xe0, calldataload(0x00))\n              dup1\n              0x50543b17\n              eq\n              tag_3\n              jumpi\n            tag_2:\n              0x00\n              dup1\n              revert\n                /* \"Cook_Web3/Beginner_Chef/global variables/global-variables.sol\":273:371  function changeBal(uint newBalances) public {... */\n            tag_3:\n              tag_4\n              0x04\n              dup1\n              calldatasize\n              sub\n              dup2\n              add\n              swap1\n              tag_5\n              swap2\n              swap1\n              tag_6\n              jump\t// in\n            tag_5:\n              tag_7\n              jump\t// in\n            tag_4:\n              stop\n            tag_7:\n                /* \"Cook_Web3/Beginner_Chef/global variables/global-variables.sol\":352:363  newBalances */\n              dup1\n                /* \"Cook_Web3/Beginner_Chef/global variables/global-variables.sol\":328:336  balances */\n              0x00\n                /* \"Cook_Web3/Beginner_Chef/global variables/global-variables.sol\":328:349  balances[msg. sender] */\n              dup1\n                /* \"Cook_Web3/Beginner_Chef/global variables/global-variables.sol\":337:348  msg. sender */\n              caller\n                /* \"Cook_Web3/Beginner_Chef/global variables/global-variables.sol\":328:349  balances[msg. sender] */\n              0xffffffffffffffffffffffffffffffffffffffff\n              and\n              0xffffffffffffffffffffffffffffffffffffffff\n              and\n              dup2\n              mstore\n              0x20\n              add\n              swap1\n              dup2\n              mstore\n              0x20\n              add\n              0x00\n              keccak256\n                /* \"Cook_Web3/Beginner_Chef/global variables/global-variables.sol\":328:363  balances[msg. sender] = newBalances */\n              dup2\n              swap1\n              sstore\n              pop\n                /* \"Cook_Web3/Beginner_Chef/global variables/global-variables.sol\":273:371  function changeBal(uint newBalances) public {... */\n              pop\n              jump\t// out\n                /* \"#utility.yul\":88:205   */\n            tag_10:\n                /* \"#utility.yul\":197:198   */\n              0x00\n                /* \"#utility.yul\":194:195   */\n              dup1\n                /* \"#utility.yul\":187:199   */\n              revert\n                /* \"#utility.yul\":334:411   */\n            tag_12:\n                /* \"#utility.yul\":371:378   */\n              0x00\n                /* \"#utility.yul\":400:405   */\n              dup2\n                /* \"#utility.yul\":389:405   */\n              swap1\n              pop\n                /* \"#utility.yul\":334:411   */\n              swap2\n              swap1\n              pop\n              jump\t// out\n                /* \"#utility.yul\":417:539   */\n            tag_13:\n                /* \"#utility.yul\":490:514   */\n              tag_21\n                /* \"#utility.yul\":508:513   */\n              dup2\n                /* \"#utility.yul\":490:514   */\n              tag_12\n              jump\t// in\n            tag_21:\n                /* \"#utility.yul\":483:488   */\n              dup2\n                /* \"#utility.yul\":480:515   */\n              eq\n                /* \"#utility.yul\":470:533   */\n              tag_22\n              jumpi\n                /* \"#utility.yul\":529:530   */\n              0x00\n                /* \"#utility.yul\":526:527   */\n              dup1\n                /* \"#utility.yul\":519:531   */\n              revert\n                /* \"#utility.yul\":470:533   */\n            tag_22:\n                /* \"#utility.yul\":417:539   */\n              pop\n              jump\t// out\n                /* \"#utility.yul\":545:684   */\n            tag_14:\n                /* \"#utility.yul\":591:596   */\n              0x00\n                /* \"#utility.yul\":629:635   */\n              dup2\n                /* \"#utility.yul\":616:636   */\n              calldataload\n                /* \"#utility.yul\":607:636   */\n              swap1\n              pop\n                /* \"#utility.yul\":645:678   */\n              tag_24\n                /* \"#utility.yul\":672:677   */\n              dup2\n                /* \"#utility.yul\":645:678   */\n              tag_13\n              jump\t// in\n            tag_24:\n                /* \"#utility.yul\":545:684   */\n              swap3\n              swap2\n              pop\n              pop\n              jump\t// out\n                /* \"#utility.yul\":690:1019   */\n            tag_6:\n                /* \"#utility.yul\":749:755   */\n              0x00\n                /* \"#utility.yul\":798:800   */\n              0x20\n                /* \"#utility.yul\":786:795   */\n              dup3\n                /* \"#utility.yul\":777:784   */\n              dup5\n                /* \"#utility.yul\":773:796   */\n              sub\n                /* \"#utility.yul\":769:801   */\n              slt\n                /* \"#utility.yul\":766:885   */\n              iszero\n              tag_26\n              jumpi\n                /* \"#utility.yul\":804:883   */\n              tag_27\n              tag_10\n              jump\t// in\n            tag_27:\n                /* \"#utility.yul\":766:885   */\n            tag_26:\n                /* \"#utility.yul\":924:925   */\n              0x00\n                /* \"#utility.yul\":949:1002   */\n              tag_28\n                /* \"#utility.yul\":994:1001   */\n              dup5\n                /* \"#utility.yul\":985:991   */\n              dup3\n                /* \"#utility.yul\":974:983   */\n              dup6\n                /* \"#utility.yul\":970:992   */\n              add\n                /* \"#utility.yul\":949:1002   */\n              tag_14\n              jump\t// in\n            tag_28:\n                /* \"#utility.yul\":939:1002   */\n              swap2\n              pop\n                /* \"#utility.yul\":895:1012   */\n              pop\n                /* \"#utility.yul\":690:1019   */\n              swap3\n              swap2\n              pop\n              pop\n              jump\t// out\n\n            auxdata: 0xa2646970667358221220a358fb83458c3ba54d25806c615da60c80ff0f3434084ce5578d0308f1cc501364736f6c634300081a0033\n        }\n    }\n\n    auxdata: 0xa2646970667358221220800ab752a21a0c36c0d534ebd951a417012ab3ed81f202e01c789c40c6ef85b464736f6c634300081a0033\n}\n",
				"bytecode": {
					"linkReferences": {},
					"object": "6080604052348015600e575f80fd5b506102a18061001c5f395ff3fe608060405234801561000f575f80fd5b5060043610610029575f3560e01c8063a9559dd71461002d575b5f80fd5b610035610037565b005b5f604051610044906100ca565b604051809103905ff08015801561005d573d5f803e3d5ffd5b5090508073ffffffffffffffffffffffffffffffffffffffff166350543b17601e6040518263ffffffff1660e01b815260040161009a9190610122565b5f604051808303815f87803b1580156100b1575f80fd5b505af11580156100c3573d5f803e3d5ffd5b5050505050565b6101308061013c83390190565b5f819050919050565b5f819050919050565b5f819050919050565b5f61010c610107610102846100d7565b6100e9565b6100e0565b9050919050565b61011c816100f2565b82525050565b5f6020820190506101355f830184610113565b9291505056fe6080604052348015600e575f80fd5b506101148061001c5f395ff3fe6080604052348015600e575f80fd5b50600436106026575f3560e01c806350543b1714602a575b5f80fd5b60406004803603810190603c919060b8565b6042565b005b805f803373ffffffffffffffffffffffffffffffffffffffff1673ffffffffffffffffffffffffffffffffffffffff1681526020019081526020015f208190555050565b5f80fd5b5f819050919050565b609a81608a565b811460a3575f80fd5b50565b5f8135905060b2816093565b92915050565b5f6020828403121560ca5760c96086565b5b5f60d58482850160a6565b9150509291505056fea2646970667358221220a358fb83458c3ba54d25806c615da60c80ff0f3434084ce5578d0308f1cc501364736f6c634300081a0033a2646970667358221220800ab752a21a0c36c0d534ebd951a417012ab3ed81f202e01c789c40c6ef85b464736f6c634300081a0033",
					"opcodes": "PUSH1 0x80 PUSH1 0x40 MSTORE CALLVALUE DUP1 ISZERO PUSH1 0xE JUMPI PUSH0 DUP1 REVERT JUMPDEST POP PUSH2 0x2A1 DUP1 PUSH2 0x1C PUSH0 CODECOPY PUSH0 RETURN INVALID PUSH1 0x80 PUSH1 0x40 MSTORE CALLVALUE DUP1 ISZERO PUSH2 0xF JUMPI PUSH0 DUP1 REVERT JUMPDEST POP PUSH1 0x4 CALLDATASIZE LT PUSH2 0x29 JUMPI PUSH0 CALLDATALOAD PUSH1 0xE0 SHR DUP1 PUSH4 0xA9559DD7 EQ PUSH2 0x2D JUMPI JUMPDEST PUSH0 DUP1 REVERT JUMPDEST PUSH2 0x35 PUSH2 0x37 JUMP JUMPDEST STOP JUMPDEST PUSH0 PUSH1 0x40 MLOAD PUSH2 0x44 SWAP1 PUSH2 0xCA JUMP JUMPDEST PUSH1 0x40 MLOAD DUP1 SWAP2 SUB SWAP1 PUSH0 CREATE DUP1 ISZERO DUP1 ISZERO PUSH2 0x5D JUMPI RETURNDATASIZE PUSH0 DUP1 RETURNDATACOPY RETURNDATASIZE PUSH0 REVERT JUMPDEST POP SWAP1 POP DUP1 PUSH20 0xFFFFFFFFFFFFFFFFFFFFFFFFFFFFFFFFFFFFFFFF AND PUSH4 0x50543B17 PUSH1 0x1E PUSH1 0x40 MLOAD DUP3 PUSH4 0xFFFFFFFF AND PUSH1 0xE0 SHL DUP2 MSTORE PUSH1 0x4 ADD PUSH2 0x9A SWAP2 SWAP1 PUSH2 0x122 JUMP JUMPDEST PUSH0 PUSH1 0x40 MLOAD DUP1 DUP4 SUB DUP2 PUSH0 DUP8 DUP1 EXTCODESIZE ISZERO DUP1 ISZERO PUSH2 0xB1 JUMPI PUSH0 DUP1 REVERT JUMPDEST POP GAS CALL ISZERO DUP1 ISZERO PUSH2 0xC3 JUMPI RETURNDATASIZE PUSH0 DUP1 RETURNDATACOPY RETURNDATASIZE PUSH0 REVERT JUMPDEST POP POP POP POP POP JUMP JUMPDEST PUSH2 0x130 DUP1 PUSH2 0x13C DUP4 CODECOPY ADD SWAP1 JUMP JUMPDEST PUSH0 DUP2 SWAP1 POP SWAP2 SWAP1 POP JUMP JUMPDEST PUSH0 DUP2 SWAP1 POP SWAP2 SWAP1 POP JUMP JUMPDEST PUSH0 DUP2 SWAP1 POP SWAP2 SWAP1 POP JUMP JUMPDEST PUSH0 PUSH2 0x10C PUSH2 0x107 PUSH2 0x102 DUP5 PUSH2 0xD7 JUMP JUMPDEST PUSH2 0xE9 JUMP JUMPDEST PUSH2 0xE0 JUMP JUMPDEST SWAP1 POP SWAP2 SWAP1 POP JUMP JUMPDEST PUSH2 0x11C DUP2 PUSH2 0xF2 JUMP JUMPDEST DUP3 MSTORE POP POP JUMP JUMPDEST PUSH0 PUSH1 0x20 DUP3 ADD SWAP1 POP PUSH2 0x135 PUSH0 DUP4 ADD DUP5 PUSH2 0x113 JUMP JUMPDEST SWAP3 SWAP2 POP POP JUMP INVALID PUSH1 0x80 PUSH1 0x40 MSTORE CALLVALUE DUP1 ISZERO PUSH1 0xE JUMPI PUSH0 DUP1 REVERT JUMPDEST POP PUSH2 0x114 DUP1 PUSH2 0x1C PUSH0 CODECOPY PUSH0 RETURN INVALID PUSH1 0x80 PUSH1 0x40 MSTORE CALLVALUE DUP1 ISZERO PUSH1 0xE JUMPI PUSH0 DUP1 REVERT JUMPDEST POP PUSH1 0x4 CALLDATASIZE LT PUSH1 0x26 JUMPI PUSH0 CALLDATALOAD PUSH1 0xE0 SHR DUP1 PUSH4 0x50543B17 EQ PUSH1 0x2A JUMPI JUMPDEST PUSH0 DUP1 REVERT JUMPDEST PUSH1 0x40 PUSH1 0x4 DUP1 CALLDATASIZE SUB DUP2 ADD SWAP1 PUSH1 0x3C SWAP2 SWAP1 PUSH1 0xB8 JUMP JUMPDEST PUSH1 0x42 JUMP JUMPDEST STOP JUMPDEST DUP1 PUSH0 DUP1 CALLER PUSH20 0xFFFFFFFFFFFFFFFFFFFFFFFFFFFFFFFFFFFFFFFF AND PUSH20 0xFFFFFFFFFFFFFFFFFFFFFFFFFFFFFFFFFFFFFFFF AND DUP2 MSTORE PUSH1 0x20 ADD SWAP1 DUP2 MSTORE PUSH1 0x20 ADD PUSH0 KECCAK256 DUP2 SWAP1 SSTORE POP POP JUMP JUMPDEST PUSH0 DUP1 REVERT JUMPDEST PUSH0 DUP2 SWAP1 POP SWAP2 SWAP1 POP JUMP JUMPDEST PUSH1 0x9A DUP2 PUSH1 0x8A JUMP JUMPDEST DUP2 EQ PUSH1 0xA3 JUMPI PUSH0 DUP1 REVERT JUMPDEST POP JUMP JUMPDEST PUSH0 DUP2 CALLDATALOAD SWAP1 POP PUSH1 0xB2 DUP2 PUSH1 0x93 JUMP JUMPDEST SWAP3 SWAP2 POP POP JUMP JUMPDEST PUSH0 PUSH1 0x20 DUP3 DUP5 SUB SLT ISZERO PUSH1 0xCA JUMPI PUSH1 0xC9 PUSH1 0x86 JUMP JUMPDEST JUMPDEST PUSH0 PUSH1 0xD5 DUP5 DUP3 DUP6 ADD PUSH1 0xA6 JUMP JUMPDEST SWAP2 POP POP SWAP3 SWAP2 POP POP JUMP INVALID LOG2 PUSH5 0x6970667358 0x22 SLT KECCAK256 LOG3 PC 0xFB DUP4 GASLIMIT DUP13 EXTCODESIZE 0xA5 0x4D 0x25 DUP1 PUSH13 0x615DA60C80FF0F3434084CE557 DUP14 SUB ADDMOD CALL 0xCC POP SGT PUSH5 0x736F6C6343 STOP ADDMOD BYTE STOP CALLER LOG2 PUSH5 0x6970667358 0x22 SLT KECCAK256 DUP1 EXP 0xB7 MSTORE LOG2 BYTE 0xC CALLDATASIZE 0xC0 0xD5 CALLVALUE 0xEB 0xD9 MLOAD LOG4 OR ADD 0x2A 0xB3 0xED DUP2 CALLCODE MUL 0xE0 SHR PUSH25 0x9C40C6EF85B464736F6C634300081A00330000000000000000 "
				},
				"gasEstimates": {
					"creation": {
						"codeDepositCost": "134600",
						"executionCost": "181",
						"totalCost": "134781"
					},
					"external": {
						"updateBalance()": "infinite"
					}
				},
				"methodIdentifiers": {
					"updateBalance()": "a9559dd7"
				}
			},
			"storageLayout": {
				"storage": [],
				"types": null
			},
			"userdoc": {
				"kind": "user",
				"methods": {},
				"version": 1
			}
		}
	}
}