{
	"Cook_Web3/Beginner_Chef/bits and units/ether units/ether-units.sol": {
		"etherUnits": {
			"abi": [
				{
					"inputs": [],
					"name": "learnUnits",
					"outputs": [],
					"stateMutability": "pure",
					"type": "function"
				}
			],
			"devdoc": {
				"kind": "dev",
				"methods": {},
				"version": 1
			},
			"evm": {
				"assembly": "    /* \"Cook_Web3/Beginner_Chef/bits and units/ether units/ether-units.sol\":195:393  contract etherUnits{... */\n  mstore(0x40, 0x80)\n  callvalue\n  dup1\n  iszero\n  tag_1\n  jumpi\n  0x00\n  dup1\n  revert\ntag_1:\n  pop\n  dataSize(sub_0)\n  dup1\n  dataOffset(sub_0)\n  0x00\n  codecopy\n  0x00\n  return\nstop\n\nsub_0: assembly {\n        /* \"Cook_Web3/Beginner_Chef/bits and units/ether units/ether-units.sol\":195:393  contract etherUnits{... */\n      mstore(0x40, 0x80)\n      callvalue\n      dup1\n      iszero\n      tag_1\n      jumpi\n      0x00\n      dup1\n      revert\n    tag_1:\n      pop\n      jumpi(tag_2, lt(calldatasize, 0x04))\n      shr(0xe0, calldataload(0x00))\n      dup1\n      0xdb0ffcd6\n      eq\n      tag_3\n      jumpi\n    tag_2:\n      0x00\n      dup1\n      revert\n        /* \"Cook_Web3/Beginner_Chef/bits and units/ether units/ether-units.sol\":311:390  function learnUnits() public pure{... */\n    tag_3:\n      tag_4\n      tag_5\n      jump\t// in\n    tag_4:\n      stop\n    tag_5:\n        /* \"Cook_Web3/Beginner_Chef/bits and units/ether units/ether-units.sol\":373:381  1e18 wei */\n      0x0de0b6b3a7640000\n        /* \"Cook_Web3/Beginner_Chef/bits and units/ether units/ether-units.sol\":362:369  1 ether */\n      dup1\n        /* \"Cook_Web3/Beginner_Chef/bits and units/ether units/ether-units.sol\":362:381  1 ether == 1e18 wei */\n      eq\n        /* \"Cook_Web3/Beginner_Chef/bits and units/ether units/ether-units.sol\":355:382  assert(1 ether == 1e18 wei) */\n      tag_7\n      jumpi\n      tag_8\n      tag_9\n      jump\t// in\n    tag_8:\n    tag_7:\n        /* \"Cook_Web3/Beginner_Chef/bits and units/ether units/ether-units.sol\":311:390  function learnUnits() public pure{... */\n      jump\t// out\n        /* \"#utility.yul\":7:187   */\n    tag_9:\n        /* \"#utility.yul\":55:132   */\n      0x4e487b7100000000000000000000000000000000000000000000000000000000\n        /* \"#utility.yul\":52:53   */\n      0x00\n        /* \"#utility.yul\":45:133   */\n      mstore\n        /* \"#utility.yul\":152:156   */\n      0x01\n        /* \"#utility.yul\":149:150   */\n      0x04\n        /* \"#utility.yul\":142:157   */\n      mstore\n        /* \"#utility.yul\":176:180   */\n      0x24\n        /* \"#utility.yul\":173:174   */\n      0x00\n        /* \"#utility.yul\":166:181   */\n      revert\n\n    auxdata: 0xa264697066735822122055d2a033bd43815f3904e0995c06032a0819074e55e35b625162c7e836fb7cb964736f6c634300081a0033\n}\n",
				"bytecode": {
					"linkReferences": {},
					"object": "6080604052348015600e575f80fd5b5060ac80601a5f395ff3fe6080604052348015600e575f80fd5b50600436106026575f3560e01c8063db0ffcd614602a575b5f80fd5b60306032565b005b670de0b6b3a7640000801460475760466049565b5b565b7f4e487b71000000000000000000000000000000000000000000000000000000005f52600160045260245ffdfea264697066735822122055d2a033bd43815f3904e0995c06032a0819074e55e35b625162c7e836fb7cb964736f6c634300081a0033",
					"opcodes": "PUSH1 0x80 PUSH1 0x40 MSTORE CALLVALUE DUP1 ISZERO PUSH1 0xE JUMPI PUSH0 DUP1 REVERT JUMPDEST POP PUSH1 0xAC DUP1 PUSH1 0x1A PUSH0 CODECOPY PUSH0 RETURN INVALID PUSH1 0x80 PUSH1 0x40 MSTORE CALLVALUE DUP1 ISZERO PUSH1 0xE JUMPI PUSH0 DUP1 REVERT JUMPDEST POP PUSH1 0x4 CALLDATASIZE LT PUSH1 0x26 JUMPI PUSH0 CALLDATALOAD PUSH1 0xE0 SHR DUP1 PUSH4 0xDB0FFCD6 EQ PUSH1 0x2A JUMPI JUMPDEST PUSH0 DUP1 REVERT JUMPDEST PUSH1 0x30 PUSH1 0x32 JUMP JUMPDEST STOP JUMPDEST PUSH8 0xDE0B6B3A7640000 DUP1 EQ PUSH1 0x47 JUMPI PUSH1 0x46 PUSH1 0x49 JUMP JUMPDEST JUMPDEST JUMP JUMPDEST PUSH32 0x4E487B7100000000000000000000000000000000000000000000000000000000 PUSH0 MSTORE PUSH1 0x1 PUSH1 0x4 MSTORE PUSH1 0x24 PUSH0 REVERT INVALID LOG2 PUSH5 0x6970667358 0x22 SLT KECCAK256 SSTORE 0xD2 LOG0 CALLER 0xBD NUMBER DUP2 PUSH0 CODECOPY DIV 0xE0 SWAP10 TLOAD MOD SUB 0x2A ADDMOD NOT SMOD 0x4E SSTORE 0xE3 JUMPDEST PUSH3 0x5162C7 0xE8 CALLDATASIZE 0xFB PUSH29 0xB964736F6C634300081A00330000000000000000000000000000000000 "
				},
				"gasEstimates": {
					"creation": {
						"codeDepositCost": "34400",
						"executionCost": "85",
						"totalCost": "34485"
					},
					"external": {
						"learnUnits()": "144"
					}
				},
				"methodIdentifiers": {
					"learnUnits()": "db0ffcd6"
				}
			},
			"storageLayout": {
				"storage": [],
				"types": null
			},
			"userdoc": {
				"kind": "user",
				"methods": {},
				"version": 1
			}
		}
	}
}