{
	"Cook_Web3/Beginner_Chef/structs/structs.sol": {
		"structTest": {
			"abi": [
				{
					"inputs": [],
					"name": "getMovieDate",
					"outputs": [
						{
							"internalType": "uint256",
							"name": "",
							"type": "uint256"
						}
					],
					"stateMutability": "view",
					"type": "function"
				},
				{
					"inputs": [],
					"name": "getMovieInfo",
					"outputs": [
						{
							"internalType": "bool",
							"name": "",
							"type": "bool"
						}
					],
					"stateMutability": "view",
					"type": "function"
				},
				{
					"inputs": [],
					"name": "setMovie",
					"outputs": [],
					"stateMutability": "nonpayable",
					"type": "function"
				}
			],
			"devdoc": {
				"kind": "dev",
				"methods": {},
				"version": 1
			},
			"evm": {
				"assembly": "    /* \"Cook_Web3/Beginner_Chef/structs/structs.sol\":125:947  contract structTest{... */\n  mstore(0x40, 0x80)\n  callvalue\n  dup1\n  iszero\n  tag_1\n  jumpi\n  0x00\n  dup1\n  revert\ntag_1:\n  pop\n  dataSize(sub_0)\n  dup1\n  dataOffset(sub_0)\n  0x00\n  codecopy\n  0x00\n  return\nstop\n\nsub_0: assembly {\n        /* \"Cook_Web3/Beginner_Chef/structs/structs.sol\":125:947  contract structTest{... */\n      mstore(0x40, 0x80)\n      callvalue\n      dup1\n      iszero\n      tag_1\n      jumpi\n      0x00\n      dup1\n      revert\n    tag_1:\n      pop\n      jumpi(tag_2, lt(calldatasize, 0x04))\n      shr(0xe0, calldataload(0x00))\n      dup1\n      0x03cfa458\n      eq\n      tag_3\n      jumpi\n      dup1\n      0x5b8612db\n      eq\n      tag_4\n      jumpi\n      dup1\n      0xf6bb33b1\n      eq\n      tag_5\n      jumpi\n    tag_2:\n      0x00\n      dup1\n      revert\n        /* \"Cook_Web3/Beginner_Chef/structs/structs.sol\":843:939  function getMovieDate() public view returns(uint){... */\n    tag_3:\n      tag_6\n      tag_7\n      jump\t// in\n    tag_6:\n      mload(0x40)\n      tag_8\n      swap2\n      swap1\n      tag_9\n      jump\t// in\n    tag_8:\n      mload(0x40)\n      dup1\n      swap2\n      sub\n      swap1\n      return\n        /* \"Cook_Web3/Beginner_Chef/structs/structs.sol\":747:836  function getMovieInfo() public view returns(bool){... */\n    tag_4:\n      tag_10\n      tag_11\n      jump\t// in\n    tag_10:\n      mload(0x40)\n      tag_12\n      swap2\n      swap1\n      tag_13\n      jump\t// in\n    tag_12:\n      mload(0x40)\n      dup1\n      swap2\n      sub\n      swap1\n      return\n        /* \"Cook_Web3/Beginner_Chef/structs/structs.sol\":491:687  function setMovie() public{... */\n    tag_5:\n      tag_14\n      tag_15\n      jump\t// in\n    tag_14:\n      stop\n        /* \"Cook_Web3/Beginner_Chef/structs/structs.sol\":843:939  function getMovieDate() public view returns(uint){... */\n    tag_7:\n        /* \"Cook_Web3/Beginner_Chef/structs/structs.sol\":887:891  uint */\n      0x00\n        /* \"Cook_Web3/Beginner_Chef/structs/structs.sol\":911:917  comedy */\n      0x06\n        /* \"Cook_Web3/Beginner_Chef/structs/structs.sol\":911:931  comedy.DateOfRelease */\n      0x02\n      add\n      sload\n        /* \"Cook_Web3/Beginner_Chef/structs/structs.sol\":903:931  return  comedy.DateOfRelease */\n      swap1\n      pop\n        /* \"Cook_Web3/Beginner_Chef/structs/structs.sol\":843:939  function getMovieDate() public view returns(uint){... */\n      swap1\n      jump\t// out\n        /* \"Cook_Web3/Beginner_Chef/structs/structs.sol\":747:836  function getMovieInfo() public view returns(bool){... */\n    tag_11:\n        /* \"Cook_Web3/Beginner_Chef/structs/structs.sol\":791:795  bool */\n      0x00\n        /* \"Cook_Web3/Beginner_Chef/structs/structs.sol\":815:820  movie */\n      dup1\n        /* \"Cook_Web3/Beginner_Chef/structs/structs.sol\":815:828  movie.spinOff */\n      0x05\n      add\n      0x00\n      swap1\n      sload\n      swap1\n      0x0100\n      exp\n      swap1\n      div\n      0xff\n      and\n        /* \"Cook_Web3/Beginner_Chef/structs/structs.sol\":807:828  return  movie.spinOff */\n      swap1\n      pop\n        /* \"Cook_Web3/Beginner_Chef/structs/structs.sol\":747:836  function getMovieInfo() public view returns(bool){... */\n      swap1\n      jump\t// out\n        /* \"Cook_Web3/Beginner_Chef/structs/structs.sol\":491:687  function setMovie() public{... */\n    tag_15:\n        /* \"Cook_Web3/Beginner_Chef/structs/structs.sol\":536:599  Movie('BlueLock','Ego Sempachi', 2024, 1000000, 'Japan', false) */\n      mload(0x40)\n      dup1\n      0xc0\n      add\n      0x40\n      mstore\n      dup1\n      mload(0x40)\n      dup1\n      0x40\n      add\n      0x40\n      mstore\n      dup1\n      0x08\n      dup2\n      mstore\n      0x20\n      add\n      0x426c75654c6f636b000000000000000000000000000000000000000000000000\n      dup2\n      mstore\n      pop\n      dup2\n      mstore\n      0x20\n      add\n      mload(0x40)\n      dup1\n      0x40\n      add\n      0x40\n      mstore\n      dup1\n      0x0c\n      dup2\n      mstore\n      0x20\n      add\n      0x45676f2053656d70616368690000000000000000000000000000000000000000\n      dup2\n      mstore\n      pop\n      dup2\n      mstore\n      0x20\n      add\n        /* \"Cook_Web3/Beginner_Chef/structs/structs.sol\":569:573  2024 */\n      0x07e8\n        /* \"Cook_Web3/Beginner_Chef/structs/structs.sol\":536:599  Movie('BlueLock','Ego Sempachi', 2024, 1000000, 'Japan', false) */\n      dup2\n      mstore\n      0x20\n      add\n        /* \"Cook_Web3/Beginner_Chef/structs/structs.sol\":575:582  1000000 */\n      0x0f4240\n        /* \"Cook_Web3/Beginner_Chef/structs/structs.sol\":536:599  Movie('BlueLock','Ego Sempachi', 2024, 1000000, 'Japan', false) */\n      dup2\n      mstore\n      0x20\n      add\n      mload(0x40)\n      dup1\n      0x40\n      add\n      0x40\n      mstore\n      dup1\n      0x05\n      dup2\n      mstore\n      0x20\n      add\n      0x4a6170616e000000000000000000000000000000000000000000000000000000\n      dup2\n      mstore\n      pop\n      dup2\n      mstore\n      0x20\n      add\n        /* \"Cook_Web3/Beginner_Chef/structs/structs.sol\":593:598  false */\n      0x00\n        /* \"Cook_Web3/Beginner_Chef/structs/structs.sol\":536:599  Movie('BlueLock','Ego Sempachi', 2024, 1000000, 'Japan', false) */\n      iszero\n      iszero\n      dup2\n      mstore\n      pop\n        /* \"Cook_Web3/Beginner_Chef/structs/structs.sol\":528:533  movie */\n      0x00\n        /* \"Cook_Web3/Beginner_Chef/structs/structs.sol\":528:599  movie = Movie('BlueLock','Ego Sempachi', 2024, 1000000, 'Japan', false) */\n      dup1\n      dup3\n      add\n      mload\n      dup2\n      0x00\n      add\n      swap1\n      dup2\n      tag_19\n      swap2\n      swap1\n      tag_20\n      jump\t// in\n    tag_19:\n      pop\n      0x20\n      dup3\n      add\n      mload\n      dup2\n      0x01\n      add\n      swap1\n      dup2\n      tag_21\n      swap2\n      swap1\n      tag_20\n      jump\t// in\n    tag_21:\n      pop\n      0x40\n      dup3\n      add\n      mload\n      dup2\n      0x02\n      add\n      sstore\n      0x60\n      dup3\n      add\n      mload\n      dup2\n      0x03\n      add\n      sstore\n      0x80\n      dup3\n      add\n      mload\n      dup2\n      0x04\n      add\n      swap1\n      dup2\n      tag_22\n      swap2\n      swap1\n      tag_20\n      jump\t// in\n    tag_22:\n      pop\n      0xa0\n      dup3\n      add\n      mload\n      dup2\n      0x05\n      add\n      exp(0x0100, 0x00)\n      dup2\n      sload\n      dup2\n      0xff\n      mul\n      not\n      and\n      swap1\n      dup4\n      iszero\n      iszero\n      mul\n      or\n      swap1\n      sstore\n      pop\n      swap1\n      pop\n      pop\n        /* \"Cook_Web3/Beginner_Chef/structs/structs.sol\":622:678  Movie('Pandas', 'MewTwo', 2000, 5000000, 'America',true) */\n      mload(0x40)\n      dup1\n      0xc0\n      add\n      0x40\n      mstore\n      dup1\n      mload(0x40)\n      dup1\n      0x40\n      add\n      0x40\n      mstore\n      dup1\n      0x06\n      dup2\n      mstore\n      0x20\n      add\n      0x50616e6461730000000000000000000000000000000000000000000000000000\n      dup2\n      mstore\n      pop\n      dup2\n      mstore\n      0x20\n      add\n      mload(0x40)\n      dup1\n      0x40\n      add\n      0x40\n      mstore\n      dup1\n      0x06\n      dup2\n      mstore\n      0x20\n      add\n      0x4d657754776f0000000000000000000000000000000000000000000000000000\n      dup2\n      mstore\n      pop\n      dup2\n      mstore\n      0x20\n      add\n        /* \"Cook_Web3/Beginner_Chef/structs/structs.sol\":648:652  2000 */\n      0x07d0\n        /* \"Cook_Web3/Beginner_Chef/structs/structs.sol\":622:678  Movie('Pandas', 'MewTwo', 2000, 5000000, 'America',true) */\n      dup2\n      mstore\n      0x20\n      add\n        /* \"Cook_Web3/Beginner_Chef/structs/structs.sol\":654:661  5000000 */\n      0x4c4b40\n        /* \"Cook_Web3/Beginner_Chef/structs/structs.sol\":622:678  Movie('Pandas', 'MewTwo', 2000, 5000000, 'America',true) */\n      dup2\n      mstore\n      0x20\n      add\n      mload(0x40)\n      dup1\n      0x40\n      add\n      0x40\n      mstore\n      dup1\n      0x07\n      dup2\n      mstore\n      0x20\n      add\n      0x416d657269636100000000000000000000000000000000000000000000000000\n      dup2\n      mstore\n      pop\n      dup2\n      mstore\n      0x20\n      add\n        /* \"Cook_Web3/Beginner_Chef/structs/structs.sol\":673:677  true */\n      0x01\n        /* \"Cook_Web3/Beginner_Chef/structs/structs.sol\":622:678  Movie('Pandas', 'MewTwo', 2000, 5000000, 'America',true) */\n      iszero\n      iszero\n      dup2\n      mstore\n      pop\n        /* \"Cook_Web3/Beginner_Chef/structs/structs.sol\":613:619  comedy */\n      0x06\n        /* \"Cook_Web3/Beginner_Chef/structs/structs.sol\":613:678  comedy = Movie('Pandas', 'MewTwo', 2000, 5000000, 'America',true) */\n      0x00\n      dup3\n      add\n      mload\n      dup2\n      0x00\n      add\n      swap1\n      dup2\n      tag_23\n      swap2\n      swap1\n      tag_20\n      jump\t// in\n    tag_23:\n      pop\n      0x20\n      dup3\n      add\n      mload\n      dup2\n      0x01\n      add\n      swap1\n      dup2\n      tag_24\n      swap2\n      swap1\n      tag_20\n      jump\t// in\n    tag_24:\n      pop\n      0x40\n      dup3\n      add\n      mload\n      dup2\n      0x02\n      add\n      sstore\n      0x60\n      dup3\n      add\n      mload\n      dup2\n      0x03\n      add\n      sstore\n      0x80\n      dup3\n      add\n      mload\n      dup2\n      0x04\n      add\n      swap1\n      dup2\n      tag_25\n      swap2\n      swap1\n      tag_20\n      jump\t// in\n    tag_25:\n      pop\n      0xa0\n      dup3\n      add\n      mload\n      dup2\n      0x05\n      add\n      exp(0x0100, 0x00)\n      dup2\n      sload\n      dup2\n      0xff\n      mul\n      not\n      and\n      swap1\n      dup4\n      iszero\n      iszero\n      mul\n      or\n      swap1\n      sstore\n      pop\n      swap1\n      pop\n      pop\n        /* \"Cook_Web3/Beginner_Chef/structs/structs.sol\":491:687  function setMovie() public{... */\n      jump\t// out\n        /* \"#utility.yul\":7:84   */\n    tag_26:\n        /* \"#utility.yul\":44:51   */\n      0x00\n        /* \"#utility.yul\":73:78   */\n      dup2\n        /* \"#utility.yul\":62:78   */\n      swap1\n      pop\n        /* \"#utility.yul\":7:84   */\n      swap2\n      swap1\n      pop\n      jump\t// out\n        /* \"#utility.yul\":90:208   */\n    tag_27:\n        /* \"#utility.yul\":177:201   */\n      tag_52\n        /* \"#utility.yul\":195:200   */\n      dup2\n        /* \"#utility.yul\":177:201   */\n      tag_26\n      jump\t// in\n    tag_52:\n        /* \"#utility.yul\":172:175   */\n      dup3\n        /* \"#utility.yul\":165:202   */\n      mstore\n        /* \"#utility.yul\":90:208   */\n      pop\n      pop\n      jump\t// out\n        /* \"#utility.yul\":214:436   */\n    tag_9:\n        /* \"#utility.yul\":307:311   */\n      0x00\n        /* \"#utility.yul\":345:347   */\n      0x20\n        /* \"#utility.yul\":334:343   */\n      dup3\n        /* \"#utility.yul\":330:348   */\n      add\n        /* \"#utility.yul\":322:348   */\n      swap1\n      pop\n        /* \"#utility.yul\":358:429   */\n      tag_54\n        /* \"#utility.yul\":426:427   */\n      0x00\n        /* \"#utility.yul\":415:424   */\n      dup4\n        /* \"#utility.yul\":411:428   */\n      add\n        /* \"#utility.yul\":402:408   */\n      dup5\n        /* \"#utility.yul\":358:429   */\n      tag_27\n      jump\t// in\n    tag_54:\n        /* \"#utility.yul\":214:436   */\n      swap3\n      swap2\n      pop\n      pop\n      jump\t// out\n        /* \"#utility.yul\":442:532   */\n    tag_28:\n        /* \"#utility.yul\":476:483   */\n      0x00\n        /* \"#utility.yul\":519:524   */\n      dup2\n        /* \"#utility.yul\":512:525   */\n      iszero\n        /* \"#utility.yul\":505:526   */\n      iszero\n        /* \"#utility.yul\":494:526   */\n      swap1\n      pop\n        /* \"#utility.yul\":442:532   */\n      swap2\n      swap1\n      pop\n      jump\t// out\n        /* \"#utility.yul\":538:647   */\n    tag_29:\n        /* \"#utility.yul\":619:640   */\n      tag_57\n        /* \"#utility.yul\":634:639   */\n      dup2\n        /* \"#utility.yul\":619:640   */\n      tag_28\n      jump\t// in\n    tag_57:\n        /* \"#utility.yul\":614:617   */\n      dup3\n        /* \"#utility.yul\":607:641   */\n      mstore\n        /* \"#utility.yul\":538:647   */\n      pop\n      pop\n      jump\t// out\n        /* \"#utility.yul\":653:863   */\n    tag_13:\n        /* \"#utility.yul\":740:744   */\n      0x00\n        /* \"#utility.yul\":778:780   */\n      0x20\n        /* \"#utility.yul\":767:776   */\n      dup3\n        /* \"#utility.yul\":763:781   */\n      add\n        /* \"#utility.yul\":755:781   */\n      swap1\n      pop\n        /* \"#utility.yul\":791:856   */\n      tag_59\n        /* \"#utility.yul\":853:854   */\n      0x00\n        /* \"#utility.yul\":842:851   */\n      dup4\n        /* \"#utility.yul\":838:855   */\n      add\n        /* \"#utility.yul\":829:835   */\n      dup5\n        /* \"#utility.yul\":791:856   */\n      tag_29\n      jump\t// in\n    tag_59:\n        /* \"#utility.yul\":653:863   */\n      swap3\n      swap2\n      pop\n      pop\n      jump\t// out\n        /* \"#utility.yul\":869:968   */\n    tag_30:\n        /* \"#utility.yul\":921:927   */\n      0x00\n        /* \"#utility.yul\":955:960   */\n      dup2\n        /* \"#utility.yul\":949:961   */\n      mload\n        /* \"#utility.yul\":939:961   */\n      swap1\n      pop\n        /* \"#utility.yul\":869:968   */\n      swap2\n      swap1\n      pop\n      jump\t// out\n        /* \"#utility.yul\":974:1154   */\n    tag_31:\n        /* \"#utility.yul\":1022:1099   */\n      0x4e487b7100000000000000000000000000000000000000000000000000000000\n        /* \"#utility.yul\":1019:1020   */\n      0x00\n        /* \"#utility.yul\":1012:1100   */\n      mstore\n        /* \"#utility.yul\":1119:1123   */\n      0x41\n        /* \"#utility.yul\":1116:1117   */\n      0x04\n        /* \"#utility.yul\":1109:1124   */\n      mstore\n        /* \"#utility.yul\":1143:1147   */\n      0x24\n        /* \"#utility.yul\":1140:1141   */\n      0x00\n        /* \"#utility.yul\":1133:1148   */\n      revert\n        /* \"#utility.yul\":1160:1340   */\n    tag_32:\n        /* \"#utility.yul\":1208:1285   */\n      0x4e487b7100000000000000000000000000000000000000000000000000000000\n        /* \"#utility.yul\":1205:1206   */\n      0x00\n        /* \"#utility.yul\":1198:1286   */\n      mstore\n        /* \"#utility.yul\":1305:1309   */\n      0x22\n        /* \"#utility.yul\":1302:1303   */\n      0x04\n        /* \"#utility.yul\":1295:1310   */\n      mstore\n        /* \"#utility.yul\":1329:1333   */\n      0x24\n        /* \"#utility.yul\":1326:1327   */\n      0x00\n        /* \"#utility.yul\":1319:1334   */\n      revert\n        /* \"#utility.yul\":1346:1666   */\n    tag_33:\n        /* \"#utility.yul\":1390:1396   */\n      0x00\n        /* \"#utility.yul\":1427:1428   */\n      0x02\n        /* \"#utility.yul\":1421:1425   */\n      dup3\n        /* \"#utility.yul\":1417:1429   */\n      div\n        /* \"#utility.yul\":1407:1429   */\n      swap1\n      pop\n        /* \"#utility.yul\":1474:1475   */\n      0x01\n        /* \"#utility.yul\":1468:1472   */\n      dup3\n        /* \"#utility.yul\":1464:1476   */\n      and\n        /* \"#utility.yul\":1495:1513   */\n      dup1\n        /* \"#utility.yul\":1485:1566   */\n      tag_64\n      jumpi\n        /* \"#utility.yul\":1551:1555   */\n      0x7f\n        /* \"#utility.yul\":1543:1549   */\n      dup3\n        /* \"#utility.yul\":1539:1556   */\n      and\n        /* \"#utility.yul\":1529:1556   */\n      swap2\n      pop\n        /* \"#utility.yul\":1485:1566   */\n    tag_64:\n        /* \"#utility.yul\":1613:1615   */\n      0x20\n        /* \"#utility.yul\":1605:1611   */\n      dup3\n        /* \"#utility.yul\":1602:1616   */\n      lt\n        /* \"#utility.yul\":1582:1600   */\n      dup2\n        /* \"#utility.yul\":1579:1617   */\n      sub\n        /* \"#utility.yul\":1576:1660   */\n      tag_65\n      jumpi\n        /* \"#utility.yul\":1632:1650   */\n      tag_66\n      tag_32\n      jump\t// in\n    tag_66:\n        /* \"#utility.yul\":1576:1660   */\n    tag_65:\n        /* \"#utility.yul\":1397:1666   */\n      pop\n        /* \"#utility.yul\":1346:1666   */\n      swap2\n      swap1\n      pop\n      jump\t// out\n        /* \"#utility.yul\":1672:1813   */\n    tag_34:\n        /* \"#utility.yul\":1721:1725   */\n      0x00\n        /* \"#utility.yul\":1744:1747   */\n      dup2\n        /* \"#utility.yul\":1736:1747   */\n      swap1\n      pop\n        /* \"#utility.yul\":1767:1770   */\n      dup2\n        /* \"#utility.yul\":1764:1765   */\n      0x00\n        /* \"#utility.yul\":1757:1771   */\n      mstore\n        /* \"#utility.yul\":1801:1805   */\n      0x20\n        /* \"#utility.yul\":1798:1799   */\n      0x00\n        /* \"#utility.yul\":1788:1806   */\n      keccak256\n        /* \"#utility.yul\":1780:1806   */\n      swap1\n      pop\n        /* \"#utility.yul\":1672:1813   */\n      swap2\n      swap1\n      pop\n      jump\t// out\n        /* \"#utility.yul\":1819:1912   */\n    tag_35:\n        /* \"#utility.yul\":1856:1862   */\n      0x00\n        /* \"#utility.yul\":1903:1905   */\n      0x20\n        /* \"#utility.yul\":1898:1900   */\n      0x1f\n        /* \"#utility.yul\":1891:1896   */\n      dup4\n        /* \"#utility.yul\":1887:1901   */\n      add\n        /* \"#utility.yul\":1883:1906   */\n      div\n        /* \"#utility.yul\":1873:1906   */\n      swap1\n      pop\n        /* \"#utility.yul\":1819:1912   */\n      swap2\n      swap1\n      pop\n      jump\t// out\n        /* \"#utility.yul\":1918:2025   */\n    tag_36:\n        /* \"#utility.yul\":1962:1970   */\n      0x00\n        /* \"#utility.yul\":2012:2017   */\n      dup3\n        /* \"#utility.yul\":2006:2010   */\n      dup3\n        /* \"#utility.yul\":2002:2018   */\n      shl\n        /* \"#utility.yul\":1981:2018   */\n      swap1\n      pop\n        /* \"#utility.yul\":1918:2025   */\n      swap3\n      swap2\n      pop\n      pop\n      jump\t// out\n        /* \"#utility.yul\":2031:2424   */\n    tag_37:\n        /* \"#utility.yul\":2100:2106   */\n      0x00\n        /* \"#utility.yul\":2150:2151   */\n      0x08\n        /* \"#utility.yul\":2138:2148   */\n      dup4\n        /* \"#utility.yul\":2134:2152   */\n      mul\n        /* \"#utility.yul\":2173:2270   */\n      tag_71\n        /* \"#utility.yul\":2203:2269   */\n      0xffffffffffffffffffffffffffffffffffffffffffffffffffffffffffffffff\n        /* \"#utility.yul\":2192:2201   */\n      dup3\n        /* \"#utility.yul\":2173:2270   */\n      tag_36\n      jump\t// in\n    tag_71:\n        /* \"#utility.yul\":2291:2330   */\n      tag_72\n        /* \"#utility.yul\":2321:2329   */\n      dup7\n        /* \"#utility.yul\":2310:2319   */\n      dup4\n        /* \"#utility.yul\":2291:2330   */\n      tag_36\n      jump\t// in\n    tag_72:\n        /* \"#utility.yul\":2279:2330   */\n      swap6\n      pop\n        /* \"#utility.yul\":2363:2367   */\n      dup1\n        /* \"#utility.yul\":2359:2368   */\n      not\n        /* \"#utility.yul\":2352:2357   */\n      dup5\n        /* \"#utility.yul\":2348:2369   */\n      and\n        /* \"#utility.yul\":2339:2369   */\n      swap4\n      pop\n        /* \"#utility.yul\":2412:2416   */\n      dup1\n        /* \"#utility.yul\":2402:2410   */\n      dup7\n        /* \"#utility.yul\":2398:2417   */\n      and\n        /* \"#utility.yul\":2391:2396   */\n      dup5\n        /* \"#utility.yul\":2388:2418   */\n      or\n        /* \"#utility.yul\":2378:2418   */\n      swap3\n      pop\n        /* \"#utility.yul\":2107:2424   */\n      pop\n      pop\n        /* \"#utility.yul\":2031:2424   */\n      swap4\n      swap3\n      pop\n      pop\n      pop\n      jump\t// out\n        /* \"#utility.yul\":2430:2490   */\n    tag_38:\n        /* \"#utility.yul\":2458:2461   */\n      0x00\n        /* \"#utility.yul\":2479:2484   */\n      dup2\n        /* \"#utility.yul\":2472:2484   */\n      swap1\n      pop\n        /* \"#utility.yul\":2430:2490   */\n      swap2\n      swap1\n      pop\n      jump\t// out\n        /* \"#utility.yul\":2496:2638   */\n    tag_39:\n        /* \"#utility.yul\":2546:2555   */\n      0x00\n        /* \"#utility.yul\":2579:2632   */\n      tag_75\n        /* \"#utility.yul\":2597:2631   */\n      tag_76\n        /* \"#utility.yul\":2606:2630   */\n      tag_77\n        /* \"#utility.yul\":2624:2629   */\n      dup5\n        /* \"#utility.yul\":2606:2630   */\n      tag_26\n      jump\t// in\n    tag_77:\n        /* \"#utility.yul\":2597:2631   */\n      tag_38\n      jump\t// in\n    tag_76:\n        /* \"#utility.yul\":2579:2632   */\n      tag_26\n      jump\t// in\n    tag_75:\n        /* \"#utility.yul\":2566:2632   */\n      swap1\n      pop\n        /* \"#utility.yul\":2496:2638   */\n      swap2\n      swap1\n      pop\n      jump\t// out\n        /* \"#utility.yul\":2644:2719   */\n    tag_40:\n        /* \"#utility.yul\":2687:2690   */\n      0x00\n        /* \"#utility.yul\":2708:2713   */\n      dup2\n        /* \"#utility.yul\":2701:2713   */\n      swap1\n      pop\n        /* \"#utility.yul\":2644:2719   */\n      swap2\n      swap1\n      pop\n      jump\t// out\n        /* \"#utility.yul\":2725:2994   */\n    tag_41:\n        /* \"#utility.yul\":2835:2874   */\n      tag_80\n        /* \"#utility.yul\":2866:2873   */\n      dup4\n        /* \"#utility.yul\":2835:2874   */\n      tag_39\n      jump\t// in\n    tag_80:\n        /* \"#utility.yul\":2896:2987   */\n      tag_81\n        /* \"#utility.yul\":2945:2986   */\n      tag_82\n        /* \"#utility.yul\":2969:2985   */\n      dup3\n        /* \"#utility.yul\":2945:2986   */\n      tag_40\n      jump\t// in\n    tag_82:\n        /* \"#utility.yul\":2937:2943   */\n      dup5\n        /* \"#utility.yul\":2930:2934   */\n      dup5\n        /* \"#utility.yul\":2924:2935   */\n      sload\n        /* \"#utility.yul\":2896:2987   */\n      tag_37\n      jump\t// in\n    tag_81:\n        /* \"#utility.yul\":2890:2894   */\n      dup3\n        /* \"#utility.yul\":2883:2988   */\n      sstore\n        /* \"#utility.yul\":2801:2994   */\n      pop\n        /* \"#utility.yul\":2725:2994   */\n      pop\n      pop\n      pop\n      jump\t// out\n        /* \"#utility.yul\":3000:3073   */\n    tag_42:\n        /* \"#utility.yul\":3045:3048   */\n      0x00\n        /* \"#utility.yul\":3000:3073   */\n      swap1\n      jump\t// out\n        /* \"#utility.yul\":3079:3268   */\n    tag_43:\n        /* \"#utility.yul\":3156:3188   */\n      tag_85\n      tag_42\n      jump\t// in\n    tag_85:\n        /* \"#utility.yul\":3197:3262   */\n      tag_86\n        /* \"#utility.yul\":3255:3261   */\n      dup2\n        /* \"#utility.yul\":3247:3253   */\n      dup5\n        /* \"#utility.yul\":3241:3245   */\n      dup5\n        /* \"#utility.yul\":3197:3262   */\n      tag_41\n      jump\t// in\n    tag_86:\n        /* \"#utility.yul\":3132:3268   */\n      pop\n        /* \"#utility.yul\":3079:3268   */\n      pop\n      pop\n      jump\t// out\n        /* \"#utility.yul\":3274:3460   */\n    tag_44:\n        /* \"#utility.yul\":3334:3454   */\n    tag_88:\n        /* \"#utility.yul\":3351:3354   */\n      dup2\n        /* \"#utility.yul\":3344:3349   */\n      dup2\n        /* \"#utility.yul\":3341:3355   */\n      lt\n        /* \"#utility.yul\":3334:3454   */\n      iszero\n      tag_90\n      jumpi\n        /* \"#utility.yul\":3405:3444   */\n      tag_91\n        /* \"#utility.yul\":3442:3443   */\n      0x00\n        /* \"#utility.yul\":3435:3440   */\n      dup3\n        /* \"#utility.yul\":3405:3444   */\n      tag_43\n      jump\t// in\n    tag_91:\n        /* \"#utility.yul\":3378:3379   */\n      0x01\n        /* \"#utility.yul\":3371:3376   */\n      dup2\n        /* \"#utility.yul\":3367:3380   */\n      add\n        /* \"#utility.yul\":3358:3380   */\n      swap1\n      pop\n        /* \"#utility.yul\":3334:3454   */\n      jump(tag_88)\n    tag_90:\n        /* \"#utility.yul\":3274:3460   */\n      pop\n      pop\n      jump\t// out\n        /* \"#utility.yul\":3466:4009   */\n    tag_45:\n        /* \"#utility.yul\":3567:3569   */\n      0x1f\n        /* \"#utility.yul\":3562:3565   */\n      dup3\n        /* \"#utility.yul\":3559:3570   */\n      gt\n        /* \"#utility.yul\":3556:4002   */\n      iszero\n      tag_93\n      jumpi\n        /* \"#utility.yul\":3601:3639   */\n      tag_94\n        /* \"#utility.yul\":3633:3638   */\n      dup2\n        /* \"#utility.yul\":3601:3639   */\n      tag_34\n      jump\t// in\n    tag_94:\n        /* \"#utility.yul\":3685:3714   */\n      tag_95\n        /* \"#utility.yul\":3703:3713   */\n      dup5\n        /* \"#utility.yul\":3685:3714   */\n      tag_35\n      jump\t// in\n    tag_95:\n        /* \"#utility.yul\":3675:3683   */\n      dup2\n        /* \"#utility.yul\":3671:3715   */\n      add\n        /* \"#utility.yul\":3868:3870   */\n      0x20\n        /* \"#utility.yul\":3856:3866   */\n      dup6\n        /* \"#utility.yul\":3853:3871   */\n      lt\n        /* \"#utility.yul\":3850:3899   */\n      iszero\n      tag_96\n      jumpi\n        /* \"#utility.yul\":3889:3897   */\n      dup2\n        /* \"#utility.yul\":3874:3897   */\n      swap1\n      pop\n        /* \"#utility.yul\":3850:3899   */\n    tag_96:\n        /* \"#utility.yul\":3912:3992   */\n      tag_97\n        /* \"#utility.yul\":3968:3990   */\n      tag_98\n        /* \"#utility.yul\":3986:3989   */\n      dup6\n        /* \"#utility.yul\":3968:3990   */\n      tag_35\n      jump\t// in\n    tag_98:\n        /* \"#utility.yul\":3958:3966   */\n      dup4\n        /* \"#utility.yul\":3954:3991   */\n      add\n        /* \"#utility.yul\":3941:3952   */\n      dup3\n        /* \"#utility.yul\":3912:3992   */\n      tag_44\n      jump\t// in\n    tag_97:\n        /* \"#utility.yul\":3571:4002   */\n      pop\n      pop\n        /* \"#utility.yul\":3556:4002   */\n    tag_93:\n        /* \"#utility.yul\":3466:4009   */\n      pop\n      pop\n      pop\n      jump\t// out\n        /* \"#utility.yul\":4015:4132   */\n    tag_46:\n        /* \"#utility.yul\":4069:4077   */\n      0x00\n        /* \"#utility.yul\":4119:4124   */\n      dup3\n        /* \"#utility.yul\":4113:4117   */\n      dup3\n        /* \"#utility.yul\":4109:4125   */\n      shr\n        /* \"#utility.yul\":4088:4125   */\n      swap1\n      pop\n        /* \"#utility.yul\":4015:4132   */\n      swap3\n      swap2\n      pop\n      pop\n      jump\t// out\n        /* \"#utility.yul\":4138:4307   */\n    tag_47:\n        /* \"#utility.yul\":4182:4188   */\n      0x00\n        /* \"#utility.yul\":4215:4266   */\n      tag_101\n        /* \"#utility.yul\":4263:4264   */\n      0x00\n        /* \"#utility.yul\":4259:4265   */\n      not\n        /* \"#utility.yul\":4251:4256   */\n      dup5\n        /* \"#utility.yul\":4248:4249   */\n      0x08\n        /* \"#utility.yul\":4244:4257   */\n      mul\n        /* \"#utility.yul\":4215:4266   */\n      tag_46\n      jump\t// in\n    tag_101:\n        /* \"#utility.yul\":4211:4267   */\n      not\n        /* \"#utility.yul\":4296:4300   */\n      dup1\n        /* \"#utility.yul\":4290:4294   */\n      dup4\n        /* \"#utility.yul\":4286:4301   */\n      and\n        /* \"#utility.yul\":4276:4301   */\n      swap2\n      pop\n        /* \"#utility.yul\":4189:4307   */\n      pop\n        /* \"#utility.yul\":4138:4307   */\n      swap3\n      swap2\n      pop\n      pop\n      jump\t// out\n        /* \"#utility.yul\":4312:4607   */\n    tag_48:\n        /* \"#utility.yul\":4388:4392   */\n      0x00\n        /* \"#utility.yul\":4534:4563   */\n      tag_103\n        /* \"#utility.yul\":4559:4562   */\n      dup4\n        /* \"#utility.yul\":4553:4557   */\n      dup4\n        /* \"#utility.yul\":4534:4563   */\n      tag_47\n      jump\t// in\n    tag_103:\n        /* \"#utility.yul\":4526:4563   */\n      swap2\n      pop\n        /* \"#utility.yul\":4596:4599   */\n      dup3\n        /* \"#utility.yul\":4593:4594   */\n      0x02\n        /* \"#utility.yul\":4589:4600   */\n      mul\n        /* \"#utility.yul\":4583:4587   */\n      dup3\n        /* \"#utility.yul\":4580:4601   */\n      or\n        /* \"#utility.yul\":4572:4601   */\n      swap1\n      pop\n        /* \"#utility.yul\":4312:4607   */\n      swap3\n      swap2\n      pop\n      pop\n      jump\t// out\n        /* \"#utility.yul\":4612:6007   */\n    tag_20:\n        /* \"#utility.yul\":4729:4766   */\n      tag_105\n        /* \"#utility.yul\":4762:4765   */\n      dup3\n        /* \"#utility.yul\":4729:4766   */\n      tag_30\n      jump\t// in\n    tag_105:\n        /* \"#utility.yul\":4831:4849   */\n      0xffffffffffffffff\n        /* \"#utility.yul\":4823:4829   */\n      dup2\n        /* \"#utility.yul\":4820:4850   */\n      gt\n        /* \"#utility.yul\":4817:4873   */\n      iszero\n      tag_106\n      jumpi\n        /* \"#utility.yul\":4853:4871   */\n      tag_107\n      tag_31\n      jump\t// in\n    tag_107:\n        /* \"#utility.yul\":4817:4873   */\n    tag_106:\n        /* \"#utility.yul\":4897:4935   */\n      tag_108\n        /* \"#utility.yul\":4929:4933   */\n      dup3\n        /* \"#utility.yul\":4923:4934   */\n      sload\n        /* \"#utility.yul\":4897:4935   */\n      tag_33\n      jump\t// in\n    tag_108:\n        /* \"#utility.yul\":4982:5049   */\n      tag_109\n        /* \"#utility.yul\":5042:5048   */\n      dup3\n        /* \"#utility.yul\":5034:5040   */\n      dup3\n        /* \"#utility.yul\":5028:5032   */\n      dup6\n        /* \"#utility.yul\":4982:5049   */\n      tag_45\n      jump\t// in\n    tag_109:\n        /* \"#utility.yul\":5076:5077   */\n      0x00\n        /* \"#utility.yul\":5100:5104   */\n      0x20\n        /* \"#utility.yul\":5087:5104   */\n      swap1\n      pop\n        /* \"#utility.yul\":5132:5134   */\n      0x1f\n        /* \"#utility.yul\":5124:5130   */\n      dup4\n        /* \"#utility.yul\":5121:5135   */\n      gt\n        /* \"#utility.yul\":5149:5150   */\n      0x01\n        /* \"#utility.yul\":5144:5762   */\n      dup2\n      eq\n      tag_111\n      jumpi\n        /* \"#utility.yul\":5806:5807   */\n      0x00\n        /* \"#utility.yul\":5823:5829   */\n      dup5\n        /* \"#utility.yul\":5820:5897   */\n      iszero\n      tag_112\n      jumpi\n        /* \"#utility.yul\":5872:5881   */\n      dup3\n        /* \"#utility.yul\":5867:5870   */\n      dup8\n        /* \"#utility.yul\":5863:5882   */\n      add\n        /* \"#utility.yul\":5857:5883   */\n      mload\n        /* \"#utility.yul\":5848:5883   */\n      swap1\n      pop\n        /* \"#utility.yul\":5820:5897   */\n    tag_112:\n        /* \"#utility.yul\":5923:5990   */\n      tag_113\n        /* \"#utility.yul\":5983:5989   */\n      dup6\n        /* \"#utility.yul\":5976:5981   */\n      dup3\n        /* \"#utility.yul\":5923:5990   */\n      tag_48\n      jump\t// in\n    tag_113:\n        /* \"#utility.yul\":5917:5921   */\n      dup7\n        /* \"#utility.yul\":5910:5991   */\n      sstore\n        /* \"#utility.yul\":5779:6001   */\n      pop\n        /* \"#utility.yul\":5114:6001   */\n      jump(tag_110)\n        /* \"#utility.yul\":5144:5762   */\n    tag_111:\n        /* \"#utility.yul\":5196:5200   */\n      0x1f\n        /* \"#utility.yul\":5192:5201   */\n      not\n        /* \"#utility.yul\":5184:5190   */\n      dup5\n        /* \"#utility.yul\":5180:5202   */\n      and\n        /* \"#utility.yul\":5230:5267   */\n      tag_114\n        /* \"#utility.yul\":5262:5266   */\n      dup7\n        /* \"#utility.yul\":5230:5267   */\n      tag_34\n      jump\t// in\n    tag_114:\n        /* \"#utility.yul\":5289:5290   */\n      0x00\n        /* \"#utility.yul\":5303:5511   */\n    tag_115:\n        /* \"#utility.yul\":5317:5324   */\n      dup3\n        /* \"#utility.yul\":5314:5315   */\n      dup2\n        /* \"#utility.yul\":5311:5325   */\n      lt\n        /* \"#utility.yul\":5303:5511   */\n      iszero\n      tag_117\n      jumpi\n        /* \"#utility.yul\":5396:5405   */\n      dup5\n        /* \"#utility.yul\":5391:5394   */\n      dup10\n        /* \"#utility.yul\":5387:5406   */\n      add\n        /* \"#utility.yul\":5381:5407   */\n      mload\n        /* \"#utility.yul\":5373:5379   */\n      dup3\n        /* \"#utility.yul\":5366:5408   */\n      sstore\n        /* \"#utility.yul\":5447:5448   */\n      0x01\n        /* \"#utility.yul\":5439:5445   */\n      dup3\n        /* \"#utility.yul\":5435:5449   */\n      add\n        /* \"#utility.yul\":5425:5449   */\n      swap2\n      pop\n        /* \"#utility.yul\":5494:5496   */\n      0x20\n        /* \"#utility.yul\":5483:5492   */\n      dup6\n        /* \"#utility.yul\":5479:5497   */\n      add\n        /* \"#utility.yul\":5466:5497   */\n      swap5\n      pop\n        /* \"#utility.yul\":5340:5344   */\n      0x20\n        /* \"#utility.yul\":5337:5338   */\n      dup2\n        /* \"#utility.yul\":5333:5345   */\n      add\n        /* \"#utility.yul\":5328:5345   */\n      swap1\n      pop\n        /* \"#utility.yul\":5303:5511   */\n      jump(tag_115)\n    tag_117:\n        /* \"#utility.yul\":5539:5545   */\n      dup7\n        /* \"#utility.yul\":5530:5537   */\n      dup4\n        /* \"#utility.yul\":5527:5546   */\n      lt\n        /* \"#utility.yul\":5524:5703   */\n      iszero\n      tag_118\n      jumpi\n        /* \"#utility.yul\":5597:5606   */\n      dup5\n        /* \"#utility.yul\":5592:5595   */\n      dup10\n        /* \"#utility.yul\":5588:5607   */\n      add\n        /* \"#utility.yul\":5582:5608   */\n      mload\n        /* \"#utility.yul\":5640:5688   */\n      tag_119\n        /* \"#utility.yul\":5682:5686   */\n      0x1f\n        /* \"#utility.yul\":5674:5680   */\n      dup10\n        /* \"#utility.yul\":5670:5687   */\n      and\n        /* \"#utility.yul\":5659:5668   */\n      dup3\n        /* \"#utility.yul\":5640:5688   */\n      tag_47\n      jump\t// in\n    tag_119:\n        /* \"#utility.yul\":5632:5638   */\n      dup4\n        /* \"#utility.yul\":5625:5689   */\n      sstore\n        /* \"#utility.yul\":5547:5703   */\n      pop\n        /* \"#utility.yul\":5524:5703   */\n    tag_118:\n        /* \"#utility.yul\":5749:5750   */\n      0x01\n        /* \"#utility.yul\":5745:5746   */\n      0x02\n        /* \"#utility.yul\":5737:5743   */\n      dup9\n        /* \"#utility.yul\":5733:5747   */\n      mul\n        /* \"#utility.yul\":5729:5751   */\n      add\n        /* \"#utility.yul\":5723:5727   */\n      dup9\n        /* \"#utility.yul\":5716:5752   */\n      sstore\n        /* \"#utility.yul\":5151:5762   */\n      pop\n      pop\n      pop\n        /* \"#utility.yul\":5114:6001   */\n    tag_110:\n      pop\n        /* \"#utility.yul\":4704:6007   */\n      pop\n      pop\n      pop\n        /* \"#utility.yul\":4612:6007   */\n      pop\n      pop\n      jump\t// out\n\n    auxdata: 0xa2646970667358221220b09d2ca5e4d241aec055d30cce3bc5785433835c40718a765eb7c47d7ac3999864736f6c634300081a0033\n}\n",
				"bytecode": {
					"linkReferences": {},
					"object": "6080604052348015600e575f80fd5b506106de8061001c5f395ff3fe608060405234801561000f575f80fd5b506004361061003f575f3560e01c806303cfa458146100435780635b8612db14610061578063f6bb33b11461007f575b5f80fd5b61004b610089565b604051610058919061035c565b60405180910390f35b610069610095565b604051610076919061038f565b60405180910390f35b6100876100ac565b005b5f600660020154905090565b5f806005015f9054906101000a900460ff16905090565b6040518060c001604052806040518060400160405280600881526020017f426c75654c6f636b00000000000000000000000000000000000000000000000081525081526020016040518060400160405280600c81526020017f45676f2053656d7061636869000000000000000000000000000000000000000081525081526020016107e88152602001620f424081526020016040518060400160405280600581526020017f4a6170616e00000000000000000000000000000000000000000000000000000081525081526020015f15158152505f80820151815f01908161019391906105d9565b5060208201518160010190816101a991906105d9565b50604082015181600201556060820151816003015560808201518160040190816101d391906105d9565b5060a0820151816005015f6101000a81548160ff0219169083151502179055509050506040518060c001604052806040518060400160405280600681526020017f50616e646173000000000000000000000000000000000000000000000000000081525081526020016040518060400160405280600681526020017f4d657754776f000000000000000000000000000000000000000000000000000081525081526020016107d08152602001624c4b4081526020016040518060400160405280600781526020017f416d65726963610000000000000000000000000000000000000000000000000081525081526020016001151581525060065f820151815f0190816102df91906105d9565b5060208201518160010190816102f591906105d9565b506040820151816002015560608201518160030155608082015181600401908161031f91906105d9565b5060a0820151816005015f6101000a81548160ff021916908315150217905550905050565b5f819050919050565b61035681610344565b82525050565b5f60208201905061036f5f83018461034d565b92915050565b5f8115159050919050565b61038981610375565b82525050565b5f6020820190506103a25f830184610380565b92915050565b5f81519050919050565b7f4e487b71000000000000000000000000000000000000000000000000000000005f52604160045260245ffd5b7f4e487b71000000000000000000000000000000000000000000000000000000005f52602260045260245ffd5b5f600282049050600182168061042357607f821691505b602082108103610436576104356103df565b5b50919050565b5f819050815f5260205f209050919050565b5f6020601f8301049050919050565b5f82821b905092915050565b5f600883026104987fffffffffffffffffffffffffffffffffffffffffffffffffffffffffffffffff8261045d565b6104a2868361045d565b95508019841693508086168417925050509392505050565b5f819050919050565b5f6104dd6104d86104d384610344565b6104ba565b610344565b9050919050565b5f819050919050565b6104f6836104c3565b61050a610502826104e4565b848454610469565b825550505050565b5f90565b61051e610512565b6105298184846104ed565b505050565b5b8181101561054c576105415f82610516565b60018101905061052f565b5050565b601f821115610591576105628161043c565b61056b8461044e565b8101602085101561057a578190505b61058e6105868561044e565b83018261052e565b50505b505050565b5f82821c905092915050565b5f6105b15f1984600802610596565b1980831691505092915050565b5f6105c983836105a2565b9150826002028217905092915050565b6105e2826103a8565b67ffffffffffffffff8111156105fb576105fa6103b2565b5b610605825461040c565b610610828285610550565b5f60209050601f831160018114610641575f841561062f578287015190505b61063985826105be565b8655506106a0565b601f19841661064f8661043c565b5f5b8281101561067657848901518255600182019150602085019450602081019050610651565b86831015610693578489015161068f601f8916826105a2565b8355505b6001600288020188555050505b50505050505056fea2646970667358221220b09d2ca5e4d241aec055d30cce3bc5785433835c40718a765eb7c47d7ac3999864736f6c634300081a0033",
					"opcodes": "PUSH1 0x80 PUSH1 0x40 MSTORE CALLVALUE DUP1 ISZERO PUSH1 0xE JUMPI PUSH0 DUP1 REVERT JUMPDEST POP PUSH2 0x6DE DUP1 PUSH2 0x1C PUSH0 CODECOPY PUSH0 RETURN INVALID PUSH1 0x80 PUSH1 0x40 MSTORE CALLVALUE DUP1 ISZERO PUSH2 0xF JUMPI PUSH0 DUP1 REVERT JUMPDEST POP PUSH1 0x4 CALLDATASIZE LT PUSH2 0x3F JUMPI PUSH0 CALLDATALOAD PUSH1 0xE0 SHR DUP1 PUSH4 0x3CFA458 EQ PUSH2 0x43 JUMPI DUP1 PUSH4 0x5B8612DB EQ PUSH2 0x61 JUMPI DUP1 PUSH4 0xF6BB33B1 EQ PUSH2 0x7F JUMPI JUMPDEST PUSH0 DUP1 REVERT JUMPDEST PUSH2 0x4B PUSH2 0x89 JUMP JUMPDEST PUSH1 0x40 MLOAD PUSH2 0x58 SWAP2 SWAP1 PUSH2 0x35C JUMP JUMPDEST PUSH1 0x40 MLOAD DUP1 SWAP2 SUB SWAP1 RETURN JUMPDEST PUSH2 0x69 PUSH2 0x95 JUMP JUMPDEST PUSH1 0x40 MLOAD PUSH2 0x76 SWAP2 SWAP1 PUSH2 0x38F JUMP JUMPDEST PUSH1 0x40 MLOAD DUP1 SWAP2 SUB SWAP1 RETURN JUMPDEST PUSH2 0x87 PUSH2 0xAC JUMP JUMPDEST STOP JUMPDEST PUSH0 PUSH1 0x6 PUSH1 0x2 ADD SLOAD SWAP1 POP SWAP1 JUMP JUMPDEST PUSH0 DUP1 PUSH1 0x5 ADD PUSH0 SWAP1 SLOAD SWAP1 PUSH2 0x100 EXP SWAP1 DIV PUSH1 0xFF AND SWAP1 POP SWAP1 JUMP JUMPDEST PUSH1 0x40 MLOAD DUP1 PUSH1 0xC0 ADD PUSH1 0x40 MSTORE DUP1 PUSH1 0x40 MLOAD DUP1 PUSH1 0x40 ADD PUSH1 0x40 MSTORE DUP1 PUSH1 0x8 DUP2 MSTORE PUSH1 0x20 ADD PUSH32 0x426C75654C6F636B000000000000000000000000000000000000000000000000 DUP2 MSTORE POP DUP2 MSTORE PUSH1 0x20 ADD PUSH1 0x40 MLOAD DUP1 PUSH1 0x40 ADD PUSH1 0x40 MSTORE DUP1 PUSH1 0xC DUP2 MSTORE PUSH1 0x20 ADD PUSH32 0x45676F2053656D70616368690000000000000000000000000000000000000000 DUP2 MSTORE POP DUP2 MSTORE PUSH1 0x20 ADD PUSH2 0x7E8 DUP2 MSTORE PUSH1 0x20 ADD PUSH3 0xF4240 DUP2 MSTORE PUSH1 0x20 ADD PUSH1 0x40 MLOAD DUP1 PUSH1 0x40 ADD PUSH1 0x40 MSTORE DUP1 PUSH1 0x5 DUP2 MSTORE PUSH1 0x20 ADD PUSH32 0x4A6170616E000000000000000000000000000000000000000000000000000000 DUP2 MSTORE POP DUP2 MSTORE PUSH1 0x20 ADD PUSH0 ISZERO ISZERO DUP2 MSTORE POP PUSH0 DUP1 DUP3 ADD MLOAD DUP2 PUSH0 ADD SWAP1 DUP2 PUSH2 0x193 SWAP2 SWAP1 PUSH2 0x5D9 JUMP JUMPDEST POP PUSH1 0x20 DUP3 ADD MLOAD DUP2 PUSH1 0x1 ADD SWAP1 DUP2 PUSH2 0x1A9 SWAP2 SWAP1 PUSH2 0x5D9 JUMP JUMPDEST POP PUSH1 0x40 DUP3 ADD MLOAD DUP2 PUSH1 0x2 ADD SSTORE PUSH1 0x60 DUP3 ADD MLOAD DUP2 PUSH1 0x3 ADD SSTORE PUSH1 0x80 DUP3 ADD MLOAD DUP2 PUSH1 0x4 ADD SWAP1 DUP2 PUSH2 0x1D3 SWAP2 SWAP1 PUSH2 0x5D9 JUMP JUMPDEST POP PUSH1 0xA0 DUP3 ADD MLOAD DUP2 PUSH1 0x5 ADD PUSH0 PUSH2 0x100 EXP DUP2 SLOAD DUP2 PUSH1 0xFF MUL NOT AND SWAP1 DUP4 ISZERO ISZERO MUL OR SWAP1 SSTORE POP SWAP1 POP POP PUSH1 0x40 MLOAD DUP1 PUSH1 0xC0 ADD PUSH1 0x40 MSTORE DUP1 PUSH1 0x40 MLOAD DUP1 PUSH1 0x40 ADD PUSH1 0x40 MSTORE DUP1 PUSH1 0x6 DUP2 MSTORE PUSH1 0x20 ADD PUSH32 0x50616E6461730000000000000000000000000000000000000000000000000000 DUP2 MSTORE POP DUP2 MSTORE PUSH1 0x20 ADD PUSH1 0x40 MLOAD DUP1 PUSH1 0x40 ADD PUSH1 0x40 MSTORE DUP1 PUSH1 0x6 DUP2 MSTORE PUSH1 0x20 ADD PUSH32 0x4D657754776F0000000000000000000000000000000000000000000000000000 DUP2 MSTORE POP DUP2 MSTORE PUSH1 0x20 ADD PUSH2 0x7D0 DUP2 MSTORE PUSH1 0x20 ADD PUSH3 0x4C4B40 DUP2 MSTORE PUSH1 0x20 ADD PUSH1 0x40 MLOAD DUP1 PUSH1 0x40 ADD PUSH1 0x40 MSTORE DUP1 PUSH1 0x7 DUP2 MSTORE PUSH1 0x20 ADD PUSH32 0x416D657269636100000000000000000000000000000000000000000000000000 DUP2 MSTORE POP DUP2 MSTORE PUSH1 0x20 ADD PUSH1 0x1 ISZERO ISZERO DUP2 MSTORE POP PUSH1 0x6 PUSH0 DUP3 ADD MLOAD DUP2 PUSH0 ADD SWAP1 DUP2 PUSH2 0x2DF SWAP2 SWAP1 PUSH2 0x5D9 JUMP JUMPDEST POP PUSH1 0x20 DUP3 ADD MLOAD DUP2 PUSH1 0x1 ADD SWAP1 DUP2 PUSH2 0x2F5 SWAP2 SWAP1 PUSH2 0x5D9 JUMP JUMPDEST POP PUSH1 0x40 DUP3 ADD MLOAD DUP2 PUSH1 0x2 ADD SSTORE PUSH1 0x60 DUP3 ADD MLOAD DUP2 PUSH1 0x3 ADD SSTORE PUSH1 0x80 DUP3 ADD MLOAD DUP2 PUSH1 0x4 ADD SWAP1 DUP2 PUSH2 0x31F SWAP2 SWAP1 PUSH2 0x5D9 JUMP JUMPDEST POP PUSH1 0xA0 DUP3 ADD MLOAD DUP2 PUSH1 0x5 ADD PUSH0 PUSH2 0x100 EXP DUP2 SLOAD DUP2 PUSH1 0xFF MUL NOT AND SWAP1 DUP4 ISZERO ISZERO MUL OR SWAP1 SSTORE POP SWAP1 POP POP JUMP JUMPDEST PUSH0 DUP2 SWAP1 POP SWAP2 SWAP1 POP JUMP JUMPDEST PUSH2 0x356 DUP2 PUSH2 0x344 JUMP JUMPDEST DUP3 MSTORE POP POP JUMP JUMPDEST PUSH0 PUSH1 0x20 DUP3 ADD SWAP1 POP PUSH2 0x36F PUSH0 DUP4 ADD DUP5 PUSH2 0x34D JUMP JUMPDEST SWAP3 SWAP2 POP POP JUMP JUMPDEST PUSH0 DUP2 ISZERO ISZERO SWAP1 POP SWAP2 SWAP1 POP JUMP JUMPDEST PUSH2 0x389 DUP2 PUSH2 0x375 JUMP JUMPDEST DUP3 MSTORE POP POP JUMP JUMPDEST PUSH0 PUSH1 0x20 DUP3 ADD SWAP1 POP PUSH2 0x3A2 PUSH0 DUP4 ADD DUP5 PUSH2 0x380 JUMP JUMPDEST SWAP3 SWAP2 POP POP JUMP JUMPDEST PUSH0 DUP2 MLOAD SWAP1 POP SWAP2 SWAP1 POP JUMP JUMPDEST PUSH32 0x4E487B7100000000000000000000000000000000000000000000000000000000 PUSH0 MSTORE PUSH1 0x41 PUSH1 0x4 MSTORE PUSH1 0x24 PUSH0 REVERT JUMPDEST PUSH32 0x4E487B7100000000000000000000000000000000000000000000000000000000 PUSH0 MSTORE PUSH1 0x22 PUSH1 0x4 MSTORE PUSH1 0x24 PUSH0 REVERT JUMPDEST PUSH0 PUSH1 0x2 DUP3 DIV SWAP1 POP PUSH1 0x1 DUP3 AND DUP1 PUSH2 0x423 JUMPI PUSH1 0x7F DUP3 AND SWAP2 POP JUMPDEST PUSH1 0x20 DUP3 LT DUP2 SUB PUSH2 0x436 JUMPI PUSH2 0x435 PUSH2 0x3DF JUMP JUMPDEST JUMPDEST POP SWAP2 SWAP1 POP JUMP JUMPDEST PUSH0 DUP2 SWAP1 POP DUP2 PUSH0 MSTORE PUSH1 0x20 PUSH0 KECCAK256 SWAP1 POP SWAP2 SWAP1 POP JUMP JUMPDEST PUSH0 PUSH1 0x20 PUSH1 0x1F DUP4 ADD DIV SWAP1 POP SWAP2 SWAP1 POP JUMP JUMPDEST PUSH0 DUP3 DUP3 SHL SWAP1 POP SWAP3 SWAP2 POP POP JUMP JUMPDEST PUSH0 PUSH1 0x8 DUP4 MUL PUSH2 0x498 PUSH32 0xFFFFFFFFFFFFFFFFFFFFFFFFFFFFFFFFFFFFFFFFFFFFFFFFFFFFFFFFFFFFFFFF DUP3 PUSH2 0x45D JUMP JUMPDEST PUSH2 0x4A2 DUP7 DUP4 PUSH2 0x45D JUMP JUMPDEST SWAP6 POP DUP1 NOT DUP5 AND SWAP4 POP DUP1 DUP7 AND DUP5 OR SWAP3 POP POP POP SWAP4 SWAP3 POP POP POP JUMP JUMPDEST PUSH0 DUP2 SWAP1 POP SWAP2 SWAP1 POP JUMP JUMPDEST PUSH0 PUSH2 0x4DD PUSH2 0x4D8 PUSH2 0x4D3 DUP5 PUSH2 0x344 JUMP JUMPDEST PUSH2 0x4BA JUMP JUMPDEST PUSH2 0x344 JUMP JUMPDEST SWAP1 POP SWAP2 SWAP1 POP JUMP JUMPDEST PUSH0 DUP2 SWAP1 POP SWAP2 SWAP1 POP JUMP JUMPDEST PUSH2 0x4F6 DUP4 PUSH2 0x4C3 JUMP JUMPDEST PUSH2 0x50A PUSH2 0x502 DUP3 PUSH2 0x4E4 JUMP JUMPDEST DUP5 DUP5 SLOAD PUSH2 0x469 JUMP JUMPDEST DUP3 SSTORE POP POP POP POP JUMP JUMPDEST PUSH0 SWAP1 JUMP JUMPDEST PUSH2 0x51E PUSH2 0x512 JUMP JUMPDEST PUSH2 0x529 DUP2 DUP5 DUP5 PUSH2 0x4ED JUMP JUMPDEST POP POP POP JUMP JUMPDEST JUMPDEST DUP2 DUP2 LT ISZERO PUSH2 0x54C JUMPI PUSH2 0x541 PUSH0 DUP3 PUSH2 0x516 JUMP JUMPDEST PUSH1 0x1 DUP2 ADD SWAP1 POP PUSH2 0x52F JUMP JUMPDEST POP POP JUMP JUMPDEST PUSH1 0x1F DUP3 GT ISZERO PUSH2 0x591 JUMPI PUSH2 0x562 DUP2 PUSH2 0x43C JUMP JUMPDEST PUSH2 0x56B DUP5 PUSH2 0x44E JUMP JUMPDEST DUP2 ADD PUSH1 0x20 DUP6 LT ISZERO PUSH2 0x57A JUMPI DUP2 SWAP1 POP JUMPDEST PUSH2 0x58E PUSH2 0x586 DUP6 PUSH2 0x44E JUMP JUMPDEST DUP4 ADD DUP3 PUSH2 0x52E JUMP JUMPDEST POP POP JUMPDEST POP POP POP JUMP JUMPDEST PUSH0 DUP3 DUP3 SHR SWAP1 POP SWAP3 SWAP2 POP POP JUMP JUMPDEST PUSH0 PUSH2 0x5B1 PUSH0 NOT DUP5 PUSH1 0x8 MUL PUSH2 0x596 JUMP JUMPDEST NOT DUP1 DUP4 AND SWAP2 POP POP SWAP3 SWAP2 POP POP JUMP JUMPDEST PUSH0 PUSH2 0x5C9 DUP4 DUP4 PUSH2 0x5A2 JUMP JUMPDEST SWAP2 POP DUP3 PUSH1 0x2 MUL DUP3 OR SWAP1 POP SWAP3 SWAP2 POP POP JUMP JUMPDEST PUSH2 0x5E2 DUP3 PUSH2 0x3A8 JUMP JUMPDEST PUSH8 0xFFFFFFFFFFFFFFFF DUP2 GT ISZERO PUSH2 0x5FB JUMPI PUSH2 0x5FA PUSH2 0x3B2 JUMP JUMPDEST JUMPDEST PUSH2 0x605 DUP3 SLOAD PUSH2 0x40C JUMP JUMPDEST PUSH2 0x610 DUP3 DUP3 DUP6 PUSH2 0x550 JUMP JUMPDEST PUSH0 PUSH1 0x20 SWAP1 POP PUSH1 0x1F DUP4 GT PUSH1 0x1 DUP2 EQ PUSH2 0x641 JUMPI PUSH0 DUP5 ISZERO PUSH2 0x62F JUMPI DUP3 DUP8 ADD MLOAD SWAP1 POP JUMPDEST PUSH2 0x639 DUP6 DUP3 PUSH2 0x5BE JUMP JUMPDEST DUP7 SSTORE POP PUSH2 0x6A0 JUMP JUMPDEST PUSH1 0x1F NOT DUP5 AND PUSH2 0x64F DUP7 PUSH2 0x43C JUMP JUMPDEST PUSH0 JUMPDEST DUP3 DUP2 LT ISZERO PUSH2 0x676 JUMPI DUP5 DUP10 ADD MLOAD DUP3 SSTORE PUSH1 0x1 DUP3 ADD SWAP2 POP PUSH1 0x20 DUP6 ADD SWAP5 POP PUSH1 0x20 DUP2 ADD SWAP1 POP PUSH2 0x651 JUMP JUMPDEST DUP7 DUP4 LT ISZERO PUSH2 0x693 JUMPI DUP5 DUP10 ADD MLOAD PUSH2 0x68F PUSH1 0x1F DUP10 AND DUP3 PUSH2 0x5A2 JUMP JUMPDEST DUP4 SSTORE POP JUMPDEST PUSH1 0x1 PUSH1 0x2 DUP9 MUL ADD DUP9 SSTORE POP POP POP JUMPDEST POP POP POP POP POP POP JUMP INVALID LOG2 PUSH5 0x6970667358 0x22 SLT KECCAK256 0xB0 SWAP14 0x2C 0xA5 0xE4 0xD2 COINBASE 0xAE 0xC0 SSTORE 0xD3 0xC 0xCE EXTCODESIZE 0xC5 PUSH25 0x5433835C40718A765EB7C47D7AC3999864736F6C634300081A STOP CALLER "
				},
				"gasEstimates": {
					"creation": {
						"codeDepositCost": "351600",
						"executionCost": "384",
						"totalCost": "351984"
					},
					"external": {
						"getMovieDate()": "2416",
						"getMovieInfo()": "2479",
						"setMovie()": "infinite"
					}
				},
				"methodIdentifiers": {
					"getMovieDate()": "03cfa458",
					"getMovieInfo()": "5b8612db",
					"setMovie()": "f6bb33b1"
				}
			},
			"storageLayout": {
				"storage": [
					{
						"astId": 17,
						"contract": "Cook_Web3/Beginner_Chef/structs/structs.sol:structTest",
						"label": "movie",
						"offset": 0,
						"slot": "0",
						"type": "t_struct(Movie)14_storage"
					},
					{
						"astId": 20,
						"contract": "Cook_Web3/Beginner_Chef/structs/structs.sol:structTest",
						"label": "comedy",
						"offset": 0,
						"slot": "6",
						"type": "t_struct(Movie)14_storage"
					}
				],
				"types": {
					"t_bool": {
						"encoding": "inplace",
						"label": "bool",
						"numberOfBytes": "1"
					},
					"t_string_storage": {
						"encoding": "bytes",
						"label": "string",
						"numberOfBytes": "32"
					},
					"t_struct(Movie)14_storage": {
						"encoding": "inplace",
						"label": "struct structTest.Movie",
						"members": [
							{
								"astId": 3,
								"contract": "Cook_Web3/Beginner_Chef/structs/structs.sol:structTest",
								"label": "Title",
								"offset": 0,
								"slot": "0",
								"type": "t_string_storage"
							},
							{
								"astId": 5,
								"contract": "Cook_Web3/Beginner_Chef/structs/structs.sol:structTest",
								"label": "Director",
								"offset": 0,
								"slot": "1",
								"type": "t_string_storage"
							},
							{
								"astId": 7,
								"contract": "Cook_Web3/Beginner_Chef/structs/structs.sol:structTest",
								"label": "DateOfRelease",
								"offset": 0,
								"slot": "2",
								"type": "t_uint256"
							},
							{
								"astId": 9,
								"contract": "Cook_Web3/Beginner_Chef/structs/structs.sol:structTest",
								"label": "moneyGenerated",
								"offset": 0,
								"slot": "3",
								"type": "t_uint256"
							},
							{
								"astId": 11,
								"contract": "Cook_Web3/Beginner_Chef/structs/structs.sol:structTest",
								"label": "countryOfOrigin",
								"offset": 0,
								"slot": "4",
								"type": "t_string_storage"
							},
							{
								"astId": 13,
								"contract": "Cook_Web3/Beginner_Chef/structs/structs.sol:structTest",
								"label": "spinOff",
								"offset": 0,
								"slot": "5",
								"type": "t_bool"
							}
						],
						"numberOfBytes": "192"
					},
					"t_uint256": {
						"encoding": "inplace",
						"label": "uint256",
						"numberOfBytes": "32"
					}
				}
			},
			"userdoc": {
				"kind": "user",
				"methods": {},
				"version": 1
			}
		}
	}
}