{
	"Cook_Web3/Beginner_Chef/mapping/nested mapping/nestedMapping.sol": {
		"AddessPair": {
			"abi": [
				{
					"inputs": [
						{
							"internalType": "uint256",
							"name": "",
							"type": "uint256"
						}
					],
					"name": "Spenderr",
					"outputs": [
						{
							"internalType": "string",
							"name": "SpenderAddress",
							"type": "string"
						}
					],
					"stateMutability": "view",
					"type": "function"
				},
				{
					"inputs": [
						{
							"internalType": "address",
							"name": "",
							"type": "address"
						},
						{
							"internalType": "uint256",
							"name": "",
							"type": "uint256"
						}
					],
					"name": "nestedAddresses",
					"outputs": [
						{
							"internalType": "string",
							"name": "SpenderAddress",
							"type": "string"
						}
					],
					"stateMutability": "view",
					"type": "function"
				},
				{
					"inputs": [
						{
							"internalType": "uint256",
							"name": "id",
							"type": "uint256"
						},
						{
							"internalType": "string",
							"name": "SpenderAddress",
							"type": "string"
						}
					],
					"name": "valueoOwner",
					"outputs": [],
					"stateMutability": "nonpayable",
					"type": "function"
				},
				{
					"inputs": [
						{
							"internalType": "uint256",
							"name": "id",
							"type": "uint256"
						},
						{
							"internalType": "string",
							"name": "SpenderAddress",
							"type": "string"
						}
					],
					"name": "valueofSpender",
					"outputs": [],
					"stateMutability": "nonpayable",
					"type": "function"
				}
			],
			"devdoc": {
				"kind": "dev",
				"methods": {},
				"version": 1
			},
			"evm": {
				"assembly": "    /* \"Cook_Web3/Beginner_Chef/mapping/nested mapping/nestedMapping.sol\":1242:1819  contract AddessPair{... */\n  mstore(0x40, 0x80)\n  callvalue\n  dup1\n  iszero\n  tag_1\n  jumpi\n  0x00\n  dup1\n  revert\ntag_1:\n  pop\n  dataSize(sub_0)\n  dup1\n  dataOffset(sub_0)\n  0x00\n  codecopy\n  0x00\n  return\nstop\n\nsub_0: assembly {\n        /* \"Cook_Web3/Beginner_Chef/mapping/nested mapping/nestedMapping.sol\":1242:1819  contract AddessPair{... */\n      mstore(0x40, 0x80)\n      callvalue\n      dup1\n      iszero\n      tag_1\n      jumpi\n      0x00\n      dup1\n      revert\n    tag_1:\n      pop\n      jumpi(tag_2, lt(calldatasize, 0x04))\n      shr(0xe0, calldataload(0x00))\n      dup1\n      0x4072e49d\n      eq\n      tag_3\n      jumpi\n      dup1\n      0xa5beab18\n      eq\n      tag_4\n      jumpi\n      dup1\n      0xbe5230f9\n      eq\n      tag_5\n      jumpi\n      dup1\n      0xd7e9dbb0\n      eq\n      tag_6\n      jumpi\n    tag_2:\n      0x00\n      dup1\n      revert\n        /* \"Cook_Web3/Beginner_Chef/mapping/nested mapping/nestedMapping.sol\":1594:1663  mapping (address => mapping(uint => address1)) public nestedAddresses */\n    tag_3:\n      tag_7\n      0x04\n      dup1\n      calldatasize\n      sub\n      dup2\n      add\n      swap1\n      tag_8\n      swap2\n      swap1\n      tag_9\n      jump\t// in\n    tag_8:\n      tag_10\n      jump\t// in\n    tag_7:\n      mload(0x40)\n      tag_11\n      swap2\n      swap1\n      tag_12\n      jump\t// in\n    tag_11:\n      mload(0x40)\n      dup1\n      swap2\n      sub\n      swap1\n      return\n        /* \"Cook_Web3/Beginner_Chef/mapping/nested mapping/nestedMapping.sol\":1672:1816  function valueoOwner (uint id, string memory SpenderAddress) public{... */\n    tag_4:\n      tag_13\n      0x04\n      dup1\n      calldatasize\n      sub\n      dup2\n      add\n      swap1\n      tag_14\n      swap2\n      swap1\n      tag_15\n      jump\t// in\n    tag_14:\n      tag_16\n      jump\t// in\n    tag_13:\n      stop\n        /* \"Cook_Web3/Beginner_Chef/mapping/nested mapping/nestedMapping.sol\":1361:1403  mapping (uint => address1) public Spenderr */\n    tag_5:\n      tag_17\n      0x04\n      dup1\n      calldatasize\n      sub\n      dup2\n      add\n      swap1\n      tag_18\n      swap2\n      swap1\n      tag_19\n      jump\t// in\n    tag_18:\n      tag_20\n      jump\t// in\n    tag_17:\n      mload(0x40)\n      tag_21\n      swap2\n      swap1\n      tag_12\n      jump\t// in\n    tag_21:\n      mload(0x40)\n      dup1\n      swap2\n      sub\n      swap1\n      return\n        /* \"Cook_Web3/Beginner_Chef/mapping/nested mapping/nestedMapping.sol\":1416:1544  function valueofSpender (uint id, string memory SpenderAddress) public{... */\n    tag_6:\n      tag_22\n      0x04\n      dup1\n      calldatasize\n      sub\n      dup2\n      add\n      swap1\n      tag_23\n      swap2\n      swap1\n      tag_15\n      jump\t// in\n    tag_23:\n      tag_24\n      jump\t// in\n    tag_22:\n      stop\n        /* \"Cook_Web3/Beginner_Chef/mapping/nested mapping/nestedMapping.sol\":1594:1663  mapping (address => mapping(uint => address1)) public nestedAddresses */\n    tag_10:\n      mstore(0x20, 0x01)\n      dup2\n      0x00\n      mstore\n      mstore(0x20, keccak256(0x00, 0x40))\n      dup1\n      0x00\n      mstore\n      keccak256(0x00, 0x40)\n      0x00\n      swap2\n      pop\n      swap2\n      pop\n      pop\n      dup1\n      0x00\n      add\n      dup1\n      sload\n      tag_25\n      swap1\n      tag_26\n      jump\t// in\n    tag_25:\n      dup1\n      0x1f\n      add\n      0x20\n      dup1\n      swap2\n      div\n      mul\n      0x20\n      add\n      mload(0x40)\n      swap1\n      dup2\n      add\n      0x40\n      mstore\n      dup1\n      swap3\n      swap2\n      swap1\n      dup2\n      dup2\n      mstore\n      0x20\n      add\n      dup3\n      dup1\n      sload\n      tag_27\n      swap1\n      tag_26\n      jump\t// in\n    tag_27:\n      dup1\n      iszero\n      tag_28\n      jumpi\n      dup1\n      0x1f\n      lt\n      tag_29\n      jumpi\n      0x0100\n      dup1\n      dup4\n      sload\n      div\n      mul\n      dup4\n      mstore\n      swap2\n      0x20\n      add\n      swap2\n      jump(tag_28)\n    tag_29:\n      dup3\n      add\n      swap2\n      swap1\n      0x00\n      mstore\n      keccak256(0x00, 0x20)\n      swap1\n    tag_30:\n      dup2\n      sload\n      dup2\n      mstore\n      swap1\n      0x01\n      add\n      swap1\n      0x20\n      add\n      dup1\n      dup4\n      gt\n      tag_30\n      jumpi\n      dup3\n      swap1\n      sub\n      0x1f\n      and\n      dup3\n      add\n      swap2\n    tag_28:\n      pop\n      pop\n      pop\n      pop\n      pop\n      swap1\n      pop\n      dup2\n      jump\t// out\n        /* \"Cook_Web3/Beginner_Chef/mapping/nested mapping/nestedMapping.sol\":1672:1816  function valueoOwner (uint id, string memory SpenderAddress) public{... */\n    tag_16:\n        /* \"Cook_Web3/Beginner_Chef/mapping/nested mapping/nestedMapping.sol\":1784:1808  address1(SpenderAddress) */\n      mload(0x40)\n      dup1\n      0x20\n      add\n      0x40\n      mstore\n      dup1\n        /* \"Cook_Web3/Beginner_Chef/mapping/nested mapping/nestedMapping.sol\":1793:1807  SpenderAddress */\n      dup3\n        /* \"Cook_Web3/Beginner_Chef/mapping/nested mapping/nestedMapping.sol\":1784:1808  address1(SpenderAddress) */\n      dup2\n      mstore\n      pop\n        /* \"Cook_Web3/Beginner_Chef/mapping/nested mapping/nestedMapping.sol\":1750:1765  nestedAddresses */\n      0x01\n        /* \"Cook_Web3/Beginner_Chef/mapping/nested mapping/nestedMapping.sol\":1750:1777  nestedAddresses[msg.sender] */\n      0x00\n        /* \"Cook_Web3/Beginner_Chef/mapping/nested mapping/nestedMapping.sol\":1766:1776  msg.sender */\n      caller\n        /* \"Cook_Web3/Beginner_Chef/mapping/nested mapping/nestedMapping.sol\":1750:1777  nestedAddresses[msg.sender] */\n      0xffffffffffffffffffffffffffffffffffffffff\n      and\n      0xffffffffffffffffffffffffffffffffffffffff\n      and\n      dup2\n      mstore\n      0x20\n      add\n      swap1\n      dup2\n      mstore\n      0x20\n      add\n      0x00\n      keccak256\n        /* \"Cook_Web3/Beginner_Chef/mapping/nested mapping/nestedMapping.sol\":1750:1781  nestedAddresses[msg.sender][id] */\n      0x00\n        /* \"Cook_Web3/Beginner_Chef/mapping/nested mapping/nestedMapping.sol\":1778:1780  id */\n      dup5\n        /* \"Cook_Web3/Beginner_Chef/mapping/nested mapping/nestedMapping.sol\":1750:1781  nestedAddresses[msg.sender][id] */\n      dup2\n      mstore\n      0x20\n      add\n      swap1\n      dup2\n      mstore\n      0x20\n      add\n      0x00\n      keccak256\n        /* \"Cook_Web3/Beginner_Chef/mapping/nested mapping/nestedMapping.sol\":1750:1808  nestedAddresses[msg.sender][id] = address1(SpenderAddress) */\n      0x00\n      dup3\n      add\n      mload\n      dup2\n      0x00\n      add\n      swap1\n      dup2\n      tag_32\n      swap2\n      swap1\n      tag_33\n      jump\t// in\n    tag_32:\n      pop\n      swap1\n      pop\n      pop\n        /* \"Cook_Web3/Beginner_Chef/mapping/nested mapping/nestedMapping.sol\":1672:1816  function valueoOwner (uint id, string memory SpenderAddress) public{... */\n      pop\n      pop\n      jump\t// out\n        /* \"Cook_Web3/Beginner_Chef/mapping/nested mapping/nestedMapping.sol\":1361:1403  mapping (uint => address1) public Spenderr */\n    tag_20:\n      mstore(0x20, 0x00)\n      dup1\n      0x00\n      mstore\n      keccak256(0x00, 0x40)\n      0x00\n      swap2\n      pop\n      swap1\n      pop\n      dup1\n      0x00\n      add\n      dup1\n      sload\n      tag_34\n      swap1\n      tag_26\n      jump\t// in\n    tag_34:\n      dup1\n      0x1f\n      add\n      0x20\n      dup1\n      swap2\n      div\n      mul\n      0x20\n      add\n      mload(0x40)\n      swap1\n      dup2\n      add\n      0x40\n      mstore\n      dup1\n      swap3\n      swap2\n      swap1\n      dup2\n      dup2\n      mstore\n      0x20\n      add\n      dup3\n      dup1\n      sload\n      tag_35\n      swap1\n      tag_26\n      jump\t// in\n    tag_35:\n      dup1\n      iszero\n      tag_36\n      jumpi\n      dup1\n      0x1f\n      lt\n      tag_37\n      jumpi\n      0x0100\n      dup1\n      dup4\n      sload\n      div\n      mul\n      dup4\n      mstore\n      swap2\n      0x20\n      add\n      swap2\n      jump(tag_36)\n    tag_37:\n      dup3\n      add\n      swap2\n      swap1\n      0x00\n      mstore\n      keccak256(0x00, 0x20)\n      swap1\n    tag_38:\n      dup2\n      sload\n      dup2\n      mstore\n      swap1\n      0x01\n      add\n      swap1\n      0x20\n      add\n      dup1\n      dup4\n      gt\n      tag_38\n      jumpi\n      dup3\n      swap1\n      sub\n      0x1f\n      and\n      dup3\n      add\n      swap2\n    tag_36:\n      pop\n      pop\n      pop\n      pop\n      pop\n      swap1\n      pop\n      dup2\n      jump\t// out\n        /* \"Cook_Web3/Beginner_Chef/mapping/nested mapping/nestedMapping.sol\":1416:1544  function valueofSpender (uint id, string memory SpenderAddress) public{... */\n    tag_24:\n        /* \"Cook_Web3/Beginner_Chef/mapping/nested mapping/nestedMapping.sol\":1512:1536  address1(SpenderAddress) */\n      mload(0x40)\n      dup1\n      0x20\n      add\n      0x40\n      mstore\n      dup1\n        /* \"Cook_Web3/Beginner_Chef/mapping/nested mapping/nestedMapping.sol\":1521:1535  SpenderAddress */\n      dup3\n        /* \"Cook_Web3/Beginner_Chef/mapping/nested mapping/nestedMapping.sol\":1512:1536  address1(SpenderAddress) */\n      dup2\n      mstore\n      pop\n        /* \"Cook_Web3/Beginner_Chef/mapping/nested mapping/nestedMapping.sol\":1497:1505  Spenderr */\n      0x00\n        /* \"Cook_Web3/Beginner_Chef/mapping/nested mapping/nestedMapping.sol\":1497:1509  Spenderr[id] */\n      dup1\n        /* \"Cook_Web3/Beginner_Chef/mapping/nested mapping/nestedMapping.sol\":1506:1508  id */\n      dup5\n        /* \"Cook_Web3/Beginner_Chef/mapping/nested mapping/nestedMapping.sol\":1497:1509  Spenderr[id] */\n      dup2\n      mstore\n      0x20\n      add\n      swap1\n      dup2\n      mstore\n      0x20\n      add\n      0x00\n      keccak256\n        /* \"Cook_Web3/Beginner_Chef/mapping/nested mapping/nestedMapping.sol\":1497:1536  Spenderr[id] = address1(SpenderAddress) */\n      0x00\n      dup3\n      add\n      mload\n      dup2\n      0x00\n      add\n      swap1\n      dup2\n      tag_40\n      swap2\n      swap1\n      tag_33\n      jump\t// in\n    tag_40:\n      pop\n      swap1\n      pop\n      pop\n        /* \"Cook_Web3/Beginner_Chef/mapping/nested mapping/nestedMapping.sol\":1416:1544  function valueofSpender (uint id, string memory SpenderAddress) public{... */\n      pop\n      pop\n      jump\t// out\n        /* \"#utility.yul\":7:82   */\n    tag_41:\n        /* \"#utility.yul\":40:46   */\n      0x00\n        /* \"#utility.yul\":73:75   */\n      0x40\n        /* \"#utility.yul\":67:76   */\n      mload\n        /* \"#utility.yul\":57:76   */\n      swap1\n      pop\n        /* \"#utility.yul\":7:82   */\n      swap1\n      jump\t// out\n        /* \"#utility.yul\":88:205   */\n    tag_42:\n        /* \"#utility.yul\":197:198   */\n      0x00\n        /* \"#utility.yul\":194:195   */\n      dup1\n        /* \"#utility.yul\":187:199   */\n      revert\n        /* \"#utility.yul\":211:328   */\n    tag_43:\n        /* \"#utility.yul\":320:321   */\n      0x00\n        /* \"#utility.yul\":317:318   */\n      dup1\n        /* \"#utility.yul\":310:322   */\n      revert\n        /* \"#utility.yul\":334:460   */\n    tag_44:\n        /* \"#utility.yul\":371:378   */\n      0x00\n        /* \"#utility.yul\":411:453   */\n      0xffffffffffffffffffffffffffffffffffffffff\n        /* \"#utility.yul\":404:409   */\n      dup3\n        /* \"#utility.yul\":400:454   */\n      and\n        /* \"#utility.yul\":389:454   */\n      swap1\n      pop\n        /* \"#utility.yul\":334:460   */\n      swap2\n      swap1\n      pop\n      jump\t// out\n        /* \"#utility.yul\":466:562   */\n    tag_45:\n        /* \"#utility.yul\":503:510   */\n      0x00\n        /* \"#utility.yul\":532:556   */\n      tag_87\n        /* \"#utility.yul\":550:555   */\n      dup3\n        /* \"#utility.yul\":532:556   */\n      tag_44\n      jump\t// in\n    tag_87:\n        /* \"#utility.yul\":521:556   */\n      swap1\n      pop\n        /* \"#utility.yul\":466:562   */\n      swap2\n      swap1\n      pop\n      jump\t// out\n        /* \"#utility.yul\":568:690   */\n    tag_46:\n        /* \"#utility.yul\":641:665   */\n      tag_89\n        /* \"#utility.yul\":659:664   */\n      dup2\n        /* \"#utility.yul\":641:665   */\n      tag_45\n      jump\t// in\n    tag_89:\n        /* \"#utility.yul\":634:639   */\n      dup2\n        /* \"#utility.yul\":631:666   */\n      eq\n        /* \"#utility.yul\":621:684   */\n      tag_90\n      jumpi\n        /* \"#utility.yul\":680:681   */\n      0x00\n        /* \"#utility.yul\":677:678   */\n      dup1\n        /* \"#utility.yul\":670:682   */\n      revert\n        /* \"#utility.yul\":621:684   */\n    tag_90:\n        /* \"#utility.yul\":568:690   */\n      pop\n      jump\t// out\n        /* \"#utility.yul\":696:835   */\n    tag_47:\n        /* \"#utility.yul\":742:747   */\n      0x00\n        /* \"#utility.yul\":780:786   */\n      dup2\n        /* \"#utility.yul\":767:787   */\n      calldataload\n        /* \"#utility.yul\":758:787   */\n      swap1\n      pop\n        /* \"#utility.yul\":796:829   */\n      tag_92\n        /* \"#utility.yul\":823:828   */\n      dup2\n        /* \"#utility.yul\":796:829   */\n      tag_46\n      jump\t// in\n    tag_92:\n        /* \"#utility.yul\":696:835   */\n      swap3\n      swap2\n      pop\n      pop\n      jump\t// out\n        /* \"#utility.yul\":841:918   */\n    tag_48:\n        /* \"#utility.yul\":878:885   */\n      0x00\n        /* \"#utility.yul\":907:912   */\n      dup2\n        /* \"#utility.yul\":896:912   */\n      swap1\n      pop\n        /* \"#utility.yul\":841:918   */\n      swap2\n      swap1\n      pop\n      jump\t// out\n        /* \"#utility.yul\":924:1046   */\n    tag_49:\n        /* \"#utility.yul\":997:1021   */\n      tag_95\n        /* \"#utility.yul\":1015:1020   */\n      dup2\n        /* \"#utility.yul\":997:1021   */\n      tag_48\n      jump\t// in\n    tag_95:\n        /* \"#utility.yul\":990:995   */\n      dup2\n        /* \"#utility.yul\":987:1022   */\n      eq\n        /* \"#utility.yul\":977:1040   */\n      tag_96\n      jumpi\n        /* \"#utility.yul\":1036:1037   */\n      0x00\n        /* \"#utility.yul\":1033:1034   */\n      dup1\n        /* \"#utility.yul\":1026:1038   */\n      revert\n        /* \"#utility.yul\":977:1040   */\n    tag_96:\n        /* \"#utility.yul\":924:1046   */\n      pop\n      jump\t// out\n        /* \"#utility.yul\":1052:1191   */\n    tag_50:\n        /* \"#utility.yul\":1098:1103   */\n      0x00\n        /* \"#utility.yul\":1136:1142   */\n      dup2\n        /* \"#utility.yul\":1123:1143   */\n      calldataload\n        /* \"#utility.yul\":1114:1143   */\n      swap1\n      pop\n        /* \"#utility.yul\":1152:1185   */\n      tag_98\n        /* \"#utility.yul\":1179:1184   */\n      dup2\n        /* \"#utility.yul\":1152:1185   */\n      tag_49\n      jump\t// in\n    tag_98:\n        /* \"#utility.yul\":1052:1191   */\n      swap3\n      swap2\n      pop\n      pop\n      jump\t// out\n        /* \"#utility.yul\":1197:1671   */\n    tag_9:\n        /* \"#utility.yul\":1265:1271   */\n      0x00\n        /* \"#utility.yul\":1273:1279   */\n      dup1\n        /* \"#utility.yul\":1322:1324   */\n      0x40\n        /* \"#utility.yul\":1310:1319   */\n      dup4\n        /* \"#utility.yul\":1301:1308   */\n      dup6\n        /* \"#utility.yul\":1297:1320   */\n      sub\n        /* \"#utility.yul\":1293:1325   */\n      slt\n        /* \"#utility.yul\":1290:1409   */\n      iszero\n      tag_100\n      jumpi\n        /* \"#utility.yul\":1328:1407   */\n      tag_101\n      tag_42\n      jump\t// in\n    tag_101:\n        /* \"#utility.yul\":1290:1409   */\n    tag_100:\n        /* \"#utility.yul\":1448:1449   */\n      0x00\n        /* \"#utility.yul\":1473:1526   */\n      tag_102\n        /* \"#utility.yul\":1518:1525   */\n      dup6\n        /* \"#utility.yul\":1509:1515   */\n      dup3\n        /* \"#utility.yul\":1498:1507   */\n      dup7\n        /* \"#utility.yul\":1494:1516   */\n      add\n        /* \"#utility.yul\":1473:1526   */\n      tag_47\n      jump\t// in\n    tag_102:\n        /* \"#utility.yul\":1463:1526   */\n      swap3\n      pop\n        /* \"#utility.yul\":1419:1536   */\n      pop\n        /* \"#utility.yul\":1575:1577   */\n      0x20\n        /* \"#utility.yul\":1601:1654   */\n      tag_103\n        /* \"#utility.yul\":1646:1653   */\n      dup6\n        /* \"#utility.yul\":1637:1643   */\n      dup3\n        /* \"#utility.yul\":1626:1635   */\n      dup7\n        /* \"#utility.yul\":1622:1644   */\n      add\n        /* \"#utility.yul\":1601:1654   */\n      tag_50\n      jump\t// in\n    tag_103:\n        /* \"#utility.yul\":1591:1654   */\n      swap2\n      pop\n        /* \"#utility.yul\":1546:1664   */\n      pop\n        /* \"#utility.yul\":1197:1671   */\n      swap3\n      pop\n      swap3\n      swap1\n      pop\n      jump\t// out\n        /* \"#utility.yul\":1677:1776   */\n    tag_51:\n        /* \"#utility.yul\":1729:1735   */\n      0x00\n        /* \"#utility.yul\":1763:1768   */\n      dup2\n        /* \"#utility.yul\":1757:1769   */\n      mload\n        /* \"#utility.yul\":1747:1769   */\n      swap1\n      pop\n        /* \"#utility.yul\":1677:1776   */\n      swap2\n      swap1\n      pop\n      jump\t// out\n        /* \"#utility.yul\":1782:1951   */\n    tag_52:\n        /* \"#utility.yul\":1866:1877   */\n      0x00\n        /* \"#utility.yul\":1900:1906   */\n      dup3\n        /* \"#utility.yul\":1895:1898   */\n      dup3\n        /* \"#utility.yul\":1888:1907   */\n      mstore\n        /* \"#utility.yul\":1940:1944   */\n      0x20\n        /* \"#utility.yul\":1935:1938   */\n      dup3\n        /* \"#utility.yul\":1931:1945   */\n      add\n        /* \"#utility.yul\":1916:1945   */\n      swap1\n      pop\n        /* \"#utility.yul\":1782:1951   */\n      swap3\n      swap2\n      pop\n      pop\n      jump\t// out\n        /* \"#utility.yul\":1957:2096   */\n    tag_53:\n        /* \"#utility.yul\":2046:2052   */\n      dup3\n        /* \"#utility.yul\":2041:2044   */\n      dup2\n        /* \"#utility.yul\":2036:2039   */\n      dup4\n        /* \"#utility.yul\":2030:2053   */\n      mcopy\n        /* \"#utility.yul\":2087:2088   */\n      0x00\n        /* \"#utility.yul\":2078:2084   */\n      dup4\n        /* \"#utility.yul\":2073:2076   */\n      dup4\n        /* \"#utility.yul\":2069:2085   */\n      add\n        /* \"#utility.yul\":2062:2089   */\n      mstore\n        /* \"#utility.yul\":1957:2096   */\n      pop\n      pop\n      pop\n      jump\t// out\n        /* \"#utility.yul\":2102:2204   */\n    tag_54:\n        /* \"#utility.yul\":2143:2149   */\n      0x00\n        /* \"#utility.yul\":2194:2196   */\n      0x1f\n        /* \"#utility.yul\":2190:2197   */\n      not\n        /* \"#utility.yul\":2185:2187   */\n      0x1f\n        /* \"#utility.yul\":2178:2183   */\n      dup4\n        /* \"#utility.yul\":2174:2188   */\n      add\n        /* \"#utility.yul\":2170:2198   */\n      and\n        /* \"#utility.yul\":2160:2198   */\n      swap1\n      pop\n        /* \"#utility.yul\":2102:2204   */\n      swap2\n      swap1\n      pop\n      jump\t// out\n        /* \"#utility.yul\":2210:2587   */\n    tag_55:\n        /* \"#utility.yul\":2298:2301   */\n      0x00\n        /* \"#utility.yul\":2326:2365   */\n      tag_109\n        /* \"#utility.yul\":2359:2364   */\n      dup3\n        /* \"#utility.yul\":2326:2365   */\n      tag_51\n      jump\t// in\n    tag_109:\n        /* \"#utility.yul\":2381:2452   */\n      tag_110\n        /* \"#utility.yul\":2445:2451   */\n      dup2\n        /* \"#utility.yul\":2440:2443   */\n      dup6\n        /* \"#utility.yul\":2381:2452   */\n      tag_52\n      jump\t// in\n    tag_110:\n        /* \"#utility.yul\":2374:2452   */\n      swap4\n      pop\n        /* \"#utility.yul\":2461:2526   */\n      tag_111\n        /* \"#utility.yul\":2519:2525   */\n      dup2\n        /* \"#utility.yul\":2514:2517   */\n      dup6\n        /* \"#utility.yul\":2507:2511   */\n      0x20\n        /* \"#utility.yul\":2500:2505   */\n      dup7\n        /* \"#utility.yul\":2496:2512   */\n      add\n        /* \"#utility.yul\":2461:2526   */\n      tag_53\n      jump\t// in\n    tag_111:\n        /* \"#utility.yul\":2551:2580   */\n      tag_112\n        /* \"#utility.yul\":2573:2579   */\n      dup2\n        /* \"#utility.yul\":2551:2580   */\n      tag_54\n      jump\t// in\n    tag_112:\n        /* \"#utility.yul\":2546:2549   */\n      dup5\n        /* \"#utility.yul\":2542:2581   */\n      add\n        /* \"#utility.yul\":2535:2581   */\n      swap2\n      pop\n        /* \"#utility.yul\":2302:2587   */\n      pop\n        /* \"#utility.yul\":2210:2587   */\n      swap3\n      swap2\n      pop\n      pop\n      jump\t// out\n        /* \"#utility.yul\":2593:2906   */\n    tag_12:\n        /* \"#utility.yul\":2706:2710   */\n      0x00\n        /* \"#utility.yul\":2744:2746   */\n      0x20\n        /* \"#utility.yul\":2733:2742   */\n      dup3\n        /* \"#utility.yul\":2729:2747   */\n      add\n        /* \"#utility.yul\":2721:2747   */\n      swap1\n      pop\n        /* \"#utility.yul\":2793:2802   */\n      dup2\n        /* \"#utility.yul\":2787:2791   */\n      dup2\n        /* \"#utility.yul\":2783:2803   */\n      sub\n        /* \"#utility.yul\":2779:2780   */\n      0x00\n        /* \"#utility.yul\":2768:2777   */\n      dup4\n        /* \"#utility.yul\":2764:2781   */\n      add\n        /* \"#utility.yul\":2757:2804   */\n      mstore\n        /* \"#utility.yul\":2821:2899   */\n      tag_114\n        /* \"#utility.yul\":2894:2898   */\n      dup2\n        /* \"#utility.yul\":2885:2891   */\n      dup5\n        /* \"#utility.yul\":2821:2899   */\n      tag_55\n      jump\t// in\n    tag_114:\n        /* \"#utility.yul\":2813:2899   */\n      swap1\n      pop\n        /* \"#utility.yul\":2593:2906   */\n      swap3\n      swap2\n      pop\n      pop\n      jump\t// out\n        /* \"#utility.yul\":2912:3029   */\n    tag_56:\n        /* \"#utility.yul\":3021:3022   */\n      0x00\n        /* \"#utility.yul\":3018:3019   */\n      dup1\n        /* \"#utility.yul\":3011:3023   */\n      revert\n        /* \"#utility.yul\":3035:3152   */\n    tag_57:\n        /* \"#utility.yul\":3144:3145   */\n      0x00\n        /* \"#utility.yul\":3141:3142   */\n      dup1\n        /* \"#utility.yul\":3134:3146   */\n      revert\n        /* \"#utility.yul\":3158:3338   */\n    tag_58:\n        /* \"#utility.yul\":3206:3283   */\n      0x4e487b7100000000000000000000000000000000000000000000000000000000\n        /* \"#utility.yul\":3203:3204   */\n      0x00\n        /* \"#utility.yul\":3196:3284   */\n      mstore\n        /* \"#utility.yul\":3303:3307   */\n      0x41\n        /* \"#utility.yul\":3300:3301   */\n      0x04\n        /* \"#utility.yul\":3293:3308   */\n      mstore\n        /* \"#utility.yul\":3327:3331   */\n      0x24\n        /* \"#utility.yul\":3324:3325   */\n      0x00\n        /* \"#utility.yul\":3317:3332   */\n      revert\n        /* \"#utility.yul\":3344:3625   */\n    tag_59:\n        /* \"#utility.yul\":3427:3454   */\n      tag_119\n        /* \"#utility.yul\":3449:3453   */\n      dup3\n        /* \"#utility.yul\":3427:3454   */\n      tag_54\n      jump\t// in\n    tag_119:\n        /* \"#utility.yul\":3419:3425   */\n      dup2\n        /* \"#utility.yul\":3415:3455   */\n      add\n        /* \"#utility.yul\":3557:3563   */\n      dup2\n        /* \"#utility.yul\":3545:3555   */\n      dup2\n        /* \"#utility.yul\":3542:3564   */\n      lt\n        /* \"#utility.yul\":3521:3539   */\n      0xffffffffffffffff\n        /* \"#utility.yul\":3509:3519   */\n      dup3\n        /* \"#utility.yul\":3506:3540   */\n      gt\n        /* \"#utility.yul\":3503:3565   */\n      or\n        /* \"#utility.yul\":3500:3588   */\n      iszero\n      tag_120\n      jumpi\n        /* \"#utility.yul\":3568:3586   */\n      tag_121\n      tag_58\n      jump\t// in\n    tag_121:\n        /* \"#utility.yul\":3500:3588   */\n    tag_120:\n        /* \"#utility.yul\":3608:3618   */\n      dup1\n        /* \"#utility.yul\":3604:3606   */\n      0x40\n        /* \"#utility.yul\":3597:3619   */\n      mstore\n        /* \"#utility.yul\":3387:3625   */\n      pop\n        /* \"#utility.yul\":3344:3625   */\n      pop\n      pop\n      jump\t// out\n        /* \"#utility.yul\":3631:3760   */\n    tag_60:\n        /* \"#utility.yul\":3665:3671   */\n      0x00\n        /* \"#utility.yul\":3692:3712   */\n      tag_123\n      tag_41\n      jump\t// in\n    tag_123:\n        /* \"#utility.yul\":3682:3712   */\n      swap1\n      pop\n        /* \"#utility.yul\":3721:3754   */\n      tag_124\n        /* \"#utility.yul\":3749:3753   */\n      dup3\n        /* \"#utility.yul\":3741:3747   */\n      dup3\n        /* \"#utility.yul\":3721:3754   */\n      tag_59\n      jump\t// in\n    tag_124:\n        /* \"#utility.yul\":3631:3760   */\n      swap2\n      swap1\n      pop\n      jump\t// out\n        /* \"#utility.yul\":3766:4074   */\n    tag_61:\n        /* \"#utility.yul\":3828:3832   */\n      0x00\n        /* \"#utility.yul\":3918:3936   */\n      0xffffffffffffffff\n        /* \"#utility.yul\":3910:3916   */\n      dup3\n        /* \"#utility.yul\":3907:3937   */\n      gt\n        /* \"#utility.yul\":3904:3960   */\n      iszero\n      tag_126\n      jumpi\n        /* \"#utility.yul\":3940:3958   */\n      tag_127\n      tag_58\n      jump\t// in\n    tag_127:\n        /* \"#utility.yul\":3904:3960   */\n    tag_126:\n        /* \"#utility.yul\":3978:4007   */\n      tag_128\n        /* \"#utility.yul\":4000:4006   */\n      dup3\n        /* \"#utility.yul\":3978:4007   */\n      tag_54\n      jump\t// in\n    tag_128:\n        /* \"#utility.yul\":3970:4007   */\n      swap1\n      pop\n        /* \"#utility.yul\":4062:4066   */\n      0x20\n        /* \"#utility.yul\":4056:4060   */\n      dup2\n        /* \"#utility.yul\":4052:4067   */\n      add\n        /* \"#utility.yul\":4044:4067   */\n      swap1\n      pop\n        /* \"#utility.yul\":3766:4074   */\n      swap2\n      swap1\n      pop\n      jump\t// out\n        /* \"#utility.yul\":4080:4228   */\n    tag_62:\n        /* \"#utility.yul\":4178:4184   */\n      dup3\n        /* \"#utility.yul\":4173:4176   */\n      dup2\n        /* \"#utility.yul\":4168:4171   */\n      dup4\n        /* \"#utility.yul\":4155:4185   */\n      calldatacopy\n        /* \"#utility.yul\":4219:4220   */\n      0x00\n        /* \"#utility.yul\":4210:4216   */\n      dup4\n        /* \"#utility.yul\":4205:4208   */\n      dup4\n        /* \"#utility.yul\":4201:4217   */\n      add\n        /* \"#utility.yul\":4194:4221   */\n      mstore\n        /* \"#utility.yul\":4080:4228   */\n      pop\n      pop\n      pop\n      jump\t// out\n        /* \"#utility.yul\":4234:4659   */\n    tag_63:\n        /* \"#utility.yul\":4312:4317   */\n      0x00\n        /* \"#utility.yul\":4337:4403   */\n      tag_131\n        /* \"#utility.yul\":4353:4402   */\n      tag_132\n        /* \"#utility.yul\":4395:4401   */\n      dup5\n        /* \"#utility.yul\":4353:4402   */\n      tag_61\n      jump\t// in\n    tag_132:\n        /* \"#utility.yul\":4337:4403   */\n      tag_60\n      jump\t// in\n    tag_131:\n        /* \"#utility.yul\":4328:4403   */\n      swap1\n      pop\n        /* \"#utility.yul\":4426:4432   */\n      dup3\n        /* \"#utility.yul\":4419:4424   */\n      dup2\n        /* \"#utility.yul\":4412:4433   */\n      mstore\n        /* \"#utility.yul\":4464:4468   */\n      0x20\n        /* \"#utility.yul\":4457:4462   */\n      dup2\n        /* \"#utility.yul\":4453:4469   */\n      add\n        /* \"#utility.yul\":4502:4505   */\n      dup5\n        /* \"#utility.yul\":4493:4499   */\n      dup5\n        /* \"#utility.yul\":4488:4491   */\n      dup5\n        /* \"#utility.yul\":4484:4500   */\n      add\n        /* \"#utility.yul\":4481:4506   */\n      gt\n        /* \"#utility.yul\":4478:4590   */\n      iszero\n      tag_133\n      jumpi\n        /* \"#utility.yul\":4509:4588   */\n      tag_134\n      tag_57\n      jump\t// in\n    tag_134:\n        /* \"#utility.yul\":4478:4590   */\n    tag_133:\n        /* \"#utility.yul\":4599:4653   */\n      tag_135\n        /* \"#utility.yul\":4646:4652   */\n      dup5\n        /* \"#utility.yul\":4641:4644   */\n      dup3\n        /* \"#utility.yul\":4636:4639   */\n      dup6\n        /* \"#utility.yul\":4599:4653   */\n      tag_62\n      jump\t// in\n    tag_135:\n        /* \"#utility.yul\":4318:4659   */\n      pop\n        /* \"#utility.yul\":4234:4659   */\n      swap4\n      swap3\n      pop\n      pop\n      pop\n      jump\t// out\n        /* \"#utility.yul\":4679:5019   */\n    tag_64:\n        /* \"#utility.yul\":4735:4740   */\n      0x00\n        /* \"#utility.yul\":4784:4787   */\n      dup3\n        /* \"#utility.yul\":4777:4781   */\n      0x1f\n        /* \"#utility.yul\":4769:4775   */\n      dup4\n        /* \"#utility.yul\":4765:4782   */\n      add\n        /* \"#utility.yul\":4761:4788   */\n      slt\n        /* \"#utility.yul\":4751:4873   */\n      tag_137\n      jumpi\n        /* \"#utility.yul\":4792:4871   */\n      tag_138\n      tag_56\n      jump\t// in\n    tag_138:\n        /* \"#utility.yul\":4751:4873   */\n    tag_137:\n        /* \"#utility.yul\":4909:4915   */\n      dup2\n        /* \"#utility.yul\":4896:4916   */\n      calldataload\n        /* \"#utility.yul\":4934:5013   */\n      tag_139\n        /* \"#utility.yul\":5009:5012   */\n      dup5\n        /* \"#utility.yul\":5001:5007   */\n      dup3\n        /* \"#utility.yul\":4994:4998   */\n      0x20\n        /* \"#utility.yul\":4986:4992   */\n      dup7\n        /* \"#utility.yul\":4982:4999   */\n      add\n        /* \"#utility.yul\":4934:5013   */\n      tag_63\n      jump\t// in\n    tag_139:\n        /* \"#utility.yul\":4925:5013   */\n      swap2\n      pop\n        /* \"#utility.yul\":4741:5019   */\n      pop\n        /* \"#utility.yul\":4679:5019   */\n      swap3\n      swap2\n      pop\n      pop\n      jump\t// out\n        /* \"#utility.yul\":5025:5679   */\n    tag_15:\n        /* \"#utility.yul\":5103:5109   */\n      0x00\n        /* \"#utility.yul\":5111:5117   */\n      dup1\n        /* \"#utility.yul\":5160:5162   */\n      0x40\n        /* \"#utility.yul\":5148:5157   */\n      dup4\n        /* \"#utility.yul\":5139:5146   */\n      dup6\n        /* \"#utility.yul\":5135:5158   */\n      sub\n        /* \"#utility.yul\":5131:5163   */\n      slt\n        /* \"#utility.yul\":5128:5247   */\n      iszero\n      tag_141\n      jumpi\n        /* \"#utility.yul\":5166:5245   */\n      tag_142\n      tag_42\n      jump\t// in\n    tag_142:\n        /* \"#utility.yul\":5128:5247   */\n    tag_141:\n        /* \"#utility.yul\":5286:5287   */\n      0x00\n        /* \"#utility.yul\":5311:5364   */\n      tag_143\n        /* \"#utility.yul\":5356:5363   */\n      dup6\n        /* \"#utility.yul\":5347:5353   */\n      dup3\n        /* \"#utility.yul\":5336:5345   */\n      dup7\n        /* \"#utility.yul\":5332:5354   */\n      add\n        /* \"#utility.yul\":5311:5364   */\n      tag_50\n      jump\t// in\n    tag_143:\n        /* \"#utility.yul\":5301:5364   */\n      swap3\n      pop\n        /* \"#utility.yul\":5257:5374   */\n      pop\n        /* \"#utility.yul\":5441:5443   */\n      0x20\n        /* \"#utility.yul\":5430:5439   */\n      dup4\n        /* \"#utility.yul\":5426:5444   */\n      add\n        /* \"#utility.yul\":5413:5445   */\n      calldataload\n        /* \"#utility.yul\":5472:5490   */\n      0xffffffffffffffff\n        /* \"#utility.yul\":5464:5470   */\n      dup2\n        /* \"#utility.yul\":5461:5491   */\n      gt\n        /* \"#utility.yul\":5458:5575   */\n      iszero\n      tag_144\n      jumpi\n        /* \"#utility.yul\":5494:5573   */\n      tag_145\n      tag_43\n      jump\t// in\n    tag_145:\n        /* \"#utility.yul\":5458:5575   */\n    tag_144:\n        /* \"#utility.yul\":5599:5662   */\n      tag_146\n        /* \"#utility.yul\":5654:5661   */\n      dup6\n        /* \"#utility.yul\":5645:5651   */\n      dup3\n        /* \"#utility.yul\":5634:5643   */\n      dup7\n        /* \"#utility.yul\":5630:5652   */\n      add\n        /* \"#utility.yul\":5599:5662   */\n      tag_64\n      jump\t// in\n    tag_146:\n        /* \"#utility.yul\":5589:5662   */\n      swap2\n      pop\n        /* \"#utility.yul\":5384:5672   */\n      pop\n        /* \"#utility.yul\":5025:5679   */\n      swap3\n      pop\n      swap3\n      swap1\n      pop\n      jump\t// out\n        /* \"#utility.yul\":5685:6014   */\n    tag_19:\n        /* \"#utility.yul\":5744:5750   */\n      0x00\n        /* \"#utility.yul\":5793:5795   */\n      0x20\n        /* \"#utility.yul\":5781:5790   */\n      dup3\n        /* \"#utility.yul\":5772:5779   */\n      dup5\n        /* \"#utility.yul\":5768:5791   */\n      sub\n        /* \"#utility.yul\":5764:5796   */\n      slt\n        /* \"#utility.yul\":5761:5880   */\n      iszero\n      tag_148\n      jumpi\n        /* \"#utility.yul\":5799:5878   */\n      tag_149\n      tag_42\n      jump\t// in\n    tag_149:\n        /* \"#utility.yul\":5761:5880   */\n    tag_148:\n        /* \"#utility.yul\":5919:5920   */\n      0x00\n        /* \"#utility.yul\":5944:5997   */\n      tag_150\n        /* \"#utility.yul\":5989:5996   */\n      dup5\n        /* \"#utility.yul\":5980:5986   */\n      dup3\n        /* \"#utility.yul\":5969:5978   */\n      dup6\n        /* \"#utility.yul\":5965:5987   */\n      add\n        /* \"#utility.yul\":5944:5997   */\n      tag_50\n      jump\t// in\n    tag_150:\n        /* \"#utility.yul\":5934:5997   */\n      swap2\n      pop\n        /* \"#utility.yul\":5890:6007   */\n      pop\n        /* \"#utility.yul\":5685:6014   */\n      swap3\n      swap2\n      pop\n      pop\n      jump\t// out\n        /* \"#utility.yul\":6020:6200   */\n    tag_65:\n        /* \"#utility.yul\":6068:6145   */\n      0x4e487b7100000000000000000000000000000000000000000000000000000000\n        /* \"#utility.yul\":6065:6066   */\n      0x00\n        /* \"#utility.yul\":6058:6146   */\n      mstore\n        /* \"#utility.yul\":6165:6169   */\n      0x22\n        /* \"#utility.yul\":6162:6163   */\n      0x04\n        /* \"#utility.yul\":6155:6170   */\n      mstore\n        /* \"#utility.yul\":6189:6193   */\n      0x24\n        /* \"#utility.yul\":6186:6187   */\n      0x00\n        /* \"#utility.yul\":6179:6194   */\n      revert\n        /* \"#utility.yul\":6206:6526   */\n    tag_26:\n        /* \"#utility.yul\":6250:6256   */\n      0x00\n        /* \"#utility.yul\":6287:6288   */\n      0x02\n        /* \"#utility.yul\":6281:6285   */\n      dup3\n        /* \"#utility.yul\":6277:6289   */\n      div\n        /* \"#utility.yul\":6267:6289   */\n      swap1\n      pop\n        /* \"#utility.yul\":6334:6335   */\n      0x01\n        /* \"#utility.yul\":6328:6332   */\n      dup3\n        /* \"#utility.yul\":6324:6336   */\n      and\n        /* \"#utility.yul\":6355:6373   */\n      dup1\n        /* \"#utility.yul\":6345:6426   */\n      tag_153\n      jumpi\n        /* \"#utility.yul\":6411:6415   */\n      0x7f\n        /* \"#utility.yul\":6403:6409   */\n      dup3\n        /* \"#utility.yul\":6399:6416   */\n      and\n        /* \"#utility.yul\":6389:6416   */\n      swap2\n      pop\n        /* \"#utility.yul\":6345:6426   */\n    tag_153:\n        /* \"#utility.yul\":6473:6475   */\n      0x20\n        /* \"#utility.yul\":6465:6471   */\n      dup3\n        /* \"#utility.yul\":6462:6476   */\n      lt\n        /* \"#utility.yul\":6442:6460   */\n      dup2\n        /* \"#utility.yul\":6439:6477   */\n      sub\n        /* \"#utility.yul\":6436:6520   */\n      tag_154\n      jumpi\n        /* \"#utility.yul\":6492:6510   */\n      tag_155\n      tag_65\n      jump\t// in\n    tag_155:\n        /* \"#utility.yul\":6436:6520   */\n    tag_154:\n        /* \"#utility.yul\":6257:6526   */\n      pop\n        /* \"#utility.yul\":6206:6526   */\n      swap2\n      swap1\n      pop\n      jump\t// out\n        /* \"#utility.yul\":6532:6673   */\n    tag_66:\n        /* \"#utility.yul\":6581:6585   */\n      0x00\n        /* \"#utility.yul\":6604:6607   */\n      dup2\n        /* \"#utility.yul\":6596:6607   */\n      swap1\n      pop\n        /* \"#utility.yul\":6627:6630   */\n      dup2\n        /* \"#utility.yul\":6624:6625   */\n      0x00\n        /* \"#utility.yul\":6617:6631   */\n      mstore\n        /* \"#utility.yul\":6661:6665   */\n      0x20\n        /* \"#utility.yul\":6658:6659   */\n      0x00\n        /* \"#utility.yul\":6648:6666   */\n      keccak256\n        /* \"#utility.yul\":6640:6666   */\n      swap1\n      pop\n        /* \"#utility.yul\":6532:6673   */\n      swap2\n      swap1\n      pop\n      jump\t// out\n        /* \"#utility.yul\":6679:6772   */\n    tag_67:\n        /* \"#utility.yul\":6716:6722   */\n      0x00\n        /* \"#utility.yul\":6763:6765   */\n      0x20\n        /* \"#utility.yul\":6758:6760   */\n      0x1f\n        /* \"#utility.yul\":6751:6756   */\n      dup4\n        /* \"#utility.yul\":6747:6761   */\n      add\n        /* \"#utility.yul\":6743:6766   */\n      div\n        /* \"#utility.yul\":6733:6766   */\n      swap1\n      pop\n        /* \"#utility.yul\":6679:6772   */\n      swap2\n      swap1\n      pop\n      jump\t// out\n        /* \"#utility.yul\":6778:6885   */\n    tag_68:\n        /* \"#utility.yul\":6822:6830   */\n      0x00\n        /* \"#utility.yul\":6872:6877   */\n      dup3\n        /* \"#utility.yul\":6866:6870   */\n      dup3\n        /* \"#utility.yul\":6862:6878   */\n      shl\n        /* \"#utility.yul\":6841:6878   */\n      swap1\n      pop\n        /* \"#utility.yul\":6778:6885   */\n      swap3\n      swap2\n      pop\n      pop\n      jump\t// out\n        /* \"#utility.yul\":6891:7284   */\n    tag_69:\n        /* \"#utility.yul\":6960:6966   */\n      0x00\n        /* \"#utility.yul\":7010:7011   */\n      0x08\n        /* \"#utility.yul\":6998:7008   */\n      dup4\n        /* \"#utility.yul\":6994:7012   */\n      mul\n        /* \"#utility.yul\":7033:7130   */\n      tag_160\n        /* \"#utility.yul\":7063:7129   */\n      0xffffffffffffffffffffffffffffffffffffffffffffffffffffffffffffffff\n        /* \"#utility.yul\":7052:7061   */\n      dup3\n        /* \"#utility.yul\":7033:7130   */\n      tag_68\n      jump\t// in\n    tag_160:\n        /* \"#utility.yul\":7151:7190   */\n      tag_161\n        /* \"#utility.yul\":7181:7189   */\n      dup7\n        /* \"#utility.yul\":7170:7179   */\n      dup4\n        /* \"#utility.yul\":7151:7190   */\n      tag_68\n      jump\t// in\n    tag_161:\n        /* \"#utility.yul\":7139:7190   */\n      swap6\n      pop\n        /* \"#utility.yul\":7223:7227   */\n      dup1\n        /* \"#utility.yul\":7219:7228   */\n      not\n        /* \"#utility.yul\":7212:7217   */\n      dup5\n        /* \"#utility.yul\":7208:7229   */\n      and\n        /* \"#utility.yul\":7199:7229   */\n      swap4\n      pop\n        /* \"#utility.yul\":7272:7276   */\n      dup1\n        /* \"#utility.yul\":7262:7270   */\n      dup7\n        /* \"#utility.yul\":7258:7277   */\n      and\n        /* \"#utility.yul\":7251:7256   */\n      dup5\n        /* \"#utility.yul\":7248:7278   */\n      or\n        /* \"#utility.yul\":7238:7278   */\n      swap3\n      pop\n        /* \"#utility.yul\":6967:7284   */\n      pop\n      pop\n        /* \"#utility.yul\":6891:7284   */\n      swap4\n      swap3\n      pop\n      pop\n      pop\n      jump\t// out\n        /* \"#utility.yul\":7290:7350   */\n    tag_70:\n        /* \"#utility.yul\":7318:7321   */\n      0x00\n        /* \"#utility.yul\":7339:7344   */\n      dup2\n        /* \"#utility.yul\":7332:7344   */\n      swap1\n      pop\n        /* \"#utility.yul\":7290:7350   */\n      swap2\n      swap1\n      pop\n      jump\t// out\n        /* \"#utility.yul\":7356:7498   */\n    tag_71:\n        /* \"#utility.yul\":7406:7415   */\n      0x00\n        /* \"#utility.yul\":7439:7492   */\n      tag_164\n        /* \"#utility.yul\":7457:7491   */\n      tag_165\n        /* \"#utility.yul\":7466:7490   */\n      tag_166\n        /* \"#utility.yul\":7484:7489   */\n      dup5\n        /* \"#utility.yul\":7466:7490   */\n      tag_48\n      jump\t// in\n    tag_166:\n        /* \"#utility.yul\":7457:7491   */\n      tag_70\n      jump\t// in\n    tag_165:\n        /* \"#utility.yul\":7439:7492   */\n      tag_48\n      jump\t// in\n    tag_164:\n        /* \"#utility.yul\":7426:7492   */\n      swap1\n      pop\n        /* \"#utility.yul\":7356:7498   */\n      swap2\n      swap1\n      pop\n      jump\t// out\n        /* \"#utility.yul\":7504:7579   */\n    tag_72:\n        /* \"#utility.yul\":7547:7550   */\n      0x00\n        /* \"#utility.yul\":7568:7573   */\n      dup2\n        /* \"#utility.yul\":7561:7573   */\n      swap1\n      pop\n        /* \"#utility.yul\":7504:7579   */\n      swap2\n      swap1\n      pop\n      jump\t// out\n        /* \"#utility.yul\":7585:7854   */\n    tag_73:\n        /* \"#utility.yul\":7695:7734   */\n      tag_169\n        /* \"#utility.yul\":7726:7733   */\n      dup4\n        /* \"#utility.yul\":7695:7734   */\n      tag_71\n      jump\t// in\n    tag_169:\n        /* \"#utility.yul\":7756:7847   */\n      tag_170\n        /* \"#utility.yul\":7805:7846   */\n      tag_171\n        /* \"#utility.yul\":7829:7845   */\n      dup3\n        /* \"#utility.yul\":7805:7846   */\n      tag_72\n      jump\t// in\n    tag_171:\n        /* \"#utility.yul\":7797:7803   */\n      dup5\n        /* \"#utility.yul\":7790:7794   */\n      dup5\n        /* \"#utility.yul\":7784:7795   */\n      sload\n        /* \"#utility.yul\":7756:7847   */\n      tag_69\n      jump\t// in\n    tag_170:\n        /* \"#utility.yul\":7750:7754   */\n      dup3\n        /* \"#utility.yul\":7743:7848   */\n      sstore\n        /* \"#utility.yul\":7661:7854   */\n      pop\n        /* \"#utility.yul\":7585:7854   */\n      pop\n      pop\n      pop\n      jump\t// out\n        /* \"#utility.yul\":7860:7933   */\n    tag_74:\n        /* \"#utility.yul\":7905:7908   */\n      0x00\n        /* \"#utility.yul\":7860:7933   */\n      swap1\n      jump\t// out\n        /* \"#utility.yul\":7939:8128   */\n    tag_75:\n        /* \"#utility.yul\":8016:8048   */\n      tag_174\n      tag_74\n      jump\t// in\n    tag_174:\n        /* \"#utility.yul\":8057:8122   */\n      tag_175\n        /* \"#utility.yul\":8115:8121   */\n      dup2\n        /* \"#utility.yul\":8107:8113   */\n      dup5\n        /* \"#utility.yul\":8101:8105   */\n      dup5\n        /* \"#utility.yul\":8057:8122   */\n      tag_73\n      jump\t// in\n    tag_175:\n        /* \"#utility.yul\":7992:8128   */\n      pop\n        /* \"#utility.yul\":7939:8128   */\n      pop\n      pop\n      jump\t// out\n        /* \"#utility.yul\":8134:8320   */\n    tag_76:\n        /* \"#utility.yul\":8194:8314   */\n    tag_177:\n        /* \"#utility.yul\":8211:8214   */\n      dup2\n        /* \"#utility.yul\":8204:8209   */\n      dup2\n        /* \"#utility.yul\":8201:8215   */\n      lt\n        /* \"#utility.yul\":8194:8314   */\n      iszero\n      tag_179\n      jumpi\n        /* \"#utility.yul\":8265:8304   */\n      tag_180\n        /* \"#utility.yul\":8302:8303   */\n      0x00\n        /* \"#utility.yul\":8295:8300   */\n      dup3\n        /* \"#utility.yul\":8265:8304   */\n      tag_75\n      jump\t// in\n    tag_180:\n        /* \"#utility.yul\":8238:8239   */\n      0x01\n        /* \"#utility.yul\":8231:8236   */\n      dup2\n        /* \"#utility.yul\":8227:8240   */\n      add\n        /* \"#utility.yul\":8218:8240   */\n      swap1\n      pop\n        /* \"#utility.yul\":8194:8314   */\n      jump(tag_177)\n    tag_179:\n        /* \"#utility.yul\":8134:8320   */\n      pop\n      pop\n      jump\t// out\n        /* \"#utility.yul\":8326:8869   */\n    tag_77:\n        /* \"#utility.yul\":8427:8429   */\n      0x1f\n        /* \"#utility.yul\":8422:8425   */\n      dup3\n        /* \"#utility.yul\":8419:8430   */\n      gt\n        /* \"#utility.yul\":8416:8862   */\n      iszero\n      tag_182\n      jumpi\n        /* \"#utility.yul\":8461:8499   */\n      tag_183\n        /* \"#utility.yul\":8493:8498   */\n      dup2\n        /* \"#utility.yul\":8461:8499   */\n      tag_66\n      jump\t// in\n    tag_183:\n        /* \"#utility.yul\":8545:8574   */\n      tag_184\n        /* \"#utility.yul\":8563:8573   */\n      dup5\n        /* \"#utility.yul\":8545:8574   */\n      tag_67\n      jump\t// in\n    tag_184:\n        /* \"#utility.yul\":8535:8543   */\n      dup2\n        /* \"#utility.yul\":8531:8575   */\n      add\n        /* \"#utility.yul\":8728:8730   */\n      0x20\n        /* \"#utility.yul\":8716:8726   */\n      dup6\n        /* \"#utility.yul\":8713:8731   */\n      lt\n        /* \"#utility.yul\":8710:8759   */\n      iszero\n      tag_185\n      jumpi\n        /* \"#utility.yul\":8749:8757   */\n      dup2\n        /* \"#utility.yul\":8734:8757   */\n      swap1\n      pop\n        /* \"#utility.yul\":8710:8759   */\n    tag_185:\n        /* \"#utility.yul\":8772:8852   */\n      tag_186\n        /* \"#utility.yul\":8828:8850   */\n      tag_187\n        /* \"#utility.yul\":8846:8849   */\n      dup6\n        /* \"#utility.yul\":8828:8850   */\n      tag_67\n      jump\t// in\n    tag_187:\n        /* \"#utility.yul\":8818:8826   */\n      dup4\n        /* \"#utility.yul\":8814:8851   */\n      add\n        /* \"#utility.yul\":8801:8812   */\n      dup3\n        /* \"#utility.yul\":8772:8852   */\n      tag_76\n      jump\t// in\n    tag_186:\n        /* \"#utility.yul\":8431:8862   */\n      pop\n      pop\n        /* \"#utility.yul\":8416:8862   */\n    tag_182:\n        /* \"#utility.yul\":8326:8869   */\n      pop\n      pop\n      pop\n      jump\t// out\n        /* \"#utility.yul\":8875:8992   */\n    tag_78:\n        /* \"#utility.yul\":8929:8937   */\n      0x00\n        /* \"#utility.yul\":8979:8984   */\n      dup3\n        /* \"#utility.yul\":8973:8977   */\n      dup3\n        /* \"#utility.yul\":8969:8985   */\n      shr\n        /* \"#utility.yul\":8948:8985   */\n      swap1\n      pop\n        /* \"#utility.yul\":8875:8992   */\n      swap3\n      swap2\n      pop\n      pop\n      jump\t// out\n        /* \"#utility.yul\":8998:9167   */\n    tag_79:\n        /* \"#utility.yul\":9042:9048   */\n      0x00\n        /* \"#utility.yul\":9075:9126   */\n      tag_190\n        /* \"#utility.yul\":9123:9124   */\n      0x00\n        /* \"#utility.yul\":9119:9125   */\n      not\n        /* \"#utility.yul\":9111:9116   */\n      dup5\n        /* \"#utility.yul\":9108:9109   */\n      0x08\n        /* \"#utility.yul\":9104:9117   */\n      mul\n        /* \"#utility.yul\":9075:9126   */\n      tag_78\n      jump\t// in\n    tag_190:\n        /* \"#utility.yul\":9071:9127   */\n      not\n        /* \"#utility.yul\":9156:9160   */\n      dup1\n        /* \"#utility.yul\":9150:9154   */\n      dup4\n        /* \"#utility.yul\":9146:9161   */\n      and\n        /* \"#utility.yul\":9136:9161   */\n      swap2\n      pop\n        /* \"#utility.yul\":9049:9167   */\n      pop\n        /* \"#utility.yul\":8998:9167   */\n      swap3\n      swap2\n      pop\n      pop\n      jump\t// out\n        /* \"#utility.yul\":9172:9467   */\n    tag_80:\n        /* \"#utility.yul\":9248:9252   */\n      0x00\n        /* \"#utility.yul\":9394:9423   */\n      tag_192\n        /* \"#utility.yul\":9419:9422   */\n      dup4\n        /* \"#utility.yul\":9413:9417   */\n      dup4\n        /* \"#utility.yul\":9394:9423   */\n      tag_79\n      jump\t// in\n    tag_192:\n        /* \"#utility.yul\":9386:9423   */\n      swap2\n      pop\n        /* \"#utility.yul\":9456:9459   */\n      dup3\n        /* \"#utility.yul\":9453:9454   */\n      0x02\n        /* \"#utility.yul\":9449:9460   */\n      mul\n        /* \"#utility.yul\":9443:9447   */\n      dup3\n        /* \"#utility.yul\":9440:9461   */\n      or\n        /* \"#utility.yul\":9432:9461   */\n      swap1\n      pop\n        /* \"#utility.yul\":9172:9467   */\n      swap3\n      swap2\n      pop\n      pop\n      jump\t// out\n        /* \"#utility.yul\":9472:10867   */\n    tag_33:\n        /* \"#utility.yul\":9589:9626   */\n      tag_194\n        /* \"#utility.yul\":9622:9625   */\n      dup3\n        /* \"#utility.yul\":9589:9626   */\n      tag_51\n      jump\t// in\n    tag_194:\n        /* \"#utility.yul\":9691:9709   */\n      0xffffffffffffffff\n        /* \"#utility.yul\":9683:9689   */\n      dup2\n        /* \"#utility.yul\":9680:9710   */\n      gt\n        /* \"#utility.yul\":9677:9733   */\n      iszero\n      tag_195\n      jumpi\n        /* \"#utility.yul\":9713:9731   */\n      tag_196\n      tag_58\n      jump\t// in\n    tag_196:\n        /* \"#utility.yul\":9677:9733   */\n    tag_195:\n        /* \"#utility.yul\":9757:9795   */\n      tag_197\n        /* \"#utility.yul\":9789:9793   */\n      dup3\n        /* \"#utility.yul\":9783:9794   */\n      sload\n        /* \"#utility.yul\":9757:9795   */\n      tag_26\n      jump\t// in\n    tag_197:\n        /* \"#utility.yul\":9842:9909   */\n      tag_198\n        /* \"#utility.yul\":9902:9908   */\n      dup3\n        /* \"#utility.yul\":9894:9900   */\n      dup3\n        /* \"#utility.yul\":9888:9892   */\n      dup6\n        /* \"#utility.yul\":9842:9909   */\n      tag_77\n      jump\t// in\n    tag_198:\n        /* \"#utility.yul\":9936:9937   */\n      0x00\n        /* \"#utility.yul\":9960:9964   */\n      0x20\n        /* \"#utility.yul\":9947:9964   */\n      swap1\n      pop\n        /* \"#utility.yul\":9992:9994   */\n      0x1f\n        /* \"#utility.yul\":9984:9990   */\n      dup4\n        /* \"#utility.yul\":9981:9995   */\n      gt\n        /* \"#utility.yul\":10009:10010   */\n      0x01\n        /* \"#utility.yul\":10004:10622   */\n      dup2\n      eq\n      tag_200\n      jumpi\n        /* \"#utility.yul\":10666:10667   */\n      0x00\n        /* \"#utility.yul\":10683:10689   */\n      dup5\n        /* \"#utility.yul\":10680:10757   */\n      iszero\n      tag_201\n      jumpi\n        /* \"#utility.yul\":10732:10741   */\n      dup3\n        /* \"#utility.yul\":10727:10730   */\n      dup8\n        /* \"#utility.yul\":10723:10742   */\n      add\n        /* \"#utility.yul\":10717:10743   */\n      mload\n        /* \"#utility.yul\":10708:10743   */\n      swap1\n      pop\n        /* \"#utility.yul\":10680:10757   */\n    tag_201:\n        /* \"#utility.yul\":10783:10850   */\n      tag_202\n        /* \"#utility.yul\":10843:10849   */\n      dup6\n        /* \"#utility.yul\":10836:10841   */\n      dup3\n        /* \"#utility.yul\":10783:10850   */\n      tag_80\n      jump\t// in\n    tag_202:\n        /* \"#utility.yul\":10777:10781   */\n      dup7\n        /* \"#utility.yul\":10770:10851   */\n      sstore\n        /* \"#utility.yul\":10639:10861   */\n      pop\n        /* \"#utility.yul\":9974:10861   */\n      jump(tag_199)\n        /* \"#utility.yul\":10004:10622   */\n    tag_200:\n        /* \"#utility.yul\":10056:10060   */\n      0x1f\n        /* \"#utility.yul\":10052:10061   */\n      not\n        /* \"#utility.yul\":10044:10050   */\n      dup5\n        /* \"#utility.yul\":10040:10062   */\n      and\n        /* \"#utility.yul\":10090:10127   */\n      tag_203\n        /* \"#utility.yul\":10122:10126   */\n      dup7\n        /* \"#utility.yul\":10090:10127   */\n      tag_66\n      jump\t// in\n    tag_203:\n        /* \"#utility.yul\":10149:10150   */\n      0x00\n        /* \"#utility.yul\":10163:10371   */\n    tag_204:\n        /* \"#utility.yul\":10177:10184   */\n      dup3\n        /* \"#utility.yul\":10174:10175   */\n      dup2\n        /* \"#utility.yul\":10171:10185   */\n      lt\n        /* \"#utility.yul\":10163:10371   */\n      iszero\n      tag_206\n      jumpi\n        /* \"#utility.yul\":10256:10265   */\n      dup5\n        /* \"#utility.yul\":10251:10254   */\n      dup10\n        /* \"#utility.yul\":10247:10266   */\n      add\n        /* \"#utility.yul\":10241:10267   */\n      mload\n        /* \"#utility.yul\":10233:10239   */\n      dup3\n        /* \"#utility.yul\":10226:10268   */\n      sstore\n        /* \"#utility.yul\":10307:10308   */\n      0x01\n        /* \"#utility.yul\":10299:10305   */\n      dup3\n        /* \"#utility.yul\":10295:10309   */\n      add\n        /* \"#utility.yul\":10285:10309   */\n      swap2\n      pop\n        /* \"#utility.yul\":10354:10356   */\n      0x20\n        /* \"#utility.yul\":10343:10352   */\n      dup6\n        /* \"#utility.yul\":10339:10357   */\n      add\n        /* \"#utility.yul\":10326:10357   */\n      swap5\n      pop\n        /* \"#utility.yul\":10200:10204   */\n      0x20\n        /* \"#utility.yul\":10197:10198   */\n      dup2\n        /* \"#utility.yul\":10193:10205   */\n      add\n        /* \"#utility.yul\":10188:10205   */\n      swap1\n      pop\n        /* \"#utility.yul\":10163:10371   */\n      jump(tag_204)\n    tag_206:\n        /* \"#utility.yul\":10399:10405   */\n      dup7\n        /* \"#utility.yul\":10390:10397   */\n      dup4\n        /* \"#utility.yul\":10387:10406   */\n      lt\n        /* \"#utility.yul\":10384:10563   */\n      iszero\n      tag_207\n      jumpi\n        /* \"#utility.yul\":10457:10466   */\n      dup5\n        /* \"#utility.yul\":10452:10455   */\n      dup10\n        /* \"#utility.yul\":10448:10467   */\n      add\n        /* \"#utility.yul\":10442:10468   */\n      mload\n        /* \"#utility.yul\":10500:10548   */\n      tag_208\n        /* \"#utility.yul\":10542:10546   */\n      0x1f\n        /* \"#utility.yul\":10534:10540   */\n      dup10\n        /* \"#utility.yul\":10530:10547   */\n      and\n        /* \"#utility.yul\":10519:10528   */\n      dup3\n        /* \"#utility.yul\":10500:10548   */\n      tag_79\n      jump\t// in\n    tag_208:\n        /* \"#utility.yul\":10492:10498   */\n      dup4\n        /* \"#utility.yul\":10485:10549   */\n      sstore\n        /* \"#utility.yul\":10407:10563   */\n      pop\n        /* \"#utility.yul\":10384:10563   */\n    tag_207:\n        /* \"#utility.yul\":10609:10610   */\n      0x01\n        /* \"#utility.yul\":10605:10606   */\n      0x02\n        /* \"#utility.yul\":10597:10603   */\n      dup9\n        /* \"#utility.yul\":10593:10607   */\n      mul\n        /* \"#utility.yul\":10589:10611   */\n      add\n        /* \"#utility.yul\":10583:10587   */\n      dup9\n        /* \"#utility.yul\":10576:10612   */\n      sstore\n        /* \"#utility.yul\":10011:10622   */\n      pop\n      pop\n      pop\n        /* \"#utility.yul\":9974:10861   */\n    tag_199:\n      pop\n        /* \"#utility.yul\":9564:10867   */\n      pop\n      pop\n      pop\n        /* \"#utility.yul\":9472:10867   */\n      pop\n      pop\n      jump\t// out\n\n    auxdata: 0xa2646970667358221220013f66a3ca61451dbd77474669f78e573bef39a4ca8cdffbf903564e48645c5d64736f6c634300081a0033\n}\n",
				"bytecode": {
					"linkReferences": {},
					"object": "6080604052348015600e575f80fd5b506108fc8061001c5f395ff3fe608060405234801561000f575f80fd5b506004361061004a575f3560e01c80634072e49d1461004e578063a5beab181461007e578063be5230f91461009a578063d7e9dbb0146100ca575b5f80fd5b6100686004803603810190610063919061037e565b6100e6565b604051610075919061042c565b60405180910390f35b61009860048036038101906100939190610578565b610191565b005b6100b460048036038101906100af91906105d2565b610207565b6040516100c1919061042c565b60405180910390f35b6100e460048036038101906100df9190610578565b6102a6565b005b6001602052815f5260405f20602052805f5260405f205f9150915050805f0180546101109061062a565b80601f016020809104026020016040519081016040528092919081815260200182805461013c9061062a565b80156101875780601f1061015e57610100808354040283529160200191610187565b820191905f5260205f20905b81548152906001019060200180831161016a57829003601f168201915b5050505050905081565b60405180602001604052808281525060015f3373ffffffffffffffffffffffffffffffffffffffff1673ffffffffffffffffffffffffffffffffffffffff1681526020019081526020015f205f8481526020019081526020015f205f820151815f0190816101ff91906107f7565b509050505050565b5f602052805f5260405f205f91509050805f0180546102259061062a565b80601f01602080910402602001604051908101604052809291908181526020018280546102519061062a565b801561029c5780601f106102735761010080835404028352916020019161029c565b820191905f5260205f20905b81548152906001019060200180831161027f57829003601f168201915b5050505050905081565b6040518060200160405280828152505f808481526020019081526020015f205f820151815f0190816102d891906107f7565b509050505050565b5f604051905090565b5f80fd5b5f80fd5b5f73ffffffffffffffffffffffffffffffffffffffff82169050919050565b5f61031a826102f1565b9050919050565b61032a81610310565b8114610334575f80fd5b50565b5f8135905061034581610321565b92915050565b5f819050919050565b61035d8161034b565b8114610367575f80fd5b50565b5f8135905061037881610354565b92915050565b5f8060408385031215610394576103936102e9565b5b5f6103a185828601610337565b92505060206103b28582860161036a565b9150509250929050565b5f81519050919050565b5f82825260208201905092915050565b8281835e5f83830152505050565b5f601f19601f8301169050919050565b5f6103fe826103bc565b61040881856103c6565b93506104188185602086016103d6565b610421816103e4565b840191505092915050565b5f6020820190508181035f83015261044481846103f4565b905092915050565b5f80fd5b5f80fd5b7f4e487b71000000000000000000000000000000000000000000000000000000005f52604160045260245ffd5b61048a826103e4565b810181811067ffffffffffffffff821117156104a9576104a8610454565b5b80604052505050565b5f6104bb6102e0565b90506104c78282610481565b919050565b5f67ffffffffffffffff8211156104e6576104e5610454565b5b6104ef826103e4565b9050602081019050919050565b828183375f83830152505050565b5f61051c610517846104cc565b6104b2565b90508281526020810184848401111561053857610537610450565b5b6105438482856104fc565b509392505050565b5f82601f83011261055f5761055e61044c565b5b813561056f84826020860161050a565b91505092915050565b5f806040838503121561058e5761058d6102e9565b5b5f61059b8582860161036a565b925050602083013567ffffffffffffffff8111156105bc576105bb6102ed565b5b6105c88582860161054b565b9150509250929050565b5f602082840312156105e7576105e66102e9565b5b5f6105f48482850161036a565b91505092915050565b7f4e487b71000000000000000000000000000000000000000000000000000000005f52602260045260245ffd5b5f600282049050600182168061064157607f821691505b602082108103610654576106536105fd565b5b50919050565b5f819050815f5260205f209050919050565b5f6020601f8301049050919050565b5f82821b905092915050565b5f600883026106b67fffffffffffffffffffffffffffffffffffffffffffffffffffffffffffffffff8261067b565b6106c0868361067b565b95508019841693508086168417925050509392505050565b5f819050919050565b5f6106fb6106f66106f18461034b565b6106d8565b61034b565b9050919050565b5f819050919050565b610714836106e1565b61072861072082610702565b848454610687565b825550505050565b5f90565b61073c610730565b61074781848461070b565b505050565b5b8181101561076a5761075f5f82610734565b60018101905061074d565b5050565b601f8211156107af576107808161065a565b6107898461066c565b81016020851015610798578190505b6107ac6107a48561066c565b83018261074c565b50505b505050565b5f82821c905092915050565b5f6107cf5f19846008026107b4565b1980831691505092915050565b5f6107e783836107c0565b9150826002028217905092915050565b610800826103bc565b67ffffffffffffffff81111561081957610818610454565b5b610823825461062a565b61082e82828561076e565b5f60209050601f83116001811461085f575f841561084d578287015190505b61085785826107dc565b8655506108be565b601f19841661086d8661065a565b5f5b828110156108945784890151825560018201915060208501945060208101905061086f565b868310156108b157848901516108ad601f8916826107c0565b8355505b6001600288020188555050505b50505050505056fea2646970667358221220013f66a3ca61451dbd77474669f78e573bef39a4ca8cdffbf903564e48645c5d64736f6c634300081a0033",
					"opcodes": "PUSH1 0x80 PUSH1 0x40 MSTORE CALLVALUE DUP1 ISZERO PUSH1 0xE JUMPI PUSH0 DUP1 REVERT JUMPDEST POP PUSH2 0x8FC DUP1 PUSH2 0x1C PUSH0 CODECOPY PUSH0 RETURN INVALID PUSH1 0x80 PUSH1 0x40 MSTORE CALLVALUE DUP1 ISZERO PUSH2 0xF JUMPI PUSH0 DUP1 REVERT JUMPDEST POP PUSH1 0x4 CALLDATASIZE LT PUSH2 0x4A JUMPI PUSH0 CALLDATALOAD PUSH1 0xE0 SHR DUP1 PUSH4 0x4072E49D EQ PUSH2 0x4E JUMPI DUP1 PUSH4 0xA5BEAB18 EQ PUSH2 0x7E JUMPI DUP1 PUSH4 0xBE5230F9 EQ PUSH2 0x9A JUMPI DUP1 PUSH4 0xD7E9DBB0 EQ PUSH2 0xCA JUMPI JUMPDEST PUSH0 DUP1 REVERT JUMPDEST PUSH2 0x68 PUSH1 0x4 DUP1 CALLDATASIZE SUB DUP2 ADD SWAP1 PUSH2 0x63 SWAP2 SWAP1 PUSH2 0x37E JUMP JUMPDEST PUSH2 0xE6 JUMP JUMPDEST PUSH1 0x40 MLOAD PUSH2 0x75 SWAP2 SWAP1 PUSH2 0x42C JUMP JUMPDEST PUSH1 0x40 MLOAD DUP1 SWAP2 SUB SWAP1 RETURN JUMPDEST PUSH2 0x98 PUSH1 0x4 DUP1 CALLDATASIZE SUB DUP2 ADD SWAP1 PUSH2 0x93 SWAP2 SWAP1 PUSH2 0x578 JUMP JUMPDEST PUSH2 0x191 JUMP JUMPDEST STOP JUMPDEST PUSH2 0xB4 PUSH1 0x4 DUP1 CALLDATASIZE SUB DUP2 ADD SWAP1 PUSH2 0xAF SWAP2 SWAP1 PUSH2 0x5D2 JUMP JUMPDEST PUSH2 0x207 JUMP JUMPDEST PUSH1 0x40 MLOAD PUSH2 0xC1 SWAP2 SWAP1 PUSH2 0x42C JUMP JUMPDEST PUSH1 0x40 MLOAD DUP1 SWAP2 SUB SWAP1 RETURN JUMPDEST PUSH2 0xE4 PUSH1 0x4 DUP1 CALLDATASIZE SUB DUP2 ADD SWAP1 PUSH2 0xDF SWAP2 SWAP1 PUSH2 0x578 JUMP JUMPDEST PUSH2 0x2A6 JUMP JUMPDEST STOP JUMPDEST PUSH1 0x1 PUSH1 0x20 MSTORE DUP2 PUSH0 MSTORE PUSH1 0x40 PUSH0 KECCAK256 PUSH1 0x20 MSTORE DUP1 PUSH0 MSTORE PUSH1 0x40 PUSH0 KECCAK256 PUSH0 SWAP2 POP SWAP2 POP POP DUP1 PUSH0 ADD DUP1 SLOAD PUSH2 0x110 SWAP1 PUSH2 0x62A JUMP JUMPDEST DUP1 PUSH1 0x1F ADD PUSH1 0x20 DUP1 SWAP2 DIV MUL PUSH1 0x20 ADD PUSH1 0x40 MLOAD SWAP1 DUP2 ADD PUSH1 0x40 MSTORE DUP1 SWAP3 SWAP2 SWAP1 DUP2 DUP2 MSTORE PUSH1 0x20 ADD DUP3 DUP1 SLOAD PUSH2 0x13C SWAP1 PUSH2 0x62A JUMP JUMPDEST DUP1 ISZERO PUSH2 0x187 JUMPI DUP1 PUSH1 0x1F LT PUSH2 0x15E JUMPI PUSH2 0x100 DUP1 DUP4 SLOAD DIV MUL DUP4 MSTORE SWAP2 PUSH1 0x20 ADD SWAP2 PUSH2 0x187 JUMP JUMPDEST DUP3 ADD SWAP2 SWAP1 PUSH0 MSTORE PUSH1 0x20 PUSH0 KECCAK256 SWAP1 JUMPDEST DUP2 SLOAD DUP2 MSTORE SWAP1 PUSH1 0x1 ADD SWAP1 PUSH1 0x20 ADD DUP1 DUP4 GT PUSH2 0x16A JUMPI DUP3 SWAP1 SUB PUSH1 0x1F AND DUP3 ADD SWAP2 JUMPDEST POP POP POP POP POP SWAP1 POP DUP2 JUMP JUMPDEST PUSH1 0x40 MLOAD DUP1 PUSH1 0x20 ADD PUSH1 0x40 MSTORE DUP1 DUP3 DUP2 MSTORE POP PUSH1 0x1 PUSH0 CALLER PUSH20 0xFFFFFFFFFFFFFFFFFFFFFFFFFFFFFFFFFFFFFFFF AND PUSH20 0xFFFFFFFFFFFFFFFFFFFFFFFFFFFFFFFFFFFFFFFF AND DUP2 MSTORE PUSH1 0x20 ADD SWAP1 DUP2 MSTORE PUSH1 0x20 ADD PUSH0 KECCAK256 PUSH0 DUP5 DUP2 MSTORE PUSH1 0x20 ADD SWAP1 DUP2 MSTORE PUSH1 0x20 ADD PUSH0 KECCAK256 PUSH0 DUP3 ADD MLOAD DUP2 PUSH0 ADD SWAP1 DUP2 PUSH2 0x1FF SWAP2 SWAP1 PUSH2 0x7F7 JUMP JUMPDEST POP SWAP1 POP POP POP POP JUMP JUMPDEST PUSH0 PUSH1 0x20 MSTORE DUP1 PUSH0 MSTORE PUSH1 0x40 PUSH0 KECCAK256 PUSH0 SWAP2 POP SWAP1 POP DUP1 PUSH0 ADD DUP1 SLOAD PUSH2 0x225 SWAP1 PUSH2 0x62A JUMP JUMPDEST DUP1 PUSH1 0x1F ADD PUSH1 0x20 DUP1 SWAP2 DIV MUL PUSH1 0x20 ADD PUSH1 0x40 MLOAD SWAP1 DUP2 ADD PUSH1 0x40 MSTORE DUP1 SWAP3 SWAP2 SWAP1 DUP2 DUP2 MSTORE PUSH1 0x20 ADD DUP3 DUP1 SLOAD PUSH2 0x251 SWAP1 PUSH2 0x62A JUMP JUMPDEST DUP1 ISZERO PUSH2 0x29C JUMPI DUP1 PUSH1 0x1F LT PUSH2 0x273 JUMPI PUSH2 0x100 DUP1 DUP4 SLOAD DIV MUL DUP4 MSTORE SWAP2 PUSH1 0x20 ADD SWAP2 PUSH2 0x29C JUMP JUMPDEST DUP3 ADD SWAP2 SWAP1 PUSH0 MSTORE PUSH1 0x20 PUSH0 KECCAK256 SWAP1 JUMPDEST DUP2 SLOAD DUP2 MSTORE SWAP1 PUSH1 0x1 ADD SWAP1 PUSH1 0x20 ADD DUP1 DUP4 GT PUSH2 0x27F JUMPI DUP3 SWAP1 SUB PUSH1 0x1F AND DUP3 ADD SWAP2 JUMPDEST POP POP POP POP POP SWAP1 POP DUP2 JUMP JUMPDEST PUSH1 0x40 MLOAD DUP1 PUSH1 0x20 ADD PUSH1 0x40 MSTORE DUP1 DUP3 DUP2 MSTORE POP PUSH0 DUP1 DUP5 DUP2 MSTORE PUSH1 0x20 ADD SWAP1 DUP2 MSTORE PUSH1 0x20 ADD PUSH0 KECCAK256 PUSH0 DUP3 ADD MLOAD DUP2 PUSH0 ADD SWAP1 DUP2 PUSH2 0x2D8 SWAP2 SWAP1 PUSH2 0x7F7 JUMP JUMPDEST POP SWAP1 POP POP POP POP JUMP JUMPDEST PUSH0 PUSH1 0x40 MLOAD SWAP1 POP SWAP1 JUMP JUMPDEST PUSH0 DUP1 REVERT JUMPDEST PUSH0 DUP1 REVERT JUMPDEST PUSH0 PUSH20 0xFFFFFFFFFFFFFFFFFFFFFFFFFFFFFFFFFFFFFFFF DUP3 AND SWAP1 POP SWAP2 SWAP1 POP JUMP JUMPDEST PUSH0 PUSH2 0x31A DUP3 PUSH2 0x2F1 JUMP JUMPDEST SWAP1 POP SWAP2 SWAP1 POP JUMP JUMPDEST PUSH2 0x32A DUP2 PUSH2 0x310 JUMP JUMPDEST DUP2 EQ PUSH2 0x334 JUMPI PUSH0 DUP1 REVERT JUMPDEST POP JUMP JUMPDEST PUSH0 DUP2 CALLDATALOAD SWAP1 POP PUSH2 0x345 DUP2 PUSH2 0x321 JUMP JUMPDEST SWAP3 SWAP2 POP POP JUMP JUMPDEST PUSH0 DUP2 SWAP1 POP SWAP2 SWAP1 POP JUMP JUMPDEST PUSH2 0x35D DUP2 PUSH2 0x34B JUMP JUMPDEST DUP2 EQ PUSH2 0x367 JUMPI PUSH0 DUP1 REVERT JUMPDEST POP JUMP JUMPDEST PUSH0 DUP2 CALLDATALOAD SWAP1 POP PUSH2 0x378 DUP2 PUSH2 0x354 JUMP JUMPDEST SWAP3 SWAP2 POP POP JUMP JUMPDEST PUSH0 DUP1 PUSH1 0x40 DUP4 DUP6 SUB SLT ISZERO PUSH2 0x394 JUMPI PUSH2 0x393 PUSH2 0x2E9 JUMP JUMPDEST JUMPDEST PUSH0 PUSH2 0x3A1 DUP6 DUP3 DUP7 ADD PUSH2 0x337 JUMP JUMPDEST SWAP3 POP POP PUSH1 0x20 PUSH2 0x3B2 DUP6 DUP3 DUP7 ADD PUSH2 0x36A JUMP JUMPDEST SWAP2 POP POP SWAP3 POP SWAP3 SWAP1 POP JUMP JUMPDEST PUSH0 DUP2 MLOAD SWAP1 POP SWAP2 SWAP1 POP JUMP JUMPDEST PUSH0 DUP3 DUP3 MSTORE PUSH1 0x20 DUP3 ADD SWAP1 POP SWAP3 SWAP2 POP POP JUMP JUMPDEST DUP3 DUP2 DUP4 MCOPY PUSH0 DUP4 DUP4 ADD MSTORE POP POP POP JUMP JUMPDEST PUSH0 PUSH1 0x1F NOT PUSH1 0x1F DUP4 ADD AND SWAP1 POP SWAP2 SWAP1 POP JUMP JUMPDEST PUSH0 PUSH2 0x3FE DUP3 PUSH2 0x3BC JUMP JUMPDEST PUSH2 0x408 DUP2 DUP6 PUSH2 0x3C6 JUMP JUMPDEST SWAP4 POP PUSH2 0x418 DUP2 DUP6 PUSH1 0x20 DUP7 ADD PUSH2 0x3D6 JUMP JUMPDEST PUSH2 0x421 DUP2 PUSH2 0x3E4 JUMP JUMPDEST DUP5 ADD SWAP2 POP POP SWAP3 SWAP2 POP POP JUMP JUMPDEST PUSH0 PUSH1 0x20 DUP3 ADD SWAP1 POP DUP2 DUP2 SUB PUSH0 DUP4 ADD MSTORE PUSH2 0x444 DUP2 DUP5 PUSH2 0x3F4 JUMP JUMPDEST SWAP1 POP SWAP3 SWAP2 POP POP JUMP JUMPDEST PUSH0 DUP1 REVERT JUMPDEST PUSH0 DUP1 REVERT JUMPDEST PUSH32 0x4E487B7100000000000000000000000000000000000000000000000000000000 PUSH0 MSTORE PUSH1 0x41 PUSH1 0x4 MSTORE PUSH1 0x24 PUSH0 REVERT JUMPDEST PUSH2 0x48A DUP3 PUSH2 0x3E4 JUMP JUMPDEST DUP2 ADD DUP2 DUP2 LT PUSH8 0xFFFFFFFFFFFFFFFF DUP3 GT OR ISZERO PUSH2 0x4A9 JUMPI PUSH2 0x4A8 PUSH2 0x454 JUMP JUMPDEST JUMPDEST DUP1 PUSH1 0x40 MSTORE POP POP POP JUMP JUMPDEST PUSH0 PUSH2 0x4BB PUSH2 0x2E0 JUMP JUMPDEST SWAP1 POP PUSH2 0x4C7 DUP3 DUP3 PUSH2 0x481 JUMP JUMPDEST SWAP2 SWAP1 POP JUMP JUMPDEST PUSH0 PUSH8 0xFFFFFFFFFFFFFFFF DUP3 GT ISZERO PUSH2 0x4E6 JUMPI PUSH2 0x4E5 PUSH2 0x454 JUMP JUMPDEST JUMPDEST PUSH2 0x4EF DUP3 PUSH2 0x3E4 JUMP JUMPDEST SWAP1 POP PUSH1 0x20 DUP2 ADD SWAP1 POP SWAP2 SWAP1 POP JUMP JUMPDEST DUP3 DUP2 DUP4 CALLDATACOPY PUSH0 DUP4 DUP4 ADD MSTORE POP POP POP JUMP JUMPDEST PUSH0 PUSH2 0x51C PUSH2 0x517 DUP5 PUSH2 0x4CC JUMP JUMPDEST PUSH2 0x4B2 JUMP JUMPDEST SWAP1 POP DUP3 DUP2 MSTORE PUSH1 0x20 DUP2 ADD DUP5 DUP5 DUP5 ADD GT ISZERO PUSH2 0x538 JUMPI PUSH2 0x537 PUSH2 0x450 JUMP JUMPDEST JUMPDEST PUSH2 0x543 DUP5 DUP3 DUP6 PUSH2 0x4FC JUMP JUMPDEST POP SWAP4 SWAP3 POP POP POP JUMP JUMPDEST PUSH0 DUP3 PUSH1 0x1F DUP4 ADD SLT PUSH2 0x55F JUMPI PUSH2 0x55E PUSH2 0x44C JUMP JUMPDEST JUMPDEST DUP2 CALLDATALOAD PUSH2 0x56F DUP5 DUP3 PUSH1 0x20 DUP7 ADD PUSH2 0x50A JUMP JUMPDEST SWAP2 POP POP SWAP3 SWAP2 POP POP JUMP JUMPDEST PUSH0 DUP1 PUSH1 0x40 DUP4 DUP6 SUB SLT ISZERO PUSH2 0x58E JUMPI PUSH2 0x58D PUSH2 0x2E9 JUMP JUMPDEST JUMPDEST PUSH0 PUSH2 0x59B DUP6 DUP3 DUP7 ADD PUSH2 0x36A JUMP JUMPDEST SWAP3 POP POP PUSH1 0x20 DUP4 ADD CALLDATALOAD PUSH8 0xFFFFFFFFFFFFFFFF DUP2 GT ISZERO PUSH2 0x5BC JUMPI PUSH2 0x5BB PUSH2 0x2ED JUMP JUMPDEST JUMPDEST PUSH2 0x5C8 DUP6 DUP3 DUP7 ADD PUSH2 0x54B JUMP JUMPDEST SWAP2 POP POP SWAP3 POP SWAP3 SWAP1 POP JUMP JUMPDEST PUSH0 PUSH1 0x20 DUP3 DUP5 SUB SLT ISZERO PUSH2 0x5E7 JUMPI PUSH2 0x5E6 PUSH2 0x2E9 JUMP JUMPDEST JUMPDEST PUSH0 PUSH2 0x5F4 DUP5 DUP3 DUP6 ADD PUSH2 0x36A JUMP JUMPDEST SWAP2 POP POP SWAP3 SWAP2 POP POP JUMP JUMPDEST PUSH32 0x4E487B7100000000000000000000000000000000000000000000000000000000 PUSH0 MSTORE PUSH1 0x22 PUSH1 0x4 MSTORE PUSH1 0x24 PUSH0 REVERT JUMPDEST PUSH0 PUSH1 0x2 DUP3 DIV SWAP1 POP PUSH1 0x1 DUP3 AND DUP1 PUSH2 0x641 JUMPI PUSH1 0x7F DUP3 AND SWAP2 POP JUMPDEST PUSH1 0x20 DUP3 LT DUP2 SUB PUSH2 0x654 JUMPI PUSH2 0x653 PUSH2 0x5FD JUMP JUMPDEST JUMPDEST POP SWAP2 SWAP1 POP JUMP JUMPDEST PUSH0 DUP2 SWAP1 POP DUP2 PUSH0 MSTORE PUSH1 0x20 PUSH0 KECCAK256 SWAP1 POP SWAP2 SWAP1 POP JUMP JUMPDEST PUSH0 PUSH1 0x20 PUSH1 0x1F DUP4 ADD DIV SWAP1 POP SWAP2 SWAP1 POP JUMP JUMPDEST PUSH0 DUP3 DUP3 SHL SWAP1 POP SWAP3 SWAP2 POP POP JUMP JUMPDEST PUSH0 PUSH1 0x8 DUP4 MUL PUSH2 0x6B6 PUSH32 0xFFFFFFFFFFFFFFFFFFFFFFFFFFFFFFFFFFFFFFFFFFFFFFFFFFFFFFFFFFFFFFFF DUP3 PUSH2 0x67B JUMP JUMPDEST PUSH2 0x6C0 DUP7 DUP4 PUSH2 0x67B JUMP JUMPDEST SWAP6 POP DUP1 NOT DUP5 AND SWAP4 POP DUP1 DUP7 AND DUP5 OR SWAP3 POP POP POP SWAP4 SWAP3 POP POP POP JUMP JUMPDEST PUSH0 DUP2 SWAP1 POP SWAP2 SWAP1 POP JUMP JUMPDEST PUSH0 PUSH2 0x6FB PUSH2 0x6F6 PUSH2 0x6F1 DUP5 PUSH2 0x34B JUMP JUMPDEST PUSH2 0x6D8 JUMP JUMPDEST PUSH2 0x34B JUMP JUMPDEST SWAP1 POP SWAP2 SWAP1 POP JUMP JUMPDEST PUSH0 DUP2 SWAP1 POP SWAP2 SWAP1 POP JUMP JUMPDEST PUSH2 0x714 DUP4 PUSH2 0x6E1 JUMP JUMPDEST PUSH2 0x728 PUSH2 0x720 DUP3 PUSH2 0x702 JUMP JUMPDEST DUP5 DUP5 SLOAD PUSH2 0x687 JUMP JUMPDEST DUP3 SSTORE POP POP POP POP JUMP JUMPDEST PUSH0 SWAP1 JUMP JUMPDEST PUSH2 0x73C PUSH2 0x730 JUMP JUMPDEST PUSH2 0x747 DUP2 DUP5 DUP5 PUSH2 0x70B JUMP JUMPDEST POP POP POP JUMP JUMPDEST JUMPDEST DUP2 DUP2 LT ISZERO PUSH2 0x76A JUMPI PUSH2 0x75F PUSH0 DUP3 PUSH2 0x734 JUMP JUMPDEST PUSH1 0x1 DUP2 ADD SWAP1 POP PUSH2 0x74D JUMP JUMPDEST POP POP JUMP JUMPDEST PUSH1 0x1F DUP3 GT ISZERO PUSH2 0x7AF JUMPI PUSH2 0x780 DUP2 PUSH2 0x65A JUMP JUMPDEST PUSH2 0x789 DUP5 PUSH2 0x66C JUMP JUMPDEST DUP2 ADD PUSH1 0x20 DUP6 LT ISZERO PUSH2 0x798 JUMPI DUP2 SWAP1 POP JUMPDEST PUSH2 0x7AC PUSH2 0x7A4 DUP6 PUSH2 0x66C JUMP JUMPDEST DUP4 ADD DUP3 PUSH2 0x74C JUMP JUMPDEST POP POP JUMPDEST POP POP POP JUMP JUMPDEST PUSH0 DUP3 DUP3 SHR SWAP1 POP SWAP3 SWAP2 POP POP JUMP JUMPDEST PUSH0 PUSH2 0x7CF PUSH0 NOT DUP5 PUSH1 0x8 MUL PUSH2 0x7B4 JUMP JUMPDEST NOT DUP1 DUP4 AND SWAP2 POP POP SWAP3 SWAP2 POP POP JUMP JUMPDEST PUSH0 PUSH2 0x7E7 DUP4 DUP4 PUSH2 0x7C0 JUMP JUMPDEST SWAP2 POP DUP3 PUSH1 0x2 MUL DUP3 OR SWAP1 POP SWAP3 SWAP2 POP POP JUMP JUMPDEST PUSH2 0x800 DUP3 PUSH2 0x3BC JUMP JUMPDEST PUSH8 0xFFFFFFFFFFFFFFFF DUP2 GT ISZERO PUSH2 0x819 JUMPI PUSH2 0x818 PUSH2 0x454 JUMP JUMPDEST JUMPDEST PUSH2 0x823 DUP3 SLOAD PUSH2 0x62A JUMP JUMPDEST PUSH2 0x82E DUP3 DUP3 DUP6 PUSH2 0x76E JUMP JUMPDEST PUSH0 PUSH1 0x20 SWAP1 POP PUSH1 0x1F DUP4 GT PUSH1 0x1 DUP2 EQ PUSH2 0x85F JUMPI PUSH0 DUP5 ISZERO PUSH2 0x84D JUMPI DUP3 DUP8 ADD MLOAD SWAP1 POP JUMPDEST PUSH2 0x857 DUP6 DUP3 PUSH2 0x7DC JUMP JUMPDEST DUP7 SSTORE POP PUSH2 0x8BE JUMP JUMPDEST PUSH1 0x1F NOT DUP5 AND PUSH2 0x86D DUP7 PUSH2 0x65A JUMP JUMPDEST PUSH0 JUMPDEST DUP3 DUP2 LT ISZERO PUSH2 0x894 JUMPI DUP5 DUP10 ADD MLOAD DUP3 SSTORE PUSH1 0x1 DUP3 ADD SWAP2 POP PUSH1 0x20 DUP6 ADD SWAP5 POP PUSH1 0x20 DUP2 ADD SWAP1 POP PUSH2 0x86F JUMP JUMPDEST DUP7 DUP4 LT ISZERO PUSH2 0x8B1 JUMPI DUP5 DUP10 ADD MLOAD PUSH2 0x8AD PUSH1 0x1F DUP10 AND DUP3 PUSH2 0x7C0 JUMP JUMPDEST DUP4 SSTORE POP JUMPDEST PUSH1 0x1 PUSH1 0x2 DUP9 MUL ADD DUP9 SSTORE POP POP POP JUMPDEST POP POP POP POP POP POP JUMP INVALID LOG2 PUSH5 0x6970667358 0x22 SLT KECCAK256 ADD EXTCODEHASH PUSH7 0xA3CA61451DBD77 SELFBALANCE CHAINID PUSH10 0xF78E573BEF39A4CA8CDF 0xFB 0xF9 SUB JUMP 0x4E BASEFEE PUSH5 0x5C5D64736F PUSH13 0x634300081A0033000000000000 "
				},
				"gasEstimates": {
					"creation": {
						"codeDepositCost": "460000",
						"executionCost": "491",
						"totalCost": "460491"
					},
					"external": {
						"Spenderr(uint256)": "infinite",
						"nestedAddresses(address,uint256)": "infinite",
						"valueoOwner(uint256,string)": "infinite",
						"valueofSpender(uint256,string)": "infinite"
					}
				},
				"methodIdentifiers": {
					"Spenderr(uint256)": "be5230f9",
					"nestedAddresses(address,uint256)": "4072e49d",
					"valueoOwner(uint256,string)": "a5beab18",
					"valueofSpender(uint256,string)": "d7e9dbb0"
				}
			},
			"storageLayout": {
				"storage": [
					{
						"astId": 68,
						"contract": "Cook_Web3/Beginner_Chef/mapping/nested mapping/nestedMapping.sol:AddessPair",
						"label": "Spenderr",
						"offset": 0,
						"slot": "0",
						"type": "t_mapping(t_uint256,t_struct(address1)63_storage)"
					},
					{
						"astId": 91,
						"contract": "Cook_Web3/Beginner_Chef/mapping/nested mapping/nestedMapping.sol:AddessPair",
						"label": "nestedAddresses",
						"offset": 0,
						"slot": "1",
						"type": "t_mapping(t_address,t_mapping(t_uint256,t_struct(address1)63_storage))"
					}
				],
				"types": {
					"t_address": {
						"encoding": "inplace",
						"label": "address",
						"numberOfBytes": "20"
					},
					"t_mapping(t_address,t_mapping(t_uint256,t_struct(address1)63_storage))": {
						"encoding": "mapping",
						"key": "t_address",
						"label": "mapping(address => mapping(uint256 => struct AddessPair.address1))",
						"numberOfBytes": "32",
						"value": "t_mapping(t_uint256,t_struct(address1)63_storage)"
					},
					"t_mapping(t_uint256,t_struct(address1)63_storage)": {
						"encoding": "mapping",
						"key": "t_uint256",
						"label": "mapping(uint256 => struct AddessPair.address1)",
						"numberOfBytes": "32",
						"value": "t_struct(address1)63_storage"
					},
					"t_string_storage": {
						"encoding": "bytes",
						"label": "string",
						"numberOfBytes": "32"
					},
					"t_struct(address1)63_storage": {
						"encoding": "inplace",
						"label": "struct AddessPair.address1",
						"members": [
							{
								"astId": 62,
								"contract": "Cook_Web3/Beginner_Chef/mapping/nested mapping/nestedMapping.sol:AddessPair",
								"label": "SpenderAddress",
								"offset": 0,
								"slot": "0",
								"type": "t_string_storage"
							}
						],
						"numberOfBytes": "32"
					},
					"t_uint256": {
						"encoding": "inplace",
						"label": "uint256",
						"numberOfBytes": "32"
					}
				}
			},
			"userdoc": {
				"kind": "user",
				"methods": {},
				"version": 1
			}
		}
	}
}