{
	"Cook_Web3/Beginner_Chef/mapping/nested mapping/nestedMapping.sol": {
		"mappingAssignment": {
			"abi": [
				{
					"inputs": [
						{
							"internalType": "string",
							"name": "title",
							"type": "string"
						},
						{
							"internalType": "string",
							"name": "director",
							"type": "string"
						},
						{
							"internalType": "uint256",
							"name": "id",
							"type": "uint256"
						}
					],
					"name": "movieInput",
					"outputs": [],
					"stateMutability": "nonpayable",
					"type": "function"
				},
				{
					"inputs": [
						{
							"internalType": "uint256",
							"name": "",
							"type": "uint256"
						}
					],
					"name": "movieMap",
					"outputs": [
						{
							"internalType": "string",
							"name": "title",
							"type": "string"
						},
						{
							"internalType": "string",
							"name": "director",
							"type": "string"
						}
					],
					"stateMutability": "view",
					"type": "function"
				},
				{
					"inputs": [
						{
							"internalType": "address",
							"name": "",
							"type": "address"
						},
						{
							"internalType": "uint256",
							"name": "",
							"type": "uint256"
						}
					],
					"name": "myNestedMap",
					"outputs": [
						{
							"internalType": "string",
							"name": "title",
							"type": "string"
						},
						{
							"internalType": "string",
							"name": "director",
							"type": "string"
						}
					],
					"stateMutability": "view",
					"type": "function"
				},
				{
					"inputs": [
						{
							"internalType": "string",
							"name": "title",
							"type": "string"
						},
						{
							"internalType": "string",
							"name": "director",
							"type": "string"
						},
						{
							"internalType": "uint256",
							"name": "id",
							"type": "uint256"
						}
					],
					"name": "nestedMovie",
					"outputs": [],
					"stateMutability": "nonpayable",
					"type": "function"
				}
			],
			"devdoc": {
				"kind": "dev",
				"methods": {},
				"version": 1
			},
			"evm": {
				"assembly": "    /* \"Cook_Web3/Beginner_Chef/mapping/nested mapping/nestedMapping.sol\":165:766  contract mappingAssignment{... */\n  mstore(0x40, 0x80)\n  callvalue\n  dup1\n  iszero\n  tag_1\n  jumpi\n  0x00\n  dup1\n  revert\ntag_1:\n  pop\n  dataSize(sub_0)\n  dup1\n  dataOffset(sub_0)\n  0x00\n  codecopy\n  0x00\n  return\nstop\n\nsub_0: assembly {\n        /* \"Cook_Web3/Beginner_Chef/mapping/nested mapping/nestedMapping.sol\":165:766  contract mappingAssignment{... */\n      mstore(0x40, 0x80)\n      callvalue\n      dup1\n      iszero\n      tag_1\n      jumpi\n      0x00\n      dup1\n      revert\n    tag_1:\n      pop\n      jumpi(tag_2, lt(calldatasize, 0x04))\n      shr(0xe0, calldataload(0x00))\n      dup1\n      0x3e094284\n      eq\n      tag_3\n      jumpi\n      dup1\n      0x5b60e193\n      eq\n      tag_4\n      jumpi\n      dup1\n      0x60a587f7\n      eq\n      tag_5\n      jumpi\n      dup1\n      0xd37ab8dd\n      eq\n      tag_6\n      jumpi\n    tag_2:\n      0x00\n      dup1\n      revert\n        /* \"Cook_Web3/Beginner_Chef/mapping/nested mapping/nestedMapping.sol\":198:260  mapping (address => mapping(uint => Movie)) public myNestedMap */\n    tag_3:\n      tag_7\n      0x04\n      dup1\n      calldatasize\n      sub\n      dup2\n      add\n      swap1\n      tag_8\n      swap2\n      swap1\n      tag_9\n      jump\t// in\n    tag_8:\n      tag_10\n      jump\t// in\n    tag_7:\n      mload(0x40)\n      tag_11\n      swap3\n      swap2\n      swap1\n      tag_12\n      jump\t// in\n    tag_11:\n      mload(0x40)\n      dup1\n      swap2\n      sub\n      swap1\n      return\n        /* \"Cook_Web3/Beginner_Chef/mapping/nested mapping/nestedMapping.sol\":606:759  function nestedMovie(string memory title, string memory director, uint id) public{... */\n    tag_4:\n      tag_13\n      0x04\n      dup1\n      calldatasize\n      sub\n      dup2\n      add\n      swap1\n      tag_14\n      swap2\n      swap1\n      tag_15\n      jump\t// in\n    tag_14:\n      tag_16\n      jump\t// in\n    tag_13:\n      stop\n        /* \"Cook_Web3/Beginner_Chef/mapping/nested mapping/nestedMapping.sol\":463:600  function movieInput(string memory title, string memory director, uint id) public{... */\n    tag_5:\n      tag_17\n      0x04\n      dup1\n      calldatasize\n      sub\n      dup2\n      add\n      swap1\n      tag_18\n      swap2\n      swap1\n      tag_15\n      jump\t// in\n    tag_18:\n      tag_19\n      jump\t// in\n    tag_17:\n      stop\n        /* \"Cook_Web3/Beginner_Chef/mapping/nested mapping/nestedMapping.sol\":346:385  mapping (uint => Movie) public movieMap */\n    tag_6:\n      tag_20\n      0x04\n      dup1\n      calldatasize\n      sub\n      dup2\n      add\n      swap1\n      tag_21\n      swap2\n      swap1\n      tag_22\n      jump\t// in\n    tag_21:\n      tag_23\n      jump\t// in\n    tag_20:\n      mload(0x40)\n      tag_24\n      swap3\n      swap2\n      swap1\n      tag_12\n      jump\t// in\n    tag_24:\n      mload(0x40)\n      dup1\n      swap2\n      sub\n      swap1\n      return\n        /* \"Cook_Web3/Beginner_Chef/mapping/nested mapping/nestedMapping.sol\":198:260  mapping (address => mapping(uint => Movie)) public myNestedMap */\n    tag_10:\n      mstore(0x20, 0x00)\n      dup2\n      0x00\n      mstore\n      mstore(0x20, keccak256(0x00, 0x40))\n      dup1\n      0x00\n      mstore\n      keccak256(0x00, 0x40)\n      0x00\n      swap2\n      pop\n      swap2\n      pop\n      pop\n      dup1\n      0x00\n      add\n      dup1\n      sload\n      tag_25\n      swap1\n      tag_26\n      jump\t// in\n    tag_25:\n      dup1\n      0x1f\n      add\n      0x20\n      dup1\n      swap2\n      div\n      mul\n      0x20\n      add\n      mload(0x40)\n      swap1\n      dup2\n      add\n      0x40\n      mstore\n      dup1\n      swap3\n      swap2\n      swap1\n      dup2\n      dup2\n      mstore\n      0x20\n      add\n      dup3\n      dup1\n      sload\n      tag_27\n      swap1\n      tag_26\n      jump\t// in\n    tag_27:\n      dup1\n      iszero\n      tag_28\n      jumpi\n      dup1\n      0x1f\n      lt\n      tag_29\n      jumpi\n      0x0100\n      dup1\n      dup4\n      sload\n      div\n      mul\n      dup4\n      mstore\n      swap2\n      0x20\n      add\n      swap2\n      jump(tag_28)\n    tag_29:\n      dup3\n      add\n      swap2\n      swap1\n      0x00\n      mstore\n      keccak256(0x00, 0x20)\n      swap1\n    tag_30:\n      dup2\n      sload\n      dup2\n      mstore\n      swap1\n      0x01\n      add\n      swap1\n      0x20\n      add\n      dup1\n      dup4\n      gt\n      tag_30\n      jumpi\n      dup3\n      swap1\n      sub\n      0x1f\n      and\n      dup3\n      add\n      swap2\n    tag_28:\n      pop\n      pop\n      pop\n      pop\n      pop\n      swap1\n      dup1\n      0x01\n      add\n      dup1\n      sload\n      tag_31\n      swap1\n      tag_26\n      jump\t// in\n    tag_31:\n      dup1\n      0x1f\n      add\n      0x20\n      dup1\n      swap2\n      div\n      mul\n      0x20\n      add\n      mload(0x40)\n      swap1\n      dup2\n      add\n      0x40\n      mstore\n      dup1\n      swap3\n      swap2\n      swap1\n      dup2\n      dup2\n      mstore\n      0x20\n      add\n      dup3\n      dup1\n      sload\n      tag_32\n      swap1\n      tag_26\n      jump\t// in\n    tag_32:\n      dup1\n      iszero\n      tag_33\n      jumpi\n      dup1\n      0x1f\n      lt\n      tag_34\n      jumpi\n      0x0100\n      dup1\n      dup4\n      sload\n      div\n      mul\n      dup4\n      mstore\n      swap2\n      0x20\n      add\n      swap2\n      jump(tag_33)\n    tag_34:\n      dup3\n      add\n      swap2\n      swap1\n      0x00\n      mstore\n      keccak256(0x00, 0x20)\n      swap1\n    tag_35:\n      dup2\n      sload\n      dup2\n      mstore\n      swap1\n      0x01\n      add\n      swap1\n      0x20\n      add\n      dup1\n      dup4\n      gt\n      tag_35\n      jumpi\n      dup3\n      swap1\n      sub\n      0x1f\n      and\n      dup3\n      add\n      swap2\n    tag_33:\n      pop\n      pop\n      pop\n      pop\n      pop\n      swap1\n      pop\n      dup3\n      jump\t// out\n        /* \"Cook_Web3/Beginner_Chef/mapping/nested mapping/nestedMapping.sol\":606:759  function nestedMovie(string memory title, string memory director, uint id) public{... */\n    tag_16:\n        /* \"Cook_Web3/Beginner_Chef/mapping/nested mapping/nestedMapping.sol\":729:751  Movie(title, director) */\n      mload(0x40)\n      dup1\n      0x40\n      add\n      0x40\n      mstore\n      dup1\n        /* \"Cook_Web3/Beginner_Chef/mapping/nested mapping/nestedMapping.sol\":735:740  title */\n      dup5\n        /* \"Cook_Web3/Beginner_Chef/mapping/nested mapping/nestedMapping.sol\":729:751  Movie(title, director) */\n      dup2\n      mstore\n      0x20\n      add\n        /* \"Cook_Web3/Beginner_Chef/mapping/nested mapping/nestedMapping.sol\":742:750  director */\n      dup4\n        /* \"Cook_Web3/Beginner_Chef/mapping/nested mapping/nestedMapping.sol\":729:751  Movie(title, director) */\n      dup2\n      mstore\n      pop\n        /* \"Cook_Web3/Beginner_Chef/mapping/nested mapping/nestedMapping.sol\":698:709  myNestedMap */\n      0x00\n        /* \"Cook_Web3/Beginner_Chef/mapping/nested mapping/nestedMapping.sol\":698:721  myNestedMap[msg.sender] */\n      dup1\n        /* \"Cook_Web3/Beginner_Chef/mapping/nested mapping/nestedMapping.sol\":710:720  msg.sender */\n      caller\n        /* \"Cook_Web3/Beginner_Chef/mapping/nested mapping/nestedMapping.sol\":698:721  myNestedMap[msg.sender] */\n      0xffffffffffffffffffffffffffffffffffffffff\n      and\n      0xffffffffffffffffffffffffffffffffffffffff\n      and\n      dup2\n      mstore\n      0x20\n      add\n      swap1\n      dup2\n      mstore\n      0x20\n      add\n      0x00\n      keccak256\n        /* \"Cook_Web3/Beginner_Chef/mapping/nested mapping/nestedMapping.sol\":698:726  myNestedMap[msg.sender] [id] */\n      0x00\n        /* \"Cook_Web3/Beginner_Chef/mapping/nested mapping/nestedMapping.sol\":723:725  id */\n      dup4\n        /* \"Cook_Web3/Beginner_Chef/mapping/nested mapping/nestedMapping.sol\":698:726  myNestedMap[msg.sender] [id] */\n      dup2\n      mstore\n      0x20\n      add\n      swap1\n      dup2\n      mstore\n      0x20\n      add\n      0x00\n      keccak256\n        /* \"Cook_Web3/Beginner_Chef/mapping/nested mapping/nestedMapping.sol\":698:751  myNestedMap[msg.sender] [id] = Movie(title, director) */\n      0x00\n      dup3\n      add\n      mload\n      dup2\n      0x00\n      add\n      swap1\n      dup2\n      tag_37\n      swap2\n      swap1\n      tag_38\n      jump\t// in\n    tag_37:\n      pop\n      0x20\n      dup3\n      add\n      mload\n      dup2\n      0x01\n      add\n      swap1\n      dup2\n      tag_39\n      swap2\n      swap1\n      tag_38\n      jump\t// in\n    tag_39:\n      pop\n      swap1\n      pop\n      pop\n        /* \"Cook_Web3/Beginner_Chef/mapping/nested mapping/nestedMapping.sol\":606:759  function nestedMovie(string memory title, string memory director, uint id) public{... */\n      pop\n      pop\n      pop\n      jump\t// out\n        /* \"Cook_Web3/Beginner_Chef/mapping/nested mapping/nestedMapping.sol\":463:600  function movieInput(string memory title, string memory director, uint id) public{... */\n    tag_19:\n        /* \"Cook_Web3/Beginner_Chef/mapping/nested mapping/nestedMapping.sol\":570:592  Movie(title, director) */\n      mload(0x40)\n      dup1\n      0x40\n      add\n      0x40\n      mstore\n      dup1\n        /* \"Cook_Web3/Beginner_Chef/mapping/nested mapping/nestedMapping.sol\":576:581  title */\n      dup5\n        /* \"Cook_Web3/Beginner_Chef/mapping/nested mapping/nestedMapping.sol\":570:592  Movie(title, director) */\n      dup2\n      mstore\n      0x20\n      add\n        /* \"Cook_Web3/Beginner_Chef/mapping/nested mapping/nestedMapping.sol\":583:591  director */\n      dup4\n        /* \"Cook_Web3/Beginner_Chef/mapping/nested mapping/nestedMapping.sol\":570:592  Movie(title, director) */\n      dup2\n      mstore\n      pop\n        /* \"Cook_Web3/Beginner_Chef/mapping/nested mapping/nestedMapping.sol\":554:562  movieMap */\n      0x01\n        /* \"Cook_Web3/Beginner_Chef/mapping/nested mapping/nestedMapping.sol\":554:567  movieMap [id] */\n      0x00\n        /* \"Cook_Web3/Beginner_Chef/mapping/nested mapping/nestedMapping.sol\":564:566  id */\n      dup4\n        /* \"Cook_Web3/Beginner_Chef/mapping/nested mapping/nestedMapping.sol\":554:567  movieMap [id] */\n      dup2\n      mstore\n      0x20\n      add\n      swap1\n      dup2\n      mstore\n      0x20\n      add\n      0x00\n      keccak256\n        /* \"Cook_Web3/Beginner_Chef/mapping/nested mapping/nestedMapping.sol\":554:592  movieMap [id] = Movie(title, director) */\n      0x00\n      dup3\n      add\n      mload\n      dup2\n      0x00\n      add\n      swap1\n      dup2\n      tag_41\n      swap2\n      swap1\n      tag_38\n      jump\t// in\n    tag_41:\n      pop\n      0x20\n      dup3\n      add\n      mload\n      dup2\n      0x01\n      add\n      swap1\n      dup2\n      tag_42\n      swap2\n      swap1\n      tag_38\n      jump\t// in\n    tag_42:\n      pop\n      swap1\n      pop\n      pop\n        /* \"Cook_Web3/Beginner_Chef/mapping/nested mapping/nestedMapping.sol\":463:600  function movieInput(string memory title, string memory director, uint id) public{... */\n      pop\n      pop\n      pop\n      jump\t// out\n        /* \"Cook_Web3/Beginner_Chef/mapping/nested mapping/nestedMapping.sol\":346:385  mapping (uint => Movie) public movieMap */\n    tag_23:\n      mstore(0x20, 0x01)\n      dup1\n      0x00\n      mstore\n      keccak256(0x00, 0x40)\n      0x00\n      swap2\n      pop\n      swap1\n      pop\n      dup1\n      0x00\n      add\n      dup1\n      sload\n      tag_43\n      swap1\n      tag_26\n      jump\t// in\n    tag_43:\n      dup1\n      0x1f\n      add\n      0x20\n      dup1\n      swap2\n      div\n      mul\n      0x20\n      add\n      mload(0x40)\n      swap1\n      dup2\n      add\n      0x40\n      mstore\n      dup1\n      swap3\n      swap2\n      swap1\n      dup2\n      dup2\n      mstore\n      0x20\n      add\n      dup3\n      dup1\n      sload\n      tag_44\n      swap1\n      tag_26\n      jump\t// in\n    tag_44:\n      dup1\n      iszero\n      tag_45\n      jumpi\n      dup1\n      0x1f\n      lt\n      tag_46\n      jumpi\n      0x0100\n      dup1\n      dup4\n      sload\n      div\n      mul\n      dup4\n      mstore\n      swap2\n      0x20\n      add\n      swap2\n      jump(tag_45)\n    tag_46:\n      dup3\n      add\n      swap2\n      swap1\n      0x00\n      mstore\n      keccak256(0x00, 0x20)\n      swap1\n    tag_47:\n      dup2\n      sload\n      dup2\n      mstore\n      swap1\n      0x01\n      add\n      swap1\n      0x20\n      add\n      dup1\n      dup4\n      gt\n      tag_47\n      jumpi\n      dup3\n      swap1\n      sub\n      0x1f\n      and\n      dup3\n      add\n      swap2\n    tag_45:\n      pop\n      pop\n      pop\n      pop\n      pop\n      swap1\n      dup1\n      0x01\n      add\n      dup1\n      sload\n      tag_48\n      swap1\n      tag_26\n      jump\t// in\n    tag_48:\n      dup1\n      0x1f\n      add\n      0x20\n      dup1\n      swap2\n      div\n      mul\n      0x20\n      add\n      mload(0x40)\n      swap1\n      dup2\n      add\n      0x40\n      mstore\n      dup1\n      swap3\n      swap2\n      swap1\n      dup2\n      dup2\n      mstore\n      0x20\n      add\n      dup3\n      dup1\n      sload\n      tag_49\n      swap1\n      tag_26\n      jump\t// in\n    tag_49:\n      dup1\n      iszero\n      tag_50\n      jumpi\n      dup1\n      0x1f\n      lt\n      tag_51\n      jumpi\n      0x0100\n      dup1\n      dup4\n      sload\n      div\n      mul\n      dup4\n      mstore\n      swap2\n      0x20\n      add\n      swap2\n      jump(tag_50)\n    tag_51:\n      dup3\n      add\n      swap2\n      swap1\n      0x00\n      mstore\n      keccak256(0x00, 0x20)\n      swap1\n    tag_52:\n      dup2\n      sload\n      dup2\n      mstore\n      swap1\n      0x01\n      add\n      swap1\n      0x20\n      add\n      dup1\n      dup4\n      gt\n      tag_52\n      jumpi\n      dup3\n      swap1\n      sub\n      0x1f\n      and\n      dup3\n      add\n      swap2\n    tag_50:\n      pop\n      pop\n      pop\n      pop\n      pop\n      swap1\n      pop\n      dup3\n      jump\t// out\n        /* \"#utility.yul\":7:82   */\n    tag_53:\n        /* \"#utility.yul\":40:46   */\n      0x00\n        /* \"#utility.yul\":73:75   */\n      0x40\n        /* \"#utility.yul\":67:76   */\n      mload\n        /* \"#utility.yul\":57:76   */\n      swap1\n      pop\n        /* \"#utility.yul\":7:82   */\n      swap1\n      jump\t// out\n        /* \"#utility.yul\":88:205   */\n    tag_54:\n        /* \"#utility.yul\":197:198   */\n      0x00\n        /* \"#utility.yul\":194:195   */\n      dup1\n        /* \"#utility.yul\":187:199   */\n      revert\n        /* \"#utility.yul\":211:328   */\n    tag_55:\n        /* \"#utility.yul\":320:321   */\n      0x00\n        /* \"#utility.yul\":317:318   */\n      dup1\n        /* \"#utility.yul\":310:322   */\n      revert\n        /* \"#utility.yul\":334:460   */\n    tag_56:\n        /* \"#utility.yul\":371:378   */\n      0x00\n        /* \"#utility.yul\":411:453   */\n      0xffffffffffffffffffffffffffffffffffffffff\n        /* \"#utility.yul\":404:409   */\n      dup3\n        /* \"#utility.yul\":400:454   */\n      and\n        /* \"#utility.yul\":389:454   */\n      swap1\n      pop\n        /* \"#utility.yul\":334:460   */\n      swap2\n      swap1\n      pop\n      jump\t// out\n        /* \"#utility.yul\":466:562   */\n    tag_57:\n        /* \"#utility.yul\":503:510   */\n      0x00\n        /* \"#utility.yul\":532:556   */\n      tag_99\n        /* \"#utility.yul\":550:555   */\n      dup3\n        /* \"#utility.yul\":532:556   */\n      tag_56\n      jump\t// in\n    tag_99:\n        /* \"#utility.yul\":521:556   */\n      swap1\n      pop\n        /* \"#utility.yul\":466:562   */\n      swap2\n      swap1\n      pop\n      jump\t// out\n        /* \"#utility.yul\":568:690   */\n    tag_58:\n        /* \"#utility.yul\":641:665   */\n      tag_101\n        /* \"#utility.yul\":659:664   */\n      dup2\n        /* \"#utility.yul\":641:665   */\n      tag_57\n      jump\t// in\n    tag_101:\n        /* \"#utility.yul\":634:639   */\n      dup2\n        /* \"#utility.yul\":631:666   */\n      eq\n        /* \"#utility.yul\":621:684   */\n      tag_102\n      jumpi\n        /* \"#utility.yul\":680:681   */\n      0x00\n        /* \"#utility.yul\":677:678   */\n      dup1\n        /* \"#utility.yul\":670:682   */\n      revert\n        /* \"#utility.yul\":621:684   */\n    tag_102:\n        /* \"#utility.yul\":568:690   */\n      pop\n      jump\t// out\n        /* \"#utility.yul\":696:835   */\n    tag_59:\n        /* \"#utility.yul\":742:747   */\n      0x00\n        /* \"#utility.yul\":780:786   */\n      dup2\n        /* \"#utility.yul\":767:787   */\n      calldataload\n        /* \"#utility.yul\":758:787   */\n      swap1\n      pop\n        /* \"#utility.yul\":796:829   */\n      tag_104\n        /* \"#utility.yul\":823:828   */\n      dup2\n        /* \"#utility.yul\":796:829   */\n      tag_58\n      jump\t// in\n    tag_104:\n        /* \"#utility.yul\":696:835   */\n      swap3\n      swap2\n      pop\n      pop\n      jump\t// out\n        /* \"#utility.yul\":841:918   */\n    tag_60:\n        /* \"#utility.yul\":878:885   */\n      0x00\n        /* \"#utility.yul\":907:912   */\n      dup2\n        /* \"#utility.yul\":896:912   */\n      swap1\n      pop\n        /* \"#utility.yul\":841:918   */\n      swap2\n      swap1\n      pop\n      jump\t// out\n        /* \"#utility.yul\":924:1046   */\n    tag_61:\n        /* \"#utility.yul\":997:1021   */\n      tag_107\n        /* \"#utility.yul\":1015:1020   */\n      dup2\n        /* \"#utility.yul\":997:1021   */\n      tag_60\n      jump\t// in\n    tag_107:\n        /* \"#utility.yul\":990:995   */\n      dup2\n        /* \"#utility.yul\":987:1022   */\n      eq\n        /* \"#utility.yul\":977:1040   */\n      tag_108\n      jumpi\n        /* \"#utility.yul\":1036:1037   */\n      0x00\n        /* \"#utility.yul\":1033:1034   */\n      dup1\n        /* \"#utility.yul\":1026:1038   */\n      revert\n        /* \"#utility.yul\":977:1040   */\n    tag_108:\n        /* \"#utility.yul\":924:1046   */\n      pop\n      jump\t// out\n        /* \"#utility.yul\":1052:1191   */\n    tag_62:\n        /* \"#utility.yul\":1098:1103   */\n      0x00\n        /* \"#utility.yul\":1136:1142   */\n      dup2\n        /* \"#utility.yul\":1123:1143   */\n      calldataload\n        /* \"#utility.yul\":1114:1143   */\n      swap1\n      pop\n        /* \"#utility.yul\":1152:1185   */\n      tag_110\n        /* \"#utility.yul\":1179:1184   */\n      dup2\n        /* \"#utility.yul\":1152:1185   */\n      tag_61\n      jump\t// in\n    tag_110:\n        /* \"#utility.yul\":1052:1191   */\n      swap3\n      swap2\n      pop\n      pop\n      jump\t// out\n        /* \"#utility.yul\":1197:1671   */\n    tag_9:\n        /* \"#utility.yul\":1265:1271   */\n      0x00\n        /* \"#utility.yul\":1273:1279   */\n      dup1\n        /* \"#utility.yul\":1322:1324   */\n      0x40\n        /* \"#utility.yul\":1310:1319   */\n      dup4\n        /* \"#utility.yul\":1301:1308   */\n      dup6\n        /* \"#utility.yul\":1297:1320   */\n      sub\n        /* \"#utility.yul\":1293:1325   */\n      slt\n        /* \"#utility.yul\":1290:1409   */\n      iszero\n      tag_112\n      jumpi\n        /* \"#utility.yul\":1328:1407   */\n      tag_113\n      tag_54\n      jump\t// in\n    tag_113:\n        /* \"#utility.yul\":1290:1409   */\n    tag_112:\n        /* \"#utility.yul\":1448:1449   */\n      0x00\n        /* \"#utility.yul\":1473:1526   */\n      tag_114\n        /* \"#utility.yul\":1518:1525   */\n      dup6\n        /* \"#utility.yul\":1509:1515   */\n      dup3\n        /* \"#utility.yul\":1498:1507   */\n      dup7\n        /* \"#utility.yul\":1494:1516   */\n      add\n        /* \"#utility.yul\":1473:1526   */\n      tag_59\n      jump\t// in\n    tag_114:\n        /* \"#utility.yul\":1463:1526   */\n      swap3\n      pop\n        /* \"#utility.yul\":1419:1536   */\n      pop\n        /* \"#utility.yul\":1575:1577   */\n      0x20\n        /* \"#utility.yul\":1601:1654   */\n      tag_115\n        /* \"#utility.yul\":1646:1653   */\n      dup6\n        /* \"#utility.yul\":1637:1643   */\n      dup3\n        /* \"#utility.yul\":1626:1635   */\n      dup7\n        /* \"#utility.yul\":1622:1644   */\n      add\n        /* \"#utility.yul\":1601:1654   */\n      tag_62\n      jump\t// in\n    tag_115:\n        /* \"#utility.yul\":1591:1654   */\n      swap2\n      pop\n        /* \"#utility.yul\":1546:1664   */\n      pop\n        /* \"#utility.yul\":1197:1671   */\n      swap3\n      pop\n      swap3\n      swap1\n      pop\n      jump\t// out\n        /* \"#utility.yul\":1677:1776   */\n    tag_63:\n        /* \"#utility.yul\":1729:1735   */\n      0x00\n        /* \"#utility.yul\":1763:1768   */\n      dup2\n        /* \"#utility.yul\":1757:1769   */\n      mload\n        /* \"#utility.yul\":1747:1769   */\n      swap1\n      pop\n        /* \"#utility.yul\":1677:1776   */\n      swap2\n      swap1\n      pop\n      jump\t// out\n        /* \"#utility.yul\":1782:1951   */\n    tag_64:\n        /* \"#utility.yul\":1866:1877   */\n      0x00\n        /* \"#utility.yul\":1900:1906   */\n      dup3\n        /* \"#utility.yul\":1895:1898   */\n      dup3\n        /* \"#utility.yul\":1888:1907   */\n      mstore\n        /* \"#utility.yul\":1940:1944   */\n      0x20\n        /* \"#utility.yul\":1935:1938   */\n      dup3\n        /* \"#utility.yul\":1931:1945   */\n      add\n        /* \"#utility.yul\":1916:1945   */\n      swap1\n      pop\n        /* \"#utility.yul\":1782:1951   */\n      swap3\n      swap2\n      pop\n      pop\n      jump\t// out\n        /* \"#utility.yul\":1957:2096   */\n    tag_65:\n        /* \"#utility.yul\":2046:2052   */\n      dup3\n        /* \"#utility.yul\":2041:2044   */\n      dup2\n        /* \"#utility.yul\":2036:2039   */\n      dup4\n        /* \"#utility.yul\":2030:2053   */\n      mcopy\n        /* \"#utility.yul\":2087:2088   */\n      0x00\n        /* \"#utility.yul\":2078:2084   */\n      dup4\n        /* \"#utility.yul\":2073:2076   */\n      dup4\n        /* \"#utility.yul\":2069:2085   */\n      add\n        /* \"#utility.yul\":2062:2089   */\n      mstore\n        /* \"#utility.yul\":1957:2096   */\n      pop\n      pop\n      pop\n      jump\t// out\n        /* \"#utility.yul\":2102:2204   */\n    tag_66:\n        /* \"#utility.yul\":2143:2149   */\n      0x00\n        /* \"#utility.yul\":2194:2196   */\n      0x1f\n        /* \"#utility.yul\":2190:2197   */\n      not\n        /* \"#utility.yul\":2185:2187   */\n      0x1f\n        /* \"#utility.yul\":2178:2183   */\n      dup4\n        /* \"#utility.yul\":2174:2188   */\n      add\n        /* \"#utility.yul\":2170:2198   */\n      and\n        /* \"#utility.yul\":2160:2198   */\n      swap1\n      pop\n        /* \"#utility.yul\":2102:2204   */\n      swap2\n      swap1\n      pop\n      jump\t// out\n        /* \"#utility.yul\":2210:2587   */\n    tag_67:\n        /* \"#utility.yul\":2298:2301   */\n      0x00\n        /* \"#utility.yul\":2326:2365   */\n      tag_121\n        /* \"#utility.yul\":2359:2364   */\n      dup3\n        /* \"#utility.yul\":2326:2365   */\n      tag_63\n      jump\t// in\n    tag_121:\n        /* \"#utility.yul\":2381:2452   */\n      tag_122\n        /* \"#utility.yul\":2445:2451   */\n      dup2\n        /* \"#utility.yul\":2440:2443   */\n      dup6\n        /* \"#utility.yul\":2381:2452   */\n      tag_64\n      jump\t// in\n    tag_122:\n        /* \"#utility.yul\":2374:2452   */\n      swap4\n      pop\n        /* \"#utility.yul\":2461:2526   */\n      tag_123\n        /* \"#utility.yul\":2519:2525   */\n      dup2\n        /* \"#utility.yul\":2514:2517   */\n      dup6\n        /* \"#utility.yul\":2507:2511   */\n      0x20\n        /* \"#utility.yul\":2500:2505   */\n      dup7\n        /* \"#utility.yul\":2496:2512   */\n      add\n        /* \"#utility.yul\":2461:2526   */\n      tag_65\n      jump\t// in\n    tag_123:\n        /* \"#utility.yul\":2551:2580   */\n      tag_124\n        /* \"#utility.yul\":2573:2579   */\n      dup2\n        /* \"#utility.yul\":2551:2580   */\n      tag_66\n      jump\t// in\n    tag_124:\n        /* \"#utility.yul\":2546:2549   */\n      dup5\n        /* \"#utility.yul\":2542:2581   */\n      add\n        /* \"#utility.yul\":2535:2581   */\n      swap2\n      pop\n        /* \"#utility.yul\":2302:2587   */\n      pop\n        /* \"#utility.yul\":2210:2587   */\n      swap3\n      swap2\n      pop\n      pop\n      jump\t// out\n        /* \"#utility.yul\":2593:3107   */\n    tag_12:\n        /* \"#utility.yul\":2754:2758   */\n      0x00\n        /* \"#utility.yul\":2792:2794   */\n      0x40\n        /* \"#utility.yul\":2781:2790   */\n      dup3\n        /* \"#utility.yul\":2777:2795   */\n      add\n        /* \"#utility.yul\":2769:2795   */\n      swap1\n      pop\n        /* \"#utility.yul\":2841:2850   */\n      dup2\n        /* \"#utility.yul\":2835:2839   */\n      dup2\n        /* \"#utility.yul\":2831:2851   */\n      sub\n        /* \"#utility.yul\":2827:2828   */\n      0x00\n        /* \"#utility.yul\":2816:2825   */\n      dup4\n        /* \"#utility.yul\":2812:2829   */\n      add\n        /* \"#utility.yul\":2805:2852   */\n      mstore\n        /* \"#utility.yul\":2869:2947   */\n      tag_126\n        /* \"#utility.yul\":2942:2946   */\n      dup2\n        /* \"#utility.yul\":2933:2939   */\n      dup6\n        /* \"#utility.yul\":2869:2947   */\n      tag_67\n      jump\t// in\n    tag_126:\n        /* \"#utility.yul\":2861:2947   */\n      swap1\n      pop\n        /* \"#utility.yul\":2994:3003   */\n      dup2\n        /* \"#utility.yul\":2988:2992   */\n      dup2\n        /* \"#utility.yul\":2984:3004   */\n      sub\n        /* \"#utility.yul\":2979:2981   */\n      0x20\n        /* \"#utility.yul\":2968:2977   */\n      dup4\n        /* \"#utility.yul\":2964:2982   */\n      add\n        /* \"#utility.yul\":2957:3005   */\n      mstore\n        /* \"#utility.yul\":3022:3100   */\n      tag_127\n        /* \"#utility.yul\":3095:3099   */\n      dup2\n        /* \"#utility.yul\":3086:3092   */\n      dup5\n        /* \"#utility.yul\":3022:3100   */\n      tag_67\n      jump\t// in\n    tag_127:\n        /* \"#utility.yul\":3014:3100   */\n      swap1\n      pop\n        /* \"#utility.yul\":2593:3107   */\n      swap4\n      swap3\n      pop\n      pop\n      pop\n      jump\t// out\n        /* \"#utility.yul\":3113:3230   */\n    tag_68:\n        /* \"#utility.yul\":3222:3223   */\n      0x00\n        /* \"#utility.yul\":3219:3220   */\n      dup1\n        /* \"#utility.yul\":3212:3224   */\n      revert\n        /* \"#utility.yul\":3236:3353   */\n    tag_69:\n        /* \"#utility.yul\":3345:3346   */\n      0x00\n        /* \"#utility.yul\":3342:3343   */\n      dup1\n        /* \"#utility.yul\":3335:3347   */\n      revert\n        /* \"#utility.yul\":3359:3539   */\n    tag_70:\n        /* \"#utility.yul\":3407:3484   */\n      0x4e487b7100000000000000000000000000000000000000000000000000000000\n        /* \"#utility.yul\":3404:3405   */\n      0x00\n        /* \"#utility.yul\":3397:3485   */\n      mstore\n        /* \"#utility.yul\":3504:3508   */\n      0x41\n        /* \"#utility.yul\":3501:3502   */\n      0x04\n        /* \"#utility.yul\":3494:3509   */\n      mstore\n        /* \"#utility.yul\":3528:3532   */\n      0x24\n        /* \"#utility.yul\":3525:3526   */\n      0x00\n        /* \"#utility.yul\":3518:3533   */\n      revert\n        /* \"#utility.yul\":3545:3826   */\n    tag_71:\n        /* \"#utility.yul\":3628:3655   */\n      tag_132\n        /* \"#utility.yul\":3650:3654   */\n      dup3\n        /* \"#utility.yul\":3628:3655   */\n      tag_66\n      jump\t// in\n    tag_132:\n        /* \"#utility.yul\":3620:3626   */\n      dup2\n        /* \"#utility.yul\":3616:3656   */\n      add\n        /* \"#utility.yul\":3758:3764   */\n      dup2\n        /* \"#utility.yul\":3746:3756   */\n      dup2\n        /* \"#utility.yul\":3743:3765   */\n      lt\n        /* \"#utility.yul\":3722:3740   */\n      0xffffffffffffffff\n        /* \"#utility.yul\":3710:3720   */\n      dup3\n        /* \"#utility.yul\":3707:3741   */\n      gt\n        /* \"#utility.yul\":3704:3766   */\n      or\n        /* \"#utility.yul\":3701:3789   */\n      iszero\n      tag_133\n      jumpi\n        /* \"#utility.yul\":3769:3787   */\n      tag_134\n      tag_70\n      jump\t// in\n    tag_134:\n        /* \"#utility.yul\":3701:3789   */\n    tag_133:\n        /* \"#utility.yul\":3809:3819   */\n      dup1\n        /* \"#utility.yul\":3805:3807   */\n      0x40\n        /* \"#utility.yul\":3798:3820   */\n      mstore\n        /* \"#utility.yul\":3588:3826   */\n      pop\n        /* \"#utility.yul\":3545:3826   */\n      pop\n      pop\n      jump\t// out\n        /* \"#utility.yul\":3832:3961   */\n    tag_72:\n        /* \"#utility.yul\":3866:3872   */\n      0x00\n        /* \"#utility.yul\":3893:3913   */\n      tag_136\n      tag_53\n      jump\t// in\n    tag_136:\n        /* \"#utility.yul\":3883:3913   */\n      swap1\n      pop\n        /* \"#utility.yul\":3922:3955   */\n      tag_137\n        /* \"#utility.yul\":3950:3954   */\n      dup3\n        /* \"#utility.yul\":3942:3948   */\n      dup3\n        /* \"#utility.yul\":3922:3955   */\n      tag_71\n      jump\t// in\n    tag_137:\n        /* \"#utility.yul\":3832:3961   */\n      swap2\n      swap1\n      pop\n      jump\t// out\n        /* \"#utility.yul\":3967:4275   */\n    tag_73:\n        /* \"#utility.yul\":4029:4033   */\n      0x00\n        /* \"#utility.yul\":4119:4137   */\n      0xffffffffffffffff\n        /* \"#utility.yul\":4111:4117   */\n      dup3\n        /* \"#utility.yul\":4108:4138   */\n      gt\n        /* \"#utility.yul\":4105:4161   */\n      iszero\n      tag_139\n      jumpi\n        /* \"#utility.yul\":4141:4159   */\n      tag_140\n      tag_70\n      jump\t// in\n    tag_140:\n        /* \"#utility.yul\":4105:4161   */\n    tag_139:\n        /* \"#utility.yul\":4179:4208   */\n      tag_141\n        /* \"#utility.yul\":4201:4207   */\n      dup3\n        /* \"#utility.yul\":4179:4208   */\n      tag_66\n      jump\t// in\n    tag_141:\n        /* \"#utility.yul\":4171:4208   */\n      swap1\n      pop\n        /* \"#utility.yul\":4263:4267   */\n      0x20\n        /* \"#utility.yul\":4257:4261   */\n      dup2\n        /* \"#utility.yul\":4253:4268   */\n      add\n        /* \"#utility.yul\":4245:4268   */\n      swap1\n      pop\n        /* \"#utility.yul\":3967:4275   */\n      swap2\n      swap1\n      pop\n      jump\t// out\n        /* \"#utility.yul\":4281:4429   */\n    tag_74:\n        /* \"#utility.yul\":4379:4385   */\n      dup3\n        /* \"#utility.yul\":4374:4377   */\n      dup2\n        /* \"#utility.yul\":4369:4372   */\n      dup4\n        /* \"#utility.yul\":4356:4386   */\n      calldatacopy\n        /* \"#utility.yul\":4420:4421   */\n      0x00\n        /* \"#utility.yul\":4411:4417   */\n      dup4\n        /* \"#utility.yul\":4406:4409   */\n      dup4\n        /* \"#utility.yul\":4402:4418   */\n      add\n        /* \"#utility.yul\":4395:4422   */\n      mstore\n        /* \"#utility.yul\":4281:4429   */\n      pop\n      pop\n      pop\n      jump\t// out\n        /* \"#utility.yul\":4435:4860   */\n    tag_75:\n        /* \"#utility.yul\":4513:4518   */\n      0x00\n        /* \"#utility.yul\":4538:4604   */\n      tag_144\n        /* \"#utility.yul\":4554:4603   */\n      tag_145\n        /* \"#utility.yul\":4596:4602   */\n      dup5\n        /* \"#utility.yul\":4554:4603   */\n      tag_73\n      jump\t// in\n    tag_145:\n        /* \"#utility.yul\":4538:4604   */\n      tag_72\n      jump\t// in\n    tag_144:\n        /* \"#utility.yul\":4529:4604   */\n      swap1\n      pop\n        /* \"#utility.yul\":4627:4633   */\n      dup3\n        /* \"#utility.yul\":4620:4625   */\n      dup2\n        /* \"#utility.yul\":4613:4634   */\n      mstore\n        /* \"#utility.yul\":4665:4669   */\n      0x20\n        /* \"#utility.yul\":4658:4663   */\n      dup2\n        /* \"#utility.yul\":4654:4670   */\n      add\n        /* \"#utility.yul\":4703:4706   */\n      dup5\n        /* \"#utility.yul\":4694:4700   */\n      dup5\n        /* \"#utility.yul\":4689:4692   */\n      dup5\n        /* \"#utility.yul\":4685:4701   */\n      add\n        /* \"#utility.yul\":4682:4707   */\n      gt\n        /* \"#utility.yul\":4679:4791   */\n      iszero\n      tag_146\n      jumpi\n        /* \"#utility.yul\":4710:4789   */\n      tag_147\n      tag_69\n      jump\t// in\n    tag_147:\n        /* \"#utility.yul\":4679:4791   */\n    tag_146:\n        /* \"#utility.yul\":4800:4854   */\n      tag_148\n        /* \"#utility.yul\":4847:4853   */\n      dup5\n        /* \"#utility.yul\":4842:4845   */\n      dup3\n        /* \"#utility.yul\":4837:4840   */\n      dup6\n        /* \"#utility.yul\":4800:4854   */\n      tag_74\n      jump\t// in\n    tag_148:\n        /* \"#utility.yul\":4519:4860   */\n      pop\n        /* \"#utility.yul\":4435:4860   */\n      swap4\n      swap3\n      pop\n      pop\n      pop\n      jump\t// out\n        /* \"#utility.yul\":4880:5220   */\n    tag_76:\n        /* \"#utility.yul\":4936:4941   */\n      0x00\n        /* \"#utility.yul\":4985:4988   */\n      dup3\n        /* \"#utility.yul\":4978:4982   */\n      0x1f\n        /* \"#utility.yul\":4970:4976   */\n      dup4\n        /* \"#utility.yul\":4966:4983   */\n      add\n        /* \"#utility.yul\":4962:4989   */\n      slt\n        /* \"#utility.yul\":4952:5074   */\n      tag_150\n      jumpi\n        /* \"#utility.yul\":4993:5072   */\n      tag_151\n      tag_68\n      jump\t// in\n    tag_151:\n        /* \"#utility.yul\":4952:5074   */\n    tag_150:\n        /* \"#utility.yul\":5110:5116   */\n      dup2\n        /* \"#utility.yul\":5097:5117   */\n      calldataload\n        /* \"#utility.yul\":5135:5214   */\n      tag_152\n        /* \"#utility.yul\":5210:5213   */\n      dup5\n        /* \"#utility.yul\":5202:5208   */\n      dup3\n        /* \"#utility.yul\":5195:5199   */\n      0x20\n        /* \"#utility.yul\":5187:5193   */\n      dup7\n        /* \"#utility.yul\":5183:5200   */\n      add\n        /* \"#utility.yul\":5135:5214   */\n      tag_75\n      jump\t// in\n    tag_152:\n        /* \"#utility.yul\":5126:5214   */\n      swap2\n      pop\n        /* \"#utility.yul\":4942:5220   */\n      pop\n        /* \"#utility.yul\":4880:5220   */\n      swap3\n      swap2\n      pop\n      pop\n      jump\t// out\n        /* \"#utility.yul\":5226:6205   */\n    tag_15:\n        /* \"#utility.yul\":5323:5329   */\n      0x00\n        /* \"#utility.yul\":5331:5337   */\n      dup1\n        /* \"#utility.yul\":5339:5345   */\n      0x00\n        /* \"#utility.yul\":5388:5390   */\n      0x60\n        /* \"#utility.yul\":5376:5385   */\n      dup5\n        /* \"#utility.yul\":5367:5374   */\n      dup7\n        /* \"#utility.yul\":5363:5386   */\n      sub\n        /* \"#utility.yul\":5359:5391   */\n      slt\n        /* \"#utility.yul\":5356:5475   */\n      iszero\n      tag_154\n      jumpi\n        /* \"#utility.yul\":5394:5473   */\n      tag_155\n      tag_54\n      jump\t// in\n    tag_155:\n        /* \"#utility.yul\":5356:5475   */\n    tag_154:\n        /* \"#utility.yul\":5542:5543   */\n      0x00\n        /* \"#utility.yul\":5531:5540   */\n      dup5\n        /* \"#utility.yul\":5527:5544   */\n      add\n        /* \"#utility.yul\":5514:5545   */\n      calldataload\n        /* \"#utility.yul\":5572:5590   */\n      0xffffffffffffffff\n        /* \"#utility.yul\":5564:5570   */\n      dup2\n        /* \"#utility.yul\":5561:5591   */\n      gt\n        /* \"#utility.yul\":5558:5675   */\n      iszero\n      tag_156\n      jumpi\n        /* \"#utility.yul\":5594:5673   */\n      tag_157\n      tag_55\n      jump\t// in\n    tag_157:\n        /* \"#utility.yul\":5558:5675   */\n    tag_156:\n        /* \"#utility.yul\":5699:5762   */\n      tag_158\n        /* \"#utility.yul\":5754:5761   */\n      dup7\n        /* \"#utility.yul\":5745:5751   */\n      dup3\n        /* \"#utility.yul\":5734:5743   */\n      dup8\n        /* \"#utility.yul\":5730:5752   */\n      add\n        /* \"#utility.yul\":5699:5762   */\n      tag_76\n      jump\t// in\n    tag_158:\n        /* \"#utility.yul\":5689:5762   */\n      swap4\n      pop\n        /* \"#utility.yul\":5485:5772   */\n      pop\n        /* \"#utility.yul\":5839:5841   */\n      0x20\n        /* \"#utility.yul\":5828:5837   */\n      dup5\n        /* \"#utility.yul\":5824:5842   */\n      add\n        /* \"#utility.yul\":5811:5843   */\n      calldataload\n        /* \"#utility.yul\":5870:5888   */\n      0xffffffffffffffff\n        /* \"#utility.yul\":5862:5868   */\n      dup2\n        /* \"#utility.yul\":5859:5889   */\n      gt\n        /* \"#utility.yul\":5856:5973   */\n      iszero\n      tag_159\n      jumpi\n        /* \"#utility.yul\":5892:5971   */\n      tag_160\n      tag_55\n      jump\t// in\n    tag_160:\n        /* \"#utility.yul\":5856:5973   */\n    tag_159:\n        /* \"#utility.yul\":5997:6060   */\n      tag_161\n        /* \"#utility.yul\":6052:6059   */\n      dup7\n        /* \"#utility.yul\":6043:6049   */\n      dup3\n        /* \"#utility.yul\":6032:6041   */\n      dup8\n        /* \"#utility.yul\":6028:6050   */\n      add\n        /* \"#utility.yul\":5997:6060   */\n      tag_76\n      jump\t// in\n    tag_161:\n        /* \"#utility.yul\":5987:6060   */\n      swap3\n      pop\n        /* \"#utility.yul\":5782:6070   */\n      pop\n        /* \"#utility.yul\":6109:6111   */\n      0x40\n        /* \"#utility.yul\":6135:6188   */\n      tag_162\n        /* \"#utility.yul\":6180:6187   */\n      dup7\n        /* \"#utility.yul\":6171:6177   */\n      dup3\n        /* \"#utility.yul\":6160:6169   */\n      dup8\n        /* \"#utility.yul\":6156:6178   */\n      add\n        /* \"#utility.yul\":6135:6188   */\n      tag_62\n      jump\t// in\n    tag_162:\n        /* \"#utility.yul\":6125:6188   */\n      swap2\n      pop\n        /* \"#utility.yul\":6080:6198   */\n      pop\n        /* \"#utility.yul\":5226:6205   */\n      swap3\n      pop\n      swap3\n      pop\n      swap3\n      jump\t// out\n        /* \"#utility.yul\":6211:6540   */\n    tag_22:\n        /* \"#utility.yul\":6270:6276   */\n      0x00\n        /* \"#utility.yul\":6319:6321   */\n      0x20\n        /* \"#utility.yul\":6307:6316   */\n      dup3\n        /* \"#utility.yul\":6298:6305   */\n      dup5\n        /* \"#utility.yul\":6294:6317   */\n      sub\n        /* \"#utility.yul\":6290:6322   */\n      slt\n        /* \"#utility.yul\":6287:6406   */\n      iszero\n      tag_164\n      jumpi\n        /* \"#utility.yul\":6325:6404   */\n      tag_165\n      tag_54\n      jump\t// in\n    tag_165:\n        /* \"#utility.yul\":6287:6406   */\n    tag_164:\n        /* \"#utility.yul\":6445:6446   */\n      0x00\n        /* \"#utility.yul\":6470:6523   */\n      tag_166\n        /* \"#utility.yul\":6515:6522   */\n      dup5\n        /* \"#utility.yul\":6506:6512   */\n      dup3\n        /* \"#utility.yul\":6495:6504   */\n      dup6\n        /* \"#utility.yul\":6491:6513   */\n      add\n        /* \"#utility.yul\":6470:6523   */\n      tag_62\n      jump\t// in\n    tag_166:\n        /* \"#utility.yul\":6460:6523   */\n      swap2\n      pop\n        /* \"#utility.yul\":6416:6533   */\n      pop\n        /* \"#utility.yul\":6211:6540   */\n      swap3\n      swap2\n      pop\n      pop\n      jump\t// out\n        /* \"#utility.yul\":6546:6726   */\n    tag_77:\n        /* \"#utility.yul\":6594:6671   */\n      0x4e487b7100000000000000000000000000000000000000000000000000000000\n        /* \"#utility.yul\":6591:6592   */\n      0x00\n        /* \"#utility.yul\":6584:6672   */\n      mstore\n        /* \"#utility.yul\":6691:6695   */\n      0x22\n        /* \"#utility.yul\":6688:6689   */\n      0x04\n        /* \"#utility.yul\":6681:6696   */\n      mstore\n        /* \"#utility.yul\":6715:6719   */\n      0x24\n        /* \"#utility.yul\":6712:6713   */\n      0x00\n        /* \"#utility.yul\":6705:6720   */\n      revert\n        /* \"#utility.yul\":6732:7052   */\n    tag_26:\n        /* \"#utility.yul\":6776:6782   */\n      0x00\n        /* \"#utility.yul\":6813:6814   */\n      0x02\n        /* \"#utility.yul\":6807:6811   */\n      dup3\n        /* \"#utility.yul\":6803:6815   */\n      div\n        /* \"#utility.yul\":6793:6815   */\n      swap1\n      pop\n        /* \"#utility.yul\":6860:6861   */\n      0x01\n        /* \"#utility.yul\":6854:6858   */\n      dup3\n        /* \"#utility.yul\":6850:6862   */\n      and\n        /* \"#utility.yul\":6881:6899   */\n      dup1\n        /* \"#utility.yul\":6871:6952   */\n      tag_169\n      jumpi\n        /* \"#utility.yul\":6937:6941   */\n      0x7f\n        /* \"#utility.yul\":6929:6935   */\n      dup3\n        /* \"#utility.yul\":6925:6942   */\n      and\n        /* \"#utility.yul\":6915:6942   */\n      swap2\n      pop\n        /* \"#utility.yul\":6871:6952   */\n    tag_169:\n        /* \"#utility.yul\":6999:7001   */\n      0x20\n        /* \"#utility.yul\":6991:6997   */\n      dup3\n        /* \"#utility.yul\":6988:7002   */\n      lt\n        /* \"#utility.yul\":6968:6986   */\n      dup2\n        /* \"#utility.yul\":6965:7003   */\n      sub\n        /* \"#utility.yul\":6962:7046   */\n      tag_170\n      jumpi\n        /* \"#utility.yul\":7018:7036   */\n      tag_171\n      tag_77\n      jump\t// in\n    tag_171:\n        /* \"#utility.yul\":6962:7046   */\n    tag_170:\n        /* \"#utility.yul\":6783:7052   */\n      pop\n        /* \"#utility.yul\":6732:7052   */\n      swap2\n      swap1\n      pop\n      jump\t// out\n        /* \"#utility.yul\":7058:7199   */\n    tag_78:\n        /* \"#utility.yul\":7107:7111   */\n      0x00\n        /* \"#utility.yul\":7130:7133   */\n      dup2\n        /* \"#utility.yul\":7122:7133   */\n      swap1\n      pop\n        /* \"#utility.yul\":7153:7156   */\n      dup2\n        /* \"#utility.yul\":7150:7151   */\n      0x00\n        /* \"#utility.yul\":7143:7157   */\n      mstore\n        /* \"#utility.yul\":7187:7191   */\n      0x20\n        /* \"#utility.yul\":7184:7185   */\n      0x00\n        /* \"#utility.yul\":7174:7192   */\n      keccak256\n        /* \"#utility.yul\":7166:7192   */\n      swap1\n      pop\n        /* \"#utility.yul\":7058:7199   */\n      swap2\n      swap1\n      pop\n      jump\t// out\n        /* \"#utility.yul\":7205:7298   */\n    tag_79:\n        /* \"#utility.yul\":7242:7248   */\n      0x00\n        /* \"#utility.yul\":7289:7291   */\n      0x20\n        /* \"#utility.yul\":7284:7286   */\n      0x1f\n        /* \"#utility.yul\":7277:7282   */\n      dup4\n        /* \"#utility.yul\":7273:7287   */\n      add\n        /* \"#utility.yul\":7269:7292   */\n      div\n        /* \"#utility.yul\":7259:7292   */\n      swap1\n      pop\n        /* \"#utility.yul\":7205:7298   */\n      swap2\n      swap1\n      pop\n      jump\t// out\n        /* \"#utility.yul\":7304:7411   */\n    tag_80:\n        /* \"#utility.yul\":7348:7356   */\n      0x00\n        /* \"#utility.yul\":7398:7403   */\n      dup3\n        /* \"#utility.yul\":7392:7396   */\n      dup3\n        /* \"#utility.yul\":7388:7404   */\n      shl\n        /* \"#utility.yul\":7367:7404   */\n      swap1\n      pop\n        /* \"#utility.yul\":7304:7411   */\n      swap3\n      swap2\n      pop\n      pop\n      jump\t// out\n        /* \"#utility.yul\":7417:7810   */\n    tag_81:\n        /* \"#utility.yul\":7486:7492   */\n      0x00\n        /* \"#utility.yul\":7536:7537   */\n      0x08\n        /* \"#utility.yul\":7524:7534   */\n      dup4\n        /* \"#utility.yul\":7520:7538   */\n      mul\n        /* \"#utility.yul\":7559:7656   */\n      tag_176\n        /* \"#utility.yul\":7589:7655   */\n      0xffffffffffffffffffffffffffffffffffffffffffffffffffffffffffffffff\n        /* \"#utility.yul\":7578:7587   */\n      dup3\n        /* \"#utility.yul\":7559:7656   */\n      tag_80\n      jump\t// in\n    tag_176:\n        /* \"#utility.yul\":7677:7716   */\n      tag_177\n        /* \"#utility.yul\":7707:7715   */\n      dup7\n        /* \"#utility.yul\":7696:7705   */\n      dup4\n        /* \"#utility.yul\":7677:7716   */\n      tag_80\n      jump\t// in\n    tag_177:\n        /* \"#utility.yul\":7665:7716   */\n      swap6\n      pop\n        /* \"#utility.yul\":7749:7753   */\n      dup1\n        /* \"#utility.yul\":7745:7754   */\n      not\n        /* \"#utility.yul\":7738:7743   */\n      dup5\n        /* \"#utility.yul\":7734:7755   */\n      and\n        /* \"#utility.yul\":7725:7755   */\n      swap4\n      pop\n        /* \"#utility.yul\":7798:7802   */\n      dup1\n        /* \"#utility.yul\":7788:7796   */\n      dup7\n        /* \"#utility.yul\":7784:7803   */\n      and\n        /* \"#utility.yul\":7777:7782   */\n      dup5\n        /* \"#utility.yul\":7774:7804   */\n      or\n        /* \"#utility.yul\":7764:7804   */\n      swap3\n      pop\n        /* \"#utility.yul\":7493:7810   */\n      pop\n      pop\n        /* \"#utility.yul\":7417:7810   */\n      swap4\n      swap3\n      pop\n      pop\n      pop\n      jump\t// out\n        /* \"#utility.yul\":7816:7876   */\n    tag_82:\n        /* \"#utility.yul\":7844:7847   */\n      0x00\n        /* \"#utility.yul\":7865:7870   */\n      dup2\n        /* \"#utility.yul\":7858:7870   */\n      swap1\n      pop\n        /* \"#utility.yul\":7816:7876   */\n      swap2\n      swap1\n      pop\n      jump\t// out\n        /* \"#utility.yul\":7882:8024   */\n    tag_83:\n        /* \"#utility.yul\":7932:7941   */\n      0x00\n        /* \"#utility.yul\":7965:8018   */\n      tag_180\n        /* \"#utility.yul\":7983:8017   */\n      tag_181\n        /* \"#utility.yul\":7992:8016   */\n      tag_182\n        /* \"#utility.yul\":8010:8015   */\n      dup5\n        /* \"#utility.yul\":7992:8016   */\n      tag_60\n      jump\t// in\n    tag_182:\n        /* \"#utility.yul\":7983:8017   */\n      tag_82\n      jump\t// in\n    tag_181:\n        /* \"#utility.yul\":7965:8018   */\n      tag_60\n      jump\t// in\n    tag_180:\n        /* \"#utility.yul\":7952:8018   */\n      swap1\n      pop\n        /* \"#utility.yul\":7882:8024   */\n      swap2\n      swap1\n      pop\n      jump\t// out\n        /* \"#utility.yul\":8030:8105   */\n    tag_84:\n        /* \"#utility.yul\":8073:8076   */\n      0x00\n        /* \"#utility.yul\":8094:8099   */\n      dup2\n        /* \"#utility.yul\":8087:8099   */\n      swap1\n      pop\n        /* \"#utility.yul\":8030:8105   */\n      swap2\n      swap1\n      pop\n      jump\t// out\n        /* \"#utility.yul\":8111:8380   */\n    tag_85:\n        /* \"#utility.yul\":8221:8260   */\n      tag_185\n        /* \"#utility.yul\":8252:8259   */\n      dup4\n        /* \"#utility.yul\":8221:8260   */\n      tag_83\n      jump\t// in\n    tag_185:\n        /* \"#utility.yul\":8282:8373   */\n      tag_186\n        /* \"#utility.yul\":8331:8372   */\n      tag_187\n        /* \"#utility.yul\":8355:8371   */\n      dup3\n        /* \"#utility.yul\":8331:8372   */\n      tag_84\n      jump\t// in\n    tag_187:\n        /* \"#utility.yul\":8323:8329   */\n      dup5\n        /* \"#utility.yul\":8316:8320   */\n      dup5\n        /* \"#utility.yul\":8310:8321   */\n      sload\n        /* \"#utility.yul\":8282:8373   */\n      tag_81\n      jump\t// in\n    tag_186:\n        /* \"#utility.yul\":8276:8280   */\n      dup3\n        /* \"#utility.yul\":8269:8374   */\n      sstore\n        /* \"#utility.yul\":8187:8380   */\n      pop\n        /* \"#utility.yul\":8111:8380   */\n      pop\n      pop\n      pop\n      jump\t// out\n        /* \"#utility.yul\":8386:8459   */\n    tag_86:\n        /* \"#utility.yul\":8431:8434   */\n      0x00\n        /* \"#utility.yul\":8386:8459   */\n      swap1\n      jump\t// out\n        /* \"#utility.yul\":8465:8654   */\n    tag_87:\n        /* \"#utility.yul\":8542:8574   */\n      tag_190\n      tag_86\n      jump\t// in\n    tag_190:\n        /* \"#utility.yul\":8583:8648   */\n      tag_191\n        /* \"#utility.yul\":8641:8647   */\n      dup2\n        /* \"#utility.yul\":8633:8639   */\n      dup5\n        /* \"#utility.yul\":8627:8631   */\n      dup5\n        /* \"#utility.yul\":8583:8648   */\n      tag_85\n      jump\t// in\n    tag_191:\n        /* \"#utility.yul\":8518:8654   */\n      pop\n        /* \"#utility.yul\":8465:8654   */\n      pop\n      pop\n      jump\t// out\n        /* \"#utility.yul\":8660:8846   */\n    tag_88:\n        /* \"#utility.yul\":8720:8840   */\n    tag_193:\n        /* \"#utility.yul\":8737:8740   */\n      dup2\n        /* \"#utility.yul\":8730:8735   */\n      dup2\n        /* \"#utility.yul\":8727:8741   */\n      lt\n        /* \"#utility.yul\":8720:8840   */\n      iszero\n      tag_195\n      jumpi\n        /* \"#utility.yul\":8791:8830   */\n      tag_196\n        /* \"#utility.yul\":8828:8829   */\n      0x00\n        /* \"#utility.yul\":8821:8826   */\n      dup3\n        /* \"#utility.yul\":8791:8830   */\n      tag_87\n      jump\t// in\n    tag_196:\n        /* \"#utility.yul\":8764:8765   */\n      0x01\n        /* \"#utility.yul\":8757:8762   */\n      dup2\n        /* \"#utility.yul\":8753:8766   */\n      add\n        /* \"#utility.yul\":8744:8766   */\n      swap1\n      pop\n        /* \"#utility.yul\":8720:8840   */\n      jump(tag_193)\n    tag_195:\n        /* \"#utility.yul\":8660:8846   */\n      pop\n      pop\n      jump\t// out\n        /* \"#utility.yul\":8852:9395   */\n    tag_89:\n        /* \"#utility.yul\":8953:8955   */\n      0x1f\n        /* \"#utility.yul\":8948:8951   */\n      dup3\n        /* \"#utility.yul\":8945:8956   */\n      gt\n        /* \"#utility.yul\":8942:9388   */\n      iszero\n      tag_198\n      jumpi\n        /* \"#utility.yul\":8987:9025   */\n      tag_199\n        /* \"#utility.yul\":9019:9024   */\n      dup2\n        /* \"#utility.yul\":8987:9025   */\n      tag_78\n      jump\t// in\n    tag_199:\n        /* \"#utility.yul\":9071:9100   */\n      tag_200\n        /* \"#utility.yul\":9089:9099   */\n      dup5\n        /* \"#utility.yul\":9071:9100   */\n      tag_79\n      jump\t// in\n    tag_200:\n        /* \"#utility.yul\":9061:9069   */\n      dup2\n        /* \"#utility.yul\":9057:9101   */\n      add\n        /* \"#utility.yul\":9254:9256   */\n      0x20\n        /* \"#utility.yul\":9242:9252   */\n      dup6\n        /* \"#utility.yul\":9239:9257   */\n      lt\n        /* \"#utility.yul\":9236:9285   */\n      iszero\n      tag_201\n      jumpi\n        /* \"#utility.yul\":9275:9283   */\n      dup2\n        /* \"#utility.yul\":9260:9283   */\n      swap1\n      pop\n        /* \"#utility.yul\":9236:9285   */\n    tag_201:\n        /* \"#utility.yul\":9298:9378   */\n      tag_202\n        /* \"#utility.yul\":9354:9376   */\n      tag_203\n        /* \"#utility.yul\":9372:9375   */\n      dup6\n        /* \"#utility.yul\":9354:9376   */\n      tag_79\n      jump\t// in\n    tag_203:\n        /* \"#utility.yul\":9344:9352   */\n      dup4\n        /* \"#utility.yul\":9340:9377   */\n      add\n        /* \"#utility.yul\":9327:9338   */\n      dup3\n        /* \"#utility.yul\":9298:9378   */\n      tag_88\n      jump\t// in\n    tag_202:\n        /* \"#utility.yul\":8957:9388   */\n      pop\n      pop\n        /* \"#utility.yul\":8942:9388   */\n    tag_198:\n        /* \"#utility.yul\":8852:9395   */\n      pop\n      pop\n      pop\n      jump\t// out\n        /* \"#utility.yul\":9401:9518   */\n    tag_90:\n        /* \"#utility.yul\":9455:9463   */\n      0x00\n        /* \"#utility.yul\":9505:9510   */\n      dup3\n        /* \"#utility.yul\":9499:9503   */\n      dup3\n        /* \"#utility.yul\":9495:9511   */\n      shr\n        /* \"#utility.yul\":9474:9511   */\n      swap1\n      pop\n        /* \"#utility.yul\":9401:9518   */\n      swap3\n      swap2\n      pop\n      pop\n      jump\t// out\n        /* \"#utility.yul\":9524:9693   */\n    tag_91:\n        /* \"#utility.yul\":9568:9574   */\n      0x00\n        /* \"#utility.yul\":9601:9652   */\n      tag_206\n        /* \"#utility.yul\":9649:9650   */\n      0x00\n        /* \"#utility.yul\":9645:9651   */\n      not\n        /* \"#utility.yul\":9637:9642   */\n      dup5\n        /* \"#utility.yul\":9634:9635   */\n      0x08\n        /* \"#utility.yul\":9630:9643   */\n      mul\n        /* \"#utility.yul\":9601:9652   */\n      tag_90\n      jump\t// in\n    tag_206:\n        /* \"#utility.yul\":9597:9653   */\n      not\n        /* \"#utility.yul\":9682:9686   */\n      dup1\n        /* \"#utility.yul\":9676:9680   */\n      dup4\n        /* \"#utility.yul\":9672:9687   */\n      and\n        /* \"#utility.yul\":9662:9687   */\n      swap2\n      pop\n        /* \"#utility.yul\":9575:9693   */\n      pop\n        /* \"#utility.yul\":9524:9693   */\n      swap3\n      swap2\n      pop\n      pop\n      jump\t// out\n        /* \"#utility.yul\":9698:9993   */\n    tag_92:\n        /* \"#utility.yul\":9774:9778   */\n      0x00\n        /* \"#utility.yul\":9920:9949   */\n      tag_208\n        /* \"#utility.yul\":9945:9948   */\n      dup4\n        /* \"#utility.yul\":9939:9943   */\n      dup4\n        /* \"#utility.yul\":9920:9949   */\n      tag_91\n      jump\t// in\n    tag_208:\n        /* \"#utility.yul\":9912:9949   */\n      swap2\n      pop\n        /* \"#utility.yul\":9982:9985   */\n      dup3\n        /* \"#utility.yul\":9979:9980   */\n      0x02\n        /* \"#utility.yul\":9975:9986   */\n      mul\n        /* \"#utility.yul\":9969:9973   */\n      dup3\n        /* \"#utility.yul\":9966:9987   */\n      or\n        /* \"#utility.yul\":9958:9987   */\n      swap1\n      pop\n        /* \"#utility.yul\":9698:9993   */\n      swap3\n      swap2\n      pop\n      pop\n      jump\t// out\n        /* \"#utility.yul\":9998:11393   */\n    tag_38:\n        /* \"#utility.yul\":10115:10152   */\n      tag_210\n        /* \"#utility.yul\":10148:10151   */\n      dup3\n        /* \"#utility.yul\":10115:10152   */\n      tag_63\n      jump\t// in\n    tag_210:\n        /* \"#utility.yul\":10217:10235   */\n      0xffffffffffffffff\n        /* \"#utility.yul\":10209:10215   */\n      dup2\n        /* \"#utility.yul\":10206:10236   */\n      gt\n        /* \"#utility.yul\":10203:10259   */\n      iszero\n      tag_211\n      jumpi\n        /* \"#utility.yul\":10239:10257   */\n      tag_212\n      tag_70\n      jump\t// in\n    tag_212:\n        /* \"#utility.yul\":10203:10259   */\n    tag_211:\n        /* \"#utility.yul\":10283:10321   */\n      tag_213\n        /* \"#utility.yul\":10315:10319   */\n      dup3\n        /* \"#utility.yul\":10309:10320   */\n      sload\n        /* \"#utility.yul\":10283:10321   */\n      tag_26\n      jump\t// in\n    tag_213:\n        /* \"#utility.yul\":10368:10435   */\n      tag_214\n        /* \"#utility.yul\":10428:10434   */\n      dup3\n        /* \"#utility.yul\":10420:10426   */\n      dup3\n        /* \"#utility.yul\":10414:10418   */\n      dup6\n        /* \"#utility.yul\":10368:10435   */\n      tag_89\n      jump\t// in\n    tag_214:\n        /* \"#utility.yul\":10462:10463   */\n      0x00\n        /* \"#utility.yul\":10486:10490   */\n      0x20\n        /* \"#utility.yul\":10473:10490   */\n      swap1\n      pop\n        /* \"#utility.yul\":10518:10520   */\n      0x1f\n        /* \"#utility.yul\":10510:10516   */\n      dup4\n        /* \"#utility.yul\":10507:10521   */\n      gt\n        /* \"#utility.yul\":10535:10536   */\n      0x01\n        /* \"#utility.yul\":10530:11148   */\n      dup2\n      eq\n      tag_216\n      jumpi\n        /* \"#utility.yul\":11192:11193   */\n      0x00\n        /* \"#utility.yul\":11209:11215   */\n      dup5\n        /* \"#utility.yul\":11206:11283   */\n      iszero\n      tag_217\n      jumpi\n        /* \"#utility.yul\":11258:11267   */\n      dup3\n        /* \"#utility.yul\":11253:11256   */\n      dup8\n        /* \"#utility.yul\":11249:11268   */\n      add\n        /* \"#utility.yul\":11243:11269   */\n      mload\n        /* \"#utility.yul\":11234:11269   */\n      swap1\n      pop\n        /* \"#utility.yul\":11206:11283   */\n    tag_217:\n        /* \"#utility.yul\":11309:11376   */\n      tag_218\n        /* \"#utility.yul\":11369:11375   */\n      dup6\n        /* \"#utility.yul\":11362:11367   */\n      dup3\n        /* \"#utility.yul\":11309:11376   */\n      tag_92\n      jump\t// in\n    tag_218:\n        /* \"#utility.yul\":11303:11307   */\n      dup7\n        /* \"#utility.yul\":11296:11377   */\n      sstore\n        /* \"#utility.yul\":11165:11387   */\n      pop\n        /* \"#utility.yul\":10500:11387   */\n      jump(tag_215)\n        /* \"#utility.yul\":10530:11148   */\n    tag_216:\n        /* \"#utility.yul\":10582:10586   */\n      0x1f\n        /* \"#utility.yul\":10578:10587   */\n      not\n        /* \"#utility.yul\":10570:10576   */\n      dup5\n        /* \"#utility.yul\":10566:10588   */\n      and\n        /* \"#utility.yul\":10616:10653   */\n      tag_219\n        /* \"#utility.yul\":10648:10652   */\n      dup7\n        /* \"#utility.yul\":10616:10653   */\n      tag_78\n      jump\t// in\n    tag_219:\n        /* \"#utility.yul\":10675:10676   */\n      0x00\n        /* \"#utility.yul\":10689:10897   */\n    tag_220:\n        /* \"#utility.yul\":10703:10710   */\n      dup3\n        /* \"#utility.yul\":10700:10701   */\n      dup2\n        /* \"#utility.yul\":10697:10711   */\n      lt\n        /* \"#utility.yul\":10689:10897   */\n      iszero\n      tag_222\n      jumpi\n        /* \"#utility.yul\":10782:10791   */\n      dup5\n        /* \"#utility.yul\":10777:10780   */\n      dup10\n        /* \"#utility.yul\":10773:10792   */\n      add\n        /* \"#utility.yul\":10767:10793   */\n      mload\n        /* \"#utility.yul\":10759:10765   */\n      dup3\n        /* \"#utility.yul\":10752:10794   */\n      sstore\n        /* \"#utility.yul\":10833:10834   */\n      0x01\n        /* \"#utility.yul\":10825:10831   */\n      dup3\n        /* \"#utility.yul\":10821:10835   */\n      add\n        /* \"#utility.yul\":10811:10835   */\n      swap2\n      pop\n        /* \"#utility.yul\":10880:10882   */\n      0x20\n        /* \"#utility.yul\":10869:10878   */\n      dup6\n        /* \"#utility.yul\":10865:10883   */\n      add\n        /* \"#utility.yul\":10852:10883   */\n      swap5\n      pop\n        /* \"#utility.yul\":10726:10730   */\n      0x20\n        /* \"#utility.yul\":10723:10724   */\n      dup2\n        /* \"#utility.yul\":10719:10731   */\n      add\n        /* \"#utility.yul\":10714:10731   */\n      swap1\n      pop\n        /* \"#utility.yul\":10689:10897   */\n      jump(tag_220)\n    tag_222:\n        /* \"#utility.yul\":10925:10931   */\n      dup7\n        /* \"#utility.yul\":10916:10923   */\n      dup4\n        /* \"#utility.yul\":10913:10932   */\n      lt\n        /* \"#utility.yul\":10910:11089   */\n      iszero\n      tag_223\n      jumpi\n        /* \"#utility.yul\":10983:10992   */\n      dup5\n        /* \"#utility.yul\":10978:10981   */\n      dup10\n        /* \"#utility.yul\":10974:10993   */\n      add\n        /* \"#utility.yul\":10968:10994   */\n      mload\n        /* \"#utility.yul\":11026:11074   */\n      tag_224\n        /* \"#utility.yul\":11068:11072   */\n      0x1f\n        /* \"#utility.yul\":11060:11066   */\n      dup10\n        /* \"#utility.yul\":11056:11073   */\n      and\n        /* \"#utility.yul\":11045:11054   */\n      dup3\n        /* \"#utility.yul\":11026:11074   */\n      tag_91\n      jump\t// in\n    tag_224:\n        /* \"#utility.yul\":11018:11024   */\n      dup4\n        /* \"#utility.yul\":11011:11075   */\n      sstore\n        /* \"#utility.yul\":10933:11089   */\n      pop\n        /* \"#utility.yul\":10910:11089   */\n    tag_223:\n        /* \"#utility.yul\":11135:11136   */\n      0x01\n        /* \"#utility.yul\":11131:11132   */\n      0x02\n        /* \"#utility.yul\":11123:11129   */\n      dup9\n        /* \"#utility.yul\":11119:11133   */\n      mul\n        /* \"#utility.yul\":11115:11137   */\n      add\n        /* \"#utility.yul\":11109:11113   */\n      dup9\n        /* \"#utility.yul\":11102:11138   */\n      sstore\n        /* \"#utility.yul\":10537:11148   */\n      pop\n      pop\n      pop\n        /* \"#utility.yul\":10500:11387   */\n    tag_215:\n      pop\n        /* \"#utility.yul\":10090:11393   */\n      pop\n      pop\n      pop\n        /* \"#utility.yul\":9998:11393   */\n      pop\n      pop\n      jump\t// out\n\n    auxdata: 0xa2646970667358221220d731b27e3eb3af604fad67b79bf4eab7316a41a1eb4dedfa9f681f649411ef7f64736f6c634300081a0033\n}\n",
				"bytecode": {
					"linkReferences": {},
					"object": "6080604052348015600e575f80fd5b50610a938061001c5f395ff3fe608060405234801561000f575f80fd5b506004361061004a575f3560e01c80633e0942841461004e5780635b60e1931461007f57806360a587f71461009b578063d37ab8dd146100b7575b5f80fd5b610068600480360381019061006391906104d2565b6100e8565b604051610076929190610580565b60405180910390f35b610099600480360381019061009491906106e1565b61021e565b005b6100b560048036038101906100b091906106e1565b6102b0565b005b6100d160048036038101906100cc9190610769565b610308565b6040516100df929190610580565b60405180910390f35b5f602052815f5260405f20602052805f5260405f205f9150915050805f018054610111906107c1565b80601f016020809104026020016040519081016040528092919081815260200182805461013d906107c1565b80156101885780601f1061015f57610100808354040283529160200191610188565b820191905f5260205f20905b81548152906001019060200180831161016b57829003601f168201915b50505050509080600101805461019d906107c1565b80601f01602080910402602001604051908101604052809291908181526020018280546101c9906107c1565b80156102145780601f106101eb57610100808354040283529160200191610214565b820191905f5260205f20905b8154815290600101906020018083116101f757829003601f168201915b5050505050905082565b6040518060400160405280848152602001838152505f803373ffffffffffffffffffffffffffffffffffffffff1673ffffffffffffffffffffffffffffffffffffffff1681526020019081526020015f205f8381526020019081526020015f205f820151815f019081610291919061098e565b5060208201518160010190816102a7919061098e565b50905050505050565b60405180604001604052808481526020018381525060015f8381526020019081526020015f205f820151815f0190816102e9919061098e565b5060208201518160010190816102ff919061098e565b50905050505050565b6001602052805f5260405f205f91509050805f018054610327906107c1565b80601f0160208091040260200160405190810160405280929190818152602001828054610353906107c1565b801561039e5780601f106103755761010080835404028352916020019161039e565b820191905f5260205f20905b81548152906001019060200180831161038157829003601f168201915b5050505050908060010180546103b3906107c1565b80601f01602080910402602001604051908101604052809291908181526020018280546103df906107c1565b801561042a5780601f106104015761010080835404028352916020019161042a565b820191905f5260205f20905b81548152906001019060200180831161040d57829003601f168201915b5050505050905082565b5f604051905090565b5f80fd5b5f80fd5b5f73ffffffffffffffffffffffffffffffffffffffff82169050919050565b5f61046e82610445565b9050919050565b61047e81610464565b8114610488575f80fd5b50565b5f8135905061049981610475565b92915050565b5f819050919050565b6104b18161049f565b81146104bb575f80fd5b50565b5f813590506104cc816104a8565b92915050565b5f80604083850312156104e8576104e761043d565b5b5f6104f58582860161048b565b9250506020610506858286016104be565b9150509250929050565b5f81519050919050565b5f82825260208201905092915050565b8281835e5f83830152505050565b5f601f19601f8301169050919050565b5f61055282610510565b61055c818561051a565b935061056c81856020860161052a565b61057581610538565b840191505092915050565b5f6040820190508181035f8301526105988185610548565b905081810360208301526105ac8184610548565b90509392505050565b5f80fd5b5f80fd5b7f4e487b71000000000000000000000000000000000000000000000000000000005f52604160045260245ffd5b6105f382610538565b810181811067ffffffffffffffff82111715610612576106116105bd565b5b80604052505050565b5f610624610434565b905061063082826105ea565b919050565b5f67ffffffffffffffff82111561064f5761064e6105bd565b5b61065882610538565b9050602081019050919050565b828183375f83830152505050565b5f61068561068084610635565b61061b565b9050828152602081018484840111156106a1576106a06105b9565b5b6106ac848285610665565b509392505050565b5f82601f8301126106c8576106c76105b5565b5b81356106d8848260208601610673565b91505092915050565b5f805f606084860312156106f8576106f761043d565b5b5f84013567ffffffffffffffff81111561071557610714610441565b5b610721868287016106b4565b935050602084013567ffffffffffffffff81111561074257610741610441565b5b61074e868287016106b4565b925050604061075f868287016104be565b9150509250925092565b5f6020828403121561077e5761077d61043d565b5b5f61078b848285016104be565b91505092915050565b7f4e487b71000000000000000000000000000000000000000000000000000000005f52602260045260245ffd5b5f60028204905060018216806107d857607f821691505b6020821081036107eb576107ea610794565b5b50919050565b5f819050815f5260205f209050919050565b5f6020601f8301049050919050565b5f82821b905092915050565b5f6008830261084d7fffffffffffffffffffffffffffffffffffffffffffffffffffffffffffffffff82610812565b6108578683610812565b95508019841693508086168417925050509392505050565b5f819050919050565b5f61089261088d6108888461049f565b61086f565b61049f565b9050919050565b5f819050919050565b6108ab83610878565b6108bf6108b782610899565b84845461081e565b825550505050565b5f90565b6108d36108c7565b6108de8184846108a2565b505050565b5b81811015610901576108f65f826108cb565b6001810190506108e4565b5050565b601f82111561094657610917816107f1565b61092084610803565b8101602085101561092f578190505b61094361093b85610803565b8301826108e3565b50505b505050565b5f82821c905092915050565b5f6109665f198460080261094b565b1980831691505092915050565b5f61097e8383610957565b9150826002028217905092915050565b61099782610510565b67ffffffffffffffff8111156109b0576109af6105bd565b5b6109ba82546107c1565b6109c5828285610905565b5f60209050601f8311600181146109f6575f84156109e4578287015190505b6109ee8582610973565b865550610a55565b601f198416610a04866107f1565b5f5b82811015610a2b57848901518255600182019150602085019450602081019050610a06565b86831015610a485784890151610a44601f891682610957565b8355505b6001600288020188555050505b50505050505056fea2646970667358221220d731b27e3eb3af604fad67b79bf4eab7316a41a1eb4dedfa9f681f649411ef7f64736f6c634300081a0033",
					"opcodes": "PUSH1 0x80 PUSH1 0x40 MSTORE CALLVALUE DUP1 ISZERO PUSH1 0xE JUMPI PUSH0 DUP1 REVERT JUMPDEST POP PUSH2 0xA93 DUP1 PUSH2 0x1C PUSH0 CODECOPY PUSH0 RETURN INVALID PUSH1 0x80 PUSH1 0x40 MSTORE CALLVALUE DUP1 ISZERO PUSH2 0xF JUMPI PUSH0 DUP1 REVERT JUMPDEST POP PUSH1 0x4 CALLDATASIZE LT PUSH2 0x4A JUMPI PUSH0 CALLDATALOAD PUSH1 0xE0 SHR DUP1 PUSH4 0x3E094284 EQ PUSH2 0x4E JUMPI DUP1 PUSH4 0x5B60E193 EQ PUSH2 0x7F JUMPI DUP1 PUSH4 0x60A587F7 EQ PUSH2 0x9B JUMPI DUP1 PUSH4 0xD37AB8DD EQ PUSH2 0xB7 JUMPI JUMPDEST PUSH0 DUP1 REVERT JUMPDEST PUSH2 0x68 PUSH1 0x4 DUP1 CALLDATASIZE SUB DUP2 ADD SWAP1 PUSH2 0x63 SWAP2 SWAP1 PUSH2 0x4D2 JUMP JUMPDEST PUSH2 0xE8 JUMP JUMPDEST PUSH1 0x40 MLOAD PUSH2 0x76 SWAP3 SWAP2 SWAP1 PUSH2 0x580 JUMP JUMPDEST PUSH1 0x40 MLOAD DUP1 SWAP2 SUB SWAP1 RETURN JUMPDEST PUSH2 0x99 PUSH1 0x4 DUP1 CALLDATASIZE SUB DUP2 ADD SWAP1 PUSH2 0x94 SWAP2 SWAP1 PUSH2 0x6E1 JUMP JUMPDEST PUSH2 0x21E JUMP JUMPDEST STOP JUMPDEST PUSH2 0xB5 PUSH1 0x4 DUP1 CALLDATASIZE SUB DUP2 ADD SWAP1 PUSH2 0xB0 SWAP2 SWAP1 PUSH2 0x6E1 JUMP JUMPDEST PUSH2 0x2B0 JUMP JUMPDEST STOP JUMPDEST PUSH2 0xD1 PUSH1 0x4 DUP1 CALLDATASIZE SUB DUP2 ADD SWAP1 PUSH2 0xCC SWAP2 SWAP1 PUSH2 0x769 JUMP JUMPDEST PUSH2 0x308 JUMP JUMPDEST PUSH1 0x40 MLOAD PUSH2 0xDF SWAP3 SWAP2 SWAP1 PUSH2 0x580 JUMP JUMPDEST PUSH1 0x40 MLOAD DUP1 SWAP2 SUB SWAP1 RETURN JUMPDEST PUSH0 PUSH1 0x20 MSTORE DUP2 PUSH0 MSTORE PUSH1 0x40 PUSH0 KECCAK256 PUSH1 0x20 MSTORE DUP1 PUSH0 MSTORE PUSH1 0x40 PUSH0 KECCAK256 PUSH0 SWAP2 POP SWAP2 POP POP DUP1 PUSH0 ADD DUP1 SLOAD PUSH2 0x111 SWAP1 PUSH2 0x7C1 JUMP JUMPDEST DUP1 PUSH1 0x1F ADD PUSH1 0x20 DUP1 SWAP2 DIV MUL PUSH1 0x20 ADD PUSH1 0x40 MLOAD SWAP1 DUP2 ADD PUSH1 0x40 MSTORE DUP1 SWAP3 SWAP2 SWAP1 DUP2 DUP2 MSTORE PUSH1 0x20 ADD DUP3 DUP1 SLOAD PUSH2 0x13D SWAP1 PUSH2 0x7C1 JUMP JUMPDEST DUP1 ISZERO PUSH2 0x188 JUMPI DUP1 PUSH1 0x1F LT PUSH2 0x15F JUMPI PUSH2 0x100 DUP1 DUP4 SLOAD DIV MUL DUP4 MSTORE SWAP2 PUSH1 0x20 ADD SWAP2 PUSH2 0x188 JUMP JUMPDEST DUP3 ADD SWAP2 SWAP1 PUSH0 MSTORE PUSH1 0x20 PUSH0 KECCAK256 SWAP1 JUMPDEST DUP2 SLOAD DUP2 MSTORE SWAP1 PUSH1 0x1 ADD SWAP1 PUSH1 0x20 ADD DUP1 DUP4 GT PUSH2 0x16B JUMPI DUP3 SWAP1 SUB PUSH1 0x1F AND DUP3 ADD SWAP2 JUMPDEST POP POP POP POP POP SWAP1 DUP1 PUSH1 0x1 ADD DUP1 SLOAD PUSH2 0x19D SWAP1 PUSH2 0x7C1 JUMP JUMPDEST DUP1 PUSH1 0x1F ADD PUSH1 0x20 DUP1 SWAP2 DIV MUL PUSH1 0x20 ADD PUSH1 0x40 MLOAD SWAP1 DUP2 ADD PUSH1 0x40 MSTORE DUP1 SWAP3 SWAP2 SWAP1 DUP2 DUP2 MSTORE PUSH1 0x20 ADD DUP3 DUP1 SLOAD PUSH2 0x1C9 SWAP1 PUSH2 0x7C1 JUMP JUMPDEST DUP1 ISZERO PUSH2 0x214 JUMPI DUP1 PUSH1 0x1F LT PUSH2 0x1EB JUMPI PUSH2 0x100 DUP1 DUP4 SLOAD DIV MUL DUP4 MSTORE SWAP2 PUSH1 0x20 ADD SWAP2 PUSH2 0x214 JUMP JUMPDEST DUP3 ADD SWAP2 SWAP1 PUSH0 MSTORE PUSH1 0x20 PUSH0 KECCAK256 SWAP1 JUMPDEST DUP2 SLOAD DUP2 MSTORE SWAP1 PUSH1 0x1 ADD SWAP1 PUSH1 0x20 ADD DUP1 DUP4 GT PUSH2 0x1F7 JUMPI DUP3 SWAP1 SUB PUSH1 0x1F AND DUP3 ADD SWAP2 JUMPDEST POP POP POP POP POP SWAP1 POP DUP3 JUMP JUMPDEST PUSH1 0x40 MLOAD DUP1 PUSH1 0x40 ADD PUSH1 0x40 MSTORE DUP1 DUP5 DUP2 MSTORE PUSH1 0x20 ADD DUP4 DUP2 MSTORE POP PUSH0 DUP1 CALLER PUSH20 0xFFFFFFFFFFFFFFFFFFFFFFFFFFFFFFFFFFFFFFFF AND PUSH20 0xFFFFFFFFFFFFFFFFFFFFFFFFFFFFFFFFFFFFFFFF AND DUP2 MSTORE PUSH1 0x20 ADD SWAP1 DUP2 MSTORE PUSH1 0x20 ADD PUSH0 KECCAK256 PUSH0 DUP4 DUP2 MSTORE PUSH1 0x20 ADD SWAP1 DUP2 MSTORE PUSH1 0x20 ADD PUSH0 KECCAK256 PUSH0 DUP3 ADD MLOAD DUP2 PUSH0 ADD SWAP1 DUP2 PUSH2 0x291 SWAP2 SWAP1 PUSH2 0x98E JUMP JUMPDEST POP PUSH1 0x20 DUP3 ADD MLOAD DUP2 PUSH1 0x1 ADD SWAP1 DUP2 PUSH2 0x2A7 SWAP2 SWAP1 PUSH2 0x98E JUMP JUMPDEST POP SWAP1 POP POP POP POP POP JUMP JUMPDEST PUSH1 0x40 MLOAD DUP1 PUSH1 0x40 ADD PUSH1 0x40 MSTORE DUP1 DUP5 DUP2 MSTORE PUSH1 0x20 ADD DUP4 DUP2 MSTORE POP PUSH1 0x1 PUSH0 DUP4 DUP2 MSTORE PUSH1 0x20 ADD SWAP1 DUP2 MSTORE PUSH1 0x20 ADD PUSH0 KECCAK256 PUSH0 DUP3 ADD MLOAD DUP2 PUSH0 ADD SWAP1 DUP2 PUSH2 0x2E9 SWAP2 SWAP1 PUSH2 0x98E JUMP JUMPDEST POP PUSH1 0x20 DUP3 ADD MLOAD DUP2 PUSH1 0x1 ADD SWAP1 DUP2 PUSH2 0x2FF SWAP2 SWAP1 PUSH2 0x98E JUMP JUMPDEST POP SWAP1 POP POP POP POP POP JUMP JUMPDEST PUSH1 0x1 PUSH1 0x20 MSTORE DUP1 PUSH0 MSTORE PUSH1 0x40 PUSH0 KECCAK256 PUSH0 SWAP2 POP SWAP1 POP DUP1 PUSH0 ADD DUP1 SLOAD PUSH2 0x327 SWAP1 PUSH2 0x7C1 JUMP JUMPDEST DUP1 PUSH1 0x1F ADD PUSH1 0x20 DUP1 SWAP2 DIV MUL PUSH1 0x20 ADD PUSH1 0x40 MLOAD SWAP1 DUP2 ADD PUSH1 0x40 MSTORE DUP1 SWAP3 SWAP2 SWAP1 DUP2 DUP2 MSTORE PUSH1 0x20 ADD DUP3 DUP1 SLOAD PUSH2 0x353 SWAP1 PUSH2 0x7C1 JUMP JUMPDEST DUP1 ISZERO PUSH2 0x39E JUMPI DUP1 PUSH1 0x1F LT PUSH2 0x375 JUMPI PUSH2 0x100 DUP1 DUP4 SLOAD DIV MUL DUP4 MSTORE SWAP2 PUSH1 0x20 ADD SWAP2 PUSH2 0x39E JUMP JUMPDEST DUP3 ADD SWAP2 SWAP1 PUSH0 MSTORE PUSH1 0x20 PUSH0 KECCAK256 SWAP1 JUMPDEST DUP2 SLOAD DUP2 MSTORE SWAP1 PUSH1 0x1 ADD SWAP1 PUSH1 0x20 ADD DUP1 DUP4 GT PUSH2 0x381 JUMPI DUP3 SWAP1 SUB PUSH1 0x1F AND DUP3 ADD SWAP2 JUMPDEST POP POP POP POP POP SWAP1 DUP1 PUSH1 0x1 ADD DUP1 SLOAD PUSH2 0x3B3 SWAP1 PUSH2 0x7C1 JUMP JUMPDEST DUP1 PUSH1 0x1F ADD PUSH1 0x20 DUP1 SWAP2 DIV MUL PUSH1 0x20 ADD PUSH1 0x40 MLOAD SWAP1 DUP2 ADD PUSH1 0x40 MSTORE DUP1 SWAP3 SWAP2 SWAP1 DUP2 DUP2 MSTORE PUSH1 0x20 ADD DUP3 DUP1 SLOAD PUSH2 0x3DF SWAP1 PUSH2 0x7C1 JUMP JUMPDEST DUP1 ISZERO PUSH2 0x42A JUMPI DUP1 PUSH1 0x1F LT PUSH2 0x401 JUMPI PUSH2 0x100 DUP1 DUP4 SLOAD DIV MUL DUP4 MSTORE SWAP2 PUSH1 0x20 ADD SWAP2 PUSH2 0x42A JUMP JUMPDEST DUP3 ADD SWAP2 SWAP1 PUSH0 MSTORE PUSH1 0x20 PUSH0 KECCAK256 SWAP1 JUMPDEST DUP2 SLOAD DUP2 MSTORE SWAP1 PUSH1 0x1 ADD SWAP1 PUSH1 0x20 ADD DUP1 DUP4 GT PUSH2 0x40D JUMPI DUP3 SWAP1 SUB PUSH1 0x1F AND DUP3 ADD SWAP2 JUMPDEST POP POP POP POP POP SWAP1 POP DUP3 JUMP JUMPDEST PUSH0 PUSH1 0x40 MLOAD SWAP1 POP SWAP1 JUMP JUMPDEST PUSH0 DUP1 REVERT JUMPDEST PUSH0 DUP1 REVERT JUMPDEST PUSH0 PUSH20 0xFFFFFFFFFFFFFFFFFFFFFFFFFFFFFFFFFFFFFFFF DUP3 AND SWAP1 POP SWAP2 SWAP1 POP JUMP JUMPDEST PUSH0 PUSH2 0x46E DUP3 PUSH2 0x445 JUMP JUMPDEST SWAP1 POP SWAP2 SWAP1 POP JUMP JUMPDEST PUSH2 0x47E DUP2 PUSH2 0x464 JUMP JUMPDEST DUP2 EQ PUSH2 0x488 JUMPI PUSH0 DUP1 REVERT JUMPDEST POP JUMP JUMPDEST PUSH0 DUP2 CALLDATALOAD SWAP1 POP PUSH2 0x499 DUP2 PUSH2 0x475 JUMP JUMPDEST SWAP3 SWAP2 POP POP JUMP JUMPDEST PUSH0 DUP2 SWAP1 POP SWAP2 SWAP1 POP JUMP JUMPDEST PUSH2 0x4B1 DUP2 PUSH2 0x49F JUMP JUMPDEST DUP2 EQ PUSH2 0x4BB JUMPI PUSH0 DUP1 REVERT JUMPDEST POP JUMP JUMPDEST PUSH0 DUP2 CALLDATALOAD SWAP1 POP PUSH2 0x4CC DUP2 PUSH2 0x4A8 JUMP JUMPDEST SWAP3 SWAP2 POP POP JUMP JUMPDEST PUSH0 DUP1 PUSH1 0x40 DUP4 DUP6 SUB SLT ISZERO PUSH2 0x4E8 JUMPI PUSH2 0x4E7 PUSH2 0x43D JUMP JUMPDEST JUMPDEST PUSH0 PUSH2 0x4F5 DUP6 DUP3 DUP7 ADD PUSH2 0x48B JUMP JUMPDEST SWAP3 POP POP PUSH1 0x20 PUSH2 0x506 DUP6 DUP3 DUP7 ADD PUSH2 0x4BE JUMP JUMPDEST SWAP2 POP POP SWAP3 POP SWAP3 SWAP1 POP JUMP JUMPDEST PUSH0 DUP2 MLOAD SWAP1 POP SWAP2 SWAP1 POP JUMP JUMPDEST PUSH0 DUP3 DUP3 MSTORE PUSH1 0x20 DUP3 ADD SWAP1 POP SWAP3 SWAP2 POP POP JUMP JUMPDEST DUP3 DUP2 DUP4 MCOPY PUSH0 DUP4 DUP4 ADD MSTORE POP POP POP JUMP JUMPDEST PUSH0 PUSH1 0x1F NOT PUSH1 0x1F DUP4 ADD AND SWAP1 POP SWAP2 SWAP1 POP JUMP JUMPDEST PUSH0 PUSH2 0x552 DUP3 PUSH2 0x510 JUMP JUMPDEST PUSH2 0x55C DUP2 DUP6 PUSH2 0x51A JUMP JUMPDEST SWAP4 POP PUSH2 0x56C DUP2 DUP6 PUSH1 0x20 DUP7 ADD PUSH2 0x52A JUMP JUMPDEST PUSH2 0x575 DUP2 PUSH2 0x538 JUMP JUMPDEST DUP5 ADD SWAP2 POP POP SWAP3 SWAP2 POP POP JUMP JUMPDEST PUSH0 PUSH1 0x40 DUP3 ADD SWAP1 POP DUP2 DUP2 SUB PUSH0 DUP4 ADD MSTORE PUSH2 0x598 DUP2 DUP6 PUSH2 0x548 JUMP JUMPDEST SWAP1 POP DUP2 DUP2 SUB PUSH1 0x20 DUP4 ADD MSTORE PUSH2 0x5AC DUP2 DUP5 PUSH2 0x548 JUMP JUMPDEST SWAP1 POP SWAP4 SWAP3 POP POP POP JUMP JUMPDEST PUSH0 DUP1 REVERT JUMPDEST PUSH0 DUP1 REVERT JUMPDEST PUSH32 0x4E487B7100000000000000000000000000000000000000000000000000000000 PUSH0 MSTORE PUSH1 0x41 PUSH1 0x4 MSTORE PUSH1 0x24 PUSH0 REVERT JUMPDEST PUSH2 0x5F3 DUP3 PUSH2 0x538 JUMP JUMPDEST DUP2 ADD DUP2 DUP2 LT PUSH8 0xFFFFFFFFFFFFFFFF DUP3 GT OR ISZERO PUSH2 0x612 JUMPI PUSH2 0x611 PUSH2 0x5BD JUMP JUMPDEST JUMPDEST DUP1 PUSH1 0x40 MSTORE POP POP POP JUMP JUMPDEST PUSH0 PUSH2 0x624 PUSH2 0x434 JUMP JUMPDEST SWAP1 POP PUSH2 0x630 DUP3 DUP3 PUSH2 0x5EA JUMP JUMPDEST SWAP2 SWAP1 POP JUMP JUMPDEST PUSH0 PUSH8 0xFFFFFFFFFFFFFFFF DUP3 GT ISZERO PUSH2 0x64F JUMPI PUSH2 0x64E PUSH2 0x5BD JUMP JUMPDEST JUMPDEST PUSH2 0x658 DUP3 PUSH2 0x538 JUMP JUMPDEST SWAP1 POP PUSH1 0x20 DUP2 ADD SWAP1 POP SWAP2 SWAP1 POP JUMP JUMPDEST DUP3 DUP2 DUP4 CALLDATACOPY PUSH0 DUP4 DUP4 ADD MSTORE POP POP POP JUMP JUMPDEST PUSH0 PUSH2 0x685 PUSH2 0x680 DUP5 PUSH2 0x635 JUMP JUMPDEST PUSH2 0x61B JUMP JUMPDEST SWAP1 POP DUP3 DUP2 MSTORE PUSH1 0x20 DUP2 ADD DUP5 DUP5 DUP5 ADD GT ISZERO PUSH2 0x6A1 JUMPI PUSH2 0x6A0 PUSH2 0x5B9 JUMP JUMPDEST JUMPDEST PUSH2 0x6AC DUP5 DUP3 DUP6 PUSH2 0x665 JUMP JUMPDEST POP SWAP4 SWAP3 POP POP POP JUMP JUMPDEST PUSH0 DUP3 PUSH1 0x1F DUP4 ADD SLT PUSH2 0x6C8 JUMPI PUSH2 0x6C7 PUSH2 0x5B5 JUMP JUMPDEST JUMPDEST DUP2 CALLDATALOAD PUSH2 0x6D8 DUP5 DUP3 PUSH1 0x20 DUP7 ADD PUSH2 0x673 JUMP JUMPDEST SWAP2 POP POP SWAP3 SWAP2 POP POP JUMP JUMPDEST PUSH0 DUP1 PUSH0 PUSH1 0x60 DUP5 DUP7 SUB SLT ISZERO PUSH2 0x6F8 JUMPI PUSH2 0x6F7 PUSH2 0x43D JUMP JUMPDEST JUMPDEST PUSH0 DUP5 ADD CALLDATALOAD PUSH8 0xFFFFFFFFFFFFFFFF DUP2 GT ISZERO PUSH2 0x715 JUMPI PUSH2 0x714 PUSH2 0x441 JUMP JUMPDEST JUMPDEST PUSH2 0x721 DUP7 DUP3 DUP8 ADD PUSH2 0x6B4 JUMP JUMPDEST SWAP4 POP POP PUSH1 0x20 DUP5 ADD CALLDATALOAD PUSH8 0xFFFFFFFFFFFFFFFF DUP2 GT ISZERO PUSH2 0x742 JUMPI PUSH2 0x741 PUSH2 0x441 JUMP JUMPDEST JUMPDEST PUSH2 0x74E DUP7 DUP3 DUP8 ADD PUSH2 0x6B4 JUMP JUMPDEST SWAP3 POP POP PUSH1 0x40 PUSH2 0x75F DUP7 DUP3 DUP8 ADD PUSH2 0x4BE JUMP JUMPDEST SWAP2 POP POP SWAP3 POP SWAP3 POP SWAP3 JUMP JUMPDEST PUSH0 PUSH1 0x20 DUP3 DUP5 SUB SLT ISZERO PUSH2 0x77E JUMPI PUSH2 0x77D PUSH2 0x43D JUMP JUMPDEST JUMPDEST PUSH0 PUSH2 0x78B DUP5 DUP3 DUP6 ADD PUSH2 0x4BE JUMP JUMPDEST SWAP2 POP POP SWAP3 SWAP2 POP POP JUMP JUMPDEST PUSH32 0x4E487B7100000000000000000000000000000000000000000000000000000000 PUSH0 MSTORE PUSH1 0x22 PUSH1 0x4 MSTORE PUSH1 0x24 PUSH0 REVERT JUMPDEST PUSH0 PUSH1 0x2 DUP3 DIV SWAP1 POP PUSH1 0x1 DUP3 AND DUP1 PUSH2 0x7D8 JUMPI PUSH1 0x7F DUP3 AND SWAP2 POP JUMPDEST PUSH1 0x20 DUP3 LT DUP2 SUB PUSH2 0x7EB JUMPI PUSH2 0x7EA PUSH2 0x794 JUMP JUMPDEST JUMPDEST POP SWAP2 SWAP1 POP JUMP JUMPDEST PUSH0 DUP2 SWAP1 POP DUP2 PUSH0 MSTORE PUSH1 0x20 PUSH0 KECCAK256 SWAP1 POP SWAP2 SWAP1 POP JUMP JUMPDEST PUSH0 PUSH1 0x20 PUSH1 0x1F DUP4 ADD DIV SWAP1 POP SWAP2 SWAP1 POP JUMP JUMPDEST PUSH0 DUP3 DUP3 SHL SWAP1 POP SWAP3 SWAP2 POP POP JUMP JUMPDEST PUSH0 PUSH1 0x8 DUP4 MUL PUSH2 0x84D PUSH32 0xFFFFFFFFFFFFFFFFFFFFFFFFFFFFFFFFFFFFFFFFFFFFFFFFFFFFFFFFFFFFFFFF DUP3 PUSH2 0x812 JUMP JUMPDEST PUSH2 0x857 DUP7 DUP4 PUSH2 0x812 JUMP JUMPDEST SWAP6 POP DUP1 NOT DUP5 AND SWAP4 POP DUP1 DUP7 AND DUP5 OR SWAP3 POP POP POP SWAP4 SWAP3 POP POP POP JUMP JUMPDEST PUSH0 DUP2 SWAP1 POP SWAP2 SWAP1 POP JUMP JUMPDEST PUSH0 PUSH2 0x892 PUSH2 0x88D PUSH2 0x888 DUP5 PUSH2 0x49F JUMP JUMPDEST PUSH2 0x86F JUMP JUMPDEST PUSH2 0x49F JUMP JUMPDEST SWAP1 POP SWAP2 SWAP1 POP JUMP JUMPDEST PUSH0 DUP2 SWAP1 POP SWAP2 SWAP1 POP JUMP JUMPDEST PUSH2 0x8AB DUP4 PUSH2 0x878 JUMP JUMPDEST PUSH2 0x8BF PUSH2 0x8B7 DUP3 PUSH2 0x899 JUMP JUMPDEST DUP5 DUP5 SLOAD PUSH2 0x81E JUMP JUMPDEST DUP3 SSTORE POP POP POP POP JUMP JUMPDEST PUSH0 SWAP1 JUMP JUMPDEST PUSH2 0x8D3 PUSH2 0x8C7 JUMP JUMPDEST PUSH2 0x8DE DUP2 DUP5 DUP5 PUSH2 0x8A2 JUMP JUMPDEST POP POP POP JUMP JUMPDEST JUMPDEST DUP2 DUP2 LT ISZERO PUSH2 0x901 JUMPI PUSH2 0x8F6 PUSH0 DUP3 PUSH2 0x8CB JUMP JUMPDEST PUSH1 0x1 DUP2 ADD SWAP1 POP PUSH2 0x8E4 JUMP JUMPDEST POP POP JUMP JUMPDEST PUSH1 0x1F DUP3 GT ISZERO PUSH2 0x946 JUMPI PUSH2 0x917 DUP2 PUSH2 0x7F1 JUMP JUMPDEST PUSH2 0x920 DUP5 PUSH2 0x803 JUMP JUMPDEST DUP2 ADD PUSH1 0x20 DUP6 LT ISZERO PUSH2 0x92F JUMPI DUP2 SWAP1 POP JUMPDEST PUSH2 0x943 PUSH2 0x93B DUP6 PUSH2 0x803 JUMP JUMPDEST DUP4 ADD DUP3 PUSH2 0x8E3 JUMP JUMPDEST POP POP JUMPDEST POP POP POP JUMP JUMPDEST PUSH0 DUP3 DUP3 SHR SWAP1 POP SWAP3 SWAP2 POP POP JUMP JUMPDEST PUSH0 PUSH2 0x966 PUSH0 NOT DUP5 PUSH1 0x8 MUL PUSH2 0x94B JUMP JUMPDEST NOT DUP1 DUP4 AND SWAP2 POP POP SWAP3 SWAP2 POP POP JUMP JUMPDEST PUSH0 PUSH2 0x97E DUP4 DUP4 PUSH2 0x957 JUMP JUMPDEST SWAP2 POP DUP3 PUSH1 0x2 MUL DUP3 OR SWAP1 POP SWAP3 SWAP2 POP POP JUMP JUMPDEST PUSH2 0x997 DUP3 PUSH2 0x510 JUMP JUMPDEST PUSH8 0xFFFFFFFFFFFFFFFF DUP2 GT ISZERO PUSH2 0x9B0 JUMPI PUSH2 0x9AF PUSH2 0x5BD JUMP JUMPDEST JUMPDEST PUSH2 0x9BA DUP3 SLOAD PUSH2 0x7C1 JUMP JUMPDEST PUSH2 0x9C5 DUP3 DUP3 DUP6 PUSH2 0x905 JUMP JUMPDEST PUSH0 PUSH1 0x20 SWAP1 POP PUSH1 0x1F DUP4 GT PUSH1 0x1 DUP2 EQ PUSH2 0x9F6 JUMPI PUSH0 DUP5 ISZERO PUSH2 0x9E4 JUMPI DUP3 DUP8 ADD MLOAD SWAP1 POP JUMPDEST PUSH2 0x9EE DUP6 DUP3 PUSH2 0x973 JUMP JUMPDEST DUP7 SSTORE POP PUSH2 0xA55 JUMP JUMPDEST PUSH1 0x1F NOT DUP5 AND PUSH2 0xA04 DUP7 PUSH2 0x7F1 JUMP JUMPDEST PUSH0 JUMPDEST DUP3 DUP2 LT ISZERO PUSH2 0xA2B JUMPI DUP5 DUP10 ADD MLOAD DUP3 SSTORE PUSH1 0x1 DUP3 ADD SWAP2 POP PUSH1 0x20 DUP6 ADD SWAP5 POP PUSH1 0x20 DUP2 ADD SWAP1 POP PUSH2 0xA06 JUMP JUMPDEST DUP7 DUP4 LT ISZERO PUSH2 0xA48 JUMPI DUP5 DUP10 ADD MLOAD PUSH2 0xA44 PUSH1 0x1F DUP10 AND DUP3 PUSH2 0x957 JUMP JUMPDEST DUP4 SSTORE POP JUMPDEST PUSH1 0x1 PUSH1 0x2 DUP9 MUL ADD DUP9 SSTORE POP POP POP JUMPDEST POP POP POP POP POP POP JUMP INVALID LOG2 PUSH5 0x6970667358 0x22 SLT KECCAK256 0xD7 BALANCE 0xB2 PUSH31 0x3EB3AF604FAD67B79BF4EAB7316A41A1EB4DEDFA9F681F649411EF7F64736F PUSH13 0x634300081A0033000000000000 "
				},
				"gasEstimates": {
					"creation": {
						"codeDepositCost": "541400",
						"executionCost": "573",
						"totalCost": "541973"
					},
					"external": {
						"movieInput(string,string,uint256)": "infinite",
						"movieMap(uint256)": "infinite",
						"myNestedMap(address,uint256)": "infinite",
						"nestedMovie(string,string,uint256)": "infinite"
					}
				},
				"methodIdentifiers": {
					"movieInput(string,string,uint256)": "60a587f7",
					"movieMap(uint256)": "d37ab8dd",
					"myNestedMap(address,uint256)": "3e094284",
					"nestedMovie(string,string,uint256)": "5b60e193"
				}
			},
			"storageLayout": {
				"storage": [
					{
						"astId": 8,
						"contract": "Cook_Web3/Beginner_Chef/mapping/nested mapping/nestedMapping.sol:mappingAssignment",
						"label": "myNestedMap",
						"offset": 0,
						"slot": "0",
						"type": "t_mapping(t_address,t_mapping(t_uint256,t_struct(Movie)13_storage))"
					},
					{
						"astId": 18,
						"contract": "Cook_Web3/Beginner_Chef/mapping/nested mapping/nestedMapping.sol:mappingAssignment",
						"label": "movieMap",
						"offset": 0,
						"slot": "1",
						"type": "t_mapping(t_uint256,t_struct(Movie)13_storage)"
					}
				],
				"types": {
					"t_address": {
						"encoding": "inplace",
						"label": "address",
						"numberOfBytes": "20"
					},
					"t_mapping(t_address,t_mapping(t_uint256,t_struct(Movie)13_storage))": {
						"encoding": "mapping",
						"key": "t_address",
						"label": "mapping(address => mapping(uint256 => struct mappingAssignment.Movie))",
						"numberOfBytes": "32",
						"value": "t_mapping(t_uint256,t_struct(Movie)13_storage)"
					},
					"t_mapping(t_uint256,t_struct(Movie)13_storage)": {
						"encoding": "mapping",
						"key": "t_uint256",
						"label": "mapping(uint256 => struct mappingAssignment.Movie)",
						"numberOfBytes": "32",
						"value": "t_struct(Movie)13_storage"
					},
					"t_string_storage": {
						"encoding": "bytes",
						"label": "string",
						"numberOfBytes": "32"
					},
					"t_struct(Movie)13_storage": {
						"encoding": "inplace",
						"label": "struct mappingAssignment.Movie",
						"members": [
							{
								"astId": 10,
								"contract": "Cook_Web3/Beginner_Chef/mapping/nested mapping/nestedMapping.sol:mappingAssignment",
								"label": "title",
								"offset": 0,
								"slot": "0",
								"type": "t_string_storage"
							},
							{
								"astId": 12,
								"contract": "Cook_Web3/Beginner_Chef/mapping/nested mapping/nestedMapping.sol:mappingAssignment",
								"label": "director",
								"offset": 0,
								"slot": "1",
								"type": "t_string_storage"
							}
						],
						"numberOfBytes": "64"
					},
					"t_uint256": {
						"encoding": "inplace",
						"label": "uint256",
						"numberOfBytes": "32"
					}
				}
			},
			"userdoc": {
				"kind": "user",
				"methods": {},
				"version": 1
			}
		}
	}
}