{
	"Cook_Web3/Beginner_Chef/mapping/mapping.sol": {
		"mappingAssignment": {
			"abi": [
				{
					"inputs": [
						{
							"internalType": "string",
							"name": "title",
							"type": "string"
						},
						{
							"internalType": "string",
							"name": "director",
							"type": "string"
						},
						{
							"internalType": "uint256",
							"name": "id",
							"type": "uint256"
						}
					],
					"name": "movieInput",
					"outputs": [],
					"stateMutability": "nonpayable",
					"type": "function"
				},
				{
					"inputs": [
						{
							"internalType": "uint256",
							"name": "",
							"type": "uint256"
						}
					],
					"name": "movieMap",
					"outputs": [
						{
							"internalType": "string",
							"name": "title",
							"type": "string"
						},
						{
							"internalType": "string",
							"name": "director",
							"type": "string"
						}
					],
					"stateMutability": "view",
					"type": "function"
				}
			],
			"devdoc": {
				"kind": "dev",
				"methods": {},
				"version": 1
			},
			"evm": {
				"assembly": "    /* \"Cook_Web3/Beginner_Chef/mapping/mapping.sol\":736:1105  contract mappingAssignment{... */\n  mstore(0x40, 0x80)\n  callvalue\n  dup1\n  iszero\n  tag_1\n  jumpi\n  0x00\n  dup1\n  revert\ntag_1:\n  pop\n  dataSize(sub_0)\n  dup1\n  dataOffset(sub_0)\n  0x00\n  codecopy\n  0x00\n  return\nstop\n\nsub_0: assembly {\n        /* \"Cook_Web3/Beginner_Chef/mapping/mapping.sol\":736:1105  contract mappingAssignment{... */\n      mstore(0x40, 0x80)\n      callvalue\n      dup1\n      iszero\n      tag_1\n      jumpi\n      0x00\n      dup1\n      revert\n    tag_1:\n      pop\n      jumpi(tag_2, lt(calldatasize, 0x04))\n      shr(0xe0, calldataload(0x00))\n      dup1\n      0x60a587f7\n      eq\n      tag_3\n      jumpi\n      dup1\n      0xd37ab8dd\n      eq\n      tag_4\n      jumpi\n    tag_2:\n      0x00\n      dup1\n      revert\n        /* \"Cook_Web3/Beginner_Chef/mapping/mapping.sol\":961:1098  function movieInput(string memory title, string memory director, uint id) public{... */\n    tag_3:\n      tag_5\n      0x04\n      dup1\n      calldatasize\n      sub\n      dup2\n      add\n      swap1\n      tag_6\n      swap2\n      swap1\n      tag_7\n      jump\t// in\n    tag_6:\n      tag_8\n      jump\t// in\n    tag_5:\n      stop\n        /* \"Cook_Web3/Beginner_Chef/mapping/mapping.sol\":844:883  mapping (uint => Movie) public movieMap */\n    tag_4:\n      tag_9\n      0x04\n      dup1\n      calldatasize\n      sub\n      dup2\n      add\n      swap1\n      tag_10\n      swap2\n      swap1\n      tag_11\n      jump\t// in\n    tag_10:\n      tag_12\n      jump\t// in\n    tag_9:\n      mload(0x40)\n      tag_13\n      swap3\n      swap2\n      swap1\n      tag_14\n      jump\t// in\n    tag_13:\n      mload(0x40)\n      dup1\n      swap2\n      sub\n      swap1\n      return\n        /* \"Cook_Web3/Beginner_Chef/mapping/mapping.sol\":961:1098  function movieInput(string memory title, string memory director, uint id) public{... */\n    tag_8:\n        /* \"Cook_Web3/Beginner_Chef/mapping/mapping.sol\":1068:1090  Movie(title, director) */\n      mload(0x40)\n      dup1\n      0x40\n      add\n      0x40\n      mstore\n      dup1\n        /* \"Cook_Web3/Beginner_Chef/mapping/mapping.sol\":1074:1079  title */\n      dup5\n        /* \"Cook_Web3/Beginner_Chef/mapping/mapping.sol\":1068:1090  Movie(title, director) */\n      dup2\n      mstore\n      0x20\n      add\n        /* \"Cook_Web3/Beginner_Chef/mapping/mapping.sol\":1081:1089  director */\n      dup4\n        /* \"Cook_Web3/Beginner_Chef/mapping/mapping.sol\":1068:1090  Movie(title, director) */\n      dup2\n      mstore\n      pop\n        /* \"Cook_Web3/Beginner_Chef/mapping/mapping.sol\":1052:1060  movieMap */\n      0x00\n        /* \"Cook_Web3/Beginner_Chef/mapping/mapping.sol\":1052:1065  movieMap [id] */\n      dup1\n        /* \"Cook_Web3/Beginner_Chef/mapping/mapping.sol\":1062:1064  id */\n      dup4\n        /* \"Cook_Web3/Beginner_Chef/mapping/mapping.sol\":1052:1065  movieMap [id] */\n      dup2\n      mstore\n      0x20\n      add\n      swap1\n      dup2\n      mstore\n      0x20\n      add\n      0x00\n      keccak256\n        /* \"Cook_Web3/Beginner_Chef/mapping/mapping.sol\":1052:1090  movieMap [id] = Movie(title, director) */\n      0x00\n      dup3\n      add\n      mload\n      dup2\n      0x00\n      add\n      swap1\n      dup2\n      tag_16\n      swap2\n      swap1\n      tag_17\n      jump\t// in\n    tag_16:\n      pop\n      0x20\n      dup3\n      add\n      mload\n      dup2\n      0x01\n      add\n      swap1\n      dup2\n      tag_18\n      swap2\n      swap1\n      tag_17\n      jump\t// in\n    tag_18:\n      pop\n      swap1\n      pop\n      pop\n        /* \"Cook_Web3/Beginner_Chef/mapping/mapping.sol\":961:1098  function movieInput(string memory title, string memory director, uint id) public{... */\n      pop\n      pop\n      pop\n      jump\t// out\n        /* \"Cook_Web3/Beginner_Chef/mapping/mapping.sol\":844:883  mapping (uint => Movie) public movieMap */\n    tag_12:\n      mstore(0x20, 0x00)\n      dup1\n      0x00\n      mstore\n      keccak256(0x00, 0x40)\n      0x00\n      swap2\n      pop\n      swap1\n      pop\n      dup1\n      0x00\n      add\n      dup1\n      sload\n      tag_19\n      swap1\n      tag_20\n      jump\t// in\n    tag_19:\n      dup1\n      0x1f\n      add\n      0x20\n      dup1\n      swap2\n      div\n      mul\n      0x20\n      add\n      mload(0x40)\n      swap1\n      dup2\n      add\n      0x40\n      mstore\n      dup1\n      swap3\n      swap2\n      swap1\n      dup2\n      dup2\n      mstore\n      0x20\n      add\n      dup3\n      dup1\n      sload\n      tag_21\n      swap1\n      tag_20\n      jump\t// in\n    tag_21:\n      dup1\n      iszero\n      tag_22\n      jumpi\n      dup1\n      0x1f\n      lt\n      tag_23\n      jumpi\n      0x0100\n      dup1\n      dup4\n      sload\n      div\n      mul\n      dup4\n      mstore\n      swap2\n      0x20\n      add\n      swap2\n      jump(tag_22)\n    tag_23:\n      dup3\n      add\n      swap2\n      swap1\n      0x00\n      mstore\n      keccak256(0x00, 0x20)\n      swap1\n    tag_24:\n      dup2\n      sload\n      dup2\n      mstore\n      swap1\n      0x01\n      add\n      swap1\n      0x20\n      add\n      dup1\n      dup4\n      gt\n      tag_24\n      jumpi\n      dup3\n      swap1\n      sub\n      0x1f\n      and\n      dup3\n      add\n      swap2\n    tag_22:\n      pop\n      pop\n      pop\n      pop\n      pop\n      swap1\n      dup1\n      0x01\n      add\n      dup1\n      sload\n      tag_25\n      swap1\n      tag_20\n      jump\t// in\n    tag_25:\n      dup1\n      0x1f\n      add\n      0x20\n      dup1\n      swap2\n      div\n      mul\n      0x20\n      add\n      mload(0x40)\n      swap1\n      dup2\n      add\n      0x40\n      mstore\n      dup1\n      swap3\n      swap2\n      swap1\n      dup2\n      dup2\n      mstore\n      0x20\n      add\n      dup3\n      dup1\n      sload\n      tag_26\n      swap1\n      tag_20\n      jump\t// in\n    tag_26:\n      dup1\n      iszero\n      tag_27\n      jumpi\n      dup1\n      0x1f\n      lt\n      tag_28\n      jumpi\n      0x0100\n      dup1\n      dup4\n      sload\n      div\n      mul\n      dup4\n      mstore\n      swap2\n      0x20\n      add\n      swap2\n      jump(tag_27)\n    tag_28:\n      dup3\n      add\n      swap2\n      swap1\n      0x00\n      mstore\n      keccak256(0x00, 0x20)\n      swap1\n    tag_29:\n      dup2\n      sload\n      dup2\n      mstore\n      swap1\n      0x01\n      add\n      swap1\n      0x20\n      add\n      dup1\n      dup4\n      gt\n      tag_29\n      jumpi\n      dup3\n      swap1\n      sub\n      0x1f\n      and\n      dup3\n      add\n      swap2\n    tag_27:\n      pop\n      pop\n      pop\n      pop\n      pop\n      swap1\n      pop\n      dup3\n      jump\t// out\n        /* \"#utility.yul\":7:82   */\n    tag_30:\n        /* \"#utility.yul\":40:46   */\n      0x00\n        /* \"#utility.yul\":73:75   */\n      0x40\n        /* \"#utility.yul\":67:76   */\n      mload\n        /* \"#utility.yul\":57:76   */\n      swap1\n      pop\n        /* \"#utility.yul\":7:82   */\n      swap1\n      jump\t// out\n        /* \"#utility.yul\":88:205   */\n    tag_31:\n        /* \"#utility.yul\":197:198   */\n      0x00\n        /* \"#utility.yul\":194:195   */\n      dup1\n        /* \"#utility.yul\":187:199   */\n      revert\n        /* \"#utility.yul\":211:328   */\n    tag_32:\n        /* \"#utility.yul\":320:321   */\n      0x00\n        /* \"#utility.yul\":317:318   */\n      dup1\n        /* \"#utility.yul\":310:322   */\n      revert\n        /* \"#utility.yul\":334:451   */\n    tag_33:\n        /* \"#utility.yul\":443:444   */\n      0x00\n        /* \"#utility.yul\":440:441   */\n      dup1\n        /* \"#utility.yul\":433:445   */\n      revert\n        /* \"#utility.yul\":457:574   */\n    tag_34:\n        /* \"#utility.yul\":566:567   */\n      0x00\n        /* \"#utility.yul\":563:564   */\n      dup1\n        /* \"#utility.yul\":556:568   */\n      revert\n        /* \"#utility.yul\":580:682   */\n    tag_35:\n        /* \"#utility.yul\":621:627   */\n      0x00\n        /* \"#utility.yul\":672:674   */\n      0x1f\n        /* \"#utility.yul\":668:675   */\n      not\n        /* \"#utility.yul\":663:665   */\n      0x1f\n        /* \"#utility.yul\":656:661   */\n      dup4\n        /* \"#utility.yul\":652:666   */\n      add\n        /* \"#utility.yul\":648:676   */\n      and\n        /* \"#utility.yul\":638:676   */\n      swap1\n      pop\n        /* \"#utility.yul\":580:682   */\n      swap2\n      swap1\n      pop\n      jump\t// out\n        /* \"#utility.yul\":688:868   */\n    tag_36:\n        /* \"#utility.yul\":736:813   */\n      0x4e487b7100000000000000000000000000000000000000000000000000000000\n        /* \"#utility.yul\":733:734   */\n      0x00\n        /* \"#utility.yul\":726:814   */\n      mstore\n        /* \"#utility.yul\":833:837   */\n      0x41\n        /* \"#utility.yul\":830:831   */\n      0x04\n        /* \"#utility.yul\":823:838   */\n      mstore\n        /* \"#utility.yul\":857:861   */\n      0x24\n        /* \"#utility.yul\":854:855   */\n      0x00\n        /* \"#utility.yul\":847:862   */\n      revert\n        /* \"#utility.yul\":874:1155   */\n    tag_37:\n        /* \"#utility.yul\":957:984   */\n      tag_75\n        /* \"#utility.yul\":979:983   */\n      dup3\n        /* \"#utility.yul\":957:984   */\n      tag_35\n      jump\t// in\n    tag_75:\n        /* \"#utility.yul\":949:955   */\n      dup2\n        /* \"#utility.yul\":945:985   */\n      add\n        /* \"#utility.yul\":1087:1093   */\n      dup2\n        /* \"#utility.yul\":1075:1085   */\n      dup2\n        /* \"#utility.yul\":1072:1094   */\n      lt\n        /* \"#utility.yul\":1051:1069   */\n      0xffffffffffffffff\n        /* \"#utility.yul\":1039:1049   */\n      dup3\n        /* \"#utility.yul\":1036:1070   */\n      gt\n        /* \"#utility.yul\":1033:1095   */\n      or\n        /* \"#utility.yul\":1030:1118   */\n      iszero\n      tag_76\n      jumpi\n        /* \"#utility.yul\":1098:1116   */\n      tag_77\n      tag_36\n      jump\t// in\n    tag_77:\n        /* \"#utility.yul\":1030:1118   */\n    tag_76:\n        /* \"#utility.yul\":1138:1148   */\n      dup1\n        /* \"#utility.yul\":1134:1136   */\n      0x40\n        /* \"#utility.yul\":1127:1149   */\n      mstore\n        /* \"#utility.yul\":917:1155   */\n      pop\n        /* \"#utility.yul\":874:1155   */\n      pop\n      pop\n      jump\t// out\n        /* \"#utility.yul\":1161:1290   */\n    tag_38:\n        /* \"#utility.yul\":1195:1201   */\n      0x00\n        /* \"#utility.yul\":1222:1242   */\n      tag_79\n      tag_30\n      jump\t// in\n    tag_79:\n        /* \"#utility.yul\":1212:1242   */\n      swap1\n      pop\n        /* \"#utility.yul\":1251:1284   */\n      tag_80\n        /* \"#utility.yul\":1279:1283   */\n      dup3\n        /* \"#utility.yul\":1271:1277   */\n      dup3\n        /* \"#utility.yul\":1251:1284   */\n      tag_37\n      jump\t// in\n    tag_80:\n        /* \"#utility.yul\":1161:1290   */\n      swap2\n      swap1\n      pop\n      jump\t// out\n        /* \"#utility.yul\":1296:1604   */\n    tag_39:\n        /* \"#utility.yul\":1358:1362   */\n      0x00\n        /* \"#utility.yul\":1448:1466   */\n      0xffffffffffffffff\n        /* \"#utility.yul\":1440:1446   */\n      dup3\n        /* \"#utility.yul\":1437:1467   */\n      gt\n        /* \"#utility.yul\":1434:1490   */\n      iszero\n      tag_82\n      jumpi\n        /* \"#utility.yul\":1470:1488   */\n      tag_83\n      tag_36\n      jump\t// in\n    tag_83:\n        /* \"#utility.yul\":1434:1490   */\n    tag_82:\n        /* \"#utility.yul\":1508:1537   */\n      tag_84\n        /* \"#utility.yul\":1530:1536   */\n      dup3\n        /* \"#utility.yul\":1508:1537   */\n      tag_35\n      jump\t// in\n    tag_84:\n        /* \"#utility.yul\":1500:1537   */\n      swap1\n      pop\n        /* \"#utility.yul\":1592:1596   */\n      0x20\n        /* \"#utility.yul\":1586:1590   */\n      dup2\n        /* \"#utility.yul\":1582:1597   */\n      add\n        /* \"#utility.yul\":1574:1597   */\n      swap1\n      pop\n        /* \"#utility.yul\":1296:1604   */\n      swap2\n      swap1\n      pop\n      jump\t// out\n        /* \"#utility.yul\":1610:1758   */\n    tag_40:\n        /* \"#utility.yul\":1708:1714   */\n      dup3\n        /* \"#utility.yul\":1703:1706   */\n      dup2\n        /* \"#utility.yul\":1698:1701   */\n      dup4\n        /* \"#utility.yul\":1685:1715   */\n      calldatacopy\n        /* \"#utility.yul\":1749:1750   */\n      0x00\n        /* \"#utility.yul\":1740:1746   */\n      dup4\n        /* \"#utility.yul\":1735:1738   */\n      dup4\n        /* \"#utility.yul\":1731:1747   */\n      add\n        /* \"#utility.yul\":1724:1751   */\n      mstore\n        /* \"#utility.yul\":1610:1758   */\n      pop\n      pop\n      pop\n      jump\t// out\n        /* \"#utility.yul\":1764:2189   */\n    tag_41:\n        /* \"#utility.yul\":1842:1847   */\n      0x00\n        /* \"#utility.yul\":1867:1933   */\n      tag_87\n        /* \"#utility.yul\":1883:1932   */\n      tag_88\n        /* \"#utility.yul\":1925:1931   */\n      dup5\n        /* \"#utility.yul\":1883:1932   */\n      tag_39\n      jump\t// in\n    tag_88:\n        /* \"#utility.yul\":1867:1933   */\n      tag_38\n      jump\t// in\n    tag_87:\n        /* \"#utility.yul\":1858:1933   */\n      swap1\n      pop\n        /* \"#utility.yul\":1956:1962   */\n      dup3\n        /* \"#utility.yul\":1949:1954   */\n      dup2\n        /* \"#utility.yul\":1942:1963   */\n      mstore\n        /* \"#utility.yul\":1994:1998   */\n      0x20\n        /* \"#utility.yul\":1987:1992   */\n      dup2\n        /* \"#utility.yul\":1983:1999   */\n      add\n        /* \"#utility.yul\":2032:2035   */\n      dup5\n        /* \"#utility.yul\":2023:2029   */\n      dup5\n        /* \"#utility.yul\":2018:2021   */\n      dup5\n        /* \"#utility.yul\":2014:2030   */\n      add\n        /* \"#utility.yul\":2011:2036   */\n      gt\n        /* \"#utility.yul\":2008:2120   */\n      iszero\n      tag_89\n      jumpi\n        /* \"#utility.yul\":2039:2118   */\n      tag_90\n      tag_34\n      jump\t// in\n    tag_90:\n        /* \"#utility.yul\":2008:2120   */\n    tag_89:\n        /* \"#utility.yul\":2129:2183   */\n      tag_91\n        /* \"#utility.yul\":2176:2182   */\n      dup5\n        /* \"#utility.yul\":2171:2174   */\n      dup3\n        /* \"#utility.yul\":2166:2169   */\n      dup6\n        /* \"#utility.yul\":2129:2183   */\n      tag_40\n      jump\t// in\n    tag_91:\n        /* \"#utility.yul\":1848:2189   */\n      pop\n        /* \"#utility.yul\":1764:2189   */\n      swap4\n      swap3\n      pop\n      pop\n      pop\n      jump\t// out\n        /* \"#utility.yul\":2209:2549   */\n    tag_42:\n        /* \"#utility.yul\":2265:2270   */\n      0x00\n        /* \"#utility.yul\":2314:2317   */\n      dup3\n        /* \"#utility.yul\":2307:2311   */\n      0x1f\n        /* \"#utility.yul\":2299:2305   */\n      dup4\n        /* \"#utility.yul\":2295:2312   */\n      add\n        /* \"#utility.yul\":2291:2318   */\n      slt\n        /* \"#utility.yul\":2281:2403   */\n      tag_93\n      jumpi\n        /* \"#utility.yul\":2322:2401   */\n      tag_94\n      tag_33\n      jump\t// in\n    tag_94:\n        /* \"#utility.yul\":2281:2403   */\n    tag_93:\n        /* \"#utility.yul\":2439:2445   */\n      dup2\n        /* \"#utility.yul\":2426:2446   */\n      calldataload\n        /* \"#utility.yul\":2464:2543   */\n      tag_95\n        /* \"#utility.yul\":2539:2542   */\n      dup5\n        /* \"#utility.yul\":2531:2537   */\n      dup3\n        /* \"#utility.yul\":2524:2528   */\n      0x20\n        /* \"#utility.yul\":2516:2522   */\n      dup7\n        /* \"#utility.yul\":2512:2529   */\n      add\n        /* \"#utility.yul\":2464:2543   */\n      tag_41\n      jump\t// in\n    tag_95:\n        /* \"#utility.yul\":2455:2543   */\n      swap2\n      pop\n        /* \"#utility.yul\":2271:2549   */\n      pop\n        /* \"#utility.yul\":2209:2549   */\n      swap3\n      swap2\n      pop\n      pop\n      jump\t// out\n        /* \"#utility.yul\":2555:2632   */\n    tag_43:\n        /* \"#utility.yul\":2592:2599   */\n      0x00\n        /* \"#utility.yul\":2621:2626   */\n      dup2\n        /* \"#utility.yul\":2610:2626   */\n      swap1\n      pop\n        /* \"#utility.yul\":2555:2632   */\n      swap2\n      swap1\n      pop\n      jump\t// out\n        /* \"#utility.yul\":2638:2760   */\n    tag_44:\n        /* \"#utility.yul\":2711:2735   */\n      tag_98\n        /* \"#utility.yul\":2729:2734   */\n      dup2\n        /* \"#utility.yul\":2711:2735   */\n      tag_43\n      jump\t// in\n    tag_98:\n        /* \"#utility.yul\":2704:2709   */\n      dup2\n        /* \"#utility.yul\":2701:2736   */\n      eq\n        /* \"#utility.yul\":2691:2754   */\n      tag_99\n      jumpi\n        /* \"#utility.yul\":2750:2751   */\n      0x00\n        /* \"#utility.yul\":2747:2748   */\n      dup1\n        /* \"#utility.yul\":2740:2752   */\n      revert\n        /* \"#utility.yul\":2691:2754   */\n    tag_99:\n        /* \"#utility.yul\":2638:2760   */\n      pop\n      jump\t// out\n        /* \"#utility.yul\":2766:2905   */\n    tag_45:\n        /* \"#utility.yul\":2812:2817   */\n      0x00\n        /* \"#utility.yul\":2850:2856   */\n      dup2\n        /* \"#utility.yul\":2837:2857   */\n      calldataload\n        /* \"#utility.yul\":2828:2857   */\n      swap1\n      pop\n        /* \"#utility.yul\":2866:2899   */\n      tag_101\n        /* \"#utility.yul\":2893:2898   */\n      dup2\n        /* \"#utility.yul\":2866:2899   */\n      tag_44\n      jump\t// in\n    tag_101:\n        /* \"#utility.yul\":2766:2905   */\n      swap3\n      swap2\n      pop\n      pop\n      jump\t// out\n        /* \"#utility.yul\":2911:3890   */\n    tag_7:\n        /* \"#utility.yul\":3008:3014   */\n      0x00\n        /* \"#utility.yul\":3016:3022   */\n      dup1\n        /* \"#utility.yul\":3024:3030   */\n      0x00\n        /* \"#utility.yul\":3073:3075   */\n      0x60\n        /* \"#utility.yul\":3061:3070   */\n      dup5\n        /* \"#utility.yul\":3052:3059   */\n      dup7\n        /* \"#utility.yul\":3048:3071   */\n      sub\n        /* \"#utility.yul\":3044:3076   */\n      slt\n        /* \"#utility.yul\":3041:3160   */\n      iszero\n      tag_103\n      jumpi\n        /* \"#utility.yul\":3079:3158   */\n      tag_104\n      tag_31\n      jump\t// in\n    tag_104:\n        /* \"#utility.yul\":3041:3160   */\n    tag_103:\n        /* \"#utility.yul\":3227:3228   */\n      0x00\n        /* \"#utility.yul\":3216:3225   */\n      dup5\n        /* \"#utility.yul\":3212:3229   */\n      add\n        /* \"#utility.yul\":3199:3230   */\n      calldataload\n        /* \"#utility.yul\":3257:3275   */\n      0xffffffffffffffff\n        /* \"#utility.yul\":3249:3255   */\n      dup2\n        /* \"#utility.yul\":3246:3276   */\n      gt\n        /* \"#utility.yul\":3243:3360   */\n      iszero\n      tag_105\n      jumpi\n        /* \"#utility.yul\":3279:3358   */\n      tag_106\n      tag_32\n      jump\t// in\n    tag_106:\n        /* \"#utility.yul\":3243:3360   */\n    tag_105:\n        /* \"#utility.yul\":3384:3447   */\n      tag_107\n        /* \"#utility.yul\":3439:3446   */\n      dup7\n        /* \"#utility.yul\":3430:3436   */\n      dup3\n        /* \"#utility.yul\":3419:3428   */\n      dup8\n        /* \"#utility.yul\":3415:3437   */\n      add\n        /* \"#utility.yul\":3384:3447   */\n      tag_42\n      jump\t// in\n    tag_107:\n        /* \"#utility.yul\":3374:3447   */\n      swap4\n      pop\n        /* \"#utility.yul\":3170:3457   */\n      pop\n        /* \"#utility.yul\":3524:3526   */\n      0x20\n        /* \"#utility.yul\":3513:3522   */\n      dup5\n        /* \"#utility.yul\":3509:3527   */\n      add\n        /* \"#utility.yul\":3496:3528   */\n      calldataload\n        /* \"#utility.yul\":3555:3573   */\n      0xffffffffffffffff\n        /* \"#utility.yul\":3547:3553   */\n      dup2\n        /* \"#utility.yul\":3544:3574   */\n      gt\n        /* \"#utility.yul\":3541:3658   */\n      iszero\n      tag_108\n      jumpi\n        /* \"#utility.yul\":3577:3656   */\n      tag_109\n      tag_32\n      jump\t// in\n    tag_109:\n        /* \"#utility.yul\":3541:3658   */\n    tag_108:\n        /* \"#utility.yul\":3682:3745   */\n      tag_110\n        /* \"#utility.yul\":3737:3744   */\n      dup7\n        /* \"#utility.yul\":3728:3734   */\n      dup3\n        /* \"#utility.yul\":3717:3726   */\n      dup8\n        /* \"#utility.yul\":3713:3735   */\n      add\n        /* \"#utility.yul\":3682:3745   */\n      tag_42\n      jump\t// in\n    tag_110:\n        /* \"#utility.yul\":3672:3745   */\n      swap3\n      pop\n        /* \"#utility.yul\":3467:3755   */\n      pop\n        /* \"#utility.yul\":3794:3796   */\n      0x40\n        /* \"#utility.yul\":3820:3873   */\n      tag_111\n        /* \"#utility.yul\":3865:3872   */\n      dup7\n        /* \"#utility.yul\":3856:3862   */\n      dup3\n        /* \"#utility.yul\":3845:3854   */\n      dup8\n        /* \"#utility.yul\":3841:3863   */\n      add\n        /* \"#utility.yul\":3820:3873   */\n      tag_45\n      jump\t// in\n    tag_111:\n        /* \"#utility.yul\":3810:3873   */\n      swap2\n      pop\n        /* \"#utility.yul\":3765:3883   */\n      pop\n        /* \"#utility.yul\":2911:3890   */\n      swap3\n      pop\n      swap3\n      pop\n      swap3\n      jump\t// out\n        /* \"#utility.yul\":3896:4225   */\n    tag_11:\n        /* \"#utility.yul\":3955:3961   */\n      0x00\n        /* \"#utility.yul\":4004:4006   */\n      0x20\n        /* \"#utility.yul\":3992:4001   */\n      dup3\n        /* \"#utility.yul\":3983:3990   */\n      dup5\n        /* \"#utility.yul\":3979:4002   */\n      sub\n        /* \"#utility.yul\":3975:4007   */\n      slt\n        /* \"#utility.yul\":3972:4091   */\n      iszero\n      tag_113\n      jumpi\n        /* \"#utility.yul\":4010:4089   */\n      tag_114\n      tag_31\n      jump\t// in\n    tag_114:\n        /* \"#utility.yul\":3972:4091   */\n    tag_113:\n        /* \"#utility.yul\":4130:4131   */\n      0x00\n        /* \"#utility.yul\":4155:4208   */\n      tag_115\n        /* \"#utility.yul\":4200:4207   */\n      dup5\n        /* \"#utility.yul\":4191:4197   */\n      dup3\n        /* \"#utility.yul\":4180:4189   */\n      dup6\n        /* \"#utility.yul\":4176:4198   */\n      add\n        /* \"#utility.yul\":4155:4208   */\n      tag_45\n      jump\t// in\n    tag_115:\n        /* \"#utility.yul\":4145:4208   */\n      swap2\n      pop\n        /* \"#utility.yul\":4101:4218   */\n      pop\n        /* \"#utility.yul\":3896:4225   */\n      swap3\n      swap2\n      pop\n      pop\n      jump\t// out\n        /* \"#utility.yul\":4231:4330   */\n    tag_46:\n        /* \"#utility.yul\":4283:4289   */\n      0x00\n        /* \"#utility.yul\":4317:4322   */\n      dup2\n        /* \"#utility.yul\":4311:4323   */\n      mload\n        /* \"#utility.yul\":4301:4323   */\n      swap1\n      pop\n        /* \"#utility.yul\":4231:4330   */\n      swap2\n      swap1\n      pop\n      jump\t// out\n        /* \"#utility.yul\":4336:4505   */\n    tag_47:\n        /* \"#utility.yul\":4420:4431   */\n      0x00\n        /* \"#utility.yul\":4454:4460   */\n      dup3\n        /* \"#utility.yul\":4449:4452   */\n      dup3\n        /* \"#utility.yul\":4442:4461   */\n      mstore\n        /* \"#utility.yul\":4494:4498   */\n      0x20\n        /* \"#utility.yul\":4489:4492   */\n      dup3\n        /* \"#utility.yul\":4485:4499   */\n      add\n        /* \"#utility.yul\":4470:4499   */\n      swap1\n      pop\n        /* \"#utility.yul\":4336:4505   */\n      swap3\n      swap2\n      pop\n      pop\n      jump\t// out\n        /* \"#utility.yul\":4511:4650   */\n    tag_48:\n        /* \"#utility.yul\":4600:4606   */\n      dup3\n        /* \"#utility.yul\":4595:4598   */\n      dup2\n        /* \"#utility.yul\":4590:4593   */\n      dup4\n        /* \"#utility.yul\":4584:4607   */\n      mcopy\n        /* \"#utility.yul\":4641:4642   */\n      0x00\n        /* \"#utility.yul\":4632:4638   */\n      dup4\n        /* \"#utility.yul\":4627:4630   */\n      dup4\n        /* \"#utility.yul\":4623:4639   */\n      add\n        /* \"#utility.yul\":4616:4643   */\n      mstore\n        /* \"#utility.yul\":4511:4650   */\n      pop\n      pop\n      pop\n      jump\t// out\n        /* \"#utility.yul\":4656:5033   */\n    tag_49:\n        /* \"#utility.yul\":4744:4747   */\n      0x00\n        /* \"#utility.yul\":4772:4811   */\n      tag_120\n        /* \"#utility.yul\":4805:4810   */\n      dup3\n        /* \"#utility.yul\":4772:4811   */\n      tag_46\n      jump\t// in\n    tag_120:\n        /* \"#utility.yul\":4827:4898   */\n      tag_121\n        /* \"#utility.yul\":4891:4897   */\n      dup2\n        /* \"#utility.yul\":4886:4889   */\n      dup6\n        /* \"#utility.yul\":4827:4898   */\n      tag_47\n      jump\t// in\n    tag_121:\n        /* \"#utility.yul\":4820:4898   */\n      swap4\n      pop\n        /* \"#utility.yul\":4907:4972   */\n      tag_122\n        /* \"#utility.yul\":4965:4971   */\n      dup2\n        /* \"#utility.yul\":4960:4963   */\n      dup6\n        /* \"#utility.yul\":4953:4957   */\n      0x20\n        /* \"#utility.yul\":4946:4951   */\n      dup7\n        /* \"#utility.yul\":4942:4958   */\n      add\n        /* \"#utility.yul\":4907:4972   */\n      tag_48\n      jump\t// in\n    tag_122:\n        /* \"#utility.yul\":4997:5026   */\n      tag_123\n        /* \"#utility.yul\":5019:5025   */\n      dup2\n        /* \"#utility.yul\":4997:5026   */\n      tag_35\n      jump\t// in\n    tag_123:\n        /* \"#utility.yul\":4992:4995   */\n      dup5\n        /* \"#utility.yul\":4988:5027   */\n      add\n        /* \"#utility.yul\":4981:5027   */\n      swap2\n      pop\n        /* \"#utility.yul\":4748:5033   */\n      pop\n        /* \"#utility.yul\":4656:5033   */\n      swap3\n      swap2\n      pop\n      pop\n      jump\t// out\n        /* \"#utility.yul\":5039:5553   */\n    tag_14:\n        /* \"#utility.yul\":5200:5204   */\n      0x00\n        /* \"#utility.yul\":5238:5240   */\n      0x40\n        /* \"#utility.yul\":5227:5236   */\n      dup3\n        /* \"#utility.yul\":5223:5241   */\n      add\n        /* \"#utility.yul\":5215:5241   */\n      swap1\n      pop\n        /* \"#utility.yul\":5287:5296   */\n      dup2\n        /* \"#utility.yul\":5281:5285   */\n      dup2\n        /* \"#utility.yul\":5277:5297   */\n      sub\n        /* \"#utility.yul\":5273:5274   */\n      0x00\n        /* \"#utility.yul\":5262:5271   */\n      dup4\n        /* \"#utility.yul\":5258:5275   */\n      add\n        /* \"#utility.yul\":5251:5298   */\n      mstore\n        /* \"#utility.yul\":5315:5393   */\n      tag_125\n        /* \"#utility.yul\":5388:5392   */\n      dup2\n        /* \"#utility.yul\":5379:5385   */\n      dup6\n        /* \"#utility.yul\":5315:5393   */\n      tag_49\n      jump\t// in\n    tag_125:\n        /* \"#utility.yul\":5307:5393   */\n      swap1\n      pop\n        /* \"#utility.yul\":5440:5449   */\n      dup2\n        /* \"#utility.yul\":5434:5438   */\n      dup2\n        /* \"#utility.yul\":5430:5450   */\n      sub\n        /* \"#utility.yul\":5425:5427   */\n      0x20\n        /* \"#utility.yul\":5414:5423   */\n      dup4\n        /* \"#utility.yul\":5410:5428   */\n      add\n        /* \"#utility.yul\":5403:5451   */\n      mstore\n        /* \"#utility.yul\":5468:5546   */\n      tag_126\n        /* \"#utility.yul\":5541:5545   */\n      dup2\n        /* \"#utility.yul\":5532:5538   */\n      dup5\n        /* \"#utility.yul\":5468:5546   */\n      tag_49\n      jump\t// in\n    tag_126:\n        /* \"#utility.yul\":5460:5546   */\n      swap1\n      pop\n        /* \"#utility.yul\":5039:5553   */\n      swap4\n      swap3\n      pop\n      pop\n      pop\n      jump\t// out\n        /* \"#utility.yul\":5559:5739   */\n    tag_50:\n        /* \"#utility.yul\":5607:5684   */\n      0x4e487b7100000000000000000000000000000000000000000000000000000000\n        /* \"#utility.yul\":5604:5605   */\n      0x00\n        /* \"#utility.yul\":5597:5685   */\n      mstore\n        /* \"#utility.yul\":5704:5708   */\n      0x22\n        /* \"#utility.yul\":5701:5702   */\n      0x04\n        /* \"#utility.yul\":5694:5709   */\n      mstore\n        /* \"#utility.yul\":5728:5732   */\n      0x24\n        /* \"#utility.yul\":5725:5726   */\n      0x00\n        /* \"#utility.yul\":5718:5733   */\n      revert\n        /* \"#utility.yul\":5745:6065   */\n    tag_20:\n        /* \"#utility.yul\":5789:5795   */\n      0x00\n        /* \"#utility.yul\":5826:5827   */\n      0x02\n        /* \"#utility.yul\":5820:5824   */\n      dup3\n        /* \"#utility.yul\":5816:5828   */\n      div\n        /* \"#utility.yul\":5806:5828   */\n      swap1\n      pop\n        /* \"#utility.yul\":5873:5874   */\n      0x01\n        /* \"#utility.yul\":5867:5871   */\n      dup3\n        /* \"#utility.yul\":5863:5875   */\n      and\n        /* \"#utility.yul\":5894:5912   */\n      dup1\n        /* \"#utility.yul\":5884:5965   */\n      tag_129\n      jumpi\n        /* \"#utility.yul\":5950:5954   */\n      0x7f\n        /* \"#utility.yul\":5942:5948   */\n      dup3\n        /* \"#utility.yul\":5938:5955   */\n      and\n        /* \"#utility.yul\":5928:5955   */\n      swap2\n      pop\n        /* \"#utility.yul\":5884:5965   */\n    tag_129:\n        /* \"#utility.yul\":6012:6014   */\n      0x20\n        /* \"#utility.yul\":6004:6010   */\n      dup3\n        /* \"#utility.yul\":6001:6015   */\n      lt\n        /* \"#utility.yul\":5981:5999   */\n      dup2\n        /* \"#utility.yul\":5978:6016   */\n      sub\n        /* \"#utility.yul\":5975:6059   */\n      tag_130\n      jumpi\n        /* \"#utility.yul\":6031:6049   */\n      tag_131\n      tag_50\n      jump\t// in\n    tag_131:\n        /* \"#utility.yul\":5975:6059   */\n    tag_130:\n        /* \"#utility.yul\":5796:6065   */\n      pop\n        /* \"#utility.yul\":5745:6065   */\n      swap2\n      swap1\n      pop\n      jump\t// out\n        /* \"#utility.yul\":6071:6212   */\n    tag_51:\n        /* \"#utility.yul\":6120:6124   */\n      0x00\n        /* \"#utility.yul\":6143:6146   */\n      dup2\n        /* \"#utility.yul\":6135:6146   */\n      swap1\n      pop\n        /* \"#utility.yul\":6166:6169   */\n      dup2\n        /* \"#utility.yul\":6163:6164   */\n      0x00\n        /* \"#utility.yul\":6156:6170   */\n      mstore\n        /* \"#utility.yul\":6200:6204   */\n      0x20\n        /* \"#utility.yul\":6197:6198   */\n      0x00\n        /* \"#utility.yul\":6187:6205   */\n      keccak256\n        /* \"#utility.yul\":6179:6205   */\n      swap1\n      pop\n        /* \"#utility.yul\":6071:6212   */\n      swap2\n      swap1\n      pop\n      jump\t// out\n        /* \"#utility.yul\":6218:6311   */\n    tag_52:\n        /* \"#utility.yul\":6255:6261   */\n      0x00\n        /* \"#utility.yul\":6302:6304   */\n      0x20\n        /* \"#utility.yul\":6297:6299   */\n      0x1f\n        /* \"#utility.yul\":6290:6295   */\n      dup4\n        /* \"#utility.yul\":6286:6300   */\n      add\n        /* \"#utility.yul\":6282:6305   */\n      div\n        /* \"#utility.yul\":6272:6305   */\n      swap1\n      pop\n        /* \"#utility.yul\":6218:6311   */\n      swap2\n      swap1\n      pop\n      jump\t// out\n        /* \"#utility.yul\":6317:6424   */\n    tag_53:\n        /* \"#utility.yul\":6361:6369   */\n      0x00\n        /* \"#utility.yul\":6411:6416   */\n      dup3\n        /* \"#utility.yul\":6405:6409   */\n      dup3\n        /* \"#utility.yul\":6401:6417   */\n      shl\n        /* \"#utility.yul\":6380:6417   */\n      swap1\n      pop\n        /* \"#utility.yul\":6317:6424   */\n      swap3\n      swap2\n      pop\n      pop\n      jump\t// out\n        /* \"#utility.yul\":6430:6823   */\n    tag_54:\n        /* \"#utility.yul\":6499:6505   */\n      0x00\n        /* \"#utility.yul\":6549:6550   */\n      0x08\n        /* \"#utility.yul\":6537:6547   */\n      dup4\n        /* \"#utility.yul\":6533:6551   */\n      mul\n        /* \"#utility.yul\":6572:6669   */\n      tag_136\n        /* \"#utility.yul\":6602:6668   */\n      0xffffffffffffffffffffffffffffffffffffffffffffffffffffffffffffffff\n        /* \"#utility.yul\":6591:6600   */\n      dup3\n        /* \"#utility.yul\":6572:6669   */\n      tag_53\n      jump\t// in\n    tag_136:\n        /* \"#utility.yul\":6690:6729   */\n      tag_137\n        /* \"#utility.yul\":6720:6728   */\n      dup7\n        /* \"#utility.yul\":6709:6718   */\n      dup4\n        /* \"#utility.yul\":6690:6729   */\n      tag_53\n      jump\t// in\n    tag_137:\n        /* \"#utility.yul\":6678:6729   */\n      swap6\n      pop\n        /* \"#utility.yul\":6762:6766   */\n      dup1\n        /* \"#utility.yul\":6758:6767   */\n      not\n        /* \"#utility.yul\":6751:6756   */\n      dup5\n        /* \"#utility.yul\":6747:6768   */\n      and\n        /* \"#utility.yul\":6738:6768   */\n      swap4\n      pop\n        /* \"#utility.yul\":6811:6815   */\n      dup1\n        /* \"#utility.yul\":6801:6809   */\n      dup7\n        /* \"#utility.yul\":6797:6816   */\n      and\n        /* \"#utility.yul\":6790:6795   */\n      dup5\n        /* \"#utility.yul\":6787:6817   */\n      or\n        /* \"#utility.yul\":6777:6817   */\n      swap3\n      pop\n        /* \"#utility.yul\":6506:6823   */\n      pop\n      pop\n        /* \"#utility.yul\":6430:6823   */\n      swap4\n      swap3\n      pop\n      pop\n      pop\n      jump\t// out\n        /* \"#utility.yul\":6829:6889   */\n    tag_55:\n        /* \"#utility.yul\":6857:6860   */\n      0x00\n        /* \"#utility.yul\":6878:6883   */\n      dup2\n        /* \"#utility.yul\":6871:6883   */\n      swap1\n      pop\n        /* \"#utility.yul\":6829:6889   */\n      swap2\n      swap1\n      pop\n      jump\t// out\n        /* \"#utility.yul\":6895:7037   */\n    tag_56:\n        /* \"#utility.yul\":6945:6954   */\n      0x00\n        /* \"#utility.yul\":6978:7031   */\n      tag_140\n        /* \"#utility.yul\":6996:7030   */\n      tag_141\n        /* \"#utility.yul\":7005:7029   */\n      tag_142\n        /* \"#utility.yul\":7023:7028   */\n      dup5\n        /* \"#utility.yul\":7005:7029   */\n      tag_43\n      jump\t// in\n    tag_142:\n        /* \"#utility.yul\":6996:7030   */\n      tag_55\n      jump\t// in\n    tag_141:\n        /* \"#utility.yul\":6978:7031   */\n      tag_43\n      jump\t// in\n    tag_140:\n        /* \"#utility.yul\":6965:7031   */\n      swap1\n      pop\n        /* \"#utility.yul\":6895:7037   */\n      swap2\n      swap1\n      pop\n      jump\t// out\n        /* \"#utility.yul\":7043:7118   */\n    tag_57:\n        /* \"#utility.yul\":7086:7089   */\n      0x00\n        /* \"#utility.yul\":7107:7112   */\n      dup2\n        /* \"#utility.yul\":7100:7112   */\n      swap1\n      pop\n        /* \"#utility.yul\":7043:7118   */\n      swap2\n      swap1\n      pop\n      jump\t// out\n        /* \"#utility.yul\":7124:7393   */\n    tag_58:\n        /* \"#utility.yul\":7234:7273   */\n      tag_145\n        /* \"#utility.yul\":7265:7272   */\n      dup4\n        /* \"#utility.yul\":7234:7273   */\n      tag_56\n      jump\t// in\n    tag_145:\n        /* \"#utility.yul\":7295:7386   */\n      tag_146\n        /* \"#utility.yul\":7344:7385   */\n      tag_147\n        /* \"#utility.yul\":7368:7384   */\n      dup3\n        /* \"#utility.yul\":7344:7385   */\n      tag_57\n      jump\t// in\n    tag_147:\n        /* \"#utility.yul\":7336:7342   */\n      dup5\n        /* \"#utility.yul\":7329:7333   */\n      dup5\n        /* \"#utility.yul\":7323:7334   */\n      sload\n        /* \"#utility.yul\":7295:7386   */\n      tag_54\n      jump\t// in\n    tag_146:\n        /* \"#utility.yul\":7289:7293   */\n      dup3\n        /* \"#utility.yul\":7282:7387   */\n      sstore\n        /* \"#utility.yul\":7200:7393   */\n      pop\n        /* \"#utility.yul\":7124:7393   */\n      pop\n      pop\n      pop\n      jump\t// out\n        /* \"#utility.yul\":7399:7472   */\n    tag_59:\n        /* \"#utility.yul\":7444:7447   */\n      0x00\n        /* \"#utility.yul\":7399:7472   */\n      swap1\n      jump\t// out\n        /* \"#utility.yul\":7478:7667   */\n    tag_60:\n        /* \"#utility.yul\":7555:7587   */\n      tag_150\n      tag_59\n      jump\t// in\n    tag_150:\n        /* \"#utility.yul\":7596:7661   */\n      tag_151\n        /* \"#utility.yul\":7654:7660   */\n      dup2\n        /* \"#utility.yul\":7646:7652   */\n      dup5\n        /* \"#utility.yul\":7640:7644   */\n      dup5\n        /* \"#utility.yul\":7596:7661   */\n      tag_58\n      jump\t// in\n    tag_151:\n        /* \"#utility.yul\":7531:7667   */\n      pop\n        /* \"#utility.yul\":7478:7667   */\n      pop\n      pop\n      jump\t// out\n        /* \"#utility.yul\":7673:7859   */\n    tag_61:\n        /* \"#utility.yul\":7733:7853   */\n    tag_153:\n        /* \"#utility.yul\":7750:7753   */\n      dup2\n        /* \"#utility.yul\":7743:7748   */\n      dup2\n        /* \"#utility.yul\":7740:7754   */\n      lt\n        /* \"#utility.yul\":7733:7853   */\n      iszero\n      tag_155\n      jumpi\n        /* \"#utility.yul\":7804:7843   */\n      tag_156\n        /* \"#utility.yul\":7841:7842   */\n      0x00\n        /* \"#utility.yul\":7834:7839   */\n      dup3\n        /* \"#utility.yul\":7804:7843   */\n      tag_60\n      jump\t// in\n    tag_156:\n        /* \"#utility.yul\":7777:7778   */\n      0x01\n        /* \"#utility.yul\":7770:7775   */\n      dup2\n        /* \"#utility.yul\":7766:7779   */\n      add\n        /* \"#utility.yul\":7757:7779   */\n      swap1\n      pop\n        /* \"#utility.yul\":7733:7853   */\n      jump(tag_153)\n    tag_155:\n        /* \"#utility.yul\":7673:7859   */\n      pop\n      pop\n      jump\t// out\n        /* \"#utility.yul\":7865:8408   */\n    tag_62:\n        /* \"#utility.yul\":7966:7968   */\n      0x1f\n        /* \"#utility.yul\":7961:7964   */\n      dup3\n        /* \"#utility.yul\":7958:7969   */\n      gt\n        /* \"#utility.yul\":7955:8401   */\n      iszero\n      tag_158\n      jumpi\n        /* \"#utility.yul\":8000:8038   */\n      tag_159\n        /* \"#utility.yul\":8032:8037   */\n      dup2\n        /* \"#utility.yul\":8000:8038   */\n      tag_51\n      jump\t// in\n    tag_159:\n        /* \"#utility.yul\":8084:8113   */\n      tag_160\n        /* \"#utility.yul\":8102:8112   */\n      dup5\n        /* \"#utility.yul\":8084:8113   */\n      tag_52\n      jump\t// in\n    tag_160:\n        /* \"#utility.yul\":8074:8082   */\n      dup2\n        /* \"#utility.yul\":8070:8114   */\n      add\n        /* \"#utility.yul\":8267:8269   */\n      0x20\n        /* \"#utility.yul\":8255:8265   */\n      dup6\n        /* \"#utility.yul\":8252:8270   */\n      lt\n        /* \"#utility.yul\":8249:8298   */\n      iszero\n      tag_161\n      jumpi\n        /* \"#utility.yul\":8288:8296   */\n      dup2\n        /* \"#utility.yul\":8273:8296   */\n      swap1\n      pop\n        /* \"#utility.yul\":8249:8298   */\n    tag_161:\n        /* \"#utility.yul\":8311:8391   */\n      tag_162\n        /* \"#utility.yul\":8367:8389   */\n      tag_163\n        /* \"#utility.yul\":8385:8388   */\n      dup6\n        /* \"#utility.yul\":8367:8389   */\n      tag_52\n      jump\t// in\n    tag_163:\n        /* \"#utility.yul\":8357:8365   */\n      dup4\n        /* \"#utility.yul\":8353:8390   */\n      add\n        /* \"#utility.yul\":8340:8351   */\n      dup3\n        /* \"#utility.yul\":8311:8391   */\n      tag_61\n      jump\t// in\n    tag_162:\n        /* \"#utility.yul\":7970:8401   */\n      pop\n      pop\n        /* \"#utility.yul\":7955:8401   */\n    tag_158:\n        /* \"#utility.yul\":7865:8408   */\n      pop\n      pop\n      pop\n      jump\t// out\n        /* \"#utility.yul\":8414:8531   */\n    tag_63:\n        /* \"#utility.yul\":8468:8476   */\n      0x00\n        /* \"#utility.yul\":8518:8523   */\n      dup3\n        /* \"#utility.yul\":8512:8516   */\n      dup3\n        /* \"#utility.yul\":8508:8524   */\n      shr\n        /* \"#utility.yul\":8487:8524   */\n      swap1\n      pop\n        /* \"#utility.yul\":8414:8531   */\n      swap3\n      swap2\n      pop\n      pop\n      jump\t// out\n        /* \"#utility.yul\":8537:8706   */\n    tag_64:\n        /* \"#utility.yul\":8581:8587   */\n      0x00\n        /* \"#utility.yul\":8614:8665   */\n      tag_166\n        /* \"#utility.yul\":8662:8663   */\n      0x00\n        /* \"#utility.yul\":8658:8664   */\n      not\n        /* \"#utility.yul\":8650:8655   */\n      dup5\n        /* \"#utility.yul\":8647:8648   */\n      0x08\n        /* \"#utility.yul\":8643:8656   */\n      mul\n        /* \"#utility.yul\":8614:8665   */\n      tag_63\n      jump\t// in\n    tag_166:\n        /* \"#utility.yul\":8610:8666   */\n      not\n        /* \"#utility.yul\":8695:8699   */\n      dup1\n        /* \"#utility.yul\":8689:8693   */\n      dup4\n        /* \"#utility.yul\":8685:8700   */\n      and\n        /* \"#utility.yul\":8675:8700   */\n      swap2\n      pop\n        /* \"#utility.yul\":8588:8706   */\n      pop\n        /* \"#utility.yul\":8537:8706   */\n      swap3\n      swap2\n      pop\n      pop\n      jump\t// out\n        /* \"#utility.yul\":8711:9006   */\n    tag_65:\n        /* \"#utility.yul\":8787:8791   */\n      0x00\n        /* \"#utility.yul\":8933:8962   */\n      tag_168\n        /* \"#utility.yul\":8958:8961   */\n      dup4\n        /* \"#utility.yul\":8952:8956   */\n      dup4\n        /* \"#utility.yul\":8933:8962   */\n      tag_64\n      jump\t// in\n    tag_168:\n        /* \"#utility.yul\":8925:8962   */\n      swap2\n      pop\n        /* \"#utility.yul\":8995:8998   */\n      dup3\n        /* \"#utility.yul\":8992:8993   */\n      0x02\n        /* \"#utility.yul\":8988:8999   */\n      mul\n        /* \"#utility.yul\":8982:8986   */\n      dup3\n        /* \"#utility.yul\":8979:9000   */\n      or\n        /* \"#utility.yul\":8971:9000   */\n      swap1\n      pop\n        /* \"#utility.yul\":8711:9006   */\n      swap3\n      swap2\n      pop\n      pop\n      jump\t// out\n        /* \"#utility.yul\":9011:10406   */\n    tag_17:\n        /* \"#utility.yul\":9128:9165   */\n      tag_170\n        /* \"#utility.yul\":9161:9164   */\n      dup3\n        /* \"#utility.yul\":9128:9165   */\n      tag_46\n      jump\t// in\n    tag_170:\n        /* \"#utility.yul\":9230:9248   */\n      0xffffffffffffffff\n        /* \"#utility.yul\":9222:9228   */\n      dup2\n        /* \"#utility.yul\":9219:9249   */\n      gt\n        /* \"#utility.yul\":9216:9272   */\n      iszero\n      tag_171\n      jumpi\n        /* \"#utility.yul\":9252:9270   */\n      tag_172\n      tag_36\n      jump\t// in\n    tag_172:\n        /* \"#utility.yul\":9216:9272   */\n    tag_171:\n        /* \"#utility.yul\":9296:9334   */\n      tag_173\n        /* \"#utility.yul\":9328:9332   */\n      dup3\n        /* \"#utility.yul\":9322:9333   */\n      sload\n        /* \"#utility.yul\":9296:9334   */\n      tag_20\n      jump\t// in\n    tag_173:\n        /* \"#utility.yul\":9381:9448   */\n      tag_174\n        /* \"#utility.yul\":9441:9447   */\n      dup3\n        /* \"#utility.yul\":9433:9439   */\n      dup3\n        /* \"#utility.yul\":9427:9431   */\n      dup6\n        /* \"#utility.yul\":9381:9448   */\n      tag_62\n      jump\t// in\n    tag_174:\n        /* \"#utility.yul\":9475:9476   */\n      0x00\n        /* \"#utility.yul\":9499:9503   */\n      0x20\n        /* \"#utility.yul\":9486:9503   */\n      swap1\n      pop\n        /* \"#utility.yul\":9531:9533   */\n      0x1f\n        /* \"#utility.yul\":9523:9529   */\n      dup4\n        /* \"#utility.yul\":9520:9534   */\n      gt\n        /* \"#utility.yul\":9548:9549   */\n      0x01\n        /* \"#utility.yul\":9543:10161   */\n      dup2\n      eq\n      tag_176\n      jumpi\n        /* \"#utility.yul\":10205:10206   */\n      0x00\n        /* \"#utility.yul\":10222:10228   */\n      dup5\n        /* \"#utility.yul\":10219:10296   */\n      iszero\n      tag_177\n      jumpi\n        /* \"#utility.yul\":10271:10280   */\n      dup3\n        /* \"#utility.yul\":10266:10269   */\n      dup8\n        /* \"#utility.yul\":10262:10281   */\n      add\n        /* \"#utility.yul\":10256:10282   */\n      mload\n        /* \"#utility.yul\":10247:10282   */\n      swap1\n      pop\n        /* \"#utility.yul\":10219:10296   */\n    tag_177:\n        /* \"#utility.yul\":10322:10389   */\n      tag_178\n        /* \"#utility.yul\":10382:10388   */\n      dup6\n        /* \"#utility.yul\":10375:10380   */\n      dup3\n        /* \"#utility.yul\":10322:10389   */\n      tag_65\n      jump\t// in\n    tag_178:\n        /* \"#utility.yul\":10316:10320   */\n      dup7\n        /* \"#utility.yul\":10309:10390   */\n      sstore\n        /* \"#utility.yul\":10178:10400   */\n      pop\n        /* \"#utility.yul\":9513:10400   */\n      jump(tag_175)\n        /* \"#utility.yul\":9543:10161   */\n    tag_176:\n        /* \"#utility.yul\":9595:9599   */\n      0x1f\n        /* \"#utility.yul\":9591:9600   */\n      not\n        /* \"#utility.yul\":9583:9589   */\n      dup5\n        /* \"#utility.yul\":9579:9601   */\n      and\n        /* \"#utility.yul\":9629:9666   */\n      tag_179\n        /* \"#utility.yul\":9661:9665   */\n      dup7\n        /* \"#utility.yul\":9629:9666   */\n      tag_51\n      jump\t// in\n    tag_179:\n        /* \"#utility.yul\":9688:9689   */\n      0x00\n        /* \"#utility.yul\":9702:9910   */\n    tag_180:\n        /* \"#utility.yul\":9716:9723   */\n      dup3\n        /* \"#utility.yul\":9713:9714   */\n      dup2\n        /* \"#utility.yul\":9710:9724   */\n      lt\n        /* \"#utility.yul\":9702:9910   */\n      iszero\n      tag_182\n      jumpi\n        /* \"#utility.yul\":9795:9804   */\n      dup5\n        /* \"#utility.yul\":9790:9793   */\n      dup10\n        /* \"#utility.yul\":9786:9805   */\n      add\n        /* \"#utility.yul\":9780:9806   */\n      mload\n        /* \"#utility.yul\":9772:9778   */\n      dup3\n        /* \"#utility.yul\":9765:9807   */\n      sstore\n        /* \"#utility.yul\":9846:9847   */\n      0x01\n        /* \"#utility.yul\":9838:9844   */\n      dup3\n        /* \"#utility.yul\":9834:9848   */\n      add\n        /* \"#utility.yul\":9824:9848   */\n      swap2\n      pop\n        /* \"#utility.yul\":9893:9895   */\n      0x20\n        /* \"#utility.yul\":9882:9891   */\n      dup6\n        /* \"#utility.yul\":9878:9896   */\n      add\n        /* \"#utility.yul\":9865:9896   */\n      swap5\n      pop\n        /* \"#utility.yul\":9739:9743   */\n      0x20\n        /* \"#utility.yul\":9736:9737   */\n      dup2\n        /* \"#utility.yul\":9732:9744   */\n      add\n        /* \"#utility.yul\":9727:9744   */\n      swap1\n      pop\n        /* \"#utility.yul\":9702:9910   */\n      jump(tag_180)\n    tag_182:\n        /* \"#utility.yul\":9938:9944   */\n      dup7\n        /* \"#utility.yul\":9929:9936   */\n      dup4\n        /* \"#utility.yul\":9926:9945   */\n      lt\n        /* \"#utility.yul\":9923:10102   */\n      iszero\n      tag_183\n      jumpi\n        /* \"#utility.yul\":9996:10005   */\n      dup5\n        /* \"#utility.yul\":9991:9994   */\n      dup10\n        /* \"#utility.yul\":9987:10006   */\n      add\n        /* \"#utility.yul\":9981:10007   */\n      mload\n        /* \"#utility.yul\":10039:10087   */\n      tag_184\n        /* \"#utility.yul\":10081:10085   */\n      0x1f\n        /* \"#utility.yul\":10073:10079   */\n      dup10\n        /* \"#utility.yul\":10069:10086   */\n      and\n        /* \"#utility.yul\":10058:10067   */\n      dup3\n        /* \"#utility.yul\":10039:10087   */\n      tag_64\n      jump\t// in\n    tag_184:\n        /* \"#utility.yul\":10031:10037   */\n      dup4\n        /* \"#utility.yul\":10024:10088   */\n      sstore\n        /* \"#utility.yul\":9946:10102   */\n      pop\n        /* \"#utility.yul\":9923:10102   */\n    tag_183:\n        /* \"#utility.yul\":10148:10149   */\n      0x01\n        /* \"#utility.yul\":10144:10145   */\n      0x02\n        /* \"#utility.yul\":10136:10142   */\n      dup9\n        /* \"#utility.yul\":10132:10146   */\n      mul\n        /* \"#utility.yul\":10128:10150   */\n      add\n        /* \"#utility.yul\":10122:10126   */\n      dup9\n        /* \"#utility.yul\":10115:10151   */\n      sstore\n        /* \"#utility.yul\":9550:10161   */\n      pop\n      pop\n      pop\n        /* \"#utility.yul\":9513:10400   */\n    tag_175:\n      pop\n        /* \"#utility.yul\":9103:10406   */\n      pop\n      pop\n      pop\n        /* \"#utility.yul\":9011:10406   */\n      pop\n      pop\n      jump\t// out\n\n    auxdata: 0xa2646970667358221220150aff03c8ccb2204767763ca9a2551dc700896c6765b6bbf5d668f727d3554f64736f6c634300081a0033\n}\n",
				"bytecode": {
					"linkReferences": {},
					"object": "6080604052348015600e575f80fd5b506107ce8061001c5f395ff3fe608060405234801561000f575f80fd5b5060043610610034575f3560e01c806360a587f714610038578063d37ab8dd14610054575b5f80fd5b610052600480360381019061004d9190610387565b610085565b005b61006e6004803603810190610069919061040f565b6100dc565b60405161007c92919061049a565b60405180910390f35b6040518060400160405280848152602001838152505f808381526020019081526020015f205f820151815f0190816100bd91906106c9565b5060208201518160010190816100d391906106c9565b50905050505050565b5f602052805f5260405f205f91509050805f0180546100fa906104fc565b80601f0160208091040260200160405190810160405280929190818152602001828054610126906104fc565b80156101715780601f1061014857610100808354040283529160200191610171565b820191905f5260205f20905b81548152906001019060200180831161015457829003601f168201915b505050505090806001018054610186906104fc565b80601f01602080910402602001604051908101604052809291908181526020018280546101b2906104fc565b80156101fd5780601f106101d4576101008083540402835291602001916101fd565b820191905f5260205f20905b8154815290600101906020018083116101e057829003601f168201915b5050505050905082565b5f604051905090565b5f80fd5b5f80fd5b5f80fd5b5f80fd5b5f601f19601f8301169050919050565b7f4e487b71000000000000000000000000000000000000000000000000000000005f52604160045260245ffd5b61026682610220565b810181811067ffffffffffffffff8211171561028557610284610230565b5b80604052505050565b5f610297610207565b90506102a3828261025d565b919050565b5f67ffffffffffffffff8211156102c2576102c1610230565b5b6102cb82610220565b9050602081019050919050565b828183375f83830152505050565b5f6102f86102f3846102a8565b61028e565b9050828152602081018484840111156103145761031361021c565b5b61031f8482856102d8565b509392505050565b5f82601f83011261033b5761033a610218565b5b813561034b8482602086016102e6565b91505092915050565b5f819050919050565b61036681610354565b8114610370575f80fd5b50565b5f813590506103818161035d565b92915050565b5f805f6060848603121561039e5761039d610210565b5b5f84013567ffffffffffffffff8111156103bb576103ba610214565b5b6103c786828701610327565b935050602084013567ffffffffffffffff8111156103e8576103e7610214565b5b6103f486828701610327565b925050604061040586828701610373565b9150509250925092565b5f6020828403121561042457610423610210565b5b5f61043184828501610373565b91505092915050565b5f81519050919050565b5f82825260208201905092915050565b8281835e5f83830152505050565b5f61046c8261043a565b6104768185610444565b9350610486818560208601610454565b61048f81610220565b840191505092915050565b5f6040820190508181035f8301526104b28185610462565b905081810360208301526104c68184610462565b90509392505050565b7f4e487b71000000000000000000000000000000000000000000000000000000005f52602260045260245ffd5b5f600282049050600182168061051357607f821691505b602082108103610526576105256104cf565b5b50919050565b5f819050815f5260205f209050919050565b5f6020601f8301049050919050565b5f82821b905092915050565b5f600883026105887fffffffffffffffffffffffffffffffffffffffffffffffffffffffffffffffff8261054d565b610592868361054d565b95508019841693508086168417925050509392505050565b5f819050919050565b5f6105cd6105c86105c384610354565b6105aa565b610354565b9050919050565b5f819050919050565b6105e6836105b3565b6105fa6105f2826105d4565b848454610559565b825550505050565b5f90565b61060e610602565b6106198184846105dd565b505050565b5b8181101561063c576106315f82610606565b60018101905061061f565b5050565b601f821115610681576106528161052c565b61065b8461053e565b8101602085101561066a578190505b61067e6106768561053e565b83018261061e565b50505b505050565b5f82821c905092915050565b5f6106a15f1984600802610686565b1980831691505092915050565b5f6106b98383610692565b9150826002028217905092915050565b6106d28261043a565b67ffffffffffffffff8111156106eb576106ea610230565b5b6106f582546104fc565b610700828285610640565b5f60209050601f831160018114610731575f841561071f578287015190505b61072985826106ae565b865550610790565b601f19841661073f8661052c565b5f5b8281101561076657848901518255600182019150602085019450602081019050610741565b86831015610783578489015161077f601f891682610692565b8355505b6001600288020188555050505b50505050505056fea2646970667358221220150aff03c8ccb2204767763ca9a2551dc700896c6765b6bbf5d668f727d3554f64736f6c634300081a0033",
					"opcodes": "PUSH1 0x80 PUSH1 0x40 MSTORE CALLVALUE DUP1 ISZERO PUSH1 0xE JUMPI PUSH0 DUP1 REVERT JUMPDEST POP PUSH2 0x7CE DUP1 PUSH2 0x1C PUSH0 CODECOPY PUSH0 RETURN INVALID PUSH1 0x80 PUSH1 0x40 MSTORE CALLVALUE DUP1 ISZERO PUSH2 0xF JUMPI PUSH0 DUP1 REVERT JUMPDEST POP PUSH1 0x4 CALLDATASIZE LT PUSH2 0x34 JUMPI PUSH0 CALLDATALOAD PUSH1 0xE0 SHR DUP1 PUSH4 0x60A587F7 EQ PUSH2 0x38 JUMPI DUP1 PUSH4 0xD37AB8DD EQ PUSH2 0x54 JUMPI JUMPDEST PUSH0 DUP1 REVERT JUMPDEST PUSH2 0x52 PUSH1 0x4 DUP1 CALLDATASIZE SUB DUP2 ADD SWAP1 PUSH2 0x4D SWAP2 SWAP1 PUSH2 0x387 JUMP JUMPDEST PUSH2 0x85 JUMP JUMPDEST STOP JUMPDEST PUSH2 0x6E PUSH1 0x4 DUP1 CALLDATASIZE SUB DUP2 ADD SWAP1 PUSH2 0x69 SWAP2 SWAP1 PUSH2 0x40F JUMP JUMPDEST PUSH2 0xDC JUMP JUMPDEST PUSH1 0x40 MLOAD PUSH2 0x7C SWAP3 SWAP2 SWAP1 PUSH2 0x49A JUMP JUMPDEST PUSH1 0x40 MLOAD DUP1 SWAP2 SUB SWAP1 RETURN JUMPDEST PUSH1 0x40 MLOAD DUP1 PUSH1 0x40 ADD PUSH1 0x40 MSTORE DUP1 DUP5 DUP2 MSTORE PUSH1 0x20 ADD DUP4 DUP2 MSTORE POP PUSH0 DUP1 DUP4 DUP2 MSTORE PUSH1 0x20 ADD SWAP1 DUP2 MSTORE PUSH1 0x20 ADD PUSH0 KECCAK256 PUSH0 DUP3 ADD MLOAD DUP2 PUSH0 ADD SWAP1 DUP2 PUSH2 0xBD SWAP2 SWAP1 PUSH2 0x6C9 JUMP JUMPDEST POP PUSH1 0x20 DUP3 ADD MLOAD DUP2 PUSH1 0x1 ADD SWAP1 DUP2 PUSH2 0xD3 SWAP2 SWAP1 PUSH2 0x6C9 JUMP JUMPDEST POP SWAP1 POP POP POP POP POP JUMP JUMPDEST PUSH0 PUSH1 0x20 MSTORE DUP1 PUSH0 MSTORE PUSH1 0x40 PUSH0 KECCAK256 PUSH0 SWAP2 POP SWAP1 POP DUP1 PUSH0 ADD DUP1 SLOAD PUSH2 0xFA SWAP1 PUSH2 0x4FC JUMP JUMPDEST DUP1 PUSH1 0x1F ADD PUSH1 0x20 DUP1 SWAP2 DIV MUL PUSH1 0x20 ADD PUSH1 0x40 MLOAD SWAP1 DUP2 ADD PUSH1 0x40 MSTORE DUP1 SWAP3 SWAP2 SWAP1 DUP2 DUP2 MSTORE PUSH1 0x20 ADD DUP3 DUP1 SLOAD PUSH2 0x126 SWAP1 PUSH2 0x4FC JUMP JUMPDEST DUP1 ISZERO PUSH2 0x171 JUMPI DUP1 PUSH1 0x1F LT PUSH2 0x148 JUMPI PUSH2 0x100 DUP1 DUP4 SLOAD DIV MUL DUP4 MSTORE SWAP2 PUSH1 0x20 ADD SWAP2 PUSH2 0x171 JUMP JUMPDEST DUP3 ADD SWAP2 SWAP1 PUSH0 MSTORE PUSH1 0x20 PUSH0 KECCAK256 SWAP1 JUMPDEST DUP2 SLOAD DUP2 MSTORE SWAP1 PUSH1 0x1 ADD SWAP1 PUSH1 0x20 ADD DUP1 DUP4 GT PUSH2 0x154 JUMPI DUP3 SWAP1 SUB PUSH1 0x1F AND DUP3 ADD SWAP2 JUMPDEST POP POP POP POP POP SWAP1 DUP1 PUSH1 0x1 ADD DUP1 SLOAD PUSH2 0x186 SWAP1 PUSH2 0x4FC JUMP JUMPDEST DUP1 PUSH1 0x1F ADD PUSH1 0x20 DUP1 SWAP2 DIV MUL PUSH1 0x20 ADD PUSH1 0x40 MLOAD SWAP1 DUP2 ADD PUSH1 0x40 MSTORE DUP1 SWAP3 SWAP2 SWAP1 DUP2 DUP2 MSTORE PUSH1 0x20 ADD DUP3 DUP1 SLOAD PUSH2 0x1B2 SWAP1 PUSH2 0x4FC JUMP JUMPDEST DUP1 ISZERO PUSH2 0x1FD JUMPI DUP1 PUSH1 0x1F LT PUSH2 0x1D4 JUMPI PUSH2 0x100 DUP1 DUP4 SLOAD DIV MUL DUP4 MSTORE SWAP2 PUSH1 0x20 ADD SWAP2 PUSH2 0x1FD JUMP JUMPDEST DUP3 ADD SWAP2 SWAP1 PUSH0 MSTORE PUSH1 0x20 PUSH0 KECCAK256 SWAP1 JUMPDEST DUP2 SLOAD DUP2 MSTORE SWAP1 PUSH1 0x1 ADD SWAP1 PUSH1 0x20 ADD DUP1 DUP4 GT PUSH2 0x1E0 JUMPI DUP3 SWAP1 SUB PUSH1 0x1F AND DUP3 ADD SWAP2 JUMPDEST POP POP POP POP POP SWAP1 POP DUP3 JUMP JUMPDEST PUSH0 PUSH1 0x40 MLOAD SWAP1 POP SWAP1 JUMP JUMPDEST PUSH0 DUP1 REVERT JUMPDEST PUSH0 DUP1 REVERT JUMPDEST PUSH0 DUP1 REVERT JUMPDEST PUSH0 DUP1 REVERT JUMPDEST PUSH0 PUSH1 0x1F NOT PUSH1 0x1F DUP4 ADD AND SWAP1 POP SWAP2 SWAP1 POP JUMP JUMPDEST PUSH32 0x4E487B7100000000000000000000000000000000000000000000000000000000 PUSH0 MSTORE PUSH1 0x41 PUSH1 0x4 MSTORE PUSH1 0x24 PUSH0 REVERT JUMPDEST PUSH2 0x266 DUP3 PUSH2 0x220 JUMP JUMPDEST DUP2 ADD DUP2 DUP2 LT PUSH8 0xFFFFFFFFFFFFFFFF DUP3 GT OR ISZERO PUSH2 0x285 JUMPI PUSH2 0x284 PUSH2 0x230 JUMP JUMPDEST JUMPDEST DUP1 PUSH1 0x40 MSTORE POP POP POP JUMP JUMPDEST PUSH0 PUSH2 0x297 PUSH2 0x207 JUMP JUMPDEST SWAP1 POP PUSH2 0x2A3 DUP3 DUP3 PUSH2 0x25D JUMP JUMPDEST SWAP2 SWAP1 POP JUMP JUMPDEST PUSH0 PUSH8 0xFFFFFFFFFFFFFFFF DUP3 GT ISZERO PUSH2 0x2C2 JUMPI PUSH2 0x2C1 PUSH2 0x230 JUMP JUMPDEST JUMPDEST PUSH2 0x2CB DUP3 PUSH2 0x220 JUMP JUMPDEST SWAP1 POP PUSH1 0x20 DUP2 ADD SWAP1 POP SWAP2 SWAP1 POP JUMP JUMPDEST DUP3 DUP2 DUP4 CALLDATACOPY PUSH0 DUP4 DUP4 ADD MSTORE POP POP POP JUMP JUMPDEST PUSH0 PUSH2 0x2F8 PUSH2 0x2F3 DUP5 PUSH2 0x2A8 JUMP JUMPDEST PUSH2 0x28E JUMP JUMPDEST SWAP1 POP DUP3 DUP2 MSTORE PUSH1 0x20 DUP2 ADD DUP5 DUP5 DUP5 ADD GT ISZERO PUSH2 0x314 JUMPI PUSH2 0x313 PUSH2 0x21C JUMP JUMPDEST JUMPDEST PUSH2 0x31F DUP5 DUP3 DUP6 PUSH2 0x2D8 JUMP JUMPDEST POP SWAP4 SWAP3 POP POP POP JUMP JUMPDEST PUSH0 DUP3 PUSH1 0x1F DUP4 ADD SLT PUSH2 0x33B JUMPI PUSH2 0x33A PUSH2 0x218 JUMP JUMPDEST JUMPDEST DUP2 CALLDATALOAD PUSH2 0x34B DUP5 DUP3 PUSH1 0x20 DUP7 ADD PUSH2 0x2E6 JUMP JUMPDEST SWAP2 POP POP SWAP3 SWAP2 POP POP JUMP JUMPDEST PUSH0 DUP2 SWAP1 POP SWAP2 SWAP1 POP JUMP JUMPDEST PUSH2 0x366 DUP2 PUSH2 0x354 JUMP JUMPDEST DUP2 EQ PUSH2 0x370 JUMPI PUSH0 DUP1 REVERT JUMPDEST POP JUMP JUMPDEST PUSH0 DUP2 CALLDATALOAD SWAP1 POP PUSH2 0x381 DUP2 PUSH2 0x35D JUMP JUMPDEST SWAP3 SWAP2 POP POP JUMP JUMPDEST PUSH0 DUP1 PUSH0 PUSH1 0x60 DUP5 DUP7 SUB SLT ISZERO PUSH2 0x39E JUMPI PUSH2 0x39D PUSH2 0x210 JUMP JUMPDEST JUMPDEST PUSH0 DUP5 ADD CALLDATALOAD PUSH8 0xFFFFFFFFFFFFFFFF DUP2 GT ISZERO PUSH2 0x3BB JUMPI PUSH2 0x3BA PUSH2 0x214 JUMP JUMPDEST JUMPDEST PUSH2 0x3C7 DUP7 DUP3 DUP8 ADD PUSH2 0x327 JUMP JUMPDEST SWAP4 POP POP PUSH1 0x20 DUP5 ADD CALLDATALOAD PUSH8 0xFFFFFFFFFFFFFFFF DUP2 GT ISZERO PUSH2 0x3E8 JUMPI PUSH2 0x3E7 PUSH2 0x214 JUMP JUMPDEST JUMPDEST PUSH2 0x3F4 DUP7 DUP3 DUP8 ADD PUSH2 0x327 JUMP JUMPDEST SWAP3 POP POP PUSH1 0x40 PUSH2 0x405 DUP7 DUP3 DUP8 ADD PUSH2 0x373 JUMP JUMPDEST SWAP2 POP POP SWAP3 POP SWAP3 POP SWAP3 JUMP JUMPDEST PUSH0 PUSH1 0x20 DUP3 DUP5 SUB SLT ISZERO PUSH2 0x424 JUMPI PUSH2 0x423 PUSH2 0x210 JUMP JUMPDEST JUMPDEST PUSH0 PUSH2 0x431 DUP5 DUP3 DUP6 ADD PUSH2 0x373 JUMP JUMPDEST SWAP2 POP POP SWAP3 SWAP2 POP POP JUMP JUMPDEST PUSH0 DUP2 MLOAD SWAP1 POP SWAP2 SWAP1 POP JUMP JUMPDEST PUSH0 DUP3 DUP3 MSTORE PUSH1 0x20 DUP3 ADD SWAP1 POP SWAP3 SWAP2 POP POP JUMP JUMPDEST DUP3 DUP2 DUP4 MCOPY PUSH0 DUP4 DUP4 ADD MSTORE POP POP POP JUMP JUMPDEST PUSH0 PUSH2 0x46C DUP3 PUSH2 0x43A JUMP JUMPDEST PUSH2 0x476 DUP2 DUP6 PUSH2 0x444 JUMP JUMPDEST SWAP4 POP PUSH2 0x486 DUP2 DUP6 PUSH1 0x20 DUP7 ADD PUSH2 0x454 JUMP JUMPDEST PUSH2 0x48F DUP2 PUSH2 0x220 JUMP JUMPDEST DUP5 ADD SWAP2 POP POP SWAP3 SWAP2 POP POP JUMP JUMPDEST PUSH0 PUSH1 0x40 DUP3 ADD SWAP1 POP DUP2 DUP2 SUB PUSH0 DUP4 ADD MSTORE PUSH2 0x4B2 DUP2 DUP6 PUSH2 0x462 JUMP JUMPDEST SWAP1 POP DUP2 DUP2 SUB PUSH1 0x20 DUP4 ADD MSTORE PUSH2 0x4C6 DUP2 DUP5 PUSH2 0x462 JUMP JUMPDEST SWAP1 POP SWAP4 SWAP3 POP POP POP JUMP JUMPDEST PUSH32 0x4E487B7100000000000000000000000000000000000000000000000000000000 PUSH0 MSTORE PUSH1 0x22 PUSH1 0x4 MSTORE PUSH1 0x24 PUSH0 REVERT JUMPDEST PUSH0 PUSH1 0x2 DUP3 DIV SWAP1 POP PUSH1 0x1 DUP3 AND DUP1 PUSH2 0x513 JUMPI PUSH1 0x7F DUP3 AND SWAP2 POP JUMPDEST PUSH1 0x20 DUP3 LT DUP2 SUB PUSH2 0x526 JUMPI PUSH2 0x525 PUSH2 0x4CF JUMP JUMPDEST JUMPDEST POP SWAP2 SWAP1 POP JUMP JUMPDEST PUSH0 DUP2 SWAP1 POP DUP2 PUSH0 MSTORE PUSH1 0x20 PUSH0 KECCAK256 SWAP1 POP SWAP2 SWAP1 POP JUMP JUMPDEST PUSH0 PUSH1 0x20 PUSH1 0x1F DUP4 ADD DIV SWAP1 POP SWAP2 SWAP1 POP JUMP JUMPDEST PUSH0 DUP3 DUP3 SHL SWAP1 POP SWAP3 SWAP2 POP POP JUMP JUMPDEST PUSH0 PUSH1 0x8 DUP4 MUL PUSH2 0x588 PUSH32 0xFFFFFFFFFFFFFFFFFFFFFFFFFFFFFFFFFFFFFFFFFFFFFFFFFFFFFFFFFFFFFFFF DUP3 PUSH2 0x54D JUMP JUMPDEST PUSH2 0x592 DUP7 DUP4 PUSH2 0x54D JUMP JUMPDEST SWAP6 POP DUP1 NOT DUP5 AND SWAP4 POP DUP1 DUP7 AND DUP5 OR SWAP3 POP POP POP SWAP4 SWAP3 POP POP POP JUMP JUMPDEST PUSH0 DUP2 SWAP1 POP SWAP2 SWAP1 POP JUMP JUMPDEST PUSH0 PUSH2 0x5CD PUSH2 0x5C8 PUSH2 0x5C3 DUP5 PUSH2 0x354 JUMP JUMPDEST PUSH2 0x5AA JUMP JUMPDEST PUSH2 0x354 JUMP JUMPDEST SWAP1 POP SWAP2 SWAP1 POP JUMP JUMPDEST PUSH0 DUP2 SWAP1 POP SWAP2 SWAP1 POP JUMP JUMPDEST PUSH2 0x5E6 DUP4 PUSH2 0x5B3 JUMP JUMPDEST PUSH2 0x5FA PUSH2 0x5F2 DUP3 PUSH2 0x5D4 JUMP JUMPDEST DUP5 DUP5 SLOAD PUSH2 0x559 JUMP JUMPDEST DUP3 SSTORE POP POP POP POP JUMP JUMPDEST PUSH0 SWAP1 JUMP JUMPDEST PUSH2 0x60E PUSH2 0x602 JUMP JUMPDEST PUSH2 0x619 DUP2 DUP5 DUP5 PUSH2 0x5DD JUMP JUMPDEST POP POP POP JUMP JUMPDEST JUMPDEST DUP2 DUP2 LT ISZERO PUSH2 0x63C JUMPI PUSH2 0x631 PUSH0 DUP3 PUSH2 0x606 JUMP JUMPDEST PUSH1 0x1 DUP2 ADD SWAP1 POP PUSH2 0x61F JUMP JUMPDEST POP POP JUMP JUMPDEST PUSH1 0x1F DUP3 GT ISZERO PUSH2 0x681 JUMPI PUSH2 0x652 DUP2 PUSH2 0x52C JUMP JUMPDEST PUSH2 0x65B DUP5 PUSH2 0x53E JUMP JUMPDEST DUP2 ADD PUSH1 0x20 DUP6 LT ISZERO PUSH2 0x66A JUMPI DUP2 SWAP1 POP JUMPDEST PUSH2 0x67E PUSH2 0x676 DUP6 PUSH2 0x53E JUMP JUMPDEST DUP4 ADD DUP3 PUSH2 0x61E JUMP JUMPDEST POP POP JUMPDEST POP POP POP JUMP JUMPDEST PUSH0 DUP3 DUP3 SHR SWAP1 POP SWAP3 SWAP2 POP POP JUMP JUMPDEST PUSH0 PUSH2 0x6A1 PUSH0 NOT DUP5 PUSH1 0x8 MUL PUSH2 0x686 JUMP JUMPDEST NOT DUP1 DUP4 AND SWAP2 POP POP SWAP3 SWAP2 POP POP JUMP JUMPDEST PUSH0 PUSH2 0x6B9 DUP4 DUP4 PUSH2 0x692 JUMP JUMPDEST SWAP2 POP DUP3 PUSH1 0x2 MUL DUP3 OR SWAP1 POP SWAP3 SWAP2 POP POP JUMP JUMPDEST PUSH2 0x6D2 DUP3 PUSH2 0x43A JUMP JUMPDEST PUSH8 0xFFFFFFFFFFFFFFFF DUP2 GT ISZERO PUSH2 0x6EB JUMPI PUSH2 0x6EA PUSH2 0x230 JUMP JUMPDEST JUMPDEST PUSH2 0x6F5 DUP3 SLOAD PUSH2 0x4FC JUMP JUMPDEST PUSH2 0x700 DUP3 DUP3 DUP6 PUSH2 0x640 JUMP JUMPDEST PUSH0 PUSH1 0x20 SWAP1 POP PUSH1 0x1F DUP4 GT PUSH1 0x1 DUP2 EQ PUSH2 0x731 JUMPI PUSH0 DUP5 ISZERO PUSH2 0x71F JUMPI DUP3 DUP8 ADD MLOAD SWAP1 POP JUMPDEST PUSH2 0x729 DUP6 DUP3 PUSH2 0x6AE JUMP JUMPDEST DUP7 SSTORE POP PUSH2 0x790 JUMP JUMPDEST PUSH1 0x1F NOT DUP5 AND PUSH2 0x73F DUP7 PUSH2 0x52C JUMP JUMPDEST PUSH0 JUMPDEST DUP3 DUP2 LT ISZERO PUSH2 0x766 JUMPI DUP5 DUP10 ADD MLOAD DUP3 SSTORE PUSH1 0x1 DUP3 ADD SWAP2 POP PUSH1 0x20 DUP6 ADD SWAP5 POP PUSH1 0x20 DUP2 ADD SWAP1 POP PUSH2 0x741 JUMP JUMPDEST DUP7 DUP4 LT ISZERO PUSH2 0x783 JUMPI DUP5 DUP10 ADD MLOAD PUSH2 0x77F PUSH1 0x1F DUP10 AND DUP3 PUSH2 0x692 JUMP JUMPDEST DUP4 SSTORE POP JUMPDEST PUSH1 0x1 PUSH1 0x2 DUP9 MUL ADD DUP9 SSTORE POP POP POP JUMPDEST POP POP POP POP POP POP JUMP INVALID LOG2 PUSH5 0x6970667358 0x22 SLT KECCAK256 ISZERO EXP SELFDESTRUCT SUB 0xC8 0xCC 0xB2 KECCAK256 SELFBALANCE PUSH8 0x763CA9A2551DC700 DUP10 PUSH13 0x6765B6BBF5D668F727D3554F64 PUSH20 0x6F6C634300081A00330000000000000000000000 "
				},
				"gasEstimates": {
					"creation": {
						"codeDepositCost": "399600",
						"executionCost": "434",
						"totalCost": "400034"
					},
					"external": {
						"movieInput(string,string,uint256)": "infinite",
						"movieMap(uint256)": "infinite"
					}
				},
				"methodIdentifiers": {
					"movieInput(string,string,uint256)": "60a587f7",
					"movieMap(uint256)": "d37ab8dd"
				}
			},
			"storageLayout": {
				"storage": [
					{
						"astId": 53,
						"contract": "Cook_Web3/Beginner_Chef/mapping/mapping.sol:mappingAssignment",
						"label": "movieMap",
						"offset": 0,
						"slot": "0",
						"type": "t_mapping(t_uint256,t_struct(Movie)48_storage)"
					}
				],
				"types": {
					"t_mapping(t_uint256,t_struct(Movie)48_storage)": {
						"encoding": "mapping",
						"key": "t_uint256",
						"label": "mapping(uint256 => struct mappingAssignment.Movie)",
						"numberOfBytes": "32",
						"value": "t_struct(Movie)48_storage"
					},
					"t_string_storage": {
						"encoding": "bytes",
						"label": "string",
						"numberOfBytes": "32"
					},
					"t_struct(Movie)48_storage": {
						"encoding": "inplace",
						"label": "struct mappingAssignment.Movie",
						"members": [
							{
								"astId": 45,
								"contract": "Cook_Web3/Beginner_Chef/mapping/mapping.sol:mappingAssignment",
								"label": "title",
								"offset": 0,
								"slot": "0",
								"type": "t_string_storage"
							},
							{
								"astId": 47,
								"contract": "Cook_Web3/Beginner_Chef/mapping/mapping.sol:mappingAssignment",
								"label": "director",
								"offset": 0,
								"slot": "1",
								"type": "t_string_storage"
							}
						],
						"numberOfBytes": "64"
					},
					"t_uint256": {
						"encoding": "inplace",
						"label": "uint256",
						"numberOfBytes": "32"
					}
				}
			},
			"userdoc": {
				"kind": "user",
				"methods": {},
				"version": 1
			}
		}
	}
}